:020000040800F2
:10000000E842002061020008CB1A00082519000808
:10001000C91A00083D04000851290008000000002A
:10002000000000000000000000000000A101000826
:100030006704000800000000FD0100083D260008DC
:100040007B0200087B0200087B0200087B0200089C
:100050007B0200087B0200087B0200087B0200088C
:100060007B0200087B0200087B0200087B0200087C
:100070007B0200087B0200087B0200087B0200086C
:100080007B0200087B0200087B0200087B0200085C
:100090007B0200087B0200087B0200087B0200084C
:1000A0007B0200087B0200087B0200087B0200083C
:1000B000FD2600087B0200087B0200087B02000886
:1000C0007B0200087B0200087B0200087B0200081C
:1000D0007B0200087B0200087B0200087B0200080C
:1000E0007B0200087B0200087B0200087B020008FC
:1000F0007B0200087B0200087B0200087B020008EC
:100100007B0200087B0200087B0200087B020008DB
:100110007B0200087B0200087B0200087B020008CB
:100120007B0200087B0200087B0200087B020008BB
:100130007B0200087B0200087B0200087B020008AB
:100140007B0200087B0200087B0200087B0200089B
:100150007B0200087B0200087B0200087B0200088B
:100160007B0200087B0200087B0200087B0200087B
:100170007B0200087B0200087B02000800000000F0
:100180007B0200087B020008DFF810D000F0EEF8D8
:1001900000480047DD290008AFF30080E842002056
:1001A0002C4B19680868B0E8F04F80F30988BFF35A
:1001B0006F8F4FF0000080F311887047000000003F
:1001C00008480068006880F308884FF0000080F35A
:1001D000148862B661B6BFF34F8FBFF36F8F00DF35
:1001E00000BF00BF08ED00E0DFF80C00016841F43B
:1001F00070010160704700BF88ED00E0EFF30980F7
:10020000BFF36F8F134B1A681EF0100F08BF20ED5D
:10021000108A20E9F04F106009B44FF0500080F3CD
:100220001188BFF34F8FBFF36F8F02F00FFF4FF0B6
:10023000000080F3118809BC19680868B0E8F04F25
:100240001EF0100F08BFB0EC108A80F30988BFF3CE
:100250006F8F704720000020EFF30580704700008B
:100260000648804706480047FEE7FEE7FEE7FEE750
:10027000FEE7FEE7FEE7FEE7FEE7FEE7ED26000805
:10028000890100082DE9F05F0546002092469B4653
:1002900088460646814640241BE02846414647469C
:1002A000224600F053F853465A46C01A914110D3E3
:1002B00011461846224600F03AF82D1A67EB01085D
:1002C0004F4622460120002100F031F817EB0009CB
:1002D0004E41201EA4F10104DFDC484631462A4687
:1002E0004346BDE8F09F40EA01039B0703D009E0C5
:1002F00008C9121F08C0042AFAD203E011F8013B12
:1003000000F8013B521EF9D27047D2B201E000F86A
:10031000012B491EFBD270470022F6E710B51346A9
:100320000A4604461946FFF7F0FF204610BD202A72
:1003300004DB203A00FA02F1002070479140C2F13C
:10034000200320FA03F3194390407047202A04DB6E
:10035000203A21FA02F00021704721FA02F3D0403E
:10036000C2F120029140084319467047064C074DE0
:1003700006E0E06840F0010394E807009847103475
:10038000AC42F6D3FFF704FF7C3900089C39000823
:100390000146014800F066BE8C00002010B50448FC
:1003A00000F072FE042801D0012010BD002010BD15
:1003B0008C00002010B500F015F8012801D00120B4
:1003C00010BD074800F076FE040006D14FF400612E
:1003D000034800F0EDFC00B10124204610BD0000F0
:1003E0008C00002008B501208DF800009DF8000069
:1003F00008BD0000134610B50A4601460024034814
:1004000000F0FAFE00B10124204610BD8C0000204F
:10041000024800220121406802F080BB0000002059
:10042000134610B50A4601460024034800F07AFF3F
:1004300000B10124204610BD8C000020FEE730B53D
:100440000468256825F48025256004686360836856
:10045000402B036803D099600068C26030BD9A6089
:100460000068C16030BD704772B6FEE7002200F040
:1004700001B8000030B50E4B054601205C7A002C17
:1004800014D1587A1C54587A03EB800045605D7A89
:1004900003F108002A54587A421C5A72303008700E
:1004A0003A2048702F208870CC70002030BD0000AA
:1004B000E8010020406D70472DE9F0410446866D4B
:1004C00090F83400002501280DD0012084F8340074
:1004D00094F835700020012F07D084F834000225ED
:1004E0002846BDE8F0810220FBE7022784F835703A
:1004F00060652046FFF7A3FF94F85C103F2088401A
:10050000B0602068016841F016010160206C20B1E4
:100510002068016841F0080101602068016841F02D
:1005200001010160DCE780B202F032BA2DE9F84F38
:10053000DFF8BCA10022012503264FF00F090AF1C4
:10054000040BAAF1040E00BF0B6805FA02F4234065
:10055000A34270D10F7907F00307012F01D0022FBA
:1005600016D187684FEA420806FA08FC27EA0C070A
:10057000D1F80CC00CFA08FC4CEA070CC0F808C013
:100580004768A7430C79C4F3001494403C4344608B
:100590000C79E443A4070AD0C4684FEA420C06FA77
:1005A0000CF7BC438F6807FA0CF72743C7600C7938
:1005B00004F00304022C12D1D40800EB840CDCF804
:1005C00020405707FF0E09FA07F824EA0804D1F87B
:1005D000108008FA07F848EA0408CCF8208004687C
:1005E0004FEA420C06FA0CF7BC430F7907F00307F9
:1005F00007FA0CF7274307604C6814F4403F70D0AB
:100600003C4C276847F480472760246822F00307A2
:1006100004F480440094384C07EB040CDCF80848E0
:1006200097074FEA177809FA08F7BC43334FB842E7
:1006300002D1002724E054E0314FB84201D1012714
:100640001EE0304FB84201D1022719E02E4FB842C8
:1006500001D1032714E02D4FB84201D104270FE048
:100660002B4FB84201D105270AE02A4FB84201D1E9
:10067000062705E0284FB84201D1072700E00827E8
:1006800007FA08F72743CCF80878DAF8004057460D
:10069000D1F804C09C435FEACC2C00D51C433C60DD
:1006A000DBF800405F46D1F804C09C435FEA8C2C25
:1006B00000D51C433C60DEF800407746D1F804C00A
:1006C0009C435FEA8C3C00D51C433C60084F083FCC
:1006D0003C68D1F804C09C435FEACC3C00D51C4385
:1006E0003C60521C102AFFF42FAFBDE8F88F0000C9
:1006F000083C014044380240003001400000024004
:100700000004024000080240000C024000100240B9
:100710000014024000180240001C02400AB181612E
:1007200070470904FBE7000001488068704700003B
:1007300010000020024881680278114481607047EF
:10074000100000200B4810B5016841F400710160F1
:10075000016841F480610160016841F480710160C9
:10076000032000F073F80F2000F006F800F024F8E2
:10077000002010BD003C024070B50D4D04464FF402
:100780007A712878B1FBF0F00A490968B1FBF0F002
:1007900000F058FE48B9102C07D200222146501E06
:1007A00000F034F800206C6070BD012070BD0000C6
:1007B000100000201C0000200C4882B0016841F4A9
:1007C00080410160006800F4804000900748001FED
:1007D000016841F0805101600068002200F0805003
:1007E00000900F21901E02B000F010B84438024073
:1007F000002809DB00F01F02012191404009800020
:1008000000F1E020C0F8001170470000F0B40E4B7A
:100810001B680C46C3F30223C3F10705042D00D95E
:100820000425191D072901D2002300E0DB1E012643
:1008300006FA05F1491E214099409E40761E164059
:100840003143F0BC02F085B80CED00E0064900F041
:10085000070208684FF6FF03184040EA0220034AE7
:1008600010430860704700000CED00E00000FA053E
:100870002DE9F0470E46050065D0DFF81481D8F861
:100880000000F7B200F00700B04207D288F800700D
:10089000D8F8000000F00700B04254D128683D4C61
:1008A000810712D5400703D5206840F4E05020604E
:1008B0002878000703D5206840F460402060206855
:1008C000A96820F0F000084320602878C0072DD0E8
:1008D000304968680839012812D0022813D003284B
:1008E00011D00968890700292DDA216821F0030158
:1008F00001432160FFF718FF814641F2883A0EE07C
:1009000009688903EFE709688901ECE7FFF70CFF45
:10091000A0EB0901514502D90320BDE8F08720680A
:10092000696800F00C00B0EB810FEFD1D8F800102F
:10093000404601F00701B14207D90770006800F096
:100940000700B04201D00120E7E72878400705D52D
:100950002068E96820F4E050084320602878000708
:1009600006D52068296920F4604040EAC100206073
:1009700000F038F82168084AC1F30311515CC840FF
:100980000649086006480068FFF7F6FE0020C4E745
:10099000003C024008380240643900081C00002076
:1009A000140000200448054900680968044AC1F39E
:1009B0008221515CC84070471C000020083802406A
:1009C000743900080448054900680968044AC1F3FD
:1009D0004231515CC84070471C000020083802407A
:1009E00074390008154810B5006810F00C0214485E
:1009F00013D04110042A0FD0082A0ED10F4C241F07
:100A00002268236802F03F025B0207D52068C0F32A
:100A10008810A0FB010106E0084610BD2168C1F363
:100A20008811A1FB00010023FFF72CFC2168C1F312
:100A30000141491C4900B0FBF1F010BD08380240EB
:100A40000024F4002DE9F84F04006ED02078DFF880
:100A50004C93C007A9F104054AD009F104000168CC
:100A6000C1F38101012908D00068C0F38100022888
:100A70000AD1D9F80000400206D52868800337D58E
:100A800060680028E1D033E06068B0F5803F10D0A6
:100A9000B0F5A02F286810D020F480302860286896
:100AA00020F4802028606068A8B1FFF73DFE06466C
:100AB0000DE0286840F48030F4E740F4802028609E
:100AC000F7E700BFFFF730FE801B642873D8286863
:100AD0008003F7D50CE0FFF727FE064605E000BFD0
:100AE000FFF722FE801B6428F0D828688003F7D423
:100AF0002078DFF8AC8280074FF0000A3ED5A74887
:100B0000001D016811F00C0F08D00068C0F38100CF
:100B100002280BD1D9F80000400207D428688007CA
:100B200016D5E068012800D112E033E1E068B8B1E1
:100B30000120C8F80000FFF7F7FD064605E000BFFA
:100B4000FFF7F2FD801B0228C0D828688007F7D580
:100B50002868216920F0F80040EAC10028600DE013
:100B6000C8F800A0FFF7E0FD064604E0FFF7DCFD53
:100B7000801B02281FD828688007F7D42078000738
:100B800022D5864F87486169703771B101210160B4
:100B9000FFF7CAFD064604E0FFF7C6FD801B0228EA
:100BA00009D838688007F7D50EE0C0F800A0FFF735
:100BB000BBFD064605E082E0FFF7B6FD801B02287C
:100BC0007DD838688007F7D42078400768D5DFF8EB
:100BD000CCB100270BF13C0BDBF80000C0000BD4BC
:100BE000DBF8001041F08051CBF80010DBF800007A
:100BF000012700F0805000906B4E3068C00510D483
:100C0000306840F480703060FFF78EFD009005E0A2
:100C1000FFF78AFD0099401A022850D83068C005B5
:100C2000F6D55E4EA0686C3601280FD005283068D6
:100C300010D020F001003060306820F004003060F7
:100C4000A068B8B1FFF770FD00900FE0306840F089
:100C50000100F4E740F004003060F7E7FFF764FDBF
:100C60000099411A41F28830814266D83068800785
:100C7000F4D50EE0FFF758FD009007E0FFF754FDB4
:100C80000099411A41F28830814256D83068800775
:100C9000F4D42FB1DBF8001021F08051CBF8001014
:100CA000A069C8B33D49091D0968C1F38101022942
:100CB0004AD00228504607D0C8F8600000E03CE067
:100CC000FFF732FD04463BE04746C8F86000FFF7F7
:100CD0002BFD064605E000BFFFF726FD801B02281E
:100CE0002BD828688001F7D4D4E907010843A16A0A
:100CF0002E4A490802EB0141626A41EA8211084327
:100D000094F82C1040EA0161C9F8001001203866FF
:100D1000FFF70AFD044606E03EE000BFFFF704FDD2
:100D2000001B022809D828688001F7D534E000BFED
:100D3000FFF7FAFC001B022802D90320BDE8F88F58
:100D400028688001F4D427E00128F7D0D9F8000002
:100D5000E26900F4800191421CD1226A00F03F0157
:100D6000914217D147F6C071626A0140B1EB821F10
:100D700010D1A26A4FF0FF3300F4403103EB52026E
:100D8000B1EB024F06D194F82C1000F07060B0EB7C
:100D9000016F01D00120D1E70020CFE704380240E5
:100DA00000004742800E4742007000400000FFFFF5
:100DB0002DE9FE430446002603200D4684F8340046
:100DC000606C03285ED0B5F5805F5BD04FF40067A0
:100DD00000204FF08068BD421FD1814600900190F5
:100DE0000021206800F088FE800113D46946204667
:100DF00001F026FA07000DD10198400334D5B4F86C
:100E000050000104206800F0A3FE070002D1022177
:100E1000206823E0A06B384328E01DB1A06B40F0B0
:100E2000006023E08146009001900021206800F0DE
:100E300063FE8001EED46946204601F001FA070006
:100E4000E8D10198C0030FD5B4F850000104206820
:100E500000F07EFE0700DDD10021206800F0C5FE15
:100E60000700D7D14F46D5E74746D3E7A063A06B2D
:100E7000144F4FF0010848B12068876384F834802C
:100E800001260EE0A06B40F08050EFE7211DD4E971
:100E9000050C0EC9CDE90050CDF808C0206800F05F
:100EA0002EFE4FF40071206800F086FE28B1216804
:100EB0008F63A16B0143A163012684F8348030461F
:100EC000BDE8FE83FF05400070470000F0B5426EAC
:100ED000920F0A70426EC2F383624A70426EC2F38E
:100EE00001628A70426E120CCA70B0F86420120A55
:100EF0000A7190F864204A71826E120DCA80826E67
:100F0000C2F303420A72B0F86820C2F3C0324A72D8
:100F1000B0F86820C2F380328A72B0F86820C2F359
:100F20004032CA72B0F86820C2F300320A73002659
:100F30004E73426C4FF40075012462B1012A3AD01D
:100F4000026847499163816B41F08051816380F869
:100F500034400120F0BDB0F86820C36E9205120D38
:100F600042EA93720A61C26EC2F3C2620A75C26E2D
:100F7000C2F302624A75C26EC2F342528A75C26EF1
:100F8000C2F38242CA75C26EC2F3C2320A760A69DD
:100F9000521C42650B7E03F007039B1C9A4042657E
:100FA0000B7A03F00F0704FA07F383655B0A5A43D1
:100FB000C0E917250EE090F86820C36E9206920AE9
:100FC00042EA13420A610A69521C92024265C0E970
:100FD0001652056630F86C2FC2F3803201F8192FD3
:100FE0000288C2F3C6124A70027802F07F028A7049
:100FF0004268D20FCA704268C2F341720A714268F5
:10100000C2F382624A714268C2F383528A714268B3
:10101000C2F34052CA710E724268C2F300424A7271
:101020008288C2F3C0328A728288C2F38032CA7266
:101030008288C2F340320A738288C2F300324A7354
:101040008288C2F381228A738288C2F30122CA7322
:101050000079C0F3460008744C740020F0BD000015
:10106000FF054000426C0A60826C4A60C26C8A6074
:10107000026DCA60426D0A61826D4A61C26D8A6109
:10108000006EC8610020704770B50446B0F850008B
:1010900000250104206800F090FE18B1A16B014307
:1010A000A16304E00021206800F026FD0546C5F399
:1010B000432070BD70B504000ED094F834000025B4
:1010C00018B92577204600F04DF8032084F8340045
:1010D000204600F00BF808B1012070BDA563256320
:1010E000012084F83400002070BD0000FEB500250A
:1010F000044676200095CDE901502B462A46294624
:10110000206800F0FCFC154E46F8A05F206800F057
:1011100008FD012535600220FFF705FA204601F0A1
:1011200077F928B184F83450A16B0143A16313E02F
:10113000204601F0F5F80028F4D14FF40071206842
:1011400000F03AFD002808D0226805499163A16BA0
:101150000143A16384F834500120FEBD0080254284
:10116000FF054000F0B587B0044614216846FFF73C
:10117000D3F81D492068884233D11C4800240168F7
:1011800041F400610160006800F4006005901748B8
:101190001438016841F004010160016801F00401A4
:1011A0000591016841F0080101600068022500F026
:1011B000080005904FF4F850CDE9000502AA032677
:1011C0000C2782E8D00069460948FFF7AFF90420F0
:1011D000CDE9000502AA694682E8D0000548FFF77C
:1011E000A5F907B0F0BD0000002C014044380240D2
:1011F00000080240000C02402DE9F04786B01F466F
:101200000446154639B194F83400012807D002206D
:1012100006B0BDE8F087A06B40F0006008E0002059
:10122000A063E36DEA199A4204D9A06B40F0007004
:10123000A06369E0032284F8342022688146D062EA
:101240002268D36B40F22A363343D363236C2F4A90
:10125000DA63236C2E4ADA64226C1065226C90608B
:10126000206C0068026822F0C002026020680A4612
:10127000266C4FEA472800F180014FEA9803304678
:10128000FFF71AF9DFF88CA0012670B12068C16B56
:1012900021F49571C1632168C1F838A0A06B40F0BA
:1012A0008040A06384F834602EE01B480660606CC8
:1012B000012800D06D024FF0FF30CDE900089020EA
:1012C000029002200596CDE903096946206800F0E6
:1012D000FDFB012F06D9822020632946206800F0FB
:1012E000DDFC05E0812020632946206800F0EFFC4A
:1012F00000288DD02268C2F838A0A16B0143A163F9
:1013000084F83460C4F83090012081E7F1210008AE
:101310008D210008FF0540008C85254210B5FFF7A0
:1013200077F810BD2DE9F04F5FEA010B87B01E463C
:101330000446114607D094F83400012807D0022053
:1013400007B0BDE8F08FA06B40F0006008E000251A
:10135000A563E26D8819904204D9A06B40F000703B
:10136000A06356E0032084F834002068C56220683A
:10137000C26B40F21A2942EA0902C263E26B2D48AD
:10138000D063E26B2C48D064E06B0565606C01288B
:1013900000D049024FF09008012E05D9A02020630B
:1013A000206800F055FD04E0C4F83080206800F0AB
:1013B00068FDDFF888A0012730B12268C2F838A0A4
:1013C000A16B0143A16321E01D480760E16B402050
:1013D0008860E06B0068016821F0C00141F04001C5
:1013E000016022687602B30859468032E06BFFF74D
:1013F00063F880B12068C16B21EA0901C1632168EB
:10140000C1F838A0A06B40F08040A06384F834702D
:101410002563012094E74FF0FF30CDE90006CDE9C8
:101420000285CDE904576946206800F04FFB002093
:1014300086E70000332200088D210008FF054000E8
:101440008C85254210B5401EB0F1807F01D301206C
:1014500010BD4FF0E02460610F21601701F079FAB0
:101460000020A06107202061002010BD7047704758
:1014700070B590F83C20012A32D0012480F83C401D
:10148000022280F83D2003685A689D6822F07006A9
:101490000A6832435A60134B02689A4214D0B2F180
:1014A000804F11D0104B9A420ED0104B9A420BD065
:1014B0000F4B9A4208D00F4B9A4205D00E4B9A42DE
:1014C00002D00E4B9A4204D1496825F0800319439B
:1014D000916080F83D40002180F83C10084670BDC6
:1014E000022070BD000001400004004000080040E0
:1014F000000C004000040140004001400018004082
:1015000010B5040003D094F83D0010B107E00120AD
:1015100010BD002084F83C00204600F01FF8022097
:1015200084F83D00211D206801F0EEF8012084F8C8
:10153000460084F83E0084F83F0084F8400084F8B8
:10154000410084F8420084F8430084F8440084F8A1
:10155000450084F83D00002010BD000008B500687B
:10156000B0F1804F12D10A48016841F001010160D9
:101570000068002200F00100009005211C20FFF708
:1015800045F9BDE808401C20FFF732B908BD00004E
:101590004038024090F83D10012901D001207047E9
:1015A000022180F83D1000681149884214D0B0F142
:1015B000804F11D00F4988420ED00F4988420BD07E
:1015C0000E49884208D00E49884205D00D4988420C
:1015D00002D00D49884204D1816801F00701062933
:1015E00003D0016841F00101016000207047000054
:1015F000000001400004004000080040000C0040D2
:1016000000040140004001400018004070B504464D
:1016100090F83C000025012817D0012684F83C6092
:10162000022084F83D002068826822F0770222F4CC
:101630007F4282600868502838D00DDC20284FD0C7
:1016400005DC90B3102811D14AE0022070BD30288B
:1016500046D040280AD13BE060282FD070280DD01A
:10166000B0F5805F03D0B0F5005F12D0012584F89B
:101670003D60002084F83C00284670BDCB68D1E96D
:101680000121206801F0A8F82068816841F0770105
:1016900009E0CB68D1E90121206801F09DF82068BC
:1016A000816841F480418160E1E719E0CA684968D6
:1016B000206801F0A3F85021206806E0CA68496854
:1016C000206801F0ACF86021206801F08FF8CEE7C7
:1016D000CA684968206801F091F840212068F4E761
:1016E000226801461046F0E770472DE9F0410446B4
:1016F0000068C66805694FF00007A90713D5B10750
:1017000011D5F91E016101202077206880698007CA
:10171000204602D0FFF7E8FF04E000F07EF8204604
:1017200000F07CF82777680716D5700714D5216874
:101730006FF004000861022020772068806910F4AF
:10174000407F204602D0FFF7CFFF04E000F065F8AD
:10175000204600F063F82777280715D5300713D502
:1017600021686FF008000861042020772068C069B4
:101770008007204602D0FFF7B7FF04E000F04DF8E5
:10178000204600F04BF82777E80616D5F00614D56A
:1017900021686FF010000861082020772068C06978
:1017A00010F4407F204602D0FFF79EFF04E000F0D7
:1017B00034F8204600F032F82777E80708D0F00721
:1017C00006D021686FF001000861204600F027F87C
:1017D000280608D5300606D521686FF0800008611C
:1017E0002046FFF743FE680608D5700606D5216837
:1017F0006FF040000861204600F012F8A8060AD5F4
:10180000B00608D521686FF0200008612046BDE8C9
:10181000F041FFF72CBEBDE8F0817047704770477C
:10182000704770B5040004D094F84100002510B151
:1018300006E0012070BD84F84050204600F024F8F6
:10184000242084F841002068C16821F40051C1605F
:10185000204600F0F7FF2068016921F49041016102
:101860002068416921F02A0141612068C16841F482
:101870000051C1606564202084F8410084F8420072
:101880006563002070BD0000F0B587B004461421E8
:101890006846FEF741FD1F4F236800221E490224BF
:1018A000032507261D48BB4213D11B4B14331F6869
:1018B00047F010071F601B6803F0100305930B68C7
:1018C00043F001030B60096801F001010591690211
:1018D00015E0134FBB421AD10F4B10331F6847F46A
:1018E00000371F601B6803F4003305930B6843F057
:1018F00001030B60096801F0010105910C21CDE99C
:10190000001402AB694683E86400FEF70FFE07B0DF
:10191000F0BD0000001001403038024000000240DD
:1019200000440040FEE7000010B504490448FEF7FB
:101930009DFD0249491E087010BD000009000020ED
:101940004039000870B586B014216846FEF7E4FC03
:101950001E480025016841F020010160016801F086
:1019600020010591016841F080010160016801F0EA
:1019700080010591016841F001010160016801F0F9
:1019800001010591016841F004010160016801F065
:1019900004010591016841F00801016000680C4EE6
:1019A00000F008004FF400740590002221463046F4
:1019B000FEF7B4FE0121CDE90041CDE902156946EB
:1019C0003046FEF7B3FD06B070BD0000303802406F
:1019D0000014024006480549016000214160816011
:1019E000C16001614161816170470000002C0140CC
:1019F0008C00002010B586B0002416480094019495
:101A00000294039404944FF08041059401602921CD
:101A1000C0E90114611EC0E9031480218161FFF750
:101A20006FFD08B1FEF720FD4FF48050009069462D
:101A30000848FFF7EBFD08B1FEF716FD049404A972
:101A400004480594FFF714FD002801D0FEF70CFDB3
:101A500006B010BD100100200C4810B50A49016005
:101A60004FF4E1314160002181600C22C160C0E986
:101A700004128161C161FFF7D4FE002803D0BDE8E4
:101A80001040FEF7F1BC10BD0010014058010020CD
:101A90000C4810B50A4901604FF4E1314160002162
:101AA00081600C22C160C0E904128161C161FFF74D
:101AB000B8FE002803D0BDE81040FEF7D5BC10BD2D
:101AC00000440040A0010020FEE7FEE70A684262F1
:101AD0004A688262D1E902231A43D1E904310B43F7
:101AE000C16A1A4321F0F7011143C1620020704717
:101AF000006800F00300704708444069704770B503
:101B00000DF1100C11439CE8700023431943294345
:101B10004268314347F6FF639A430A43426000201C
:101B200070BD0321016000207047D0F8800070472D
:101B30000A688260D1E901231A43D1E903310B43DA
:101B4000C1681A436FF30B011143C1600020704755
:101B500010B585B004463720CDE900104020029032
:101B6000002003904FF48060049069462046FFF700
:101B7000DFFF41F288323721204600F09BF905B0A3
:101B800010BD000010B504460A4885B00143292065
:101B9000CDE9001040200290002003904FF48060B7
:101BA000049069462046FFF7C3FF204600F03AFA4A
:101BB00005B010BD0000108010B585B0044610209F
:101BC000CDE9001040200290002003904FF4806087
:101BD000049069462046FFF7ABFF41F2883210219E
:101BE000204600F067F905B010BD10B585B0044679
:101BF0000620CDE9001040200290002003904FF411
:101C00008060049069462046FFF792FF41F28832D7
:101C10000621204600F04EF905B010BD30B585B064
:101C200000240546009401944FF480600294CDE9AD
:101C3000034069462846FFF77BFF0B484FF4FA51F3
:101C40000068B0FBF1F041F288314843401E03D2F6
:101C50004FF0004005B030BD696B0906F6D5C520D0
:101C6000A8632046F6E700001C00002010B585B0F0
:101C700004464FF4D5700090082001904020029057
:101C8000002003904FF48060049069462046FFF7DF
:101C90004FFF204600F02CFA05B010BD10B585B0FE
:101CA00004461220CDE9001040200290002003904D
:101CB0004FF48060049069462046FFF739FF41F2F7
:101CC00088321221204600F0F5F805B010BD10B59D
:101CD00085B004461120CDE900104020029000207C
:101CE00003904FF48060049069462046FFF720FF80
:101CF00041F288321121204600F0DCF805B010BD19
:101D000010B585B004460720CDE9002040200290A0
:101D1000002003904FF48060049069462046FFF74E
:101D200007FF41F288320721204600F0C3F805B0D2
:101D300010BD10B585B0044600210220CDE9001089
:101D4000C020CDE902014FF480600490694620462E
:101D5000FFF7EEFE204600F03DF905B010BD10B5CE
:101D600085B004460920CDE90010C0200290002073
:101D700003904FF48060049069462046FFF7D8FE38
:101D8000204600F027F905B010BD10B585B0044617
:101D900000213320CDE900104020CDE902010001EF
:101DA000049069462046FFF7C3FE41F28832332192
:101DB000204600F07FF805B010BD10B585B0044690
:101DC0000D20CDE9001040200290002003904FF438
:101DD0008060049069462046FFF7AAFE41F28832EF
:101DE0000D21204600F066F805B010BD30B585B075
:101DF0000C46054600210320CDE900104020CDE926
:101E000002010001049069462846FFF791FE224630
:101E10000321284600F028F905B030BD10B585B083
:101E2000044600210C20CDE900104020CDE902013C
:101E30000001049069462046FFF77AFE034A0C2110
:101E4000204600F037F805B010BD000000E1F505B0
:101E500010B585B004461920CDE90010402002904D
:101E6000002003904FF48060049069462046FFF7FD
:101E70005FFE41F288321921204600F01BF805B0C0
:101E800010BD10B585B004461820CDE900104020E3
:101E90000290002003904FF4806004906946204631
:101EA000FFF746FE41F288321821204600F002F882
:101EB00005B010BD454B10B51B684FF4FA54B3FB89
:101EC000F4F353435B1E02D24FF0004010BD426B4F
:101ED00012F0450FF6D01205F4D4426B520703D529
:101EE00004218163084610BD426BD20702D0012154
:101EF000816305E0C52282630269D2B28A4201D0C1
:101F0000012010BD0021FFF7F7FD3149084201D142
:101F1000002010BD002802DA4FF0007010BD410013
:101F200001D5402010BD810001D5802010BDC10029
:101F300002D54FF4807010BD010102D54FF400703E
:101F400010BD410102D54FF4806010BDC10102D522
:101F50004FF4006010BD010202D54FF4805010BD57
:101F6000410202D54FF4005010BD810202D54FF45A
:101F7000804010BDC10202D54FF4004010BD4103A6
:101F800002D54FF4003010BD810302D54FF48020FC
:101F900010BDC10302D54FF4002010BD010402D5CD
:101FA0004FF4801010BD410402D54FF4001010BD55
:101FB000810402D54FF4800010BD000702D54FF414
:101FC000000010BD4FF4803010BD00001C00002048
:101FD00008E0FFFD12494FF4FA520968B1FBF2F133
:101FE00041F288325143491E02D24FF000407047FF
:101FF000426B12F0450FF6D01205F4D4416B49073D
:1020000003D50421816308467047416BC90703D09B
:102010000121816308467047C52181630020704714
:102020001C0000200F494FF4FA520968B1FBF2F18D
:1020300041F288325143491E02D24FF000407047AE
:10204000426B12F0450FF6D01205F4D4416B4907EC
:1020500003D50421816308467047C52181630020B0
:10206000704700001C00002030B5204B4FF4FA549C
:102070001B68B3FBF4F341F2883463435B1E02D266
:102080004FF0004030BD446B14F0450FF6D02405EE
:10209000F4D4436B5B0703D504218163084630BD4C
:1020A000436BDB0702D00121816303E00369DBB2EC
:1020B0008B4201D0012030BDC52181630021FFF793
:1020C0001BFD10F4604F04D0410406D54FF40050BE
:1020D00030BD000C1080002030BD000402D54FF44C
:1020E000805030BD4FF4803030BD00001C00002017
:1020F00014494FF4FA520968B1FBF2F141F2883207
:102100005143491E02D24FF000407047426B12F01B
:10211000450FF6D01205F4D4416B490703D50421CD
:10212000816308467047416BC90703D00121816371
:1021300008467047416B490601D540218163002064
:10214000704700001C00002010B5064C01202070D4
:10215000FEF724F918B9207820F0010020702078CB
:1021600010BD00000000002070B5054600F06DFCB9
:10217000044603E0FEF712F9002806D000F065FCE3
:10218000001BA842F6D34FF0FF3070BD10B5846B32
:10219000FEF790F9022828D0206C416DE06B406D6D
:1021A000012901D001281DD12168104888632068C9
:1021B000C16B21F49D71C163A06B40F08040A063AE
:1021C0002046FEF761FF062801D0052805D12068CA
:1021D000FFF724FEA16B0843A063012084F83400BC
:1021E000002020632046FEF76FFE10BDFF05400073
:1021F00010B5846B206B822809D12068FFF70EFE92
:1022000028B1A16B0143A1632046FEF75DFE206863
:10221000C16A21F00801C162216840F23A50886326
:10222000012084F83400002020632046FFF776F870
:1022300010BD806B0068C16B41F48071C163704751
:102240002DE9F04788B00D460446FEF76DFA0026EA
:10225000824600960196374608212068FFF7ACFCBD
:1022600000282CD1B4F8500001042068FFF770FC5E
:10227000002824D1401E4FF00808CDE90208302084
:102280004FF00209CDE904090120CDE9067002A949
:102290002068FFF71BFC2068FFF777FD00280ED1B0
:1022A0006F462068416B11F02A0F0BD0416B090774
:1022B00002D4416B89051AD5C0F83880082008B0CF
:1022C000BDE8F087416B890205D5FFF72EFC47F882
:1022D0002600761C02E0416B8904E7D5FEF724FA5C
:1022E000A0EB0A00401CDCD14FF00040E7E7416B57
:1022F000890703D5C0F838900220E0E7416B8906D2
:1023000003D5202181630846D9E740F23A51816321
:10231000019800BA2860009800BA68600020CEE7F3
:1023200010B590B004460120ADF838002068FFF7E2
:10233000DFFB002854D0606C032842D02068FFF7F0
:10234000F8FC00284AD100212068FFF7D5FB606720
:1023500004212068FFF7D0FBA06708212068FFF761
:10236000CBFBE0670C212068FFF7C6FBC4F88000B8
:10237000606C032825D00EA92068FFF737FD0028E0
:102380002CD1606C03281CD0BDF8380020650104F6
:102390002068FFF7E4FC002820D100212068FFF727
:1023A000ABFB606604212068FFF7A6FBA06608214E
:1023B0002068FFF7A1FBE0660C212068FFF79CFB7B
:1023C000206704212068FFF797FB000DE06403A954
:1023D0002046FEF77BFD30B14FF0805010B010BDAD
:1023E0004FF08060FAE7B4F8500000230204206840
:1023F000FFF786FC0028F1D104F1100007C88DE832
:10240000070094E80F00FFF77AFB0020E6E70000E2
:102410002DE9F84F0026044600963546B046006880
:10242000FFF7FCFB002827D12068FFF71FFC4FF0C7
:10243000805B4FF001094FF6FF7748B1A664206832
:10244000FFF7ECFB002817D1A06C012802D020E098
:10245000C4F8489000212068FFF77AFB58B918E0CB
:1024600000212068FFF774FB002805D15146206841
:10247000FFF788FB10B15846BDE8F88F00212068AF
:10248000FFF73AFB05464FEAD0780098401C0090D1
:1024900002E0DFF82CA00098B84202D2B8F1000F99
:1024A000DED00098B84202D34FF08070E4E76800B5
:1024B00002D5C4F8449000E066640020DCE7000028
:1024C000000010C17FB5124C05460120207000F0BD
:1024D000B3FAC8B1FDF76EFF18B92846FFF734FE0E
:1024E0002070207801280FD0606868B9094B0FCBA5
:1024F0008DE80F000021684600F0B3FA606018B95B
:10250000207840F001002070207804B070BD0000F9
:10251000000000205439000810B5124888B0144655
:102520000078C00702D0032008B010BDC1B1012956
:1025300005D0022908D003290CD00420F4E768460E
:10254000FDF726FF06980AE06846FDF721FF079889
:10255000208005E06846FDF71BFF0798400A2060D1
:102560000020E1E7000000202DE9FE4347F230544F
:102570001E461746884601252046FFF7F5FD002830
:102580001EDB324639464046FDF734FFC0B90F48DE
:1025900022464168684600F077FADDE9001010290C
:1025A0000ED101280CD100F050FA064603E000BF1E
:1025B000FDF7F4FE38B100F048FA801BA042F7D3D3
:1025C0002846BDE8FE830025FAE700000000002051
:1025D000FFF7BABD2DE9FE4347F230541D461746BA
:1025E000884601262046FFF7BFFD00281EDB2A464D
:1025F00039464046FDF714FFC0B90F4822464168EE
:10260000684600F041FADDE9001010290ED10228D9
:102610000CD100F01AFA054603E000BFFDF7BEFE3C
:1026200038B100F012FA401BA042F7D33046BDE8A3
:10263000FE830026FAE700000000002010B5FEF738
:1026400079F801F013F8012803D0BDE8104000F03C
:102650002BBD10BD30B593B030216846FDF75CFE50
:1026600014210CA8FDF758FE1E480025016841F012
:1026700080510160006800F0805011901A48016894
:1026800041F4804101600068022400F48040119010
:1026900001200090000401908001CDE9064008204F
:1026A00008904FF4A870CDE9090407200B90684604
:1026B000FEF7C8F908B172B6FEE70CA90F2081E851
:1026C00031004FF4C0500F904FF48050109005210E
:1026D0000CA8FEF7CDF8002801D072B6FEE713B0C3
:1026E00030BD0000403802400070004002480168E0
:1026F00041F470010160704788ED00E00148FEF789
:10270000F4BF000010010020F0B50268274B284DEF
:10271000284E294F294C4FF0804C984209D06045F3
:1027200007D0A84205D0B04203D0B84201D0A042A1
:1027300004D122F0700E4A6842EA0E0298421BD081
:10274000604519D0A84217D0B04215D0B84213D076
:10275000A04211D01A4DA8420ED01A4DA8420BD05B
:10276000194DA84208D0194DA84205D0184DA842CD
:1027700002D0184DA84203D122F44075CA682A43FA
:102780004D6922F080022A438D68C5620D6885621A
:10279000984201D0A04201D109690163016841F06A
:1027A00004010160012141610260F0BD00000140AF
:1027B0000004004000080040000C004000040140FC
:1027C0000040014000440140004801400018004022
:1027D000001C00400020004010B5846842EA03223B
:1027E00024F47F440A432243826010BD826822F0B1
:1027F00070020A4342F007018160704710B5036A16
:10280000046A24F001040462846924F0F00444EAB8
:10281000021423F00A020A438461026210BD10B55B
:10282000036A046A24F010040462846923F0A0039C
:1028300024F4704444EA023243EA011182610162E5
:1028400010BD000070B5044600680169E26821F41B
:102850004051114301612169A068E269084361693F
:10286000114308432168CA6849F20C639A43024342
:10287000CA6020684169A26921F440711143416135
:1028800031492068884202D03049884202D1FEF79F
:1028900099F801E0FEF786F8E26900231921642522
:1028A0003226B2F5004F626828D0A0FB0101930FD9
:1028B0009200FDF7E7FC0146B0FBF5F06FF018025F
:1028C000504301EB800006EB0010B0FBF5F000F088
:1028D000F002B1FBF5F002EB0012B1FBF5F06FF086
:1028E0001803584301EB800006EB0010B0FBF5F035
:1028F00000F00F0021681044886070BDA0FB01014A
:1029000092185B41FDF7BEFC0146B0FBF5F00201F9
:10291000B1FBF5F06FF01803584301EB800006EBB4
:10292000C000B0FBF5F000F0F80002EB4002B1FB94
:10293000F5F0584301EB800006EBC000B0FBF5F06A
:1029400000F00700D6E7000000100140001401402D
:10295000FEE70907090E002804DB00F1E02080F8FB
:102960000014704700F00F0000F1E02080F8141D03
:10297000704702E008C8121F08C1002AFAD1704748
:102980007047002001E001C1121F002AFBD17047EF
:102990004FF47A71484300F001B8000070B54FF071
:1029A000E024002265690949A36909684843A169CF
:1029B0009942FCD002D2A3EB010302E0A5EB010691
:1029C00033441A440B468242F1D370BD8800002084
:1029D000EFF30580002800D001207047FDF7B2FE1C
:1029E000FFF738FEFEF7AEFFFEF7F4FFFFF702F841
:1029F000FFF732F8FFF74CF8FEF796FF0B48FEF7AB
:102A0000C9FD0B4C0B4D4FF4007600223146204699
:102A1000FDF784FE2846FFF7C1FF0122314620461C
:102A2000FDF77CFE2846FFF7B9FFEEE71001002016
:102A30000014024040420F0010B500F017FE0128BC
:102A400001D0012010BD002010BD10B5FFF7C0FF60
:102A500018B1BDE8104000F01DBEBDE8104000F008
:102A600013BE38B5D0E9011204683AB1C3682BB17E
:102A700000200090204600F04EFB38BD2046BDE807
:102A80003840002200F026BB2DE9FF410D004FF039
:102A90000006CDE9016507461ED000240396501CB0
:102AA0001FD002B11446FFF793FF69464FF010089C
:102AB000E8B103AA2846091D00F050FD012813D0F3
:102AC00000960398E8B114494FF080500860BFF3B6
:102AD0004F8FBFF36F8F14E0802031462A4600905D
:102AE00011E04FF0FF34DEE7CDF80080E9E7224641
:102AF0002846091D00F096FC012808D054B140205A
:102B000000909DE8070087E80700BDE8FF81CDF849
:102B10000080F6E70020F3E704ED00E037B5054656
:102B200082B000200090140000D10124FFF750FF74
:102B30004FF0000388B16A4603A9284600F012FC52
:102B4000012811D1009890B10A494FF080500860D7
:102B5000BFF34F8FBFF36F8F09E0224603A92846CA
:102B600000F050FB012802D0FF2005B030BD00204E
:102B7000FBE7000004ED00E02DE9F041184C0F46A2
:102B80000546E6682068001D00F092F938B9206813
:102B900090F82C1001208840216981432161681C34
:102BA00007D137B12168BDE8F0410E48091D00F09A
:102BB000B5B920683544B5424560216805D2A06B9F
:102BC000BDE8F041091D00F091B9606B091D00F0EE
:102BD0008DF9A06A854200D2A562BDE8F0810000AF
:102BE00020000020D002002030B4026C0B46002AE6
:102BF0000BD0C1681144C1608468A14201D301684F
:102C0000C16030BC1846FDF76EBB30BC70472DE983
:102C1000F041856B174604460026026C82B1C7B1AD
:102C2000E068FDF760FBE168206C091AE16022684A
:102C3000914202D2A168081AE060022F16D017E074
:102C40002068A8B9A06800F093FD06460020A060A7
:102C50000EE06068FDF747FB216C60680844606027
:102C6000A168884204D32068606001E005B16D1E50
:102C70006D1CA5633046BDE8F081000010484FF49C
:102C80007051420706D0C01D0D4920F00700411ABF
:102C9000C1F570510B4A00230144C2E90003083911
:102CA000183A21F0070111604B600B600B1AC0E964
:102CB000001393604FF00040536050617047000074
:102CC000E4020020740000200346009829B102604D
:102CD000C0E90F31012100F051BA0060F8E70000AF
:102CE00030B5114900E011460A688242FBD34B68B7
:102CF0005C18844203D14068184448600846436821
:102D00001C18944209D1084C183C2468A24209D0EE
:102D100052681A4442600A6812680260814200D018
:102D2000086030BD0460F9E77400002010B5044667
:102D300000F000F9A06B28B15FF0000400F01AF970
:102D4000204610BD0124F9E70648416B096829B106
:102D5000416BC968C9684968816270474FF0FF31AB
:102D6000FAE70000200000202DE9F041044600F0C1
:102D7000E1F894F9455004F1240609E0606A48B18D
:102D8000304600F041FD08B100F03AF96D1E6DB219
:102D9000002DF3DC4FF0FF3684F8456000F0EAF8D0
:102DA00000F0C8F894F9445004F1100709E02069D4
:102DB00048B1384600F028FD08B100F021F96D1E39
:102DC0006DB2002DF3DC84F84460BDE8F04100F002
:102DD000D1B800002DE9F0410546002700F02EF99A
:102DE000324E306808B9FFF749FF706905424ED18D
:102DF000C5B3083568070ED005F00700C0F108001C
:102E00000544680707D0502080F31188BFF34F8F27
:102E1000BFF36F8FFEE72DB37068854237D8234824
:102E2000183001460C6801E020460C466168A94252
:102E300002D221680029F7D131688C4227D0076877
:102E40002168016060680837411B10290FD960199B
:102E5000420708D0502080F31188BFF34F8FBFF393
:102E60006F8FFEE713E041606560FFF739FF61682F
:102E70007068401A7060B268904200D2B0607069A9
:102E800001430020C4E90001F068401CF06000F03C
:102E9000F5FC780707D0502080F31188BFF34F8FDF
:102EA000BFF36F8FFEE73846BDE8F0815C0000207D
:102EB000D0E9013201699A60D0E901235A604A6879
:102EC000824201D182684A60002202610868401E85
:102ED00008600868704700F108014FF0FF32C0E950
:102EE0000112C160016100210160704730B50B68BB
:102EF0005A1C02D000F1080202E0026904E02246F6
:102F0000546825689D42FAD953684B6099608A607D
:102F1000516008610168491C016030BD42684A6027
:102F200093688B6093685960916008610168491CDF
:102F300001607047502080F31188BFF34F8FBFF3BB
:102F40006F8F0A494868401C486001280CD1084826
:102F5000006810F0FF0F07D0502080F31188BFF3F6
:102F60004F8FBFF36F8FFEE7704700007C0000209B
:102F700004ED00E00849486828B1401E486001D1CE
:102F800080F311887047502080F31188BFF34F8F72
:102F9000BFF36F8FFEE700007C00002010B5FDF747
:102FA0005BF9114910280ED300F1E02090F8F003EE
:102FB0000A78904207D2502080F31188BFF34F8FD8
:102FC000BFF36F8FFEE709480068896800F4E0608E
:102FD000884207D9502080F31188BFF34F8FBFF389
:102FE0006F8FFEE710BD00007C0000200CED00E0BC
:102FF00002490A6A0260C9684160704720000020E7
:1030000001490120C86170472000002010B50C461E
:1030100050B1094909681831FFF768FF2046BDE83B
:1030200010400121FFF7A8BD502080F31188BFF3A5
:103030004F8FBFF36F8FFEE7200000200248016B27
:10304000491C016370470000200000201448016BF8
:1030500011B10121C16170470021C1610169B1FA5B
:1030600081F1C1F11F0101EB81020E4951F82230BB
:103070006BB101EB820101F108034A6852684A60B2
:103080009A4201D152684A60D1680160704750206D
:1030900080F31188BFF34F8FBFF36F8FFEE70000FF
:1030A00020000020F401002010B5502080F311888A
:1030B000BFF34F8FBFF36F8F00F0F4FA18B10449DC
:1030C0004FF080500860002080F3118810BD000090
:1030D00004ED00E0F8B517460E46050013D005FBD9
:1030E00006F04830FFF776FE04000AD0002084F88E
:1030F000460004F148023B46314628460094FFF75B
:10310000E3FD2046F8BD502080F31188BFF34F8FB8
:10311000BFF36F8FFEE738B5049D18B153B1CAB144
:1031200081B120E0502080F31188BFF34F8FBFF3AF
:103130006F8FFEE7502080F31188BFF34F8FBFF3EE
:103140006F8FFEE7502080F31188BFF34F8FBFF3DE
:103150006F8FFEE739B1502080F31188BFF34F8F96
:10316000BFF36F8FFEE748241C46012384F84630E6
:103170002B460094FFF7A8FD204638BD70B50D46DC
:10318000040025D0FFF7D6FED4E90F20216802FB0A
:103190000011A1600021A163216861600A46D4E9A1
:1031A0000F01401E00FB0121E16021464FF0FF307E
:1031B00001F8440F487004F110008DB1FFF78BFE49
:1031C00004F12400FFF787FEFFF7D4FE012070BD55
:1031D000502080F31188BFF34F8FBFF36F8FFEE74E
:1031E00021690029F0D000F00FFB0028ECD0044941
:1031F0004FF080500860BFF34F8FBFF36F8FE3E74E
:1032000004ED00E02DE9FF4782B01D468A464FF0ED
:103210000008040003D0BAF1000F08D011E05020DC
:1032200080F31188BFF34F8FBFF36F8FFEE7206CE1
:1032300038B1502080F31188BFF34F8FBFF36F8FE9
:10324000FEE7022D0AD1E06B012807D0502080F361
:103250001188BFF34F8FBFF36F8FFEE700F006FAC0
:103260003F4F4FF000094FF0805648B9049838B1ED
:10327000502080F31188BFF34F8FBFF36F8FFEE7AD
:10328000FFF758FEA06BE16B884207D3022D05D0F3
:103290000498D0B1B8F1000F1AD01EE02A4651466A
:1032A0002046FFF7B4FC616A19B104F1240000F074
:1032B000ABFA20B13E60BFF34F8FBFF36F8FFFF7C4
:1032C00059FE012006B0BDE8F087FFF753FE22E06B
:1032D0006846FFF78DFE4FF00108FFF74BFEFFF742
:1032E000ADFEFFF727FE94F94400401C01D184F89D
:1032F000449094F94500401C01D184F84590FFF7B3
:1033000039FE04A9684600F077F930B12046FFF78E
:103310002BFD00F0B3FA0020D4E7FFF70BFEA06B03
:10332000E16B884213D1FFF725FE04F110000499E8
:10333000FFF76CFE2046FFF717FD00F09FFA00280C
:103340009ED13E60BFF34F8FBFF36F8F98E7FFF7BB
:1033500011FE2046FFF708FD00F090FA90E700000C
:1033600004ED00E02DE9F0471F4690468946040031
:1033700003D0B9F1000F08D011E0502080F311887C
:10338000BFF34F8FBFF36F8FFEE7206C38B1502033
:1033900080F31188BFF34F8FBFF36F8FFEE7022FCB
:1033A0000AD1E06B012807D0502080F31188BFF3C9
:1033B0004F8FBFF36F8FFEE7FFF7F0FD5020EFF365
:1033C000118680F31188BFF34F8FBFF36F8FA06B0F
:1033D000E16B884206D3022F04D0002086F31188C7
:1033E000BDE8F08794F94550A06B3A46494620461F
:1033F000FFF70DFC681C04D06D1C84F845500120BB
:10340000ECE7606A0028FAD004F1240000F0FCF92F
:103410000028F4D0B8F1000FF1D00121C8F8001055
:10342000EDE700002DE9F747002683B08A46040047
:1034300003D0BAF1000F08D011E0502080F31188BA
:10344000BFF34F8FBFF36F8FFEE7206C38B1502072
:1034500080F31188BFF34F8FBFF36F8FFEE700F04B
:1034600005F9DFF8F4804FF000094FF0805748B9B4
:10347000059838B1502080F31188BFF34F8FBFF308
:103480006F8FFEE7FFF756FDA56BC5B1514620468D
:10349000FFF7AAFB6D1EA563206950B104F110006F
:1034A00000F0B2F928B1C8F80070BFF34F8FBFF336
:1034B0006F8FFFF75FFD012006B0BDE8F08705982C
:1034C00008B11EB106E0FFF755FD27E06846FFF79B
:1034D0008FFD0126FFF74EFDFFF7B0FDFFF72AFD38
:1034E00094F94400401C01D184F8449094F94500BB
:1034F000401C01D184F84590FFF73CFD05A96846C2
:1035000000F07AF8002820460AD0FFF72DFC00F0E2
:10351000B5F92046FFF70AFC0028B3D00020CBE71E
:10352000FFF704FC90B104F124000599FFF76EFD4C
:103530002046FFF719FC00F0A1F90028A2D1C8F835
:103540000070BFF34F8FBFF36F8F9BE72046FFF7ED
:103550000BFC00F093F995E704ED00E02DE9F0474E
:1035600090468946040003D0B9F1000F08D011E05D
:10357000502080F31188BFF34F8FBFF36F8FFEE7AA
:10358000206C38B1502080F31188BFF34F8FBFF308
:103590006F8FFEE7FFF702FD5020EFF3118680F3F7
:1035A0001188BFF34F8FBFF36F8FA76BF7B194F9FB
:1035B000445049462046FFF717FB7F1EA763681C4F
:1035C00004D06D1C84F84450012010E020690028CC
:1035D000FAD004F1100000F017F90028F4D0B8F187
:1035E000000FF1D00121C8F80010EDE7002086F3AC
:1035F0001188BDE8F08700002DE9F0410C46050078
:1036000011D0C4B1FFF796FC174BDA686E682068DA
:10361000911B471C17D02F681B6A9F4219D09642F6
:1036200017D8012410E0502080F31188BFF34F8F8A
:10363000BFF36F8FFEE7502080F31188BFF34F8FE9
:10364000BFF36F8FFEE70024FFF794FC2046BDE830
:10365000F081884205D9401A20602846FFF7C8FC4F
:10366000F1E700202060DCE72000002005484169E8
:1036700019B1006B18B1002070470120704702207B
:1036800070470000200000200148C068704700001B
:103690002000002010B5FFF781FC0148C06810BD74
:1036A000200000202DE9F0412F4C0026206B28B18E
:1036B000A069401CA0613046BDE8F081E5686D1C42
:1036C000E56013D1606B006838B1502080F3118839
:1036D000BFF34F8FBFF36F8FFEE7606BA16B61632A
:1036E000A063206A401C2062FFF72EFBA06ADFF86F
:1036F0007C80854209D3606B0068A0B1606BC068B4
:10370000C7687868854211D2A0622068C06A00EB61
:10371000800158F82100012800D90126E06900281D
:10372000C9D00126C7E74FF0FF30EDE7381DFFF79E
:10373000BFFBB86A18B107F11800FFF7B9FBF96AC7
:103740000120226988401043206101EB810108EBD0
:103750008100391DFFF7E2FBF86A2168C96A8842D7
:10376000C9D30126C7E7000020000020F401002093
:1037700070B504004FF0000140D0214D286884420C
:1037800007D0502080F31188BFF34F8FBFF36F8FA6
:10379000FEE7A06C38B1401EA064636CE26A9A42F6
:1037A0002CD040B12AE0502080F31188BFF34F8F16
:1037B000BFF36F8FFEE7201DFFF77AFB114A01214F
:1037C00050B9E06A00EB800352F8233023B92B692B
:1037D00001FA00F083432B61606CE062C0F10700E6
:1037E000A061E06A2B6981401943296100EB8000E8
:1037F00002EB8000211DFFF791FB0121084670BDFF
:1038000020000020F40100202DE9F041C068C468C8
:10381000ACB104F118000746FFF74AFB154D286BC1
:103820000126A0B139461448FFF778FBE06A296801
:10383000C96A88421CD90120EE61BDE8F0815020A0
:1038400080F31188BFF34F8FBFF36F8FFEE7201D0A
:10385000FFF72EFBE16A2A6906FA01F0104328619E
:1038600001EB81000449B43901EB8000211DDBE745
:103870000020E2E720000020A80200202DE9F04708
:103880002C4D00242746286B38B1FFF753FB286BDB
:10389000401E2863286B40B146E0502080F3118819
:1038A000BFF34F8FBFF36F8FFEE7A968224E012051
:1038B000D1B3A6F1B40980463068E8B1F068C468B5
:1038C00004F11800FFF7F4FA201DFFF7F1FAE06A9F
:1038D0002A6908FA00F11143296100EB800109EB24
:1038E0008100211DFFF71AFBE06A2968C96A884236
:1038F000E2D3C5F81C80DFE70CB1FFF725FAAC690D
:1039000044B14646FFF7CEFE00B1EE61641EF9D128
:103910000020A861E86938B1084901273807086024
:10392000BFF34F8FBFF36F8FFFF724FB3846BDE81F
:10393000F087000020000020A802002004ED00E035
:10394000C5240008D125000869250008D5250008F0
:10395000192500080A000000020000000000000015
:10396000000000000000000000000000010203044D
:103970000607080900000000010203049C39000842
:10398000000000208C00000072290008283A00087E
:103990008C0000205C420000822900080100000029
:1039A0000000000000000000000000000100000016
:1039B00010000000000000000024F40000000000DF
:1039C00000000000000000000000000000000000F7
:1039D00000000000000000000000000000000000E7
:1039E00000000000000000000000000000000000D7
:1039F00000000000000000000000000000000000C7
:103A000000000000000000000000000000000000B6
:103A1000000000000000000000000000AAAAAAAAFE
:083A200000000000000000009E
:040000050800018965
:00000001FF
