:020000040800F2
:10000000200600206102000807130008D51100082F
:10001000051300086D030008DB160008000000004F
:10002000000000000000000000000000A101000826
:100030009503000800000000FD01000809130008F6
:100040007B0200087B0200087B0200087B0200089C
:100050007B0200087B0200087B0200087B0200088C
:100060007B0200087B0200087B0200087B0200087C
:100070007B0200087B0200087B0200087B0200086C
:100080007B0200087B0200087B0200087B0200085C
:100090007B0200087B0200087B0200087B0200084C
:1000A0007B0200087B0200087B0200087B0200083C
:1000B000C91300087B0200087B0200087B020008CD
:1000C0007B0200087B0200087B0200087B0200081C
:1000D0007B0200087B0200087B0200087B0200080C
:1000E0007B0200087B0200087B0200087B020008FC
:1000F0007B0200087B0200087B0200087B020008EC
:100100007B0200087B0200087B0200087B020008DB
:100110007B0200087B0200087B0200087B020008CB
:100120007B0200087B0200087B0200087B020008BB
:100130007B0200087B0200087B0200087B020008AB
:100140007B0200087B0200087B0200087B0200089B
:100150007B0200087B0200087B0200087B0200088B
:100160007B0200087B0200087B0200087B0200087B
:100170007B0200087B0200087B02000800000000F0
:100180007B0200087B020008DFF810D000F0DCF8EA
:1001900000480047B9190008AFF30080200600208E
:1001A0002C4B19680868B0E8F04F80F30988BFF35A
:1001B0006F8F4FF0000080F311887047000000003F
:1001C00008480068006880F308884FF0000080F35A
:1001D000148862B661B6BFF34F8FBFF36F8F00DF35
:1001E00000BF00BF08ED00E0DFF80C00016841F43B
:1001F00070010160704700BF88ED00E0EFF30980F7
:10020000BFF36F8F134B1A681EF0100F08BF20ED5D
:10021000108A20E9F04F106009B44FF0500080F3CD
:100220001188BFF34F8FBFF36F8F01F01FFC4FF0AA
:10023000000080F3118809BC19680868B0E8F04F25
:100240001EF0100F08BFB0EC108A80F30988BFF3CE
:100250006F8F704710000020EFF30580704700009B
:100260000648804706480047FEE7FEE7FEE7FEE750
:10027000FEE7FEE7FEE7FEE7FEE7FEE7B91300084C
:10028000890100082DE9F05F0546002092469B4653
:1002900088460646814640241BE02846414647469C
:1002A000224600F041F853465A46C01A914110D3F5
:1002B00011461846224600F028F82D1A67EB01086F
:1002C0004F4622460120002100F01FF817EB0009DD
:1002D0004E41201EA4F10104DFDC484631462A4687
:1002E0004346BDE8F09FD2B201E000F8012B491E61
:1002F000FBD270470022F6E710B513460A460446C3
:100300001946FFF7F0FF204610BD202A04DB203AF3
:1003100000FA02F1002070479140C2F1200320FA58
:1003200003F3194390407047202A04DB203A21FA56
:1003300002F00021704721FA02F3D040C2F12002FE
:100340009140084319467047064C074D06E0E068A7
:1003500040F0010394E8070098471034AC42F6D30C
:10036000FFF716FFF41B0008141C0008FEE700004E
:100370000648016841F0807101600548016841F05C
:10038000010101600021416070470000FCED00E0C8
:10039000001000E0704772B6FEE700002DE9F84F4C
:1003A000DFF8BCA10022012503264FF00F090AF156
:1003B000040BAAF1040E00BF0B6805FA02F42340F7
:1003C000A34270D10F7907F00307012F01D0022F4C
:1003D00016D187684FEA420806FA08FC27EA0C079C
:1003E000D1F80CC00CFA08FC4CEA070CC0F808C0A5
:1003F0004768A7430C79C4F3001494403C4344601D
:100400000C79E443A4070AD0C4684FEA420C06FA08
:100410000CF7BC438F6807FA0CF72743C7600C79C9
:1004200004F00304022C12D1D40800EB840CDCF895
:1004300020405707FF0E09FA07F824EA0804D1F80C
:10044000108008FA07F848EA0408CCF8208004680D
:100450004FEA420C06FA0CF7BC430F7907F003078A
:1004600007FA0CF7274307604C6814F4403F70D03C
:100470003C4C276847F480472760246822F0030734
:1004800004F480440094384C07EB040CDCF8084872
:1004900097074FEA177809FA08F7BC43334FB84279
:1004A00002D1002724E054E0314FB84201D10127A6
:1004B0001EE0304FB84201D1022719E02E4FB8425A
:1004C00001D1032714E02D4FB84201D104270FE0DA
:1004D0002B4FB84201D105270AE02A4FB84201D17B
:1004E000062705E0284FB84201D1072700E008277A
:1004F00007FA08F72743CCF80878DAF8004057469F
:10050000D1F804C09C435FEACC2C00D51C433C606E
:10051000DBF800405F46D1F804C09C435FEA8C2CB6
:1005200000D51C433C60DEF800407746D1F804C09B
:100530009C435FEA8C3C00D51C433C60084F083F5D
:100540003C68D1F804C09C435FEACC3C00D51C4316
:100550003C60521C102AFFF42FAFBDE8F88F00005A
:10056000083C014044380240003001400000024095
:100570000004024000080240000C0240001002404B
:100580000014024000180240001C0240426921EAA7
:1005900002030A4043EA0241816170470AB1816166
:1005A00070470904FBE700000148806870470000BD
:1005B0000000002002488168027811448160704781
:1005C000000000200B4810B5016841F40071016083
:1005D000016841F480610160016841F4807101604B
:1005E000032000F073F80F2000F006F800F024F864
:1005F000002010BD003C024070B50D4D04464FF484
:100600007A712878B1FBF0F00A490968B1FBF0F083
:1006100000F00EFB48B9102C07D200222146501ED4
:1006200000F034F800206C6070BD012070BD000047
:10063000000000200C0000200C4882B0016841F44A
:1006400080410160006800F4804000900748001F6E
:10065000016841F0805101600068002200F0805084
:1006600000900F21901E02B000F010B844380240F4
:10067000002809DB00F01F020121914040098000A1
:1006800000F1E020C0F8001170470000F0B40E4BFC
:100690001B680C46C3F30223C3F10705042D00D9E0
:1006A0000425191D072901D2002300E0DB1E0126C5
:1006B00006FA05F1491E214099409E40761E1640DB
:1006C0003143F0BC01F01AB80CED00E0064900F02F
:1006D000070208684FF6FF03184040EA0220034A69
:1006E00010430860704700000CED00E00000FA05C0
:1006F0002DE9F0470E46050065D0DFF81481D8F8E3
:100700000000F7B200F00700B04207D288F800708E
:10071000D8F8000000F00700B04254D128683D4CE2
:10072000810712D5400703D5206840F4E0502060CF
:100730002878000703D5206840F4604020602068D6
:10074000A96820F0F000084320602878C0072DD069
:10075000304968680839012812D0022813D00328CC
:1007600011D00968890700292DDA216821F00301D9
:1007700001432160FFF718FF814641F2883A0EE0FD
:1007800009688903EFE709688901ECE7FFF70CFFC7
:10079000A0EB0901514502D90320BDE8F08720688C
:1007A000696800F00C00B0EB810FEFD1D8F80010B1
:1007B000404601F00701B14207D90770006800F018
:1007C0000700B04201D00120E7E72878400705D5AF
:1007D0002068E96820F4E05008432060287800078A
:1007E00006D52068296920F4604040EAC1002060F5
:1007F00000F038F82168084AC1F30311515CC84081
:100800000649086006480068FFF7F6FE0020C4E7C6
:10081000003C024008380240DC1B00080C000020AD
:10082000040000200448054900680968044AC1F32F
:100830008221515CC84070470C00002008380240FB
:10084000EC1B00080448054900680968044AC1F324
:100850004231515CC84070470C000020083802400B
:10086000EC1B0008154810B5006810F00C02144885
:1008700013D04110042A0FD0082A0ED10F4C241F88
:100880002268236802F03F025B0207D52068C0F3AC
:100890008810A0FB010106E0084610BD2168C1F3E5
:1008A0008811A1FB00010023FFF7ECFC2168C1F3D4
:1008B0000141491C4900B0FBF1F010BD083802406D
:1008C0000024F4002DE9F84F04006ED02078DFF802
:1008D0004C93C007A9F104054AD009F1040001684E
:1008E000C1F38101012908D00068C0F3810002280A
:1008F0000AD1D9F80000400206D52868800337D510
:1009000060680028E1D033E06068B0F5803F10D027
:10091000B0F5A02F286810D020F480302860286817
:1009200020F4802028606068A8B1FFF73DFE0646ED
:100930000DE0286840F48030F4E740F4802028601F
:10094000F7E700BFFFF730FE801B642873D82868E4
:100950008003F7D50CE0FFF727FE064605E000BF51
:10096000FFF722FE801B6428F0D828688003F7D4A4
:100970002078DFF8AC8280074FF0000A3ED5A74808
:10098000001D016811F00C0F08D00068C0F3810051
:1009900002280BD1D9F80000400207D4286880074C
:1009A00016D5E068012800D112E033E1E068B8B163
:1009B0000120C8F80000FFF7F7FD064605E000BF7C
:1009C000FFF7F2FD801B0228C0D828688007F7D502
:1009D0002868216920F0F80040EAC10028600DE095
:1009E000C8F800A0FFF7E0FD064604E0FFF7DCFDD5
:1009F000801B02281FD828688007F7D420780007BA
:100A000022D5864F87486169703771B10121016035
:100A1000FFF7CAFD064604E0FFF7C6FD801B02286B
:100A200009D838688007F7D50EE0C0F800A0FFF7B6
:100A3000BBFD064605E082E0FFF7B6FD801B0228FD
:100A40007DD838688007F7D42078400768D5DFF86C
:100A5000CCB100270BF13C0BDBF80000C0000BD43D
:100A6000DBF8001041F08051CBF80010DBF80000FB
:100A7000012700F0805000906B4E3068C00510D404
:100A8000306840F480703060FFF78EFD009005E024
:100A9000FFF78AFD0099401A022850D83068C00537
:100AA000F6D55E4EA0686C3601280FD00528306858
:100AB00010D020F001003060306820F00400306079
:100AC000A068B8B1FFF770FD00900FE0306840F00B
:100AD0000100F4E740F004003060F7E7FFF764FD41
:100AE0000099411A41F28830814266D83068800707
:100AF000F4D50EE0FFF758FD009007E0FFF754FD36
:100B00000099411A41F28830814256D830688007F6
:100B1000F4D42FB1DBF8001021F08051CBF8001095
:100B2000A069C8B33D49091D0968C1F381010229C3
:100B30004AD00228504607D0C8F8600000E03CE0E8
:100B4000FFF732FD04463BE04746C8F86000FFF778
:100B50002BFD064605E000BFFFF726FD801B02289F
:100B60002BD828688001F7D4D4E907010843A16A8B
:100B70002E4A490802EB0141626A41EA82110843A8
:100B800094F82C1040EA0161C9F800100120386681
:100B9000FFF70AFD044606E03EE000BFFFF704FD54
:100BA000001B022809D828688001F7D534E000BF6F
:100BB000FFF7FAFC001B022802D90320BDE8F88FDA
:100BC00028688001F4D427E00128F7D0D9F8000084
:100BD000E26900F4800191421CD1226A00F03F01D9
:100BE000914217D147F6C071626A0140B1EB821F92
:100BF00010D1A26A4FF0FF3300F4403103EB5202F0
:100C0000B1EB024F06D194F82C1000F07060B0EBFD
:100C1000016F01D00120D1E70020CFE70438024066
:100C200000004742800E4742007000400000FFFF76
:100C300010B5401EB0F1807F01D3012010BD4FF0F0
:100C4000E02460610F21601700F058FD0020A061D2
:100C500007202061002010BD7047704770B590F8E4
:100C60003C20012A32D0012480F83C40022280F846
:100C70003D2003685A689D6822F070060A68324376
:100C80005A60134B02689A4214D0B2F1804F11D0CF
:100C9000104B9A420ED0104B9A420BD00F4B9A42F7
:100CA00008D00F4B9A4205D00E4B9A4202D00E4B01
:100CB0009A4204D1496825F080031943916080F875
:100CC0003D40002180F83C10084670BD022070BDF8
:100CD000000001400004004000080040000C0040FB
:100CE00000040140004001400018004010B504001D
:100CF00003D094F83D0010B107E0012010BD0020A2
:100D000084F83C00204600F01FF8022084F83D00E3
:100D1000211D206800F05EFB012084F8460084F865
:100D20003E0084F83F0084F8400084F8410084F8D5
:100D3000420084F8430084F8440084F8450084F8B5
:100D40003D00002010BD000008B50068B0F1804FE4
:100D500012D10A48016841F00101016000680022D7
:100D600000F00100009005211C20FFF78FFCBDE87A
:100D700008401C20FFF77CBC08BD00004038024042
:100D800090F83D10012901D001207047022180F820
:100D90003D1000681149884214D0B0F1804F11D045
:100DA0000F4988420ED00F4988420BD00E49884225
:100DB00008D00E49884205D00D49884202D00D491D
:100DC000884204D1816801F00701062903D0016837
:100DD00041F0010101600020704700000000014067
:100DE0000004004000080040000C004000040140E6
:100DF000004001400018004001680A6A41F21113E6
:100E00001A4207D10A6A9B101A4203D10A6822F0DB
:100E100001020A60012180F83D100020704770B582
:100E2000044690F83C000025012817D0012684F8DC
:100E30003C60022084F83D002068826822F077023E
:100E400022F47F4282600868502838D00DDC2028C8
:100E50004FD005DC90B3102811D14AE0022070BDBC
:100E6000302846D040280AD13BE060282FD0702897
:100E70000DD0B0F5805F03D0B0F5005F12D0012532
:100E800084F83D60002084F83C00284670BDCB68A3
:100E9000D1E90121206800F005FB2068816841F05C
:100EA000770109E0CB68D1E90121206800F0FAFA66
:100EB0002068816841F480418160E1E719E0CA68F7
:100EC0004968206800F000FB5021206806E0CA68ED
:100ED0004968206800F009FB6021206800F0ECFA06
:100EE000CEE7CA684968206800F0EEFA4021206821
:100EF000F4E7226801461046F0E770472DE9F0411B
:100F000004460068C66805694FF00007A90713D5B5
:100F1000B10711D5F91E0161012020772068806991
:100F20008007204602D0FFF7E8FF04E000F07EF8DB
:100F3000204600F07CF82777680716D5700714D58F
:100F400021686FF004000861022020772068806922
:100F500010F4407F204602D0FFF7CFFF04E000F0FE
:100F600065F8204600F063F82777280715D5300785
:100F700013D521686FF008000861042020772068ED
:100F8000C0698007204602D0FFF7B7FF04E000F0F9
:100F90004DF8204600F04BF82777E80616D5F00606
:100FA00014D521686FF010000861082020772068B0
:100FB000C06910F4407F204602D0FFF79EFF04E096
:100FC00000F034F8204600F032F82777E80708D020
:100FD000F00706D021686FF001000861204600F09C
:100FE00027F8280608D5300606D521686FF080005E
:100FF00008612046FFF730FE680608D5700606D562
:1010000021686FF040000861204600F012F8A80641
:101010000AD5B00608D521686FF020000861204687
:10102000BDE8F041FFF719BEBDE8F0817047704799
:101030007047704770B5040004D094F84100002553
:1010400010B106E0012070BD84F84050204600F049
:1010500023F8242084F841002068C16821F400515D
:10106000C160204600F07AFA2068016921F49041BD
:1010700001612068416921F02A0141612068C1684D
:1010800041F40051C1606564202084F8410084F877
:1010900042006563002070BDF0B587B0044614219E
:1010A0006846FFF727F91F4F236800221E490224D4
:1010B000032507261D48BB4213D11B4B14331F6861
:1010C00047F010071F601B6803F0100305930B68BF
:1010D00043F001030B60096801F001010591690209
:1010E00015E0134FBB421AD10F4B10331F6847F462
:1010F00000371F601B6803F4003305930B6843F04F
:1011000001030B60096801F0010105910C21CDE993
:10111000001402AB694683E86400FFF73FF907B0AB
:10112000F0BD0000001001403038024000000240D5
:10113000004400402DE9F843044690F841009846E9
:1011400016460D46202802D00220BDE8F88385B15E
:101150007EB100206064212084F84100FFF724FA6A
:10116000A6848146E684A0682027B0F5805F02D07F
:1011700003E00120E9E7206910B12E4600250EE0CA
:1011800000260CE08021204600F06EFAA8B9C6B116
:1011900016F8010B21684860E08C401EE084E08C6A
:1011A0004B464FF00002CDF800800028EAD14FF006
:1011B0004001204600F058FA40B184F84170032005
:1011C000C3E735F8020BC0F30800E3E784F8417089
:1011D0000020BAE7FEE7000070B586B0142168462B
:1011E000FFF788F81E480025016841F020010160E2
:1011F000016801F020010591016841F08001016062
:10120000016801F080010591016841F00101016070
:10121000016801F001010591016841F004010160DC
:10122000016801F004010591016841F008010160C5
:1012300000680C4E00F008004FF400740590002286
:1012400021463046FFF7AAF90121CDE90041CDE959
:10125000021569463046FFF7A1F806B070BD0000E0
:10126000303802400014024010B586B00024164801
:10127000009401940294039404944FF080410594E7
:1012800001605321C0E90114611EC0E903148461A7
:10129000FFF72CFD08B1FFF77EF84FF48050009067
:1012A00069460948FFF7BBFD08B1FFF774F80494DD
:1012B00004A905480594FFF7D1FC002801D0FFF7E9
:1012C0006AF806B010BD0000540000200C4810B5AC
:1012D0000A4901604FF4E1314160002181600C2234
:1012E000C160C0E904128161C161FFF7A3FE00285B
:1012F00003D0BDE81040FFF74EB810BD001001400C
:101300009C000020FEE7FEE710B5FFF753F900F060
:10131000F1FB012803D0BDE8104000F0D5BB10BDA3
:1013200030B593B030216846FEF7E4FF14210CA8D5
:10133000FEF7E0FF1E480025016841F08051016082
:10134000006800F0805011901A48016841F4804113
:1013500001600068022400F4804011900120009098
:10136000000401908001CDE90640082008904FF468
:10137000A870CDE9090407200B906846FFF7A2FA90
:1013800008B172B6FEE70CA90F2081E831004FF4D6
:10139000A0500F904FF48050109005210CA8FFF73B
:1013A000A7F9002801D072B6FEE713B030BD0000E7
:1013B00040380240007000400248016841F470016A
:1013C0000160704788ED00E00148FFF797BD00001D
:1013D00054000020F0B50268274B284D284E294FB5
:1013E000294C4FF0804C984209D0604507D0A84264
:1013F00005D0B04203D0B84201D0A04204D122F0BF
:10140000700E4A6842EA0E0298421BD0604519D01D
:10141000A84217D0B04215D0B84213D0A04211D084
:101420001A4DA8420ED01A4DA8420BD0194DA84211
:1014300008D0194DA84205D0184DA84202D0184D29
:10144000A84203D122F44075CA682A434D6922F0AC
:1014500080022A438D68C5620D688562984201D07A
:10146000A04201D109690163016841F004010160F2
:10147000012141610260F0BD000001400004004014
:1014800000080040000C0040000401400040014002
:10149000004401400048014000180040001C00408A
:1014A0000020004010B5846842EA032224F47F44FF
:1014B0000A432243826010BD826822F070020A4310
:1014C00042F007018160704710B5036A046A24F096
:1014D00001040462846924F0F00444EA021423F055
:1014E0000A020A438461026210BD10B5036A046AED
:1014F00024F010040462846923F0A00324F47044EF
:1015000044EA023243EA01118261016210BD0168BE
:101510000C3151E8002F22F4907241E80023002B97
:10152000F5D10168143151E8002F22F0010241E8A1
:101530000023002BF5D1016B012909D101680C3181
:1015400051E8002F22F0100241E80023002BF5D1D2
:10155000202180F8421000210163704770B50446D5
:1015600000680169E26821F4405111430161216979
:10157000A068E26908436169114308432168CA68A9
:1015800049F20C639A430243CA6020684169A26928
:1015900021F440711143416131492068884202D0F1
:1015A0003049884202D1FFF74DF901E0FFF73AF9DF
:1015B000E2690023192164253226B2F5004F6268E2
:1015C00028D0A0FB0101930F9200FEF75BFE0146BD
:1015D000B0FBF5F06FF01802504301EB800006EB12
:1015E0000010B0FBF5F000F0F002B1FBF5F002EBFB
:1015F0000012B1FBF5F06FF01803584301EB8000C7
:1016000006EB0010B0FBF5F000F00F00216810446D
:10161000886070BDA0FB010192185B41FEF732FEAD
:101620000146B0FBF5F00201B1FBF5F06FF01803D5
:10163000584301EB800006EBC000B0FBF5F000F072
:10164000F80002EB4002B1FBF5F0584301EB8000DB
:1016500006EBC000B0FBF5F000F00700D6E7000095
:1016600000100140001401402DE9F8439846174648
:101670000D460446089E24E0701C22D0FEF794FF1D
:10168000A0EB0800B0421AD8CEB12068C168490763
:1016900017D5802D15D0402D13D00168C9430907F7
:1016A0000FD401680025406800902046FFF72FFF07
:1016B0000820606484F840500120BDE8F8830320CE
:1016C000FBE72068006835EA000004D00020B8423B
:1016D000D2D00020F1E70120F9E7FEE70FB4054B77
:1016E00010B503A9044A029800F028F810BC5DF870
:1016F00014FB0000A1190008500000200907090E82
:10170000002804DB00F1E02080F80014704700F0AE
:101710000F0000F1E02080F8141D704702E008C8B7
:10172000121F08C1002AFAD170477047002001E05B
:1017300001C1121F002AFBD1704700002DE9FF4FA5
:101740008BB09A460F460446002606E025280BD0AB
:1017500052460D999047641C761C20780028F5D1DC
:101760000FB03046BDE8F08F0025A94601227D4923
:1017700000E0054314F8013F203B02FA03F0084261
:10178000F7D120782E2817D114F8010F45F0040561
:101790002A280ED06FF02F022078A0F130010929FD
:1017A0000AD809EB890102EB410100EB0109641C35
:1017B000F2E757F8049B641C20786C280DD004DCF9
:1017C0004C2812D06A2811D104E074280DD07A2850
:1017D0000CD10AE045F4001507E0617845F4801566
:1017E000814202D1641C05F58015641C20786928AB
:1017F0003ED006DC0028B3D063280BD0642804D187
:1018000036E0732810D075285CD052460D99904769
:10181000761CA5E017F8040B8DF8000000208DF869
:101820000100E846012003E057F8048B4FF0FF3039
:1018300069074FF0000501D40AE06D1C4D450DDA33
:101840008542FADB18F805100029F6D106E06D1C78
:101850008542FCDB18F805100029F8D12E4404E07D
:1018600018F8010B52460D9990476D1EF8D277E09B
:1018700000200A90C5F302504FF00A0B02280CD04A
:1018800001CFC117021E71F100020CDA0023D0EB68
:10189000030063EB01012D2208E0FF1D27F007077D
:1018A000F7E80201EEE72A0504D52B228DF8242063
:1018B000012203E0EA070FD02022F7E70DF120080C
:1018C000089218E000200A90C5F302504FF00A0B6E
:1018D000022803D001CF00210022EFE7FF1D27F0EF
:1018E0000707F7E80201F7E75A460A9BFEF7CAFC2A
:1018F000303208F8012D50EA0102F5D1ADEB0800B5
:1019000000F1200B680701D44FF00109D94502DD31
:10191000A9EB0B0000E000208146002506E009A8A5
:101920005246405D0D9990476D1C761C0898854283
:10193000F5DB04E0302052460D999047761CB9F152
:101940000001A9F10109F5DC05E018F8010B524688
:101950000D999047761CBBF10001ABF1010BF4DC53
:10196000641CFAE60928010001490860704700007C
:101970004C00002010B504000FD00848FFF700FA13
:1019800006480021026851620068416AA142FCD306
:10199000BDE810400148FFF72FBA10BD54000020E9
:1019A00013B54FF6FF73012269460248FFF7C2FBE9
:1019B00000981CBD9C000020FEF704FEFFF7B0FC61
:1019C000FFF70AFCFFF750FCFFF780FCA820FFF7A9
:1019D000CBFFFEF7CDFC074D074E4FF400742146B8
:1019E0002846FEF7D3FD3046FFF7C4FF03A0FFF7FC
:1019F00075FEF4E70014024040420F0048656C6C2D
:101A00006F20576F726C64210D0A00000648416B0D
:101A1000096829B1416BC968C96849688162704722
:101A20004FF0FF31FAE7000010000020D0E901324A
:101A300001699A60D0E901235A604A68824201D163
:101A400082684A60002202610868401E08600868D7
:101A5000704742684A6093688B60936859609160F0
:101A600008610168491C0160704700001448016B5F
:101A700011B10121C16170470021C1610169B1FA51
:101A800081F1C1F11F0101EB81020E4951F82230B1
:101A90006BB101EB820101F108034A6852684A60A8
:101AA0009A4201D152684A60D16801607047502063
:101AB00080F31188BFF34F8FBFF36F8FFEE70000F5
:101AC000100000202C01002010B5502080F3118858
:101AD000BFF34F8FBFF36F8F00F01AF818B10449AE
:101AE0004FF080500860002080F3118810BD000086
:101AF00004ED00E00548416919B1006B18B1002000
:101B0000704701207047022070470000100000203D
:101B10002DE9F0412F4C0026206B28B1A069401C14
:101B2000A0613046BDE8F081E5686D1CE56013D129
:101B3000606B006838B1502080F31188BFF34F8F7D
:101B4000BFF36F8FFEE7606BA16B6163A063206AD8
:101B5000401C2062FFF75AFFA06ADFF87C808542B4
:101B600009D3606B0068A0B1606BC068C768786813
:101B7000854211D2A0622068C06A00EB800158F84B
:101B80002100012800D90126E0690028C9D00126DA
:101B9000C7E74FF0FF30EDE7381DFFF747FFB86AA2
:101BA00018B107F11800FFF741FFF96A0120226917
:101BB00088401043206101EB810108EB8100391D51
:101BC000FFF747FFF86A2168C96A8842C9D301262E
:101BD000C7E70000100000202C01002000000000DA
:101BE00000000000010203040607080900000000CD
:101BF00001020304141C000800000020540000002F
:101C00001C170008681C000854000020CC050000C8
:101C10002C17000801000000100000000000000068
:101C20000024F4000000000000000000000000009C
:101C300000000000000000000000000000000000A4
:101C40000000000000000000000000000000000094
:101C50000000000000000000000000000000000084
:081C600000000000000000007C
:040000050800018965
:00000001FF
