:020000040800F2
:100000000848002061020008E73C00089F3400080F
:10001000E53C00086D0B0008855700080000000053
:10002000000000000000000000000000A101000826
:10003000990E000800000000FD010008894F00082B
:100040007B0200087B0200087B0200087B0200089C
:100050007B0200087B0200087B0200087B0200088C
:100060007B0200087B0200087B0200087B0200087C
:100070007B0200087B0200087B0200087B0200086C
:10008000DD0D0008E90D00087B0200087B02000876
:100090007B0200087B0200087B0200087B0200084C
:1000A0007B0200087B0200087B0200087B0200083C
:1000B000495000087B0200087B0200087B02000810
:1000C0007B0200087B0200087B0200087B0200081C
:1000D0007B0200087B020008795700087B020008B9
:1000E0007B0200087B0200087B0200087B020008FC
:1000F0007B0200087B0200087B0200087B020008EC
:100100007B0200087B0200087B0200087B020008DB
:100110007B0200087B0200087B0200087B020008CB
:100120007B0200087B0200087B0200087B020008BB
:100130007B0200087B0200087B0200087B020008AB
:100140007B0200087B0200087B0200087B0200089B
:100150007B0200087B0200087B0200087B0200088B
:100160007B0200087B0200087B0200087B0200087B
:100170007B0200087B0200087B02000800000000F0
:100180007B0200087B020008DFF810D000F05AFB69
:100190000048004729930008AFF30080084800207A
:1001A0002C4B19680868B0E8F04F80F30988BFF35A
:1001B0006F8F4FF0000080F311887047000000003F
:1001C00008480068006880F308884FF0000080F35A
:1001D000148862B661B6BFF34F8FBFF36F8F00DF35
:1001E00000BF00BF08ED00E0DFF80C00016841F43B
:1001F00070010160704700BF88ED00E0EFF30980F7
:10020000BFF36F8F134B1A681EF0100F08BF20ED5D
:10021000108A20E9F04F106009B44FF0500080F3CD
:100220001188BFF34F8FBFF36F8F09F0F3FE4FF0CC
:10023000000080F3118809BC19680868B0E8F04F25
:100240001EF0100F08BFB0EC108A80F30988BFF3CE
:100250006F8F704798000020EFF305807047000013
:100260000648804706480047FEE7FEE7FEE7FEE750
:10027000FEE7FEE7FEE7FEE7FEE7FEE7395000088F
:10028000890100082DE9F05F0546002092469B4653
:1002900088460646814640241BE02846414647469C
:1002A000224600F01BF953465A46C01A914110D31A
:1002B00011461846224600F002F92D1A67EB010894
:1002C0004F4622460120002100F0F9F817EB000903
:1002D0004E41201EA4F10104DFDC484631462A4687
:1002E0004346BDE8F09F40EA01039B0703D009E0C5
:1002F00008C9121F08C0042AFAD203E011F8013B12
:1003000000F8013B521EF9D27047D2B201E000F86A
:10031000012B491EFBD270470022F6E710B51346A9
:100320000A4604461946FFF7F0FF204610BD421C5E
:1003300010F8011B0029FBD1801A70472DE9FE4FF0
:1003400081EA030404F0004421F0004100944FF0DE
:10035000000B23F0004350EA01045ED052EA03048C
:100360005BD0C3F30A54C1F30A552C44A4F2F3340E
:100370000194A0FB0254C1F3130141F48011C3F3B3
:10038000130343F4801301FB024400FB034E840A71
:10039000970A44EA815447EA8357A4FB0768029509
:1003A0008D0A05FB07854FEA932C04FB0C542705A7
:1003B000029D4FEA065847EA1637B5EB08056EEB83
:1003C000070C870E920E47EA811742EA8312A7FBB9
:1003D0000201B6EB0B0164EB00042B0D43EA0C3376
:1003E0005E1844EB1C50DA465146E7FB0201C5F3A8
:1003F00013044FEA0B3343EA14534FEA0432019CCF
:1004000043EA0603A4F10C040294009CCDE900B475
:1004100000F083F803B0BDE8F08F00200146F9E753
:100420000EB540F2334102910021CDE900110A4698
:100430000B4600F072F803B000BDC1F30A5210B5CC
:10044000C1F3130140F2FF3341F480119A4201DA03
:10045000002010BD40F233439A42A2F2334203DC43
:10046000524200F03BF810BD904010BD00F0004239
:1004700030F000400AD0C10D01F56071C0F31600E4
:1004800042EA0151C208400711437047002001466B
:10049000704730B50B46014600202022012409E0B8
:1004A00021FA02F59D4205D303FA02F5491B04FA2D
:1004B00002F52844151EA2F10102F1DC30BD202A0C
:1004C00004DB203A00FA02F1002070479140C2F1AB
:1004D000200320FA03F3194390407047202A04DBDD
:1004E000203A21FA02F00021704721FA02F3D040AD
:1004F000C2F12002914008431946704710B5141EFE
:1005000073F1000408DA401C41F1000192185B41CC
:100510001A4301D120F0010010BD2DE9F04D9246A3
:100520009B4611B1B1FA81F202E0B0FA80F22032BA
:100530009046FFF7C4FF04460F4640EA0A0041EA2E
:100540000B0153465A46084313D0114653EA0100A3
:1005500019D0C8F140025046FFF7C0FF05460E46CD
:10056000504659464246FFF7AAFF084305D00120EE
:1005700004E020463946BDE8F08D0020054346EAF8
:10058000E0762C4337430A986305E40AA0EB0800A1
:100590000022FD0A44EA47540A3002D500200146F1
:1005A000E9E7010510196941DDE9084500196941CC
:1005B000BDE8F04DA2E72DE9FE4F804681EA030039
:1005C000C00F0C46009021F0004123F00045B8EB2D
:1005D0000200A94105D24046214690461C460B46E2
:1005E000024623F00040104347D0270DC7F30A000E
:1005F000C3F30A510290401A019040286BDAC3F30A
:10060000130040F4801B0098924620B10023D2EBE7
:10061000030A63EB0B0B01985946C0F140025046A8
:10062000FFF74DFF06460D4650465946019A00F029
:100630001BF910EB08006141002487EA115284EA9B
:10064000E7731A4340D0009A62B3019A012A4FEA35
:10065000075215DC001B61EB02014FF0004202EA79
:100660000752CDE90042001C41F5801132462B466D
:10067000FFF753FF03B0BDE8F08F40462146F9E78E
:10068000001B61EB0201001C41F5801300185B4167
:100690002018A2F5001747EB030140EAD570B61900
:1006A0006D4111E06D084FEA360645EAC0754FEA24
:1006B0000752001B61EB0201001C41F58011490843
:1006C0004FEA30000019514132462B4603B0BDE8D5
:1006D000F04FFFF713BF0098012240000023D0EB3A
:1006E000020263EBE073009821464FEAE074B8EB36
:1006F000000061EB0401E9E783F000435BE781F070
:10070000004158E72DE9F04D81EA030404F0004B65
:1007100021F0004514464FF0000A23F0004150EA52
:10072000050220D054EA01021DD0C5F30A57024643
:10073000C5F31303C1F31300C1F30A5640F4801547
:1007400043F48013A7EB0608101BD64608F2FD38C9
:1007500073EB050002D308F1010801E092185B4138
:10076000B8F1000F03DA00200146BDE8F08D00204B
:100770004FF48011064684460EE0171B73EB050705
:1007800005D3121B63EB050306434CEA010C490831
:100790004FEA300092185B4150EA0107EDD152EA6E
:1007A000030012D082EA040083EA0501084305D061
:1007B000101BAB4106D20122002306E000224FF0BD
:1007C000004302E06FF0010253101AEB06004CEBFD
:1007D000085110EB0A0041EB0B01BDE8F04DFFF7AB
:1007E0008DBEC1F30A52C1F3130140F2FF3341F44D
:1007F00080119A4202DA00200146704740F23343EA
:100800009A42A2F2334202DC5242FFF767BEFFF780
:1008100056BE000030B5041E71F1000404DB4FF039
:100820000044404264EB0101141E73F1000405DB37
:100830001C464FF00043524263EB0403994208BF49
:10084000904230BD064C074D06E0E06840F00103E1
:1008500094E8070098471034AC42F6D3FFF798FCB1
:10086000BCDE0008DCDE0008202A06DBCB17203ABD
:1008700041FA02F043EAE07306E041FA02F3D040A5
:10088000C2F12002914008431946704710B5114942
:10089000002090B00871C87048700F4C02464FF4A9
:1008A0008071204601F053F900226115204601F0C5
:1008B0004EF9032209A1684604F076FF6846FFF767
:1008C00036FD82B2642369460F4802F097FD10B0EE
:1008D00010BD0000680100200014024021212120E9
:1008E000414C41524D20434C454152454420212129
:1008F0002120284E6F726D616C2025642074696D13
:100900006573290D0A000000BC05002001488078AD
:1009100070470000680100200148C078704700005F
:1009200068010020104910B50B7C002003B10120A4
:100930004A7C02B1401C8C7C04B1401CC97C01B1D2
:10094000401C022801D3052010BD0BB1012010BDB1
:100950000AB1022010BD0CB1032010BD09B1042062
:1009600010BD002010BD0000680100200148007883
:10097000704700006801002001484078704700007F
:1009800068010020014800797047000068010020DC
:1009900070B501201A4CACB01A4D2071024601020C
:1009A000284601F0D4F801225102284601F0CFF880
:1009B0001822154925A8FFF796FCE068FFF756FDB9
:1009C00005460E46A068FFF751FD02460520029538
:1009D000CDE90360CDE90021607825A951F82020F8
:1009E0000A4905A804F0E0FE05A8FFF7A0FC82B2C2
:1009F000642305A9064802F001FD2CB070BD00007B
:100A00006801002000140240FCDC0008F8DD00084A
:100A1000BC05002070B5294CB4EEC10AF1EE10FA05
:100A200084ED020AC4ED030A01DB012100E000218C
:100A3000B4EEE10A2174F1EE10FA01D8012000E0D1
:100A40000020F4EEC20A6074F1EE10FA01DB01221C
:100A500000E00022F4EEE20AA274F1EE10FA01D8EE
:100A6000012300E00023E374002511B908B902B99D
:100A700063B1A078401CA070E570FFF753FF607071
:100A8000A078052815D3207970B10FE0E078401CDC
:100A9000C0B2E070A5706570217919B103280AD33E
:100AA000FFF7F4FE257070BDFFF772FF0220207083
:100AB00070BD0120FBE70320F9E70000680100207A
:100AC0000146014801F0E6BCA804002010B5044826
:100AD00001F0F2FC042801D0012010BD002010BD5F
:100AE000A804002010B500F015F8012801D001205D
:100AF00010BD074801F0F6FC040006D14FF4006178
:100B0000034801F06DFB00B10124204610BD000038
:100B1000A804002008B501208DF800009DF8000011
:100B200008BD0000134610B50A46014600240348DC
:100B300001F07AFD00B10124204610BDA804002078
:100B4000024800220121406808F096BC58000020AD
:100B5000134610B50A4601460024034801F0FAFD89
:100B600000B10124204610BDA8040020FEE70000CB
:100B700030B587B014216846FFF7CEFB0E480168F8
:100B800041F04001016000684FF4007400F0400043
:100B900005901120CDE90040012002900220074D70
:100BA00003906946284600F0D5FE012221462846DA
:100BB00000F0CDFF07B030BD3038024000180240D1
:100BC00070B50D46064600242946304600F04CF824
:100BD000002807D0642005F071FA641CE4B20A2CE6
:100BE000F2D3012070BD00002DE9F84F83460020AC
:100BF000DFF870A08DF80000054680464FF4967629
:100C00004FF4007900246F463146204600F0C8F8C2
:100C100030BB3146012000F0C3F808BB05E00120DD
:100C2000641C05F04BFAB4421AD84946504600F00D
:100C300089FF0128F3D01E2C01D9012000E00020FB
:100C400038709DF8000008F1010840EA4500C5B27F
:100C5000B8F1080FD6DB8BF800500020BDE8F88F04
:100C60000120FBE7001802402DE9FC4781460020E7
:100C7000464D88460090064602464FF400740190A7
:100C80002146284600F063FF44F6206005F016FA7E
:100C900001222146284600F05AFF1E2005F00EFAD8
:100CA0004FF4967705E00120761C05F007FABE4266
:100CB00063D82146284600F045FF0128F3D00026DE
:100CC00005E00120761C05F0F9F9BE4255D8214611
:100CD000284600F037FF0028F3D0002605E0012069
:100CE000761C05F0EBF9BE4247D82146284600F0B5
:100CF00029FF0128F3D000246D462819FFF774FF5F
:100D0000D8BB641C052CF8DB9DF800309DF8012051
:100D10009DF802109DF803009C180D182C449DF8B6
:100D20000450AC4229D100EE103A9FED191A01EEA1
:100D3000900AF8EE400A00EE102AF8EE611AB8EEBA
:100D4000400A40EE010A00EE101AB8EE400AF5EE35
:100D5000C00A01EE810AF1EE10FA0ED310EE900AED
:100D60000C49884209DC10EE100A0B49884204D86D
:100D700010EE100A0949884202DD0120BDE8FC8717
:100D8000C8ED000A89ED000A0020F7E700180240CC
:100D9000CDCCCC3D0000C8420000A0C10000A04264
:100DA0002DE9F0410E46054600244FF40077DFF8A8
:100DB000288008E0012005F081F9641CB44202D3C8
:100DC0000120BDE8F0813946404600F0BBFEA84254
:100DD000F0D10020F5E7000000180240014800F0C3
:100DE0009BBB0000AC060020014800F095BB000052
:100DF0004C06002001681823CAB2103AB2FBF3F285
:100E0000054B6FF30901032A9B5CC36500D9091DDB
:100E10008165084670470000D8DD000810B501461E
:100E200000208B698A6A4FF0C07453B1B3F5005F3C
:100E300015D072B1012A0CD0022A0AD0032A09D196
:100E400004E01AB1012A06D0022A03D1C96AC901F5
:100E500000D5012010BDC96AA142FAD010BD002AF8
:100E6000F7D0012AF2D0022AF3D0032AF3D010BD22
:100E700030B50468256825F4802525600468636022
:100E80008368402B036803D099600068C26030BD5E
:100E90009A600068C16030BD704772B6FEE70022FC
:100EA000AFF3008030B50E4B054601205C7A002C74
:100EB00014D1587A1C54587A03EB800045605D7A4F
:100EC00003F108002A54587A421C5A7230300870D4
:100ED0003A2048702F208870CC70002030BD000070
:100EE0000C070020002229B101291AD002291BD0A9
:100EF0004FF440720E490B6823F440730B600B688B
:100F000013430B600A6822F078020A600A68022321
:100F100003EBC00002430A60086840F480300860B8
:100F200070474FF48072E5E74FF40072E2E700008B
:100F3000103C02401348016889050FD5016821F46F
:100F400000710160016841F400610160016821F4F1
:100F500000610160016841F40071016001684905A8
:100F60000FD5016821F480610160016841F480516E
:100F70000160016821F480510160016841F48061E1
:100F800001607047003C024008490A6822F4407240
:100F90000A600A6842F004020A600A684FF480336B
:100FA00043EA002002430A6070470000103C024000
:100FB000064A136823F440731360136813601368C0
:100FC00043F001031360017070470000103C0240C1
:100FD000094910B50C6824F440740C600C6844F4A2
:100FE00040740C600C6844F001040C600260BFF3B4
:100FF0006F8F436010BD0000103C0240074A136829
:1010000023F440731360136843F480731360136810
:1010100043F001031360018070470000103C024060
:10102000074A136823F440731360136843F4007392
:101030001360136843F00103136001607047000000
:10104000103C024017490868C206174805D5C26916
:1010500042F01002C26110220A600A68920605D5A9
:10106000C26942F00802C26120220A600A68520680
:1010700005D5C26942F00402C26140220A600A68D2
:10108000120605D5C26942F00202C26180220A60DE
:101090000A68920705D5C26942F02002C2610220A7
:1010A000086070470C3C02406800002070B5114990
:1010B00004460020C86100F04FFD06460E4D09E0D1
:1010C000601C07D024B100F047FD801BA04201D96D
:1010D000032070BD2868C003F2D42868C00701D07F
:1010E00001202860286810F0F200F2D0FFF7AAFF74
:1010F000012070BD680000200C3C024030B5B3F503
:10110000804F05D06FF0704140F82210002030BDB4
:101110008C690B688D6823434C688989240144EAF3
:101120000524234343EA014150F82230014C234077
:101130001943E9E70000F0CF10B50A6850F82230F3
:1011400023F0010340F822308C68082C23D00023C0
:101150004A682243CC681C430B6922431A434B69FB
:101160000E4C1A43CB691A430B6A1A434B6A1A4353
:101170008B6A1A43CB6A1A430B6B1A438B6913436E
:10118000CA6B09681A4350F82130A343134340F84F
:101190002130002010BD4023DAE700007FFF0F0060
:1011A00030B5D1E9003443EA04138C688D892402F8
:1011B00044EA054423430C8A074D00EB820005EB0B
:1011C000045423430C7D6D0105EB046489692343BA
:1011D0000B434360002030BD0000F0FF00B587B036
:1011E000002000900B200290012003900220049028
:1011F00072B600F099FB05A9684600F001FB00F00B
:101200004BFB62B607B000BD30B50C46054600F09A
:1012100045F885ED000A00F05DF884ED000A00F065
:1012200007F882ED000A00F01FF883ED000A30BDD8
:101230000A4890ED020AB4EE400AF1EE10FA09D124
:10124000B5EEC00AF1EE10FA04D310EE100A04490C
:10125000884201DD9FED030A7047000000000E0880
:101260000000C8420000BE420A4890ED030AB4EEF6
:10127000400AF1EE10FA09D1B5EEC00AF1EE10FA0B
:1012800004D310EE100A0449884201DDB3EE0E0AC1
:101290007047000000000E080000C8420A4890EDA8
:1012A000000AB4EE400AF1EE10FA09D1B5EEC00A18
:1012B000F1EE10FA04D310EE100A0449884201DD61
:1012C0009FED030A7047000000000E080000704206
:1012D00000000C420A4890ED010AB4EE400AF1EE1B
:1012E00010FA09D1B5EEC00AF1EE10FA04D310EEEF
:1012F000100A0449884201DDB1EE040A704700007B
:1013000000000E080000704210B52DED048BB0EE09
:10131000618AF0EE418AB0EE609AF0EE409A9FED5D
:101320003F0AB4EEE99AF1EE10FA0ADBF1EE040A94
:1013300039EEE09AB5EEC09AF1EE10FA01D2B0EEB5
:10134000409AB4EEE88AF1EE10FA0ADBF3EE040AF2
:1013500038EEE08AB5EEC08AF1EE10FA01D2B0EEB6
:10136000408A18EE900A2E49884201DDDFED2D8A71
:10137000B5EEC08AF1EE10FA01D2B0EE408AFFF766
:101380008DFFF0EE401AFFF7A5FFF0EE400AFFF7E1
:101390004FFFB0EE401AFFF767FF71EEE91A2248DF
:1013A000F0EEE11A11EE901A814217DA70EEC90AD6
:1013B000F0EEE00A10EE901A81420FDA71EE680A40
:1013C000F0EEE00A10EE901A814207DA30EE480A99
:1013D000B0EEC00A10EE101A81421CDBFFF7FEFED1
:1013E000B0EE690A114800F023F81048B0EE490A3F
:1013F000001D00F01DF80D48B0EE680A083000F03E
:1014000017F8B0EE480ABDEC048B0848BDE8104060
:101410000C3000F00DB8BDEC048B10BD00000000D6
:101420000000C8420000C8420AD7233C00000E0852
:1014300010B504462DED028BB0EE408A72B600F076
:1014400073FA18EE102A00232146022000F02EFA2B
:1014500000F022FA62B6BDEC028B10BD2DE9F0411E
:101460000446876D00F078FB064694F835000025A9
:10147000022806D08020606584F834500120BDE841
:10148000F0812068016821F016010160206841693F
:1014900021F080014161206C08B9A06C20B1206866
:1014A000016821F0080101602068016821F0010154
:1014B00001600CE000F050FB801B052807D92020BC
:1014C0006065032084F8350084F83450D7E720683D
:1014D0000068C007EED194F85C103F208840B860E7
:1014E000012084F8350084F834500020C7E790F8D4
:1014F0003510022903D08021416501207047052164
:1015000080F835100068016821F0010101600020B9
:101510007047406D704700002DE9F84304464FF0D6
:101520000009CDF8009063484FF41651A56D00688E
:10153000B0FBF1F72E6894F85C10082000FA01F176
:1015400031420FD021680A6852070BD50A6822F091
:1015500004020A6094F85C108840A860606D40F056
:101560000100606594F85C104FF0010808FA01F082
:10157000304208D021684969090604D5A860606D29
:1015800040F00200606594F85C100420884030420E
:1015900008D021680968890704D5A860606D40F00B
:1015A0000400606594F85C1010208840304218D028
:1015B00021680968090714D5A860206801684903F3
:1015C00004D50068000308D5A16C07E00168C905CF
:1015D00003D4016821F008010160216C09B12046A3
:1015E000884794F85C1020208840304231D0216830
:1015F0000968C9062DD5A86094F83500052820682B
:10160000016806D0490347D5006800031DD4616C0A
:101610001CE021F0160101602068416921F0800181
:101620004161206C08B9A06C20B12068016821F0EC
:101630000801016094F85C103F208840A86084F89D
:10164000358084F83490216D1FE0E16B09B12046AC
:101650008847606D00282BD0606DC00714D005202E
:1016600084F835002068016821F0010101600098CC
:10167000401C0090B84203D820680068C007F6D12B
:1016800084F8358084F83490E16C002910D001B0E2
:101690002046BDE8F04308470168C905D5D4016874
:1016A00021F01001016084F8358084F83490CCE793
:1016B000BDE8F883940000202DE9F041044600F0D5
:1016C0004BFA06465CB1022084F83500002584F808
:1016D00034502068016821F0010101600DE0012013
:1016E000BDE8F08100F038FA801B052805D92020DC
:1016F0006065032084F83500F2E720680068C007C1
:10170000F0D12268116820480140D4E90103184350
:10171000D4E903363343184363691843A369184374
:10172000E3691843236A18430843616A042903D113
:10173000D4E90B1319430843106020684069666AB6
:1017400020F0070130460E43012704280CD1A06A7F
:101750000643E06A40B12046FFF760FB20B140201D
:10176000606584F83570BAE7206846612046FFF767
:1017700041FB94F85C203F2191408160656584F8CD
:1017800035700020ACE700003F8010F02DE9F041FB
:101790000446866D90F83400002501280DD0012004
:1017A00084F8340094F835700020012F07D084F8B5
:1017B000340002252846BDE8F0810220FBE702271D
:1017C00084F8357060652046FFF752FB94F85C1092
:1017D0003F208840B0602068016841F01601016038
:1017E000206C20B12068016841F008010160206888
:1017F000016841F001010160DCE780B204F058BCEF
:101800002DE9F047044622480F46017E01290AD0FF
:101810000121804601764CF250394846FFF746FCDC
:10182000020003D02FE00220BDE8F0874FF0FF3028
:1018300038602068174D012801D0A6681CE0207C84
:101840006168FFF7A1FB4846FFF730FC02462868B5
:1018500020F00400286014E0217C3046FFF742FBB2
:101860004846FFF723FC0200286820F07A00286031
:1018700001D03E6005E0761CD4E902100844B04275
:10188000EAD8FFF757FB002188F818101046CBE77D
:1018900068000020103C02400348016841F000410C
:1018A0000160002070470000103C02402DE9F04725
:1018B0001B4E05461446307E1F468946012808D037
:1018C000012030764CF250384046FFF7EFFB18B15C
:1018D00014E00220BDE8F0879DB1012D16D0022D45
:1018E00019D022463B464846FFF772FB4046FFF7B9
:1018F000DDFB0C490A6822F001020A600021317602
:10190000E8E7E1B24846FFF753FBEFE7A1B24846EC
:10191000FFF774FBEAE721464846FFF781FBE5E75E
:1019200068000020103C0240074900200A68002A95
:1019300009DA054A054B0C3A1360054B1360096838
:10194000002900DA01207047103C0240230167455E
:10195000AB89EFCD2DE9F84FDFF8BCA100220125BE
:1019600003264FF00F090AF1040BAAF1040E00BF81
:101970000B6805FA02F42340A34270D10F7907F0F7
:101980000307012F01D0022F16D187684FEA4208C2
:1019900006FA08FC27EA0C07D1F80CC00CFA08FC80
:1019A0004CEA070CC0F808C04768A7430C79C4F399
:1019B000001494403C4344600C79E443A4070AD0EB
:1019C000C4684FEA420C06FA0CF7BC438F6807FA6A
:1019D0000CF72743C7600C7904F00304022C12D1E2
:1019E000D40800EB840CDCF820405707FF0E09FAFE
:1019F00007F824EA0804D1F8108008FA07F848EA42
:101A00000408CCF8208004684FEA420C06FA0CF770
:101A1000BC430F7907F0030707FA0CF72743076069
:101A20004C6814F4403F70D03C4C276847F4804722
:101A30002760246822F0030704F480440094384CA3
:101A400007EB040CDCF8084897074FEA177809FA07
:101A500008F7BC43334FB84202D1002724E054E0DA
:101A6000314FB84201D101271EE0304FB84201D1B9
:101A7000022719E02E4FB84201D1032714E02D4F61
:101A8000B84201D104270FE02B4FB84201D10527FE
:101A90000AE02A4FB84201D1062705E0284FB84294
:101AA00001D1072700E0082707FA08F72743CCF8F9
:101AB0000878DAF800405746D1F804C09C435FEA42
:101AC000CC2C00D51C433C60DBF800405F46D1F8CD
:101AD00004C09C435FEA8C2C00D51C433C60DEF8BC
:101AE00000407746D1F804C09C435FEA8C3C00D5A7
:101AF0001C433C60084F083F3C68D1F804C09C433D
:101B00005FEACC3C00D51C433C60521C102AFFF419
:101B10002FAFBDE8F88F0000083C01404438024078
:101B20000030014000000240000402400008024072
:101B3000000C024000100240001402400018024055
:101B4000001C02400069084000D0012070470AB123
:101B5000816170470904FBE7014880687047000015
:101B60008800002002488168027811448160704733
:101B7000880000200B4810B5016841F40071016035
:101B8000016841F480610160016841F48071016085
:101B9000032000F073F80F2000F006F800F024F89E
:101BA000002010BD003C024070B50D4D04464FF4BE
:101BB0007A712878B1FBF0F00A490968B1FBF0F0BE
:101BC00000F0C0FE48B9102C07D200222146501E5A
:101BD00000F034F800206C6070BD012070BD000082
:101BE00088000020940000200C4882B0016841F475
:101BF00080410160006800F4804000900748001FA9
:101C0000016841F0805101600068002200F08050BE
:101C100000900F21901E02B000F010B8443802402E
:101C2000002809DB00F01F020121914040098000DB
:101C300000F1E020C0F8001170470000F0B40E4B36
:101C40001B680C46C3F30223C3F10705042D00D91A
:101C50000425191D072901D2002300E0DB1E0126FF
:101C600006FA05F1491E214099409E40761E164015
:101C70003143F0BC03F0ACBD0CED00E0064900F0D0
:101C8000070208684FF6FF03184040EA0220034AA3
:101C900010430860704700000CED00E00000FA05FA
:101CA0002DE9F0470E46050065D0DFF81481D8F81D
:101CB0000000F7B200F00700B04207D288F80070C9
:101CC000D8F8000000F00700B04254D128683D4C1D
:101CD000810712D5400703D5206840F4E05020600A
:101CE0002878000703D5206840F460402060206811
:101CF000A96820F0F000084320602878C0072DD0A4
:101D0000304968680839012812D0022813D0032806
:101D100011D00968890700292DDA216821F0030113
:101D200001432160FFF718FF814641F2883A0EE037
:101D300009688903EFE709688901ECE7FFF70CFF01
:101D4000A0EB0901514502D90320BDE8F0872068C6
:101D5000696800F00C00B0EB810FEFD1D8F80010EB
:101D6000404601F00701B14207D90770006800F052
:101D70000700B04201D00120E7E72878400705D5E9
:101D80002068E96820F4E0500843206028780007C4
:101D900006D52068296920F4604040EAC10020602F
:101DA00000F038F82168084AC1F30311515CC840BB
:101DB0000649086006480068FFF7F6FE0020C4E701
:101DC000003C024008380240E0DD0008940000209A
:101DD0008C0000200448054900680968044AC1F3E2
:101DE0008221515CC84070479400002008380240AE
:101DF000F0DD00080448054900680968044AC1F399
:101E00004231515CC84070479400002008380240BD
:101E1000F0DD0008154810B5006810F00C021448F9
:101E200013D04110042A0FD0082A0ED10F4C241FC2
:101E30002268236802F03F025B0207D52068C0F3E6
:101E40008810A0FB010106E0084610BD2168C1F31F
:101E50008811A1FB00010023FEF714FA2168C1F3E9
:101E60000141491C4900B0FBF1F010BD08380240A7
:101E70000024F4002DE9F84F04006ED02078DFF83C
:101E80004C93C007A9F104054AD009F10400016888
:101E9000C1F38101012908D00068C0F38100022844
:101EA0000AD1D9F80000400206D52868800337D54A
:101EB00060680028E1D033E06068B0F5803F10D062
:101EC000B0F5A02F286810D020F480302860286852
:101ED00020F4802028606068A8B1FFF73DFE064628
:101EE0000DE0286840F48030F4E740F4802028605A
:101EF000F7E700BFFFF730FE801B642873D828681F
:101F00008003F7D50CE0FFF727FE064605E000BF8B
:101F1000FFF722FE801B6428F0D828688003F7D4DE
:101F20002078DFF8AC8280074FF0000A3ED5A74842
:101F3000001D016811F00C0F08D00068C0F381008B
:101F400002280BD1D9F80000400207D42868800786
:101F500016D5E068012800D112E033E1E068B8B19D
:101F60000120C8F80000FFF7F7FD064605E000BFB6
:101F7000FFF7F2FD801B0228C0D828688007F7D53C
:101F80002868216920F0F80040EAC10028600DE0CF
:101F9000C8F800A0FFF7E0FD064604E0FFF7DCFD0F
:101FA000801B02281FD828688007F7D420780007F4
:101FB00022D5864F87486169703771B10121016070
:101FC000FFF7CAFD064604E0FFF7C6FD801B0228A6
:101FD00009D838688007F7D50EE0C0F800A0FFF7F1
:101FE000BBFD064605E082E0FFF7B6FD801B022838
:101FF0007DD838688007F7D42078400768D5DFF8A7
:10200000CCB100270BF13C0BDBF80000C0000BD477
:10201000DBF8001041F08051CBF80010DBF8000035
:10202000012700F0805000906B4E3068C00510D43E
:10203000306840F480703060FFF78EFD009005E05E
:10204000FFF78AFD0099401A022850D83068C00571
:10205000F6D55E4EA0686C3601280FD00528306892
:1020600010D020F001003060306820F004003060B3
:10207000A068B8B1FFF770FD00900FE0306840F045
:102080000100F4E740F004003060F7E7FFF764FD7B
:102090000099411A41F28830814266D83068800741
:1020A000F4D50EE0FFF758FD009007E0FFF754FD70
:1020B0000099411A41F28830814256D83068800731
:1020C000F4D42FB1DBF8001021F08051CBF80010D0
:1020D000A069C8B33D49091D0968C1F381010229FE
:1020E0004AD00228504607D0C8F8600000E03CE023
:1020F000FFF732FD04463BE04746C8F86000FFF7B3
:102100002BFD064605E000BFFFF726FD801B0228D9
:102110002BD828688001F7D4D4E907010843A16AC5
:102120002E4A490802EB0141626A41EA82110843E2
:1021300094F82C1040EA0161C9F8001001203866BB
:10214000FFF70AFD044606E03EE000BFFFF704FD8E
:10215000001B022809D828688001F7D534E000BFA9
:10216000FFF7FAFC001B022802D90320BDE8F88F14
:1021700028688001F4D427E00128F7D0D9F80000BE
:10218000E26900F4800191421CD1226A00F03F0113
:10219000914217D147F6C071626A0140B1EB821FCC
:1021A00010D1A26A4FF0FF3300F4403103EB52022A
:1021B000B1EB024F06D194F82C1000F07060B0EB38
:1021C000016F01D00120D1E70020CFE704380240A1
:1021D00000004742800E4742007000400000FFFFB1
:1021E0002DE9FE430446002603200D4684F8340002
:1021F000606C03285ED0B5F5805F5BD04FF400675C
:1022000000204FF08068BD421FD1814600900190B0
:102210000021206801F07EFD800113D4694620462C
:1022200002F01CF907000DD10198400334D5B4F831
:1022300050000104206801F099FD070002D102213D
:10224000206823E0A06B384328E01DB1A06B40F06C
:10225000006023E08146009001900021206801F099
:1022600059FD8001EED46946204602F0F7F80700D8
:10227000E8D10198C0030FD5B4F8500001042068DC
:1022800001F074FD0700DDD10021206801F0BBFDE5
:102290000700D7D14F46D5E74746D3E7A063A06BE9
:1022A000144F4FF0010848B12068876384F83480E8
:1022B00001260EE0A06B40F08050EFE7211DD4E92D
:1022C000050C0EC9CDE90050CDF808C0206801F01A
:1022D00024FD4FF40071206801F07CFD28B12168D5
:1022E0008F63A16B0143A163012684F834803046DB
:1022F000BDE8FE83FF05400070470000F0B5426E68
:10230000920F0A70426EC2F383624A70426EC2F349
:1023100001628A70426E120CCA70B0F86420120A10
:102320000A7190F864204A71826E120DCA80826E22
:10233000C2F303420A72B0F86820C2F3C0324A7294
:10234000B0F86820C2F380328A72B0F86820C2F315
:102350004032CA72B0F86820C2F300320A73002615
:102360004E73426C4FF40075012462B1012A3AD0D9
:10237000026847499163816B41F08051816380F825
:1023800034400120F0BDB0F86820C36E9205120DF4
:1023900042EA93720A61C26EC2F3C2620A75C26EE9
:1023A000C2F302624A75C26EC2F342528A75C26EAD
:1023B000C2F38242CA75C26EC2F3C2320A760A6999
:1023C000521C42650B7E03F007039B1C9A4042653A
:1023D0000B7A03F00F0704FA07F383655B0A5A438D
:1023E000C0E917250EE090F86820C36E9206920AA5
:1023F00042EA13420A610A69521C92024265C0E92C
:102400001652056630F86C2FC2F3803201F8192F8E
:102410000288C2F3C6124A70027802F07F028A7004
:102420004268D20FCA704268C2F341720A714268B0
:10243000C2F382624A714268C2F383528A7142686F
:10244000C2F34052CA710E724268C2F300424A722D
:102450008288C2F3C0328A728288C2F38032CA7222
:102460008288C2F340320A738288C2F300324A7310
:102470008288C2F381228A738288C2F30122CA73DE
:102480000079C0F3460008744C740020F0BD0000D1
:10249000FF054000426C0A60826C4A60C26C8A6030
:1024A000026DCA60426D0A61826D4A61C26D8A61C5
:1024B000006EC8610020704770B50446B0F8500047
:1024C00000250104206801F086FD18B1A16B0143CD
:1024D000A16304E00021206801F01CFC0546C5F35F
:1024E000432070BD70B504000ED094F83400002570
:1024F00018B92577204600F04DF8032084F8340001
:10250000204600F00BF808B1012070BDA5632563DB
:10251000012084F83400002070BD0000FEB50025C5
:10252000044676200095CDE901502B462A462946DF
:10253000206801F0F2FB154E46F8A05F206801F01C
:10254000FEFB012535600220FFF757F9204602F017
:102550006DF828B184F83450A16B0143A16313E0F6
:10256000204601F0EBFF0028F4D14FF40071206801
:1025700001F030FC002808D0226805499163A16B66
:102580000143A16384F834500120FEBD0080254240
:10259000FF054000F0B587B0044614216846FDF7FA
:1025A000BBFE1D492068884233D11C4800240168C5
:1025B00041F400610160006800F400600590174874
:1025C0001438016841F004010160016801F0040160
:1025D0000591016841F0080101600068022500F0E2
:1025E000080005904FF4F850CDE9000502AA032633
:1025F0000C2782E8D00069460948FFF7ABF90420B0
:10260000CDE9000502AA694682E8D0000548FFF737
:10261000A1F907B0F0BD0000002C01404438024091
:1026200000080240000C02402DE9F04786B01F462A
:102630000446154639B194F83400012807D0022029
:1026400006B0BDE8F087A06B40F0006008E0002015
:10265000A063E36DEA199A4204D9A06B40F00070C0
:10266000A06369E0032284F8342022688146D062A6
:102670002268D36B40F22A363343D363236C2F4A4C
:10268000DA63236C2E4ADA64226C1065226C906047
:10269000206C0068026822F0C002026020680A46CE
:1026A000266C4FEA472800F180014FEA9803304634
:1026B000FFF76CF8DFF88CA0012670B12068C16BC1
:1026C00021F49571C1632168C1F838A0A06B40F076
:1026D0008040A06384F834602EE01B480660606C84
:1026E000012800D06D024FF0FF30CDE900089020A6
:1026F000029002200596CDE903096946206801F0A1
:10270000F3FA012F06D9822020632946206801F0C0
:10271000D3FB05E0812020632946206801F0E5FB1A
:1027200000288DD02268C2F838A0A16B0143A163B4
:1027300084F83460C4F83090012081E70D4400082B
:10274000A9430008FF0540008C85254210B5FEF71F
:10275000F7F910BD2DE9F04F5FEA010B87B01E4677
:102760000446114607D094F83400012807D002200F
:1027700007B0BDE8F08FA06B40F0006008E00025D6
:10278000A563E26D8819904204D9A06B40F00070F7
:10279000A06356E0032084F834002068C5622068F6
:1027A000C26B40F21A2942EA0902C263E26B2D4869
:1027B000D063E26B2C48D064E06B0565606C012847
:1027C00000D049024FF09008012E05D9A0202063C7
:1027D000206801F04BFC04E0C4F83080206801F070
:1027E0005EFCDFF888A0012730B12268C2F838A06B
:1027F000A16B0143A16321E01D480760E16B40200C
:102800008860E06B0068016821F0C00141F0400180
:10281000016022687602B30859468032E06BFEF709
:10282000B5FF80B12068C16B21EA0901C16321684D
:10283000C1F838A0A06B40F08040A06384F83470E9
:102840002563012094E74FF0FF30CDE90006CDE984
:102850000285CDE904576946206801F045FA002059
:1028600086E700004F440008A9430008FF05400028
:102870008C85254270B515460E46040003D094F8A9
:10288000490010B107E0012070BD002084F8480025
:10289000204600F01DF804F108012068FEF74CFC0A
:1028A0003146A2682068FEF77BFCD4E90102294684
:1028B000236BFEF723FC2168A06851F8202042F02A
:1028C000010241F82020012084F84900002070BD59
:1028D000194800B5016887B041F001010160006846
:1028E00000F00100059014480838016841F0080123
:1028F0000160016801F008010591016841F01001D3
:1029000001600068012100F0100005904CF2037096
:1029100000900220CDE9010103900C20049069464B
:102920000648FFF717F84FF6807000906946044894
:10293000FFF710F807B000BD38380240000C024025
:102940000010024010B5401EB0F1807F01D301207D
:1029500010BD4FF0E02460610F21601702F038FFD6
:102960000020A06107202061002010BD7047704743
:1029700070B590F83C20012A32D0012480F83C4008
:10298000022280F83D2003685A689D6822F0700694
:102990000A6832435A60134B02689A4214D0B2F16B
:1029A000804F11D0104B9A420ED0104B9A420BD050
:1029B0000F4B9A4208D00F4B9A4205D00E4B9A42C9
:1029C00002D00E4B9A4204D1496825F08003194386
:1029D000916080F83D40002180F83C10084670BDB1
:1029E000022070BD000001400004004000080040CB
:1029F000000C00400004014000400140001800406D
:102A000010B5040003D094F83D0010B107E0012098
:102A100010BD002084F83C00204600F01FF8022082
:102A200084F83D00211D206802F014FB012084F889
:102A3000460084F83E0084F83F0084F8400084F8A3
:102A4000410084F8420084F8430084F8440084F88C
:102A5000450084F83D00002010BD000008B5016865
:102A60001048B1F1804F0BD00F4A914207D1016855
:102A700041F480710160006800F48070009008BD2E
:102A8000016841F0010101600068002200F00100CE
:102A9000009005211C20FFF7D1F8BDE808401C205C
:102AA000FFF7BEB8403802400020004090F83D10CB
:102AB000012901D001207047022180F83D100068F3
:102AC0001149884214D0B0F1804F11D00F4988428B
:102AD0000ED00F4988420BD00E49884208D00E49CB
:102AE000884205D00D49884202D00D49884204D160
:102AF000816801F00701062903D0016841F0010156
:102B00000160002070470000000001400004004008
:102B100000080040000C004000040140004001405B
:102B20000018004001680A6A41F211131A4207D1E5
:102B30000A6A9B101A4203D10A6822F001020A6055
:102B4000012180F83D100020704770B5044690F8D0
:102B50003C000025012817D0012684F83C600220A3
:102B600084F83D002068826822F0770222F47F42D8
:102B700082600868502838D00DDC20284FD005DC52
:102B800090B3102811D14AE0022070BD302846D001
:102B900040280AD13BE060282FD070280DD0B0F536
:102BA000805F03D0B0F5005F12D0012584F83D604E
:102BB000002084F83C00284670BDCB68D1E9012193
:102BC000206802F0BCFA2068816841F0770109E0D2
:102BD000CB68D1E90121206802F0B1FA2068816850
:102BE00041F480418160E1E719E0CA6849682068E2
:102BF00002F07AFB5021206806E0CA684968206824
:102C000002F083FB6021206802F0A3FACEE7CA68D5
:102C10004968206802F068FB40212068F4E72268D8
:102C200001461046F0E770472DE9F0410446006880
:102C3000C66805694FF00007A90713D5B10711D57C
:102C4000F91E0161012020772068806980072046F5
:102C500002D0FFF7E8FF04E000F0A8F8204600F0FB
:102C60003AF92777680716D5700714D521686FF0F1
:102C700004000861022020772068806910F4407FFA
:102C8000204602D0FFF7CFFF04E000F08FF8204687
:102C900000F021F92777280715D5300713D52168CB
:102CA0006FF008000861042020772068C069800761
:102CB000204602D0FFF7B7FF04E000F077F8204687
:102CC00000F009F92777E80616D5F00614D5216833
:102CD0006FF010000861082020772068C06910F4A8
:102CE000407F204602D0FFF79EFF04E000F05EF830
:102CF000204600F0F0F82777E80708D0F00706D064
:102D000021686FF001000861204600F049F92806AB
:102D100008D5300606D521686FF08000086120468E
:102D2000FFF724FE680608D5700606D521686FF007
:102D300040000861204600F034F9A8060AD5B00624
:102D400008D521686FF0200008612046BDE8F041F9
:102D5000FFF70DBEBDE8F08110B586B00446142122
:102D60006846FDF7D9FA0E492068884216D10D4809
:102D70000021026842F020020260006800F020009A
:102D800005904FF4007000900220CDE90101092068
:102D9000CDE9031069460448FEF7DCFD06B010BD1E
:102DA000002000403038024000140240704770B5E7
:102DB000044690F83C0000260D4601280FD0012063
:102DC00084F83C006AB1042A1DD0082A2FD00C2AAE
:102DD0003FD00126002084F83C00304670BD022020
:102DE00070BD206802F0BEF92068816941F00801D9
:102DF00081612068816921F0040181612068816915
:102E00002A69114311E0206802F0DCF92068816929
:102E100041F4006181612068816921F480618161F0
:102E2000206881692A6941EA02218161D2E720682C
:102E300002F0FEF92068C16941F00801C161206813
:102E4000C16921F00401C1612068C1692A69114387
:102E500011E0206802F020FA2068C16941F40061A5
:102E6000C1612068C16921F48061C1612068C169C4
:102E70002A6941EA0221C161ACE710B5040003D020
:102E800094F83D0010B107E0012010BD002084F847
:102E90003C00204600F01EF8022084F83D00211D71
:102EA000206802F0D7F8012084F8460084F83E003C
:102EB00084F83F0084F8400084F8410084F8420020
:102EC00084F8430084F8440084F8450084F83D0009
:102ED000002010BD7047704710B50446022249B16A
:102EE00004290ED0082913D094F84100012816D0E7
:102EF000012010BD94F83E000128F9D184F83E204D
:102F00000FE094F83F000128F2D184F83F2008E058
:102F100094F840000128EBD184F8402001E084F8C7
:102F200041200122206802F0FDF816492068164A67
:102F3000884201D0904203D1436C43F40043436480
:102F40002068884213D0B0F1804F10D00F498842DA
:102F50000DD00F4988420AD00E49884207D09042CE
:102F600005D00D49884202D00C49884204D18168BD
:102F700001F00701062903D0016841F00101016059
:102F8000002010BD0000014000040140000400408A
:102F900000080040000C00400040014000180040C4
:102FA0007047704770477047F8B501680446086875
:102FB000CA684B6910F00F0F4FF0000559D003F0AD
:102FC000010602F49077374365D0C10705D0D105DB
:102FD00003D5616C41F001016164410705D5D90752
:102FE00003D0616C41F002016164810705D5D90706
:102FF00003D0616C41F004016164010707D502F060
:103000002001314303D0616C41F008016164616CBF
:1030100000293AD0800604D5900602D5204602F059
:1030200039FA20684069616CC0F38010090700D448
:1030300060B3204602F0F9F920684069400621D5C6
:103040002068143050E8001F21F0400140E80012D1
:10305000002AF5D1E06BA8B172490165E06BFEF77B
:1030600046FA002811D0E06B016D01B0BDE8F040D8
:10307000084783060FD593060DD52046BDE8F840D6
:1030800002F008BA2046FFF78EFFF8BD2046FFF792
:103090008AFF6564F8BD266B2023012E7ED1C6060B
:1030A0007CD5D6067AD508684868009048694FF004
:1030B000020640064DD5E26B106840684FF48077F9
:1030C0000004000C3AD0A18D814237D9E085D06947
:1030D000B8422DD020680C3050E8001F21F48071D8
:1030E00040E80012002AF5D12068143050E8001F93
:1030F00021F0010140E80012002AF5D120681430C7
:1031000050E8001F21F0400140E80012002AF5D1EC
:1031100084F84230256320680C3050E8001F21F00D
:10312000100140E80012002AF5D1E06BFEF796F995
:103130006663A08DE18D401A81B206E0A18D8142C7
:10314000A8D1D069B842A5D166632046FFF72AFF0F
:10315000F8BDA08DE18D401A81B2E08D0028F7D036
:103160000029F5D020680C3050E8002F22F490722E
:1031700040E80027002FF5D12068143050E8002FD8
:1031800022F0010240E80027002FF5D184F84230F8
:10319000256320680C3050E8002F00E006E022F0A4
:1031A000100240E80023002BF3D1CDE705062BD514
:1031B000150629D594F841002128C9D1A068B0F599
:1031C000805F01D12069B0B1206A411C2162216871
:1031D00000784860E08C401E0004000CE084B7D109
:1031E0002068C16821F08001C1602068C16841F099
:1031F0004001C160F8BD206A0088C0F30800486043
:10320000206A801C2062E5E74006F3D55006F1D520
:10321000CA68204622F04002CA6084F8413000F0BB
:103220003DF9F8BD2F53000870B5040004D094F8A0
:103230004100002510B106E0012070BD84F8405027
:10324000204600F023F8242084F841002068C1685B
:1032500021F40051C160204602F07EF92068016926
:1032600021F4904101612068416921F02A01416106
:103270002068C16841F40051C1606564202084F871
:10328000410084F842006563002070BD2DE9F043E1
:1032900087B0064614216846FDF73EF8DFF824C1E2
:1032A00031684948022203230727484D002461451D
:1032B0001DD1454914310E6846F010060E600968AC
:1032C00001F010010591016841F001010160006801
:1032D000694600F00100059058028DE81500CDE91F
:1032E00003372846FEF736FB07B0BDE8F083DFF86A
:1032F000E0C06145F8D1016841F04001016001681A
:1033000001F040010591016841F40011016001687C
:1033100001F4001105912C491031D1F800C04CF492
:10332000003CC1F800C0096801F400310591016852
:1033300041F0010101600068694600F0010005905C
:103340000C208DE81500CDE903372846FEF702FB77
:10335000214D20484FF00068E5E8020840204FF476
:103360008069A5E81102870245F814491A48AC6142
:10337000C5E907476C62FEF79FF908B1FDF78DFDBF
:10338000B563AE63144D1348603518382860C5E93D
:103390000184C5E903496C61AC61C5E9074728466A
:1033A0006C62FEF789F908B1FDF777FDF56300223D
:1033B00005212620AE63FEF741FC2620FEF730FCF7
:1033C00092E7000000100140303802400000024047
:1033D00000440040A06002404C06002090F84230BB
:1033E000202B01D00220704721B11AB100230363C2
:1033F00002F038B901207047704770472DE9F84353
:10340000044690F84100984616460D46202802D002
:103410000220BDE8F88385B17EB1002060642120E0
:1034200084F84100FEF798FBA6848146E684A068F4
:103430002027B0F5805F02D003E00120E9E7206992
:1034400010B12E4600250EE000260CE0802120461B
:1034500002F058F9A8B9C6B116F8010B2168486006
:10346000E08C401EE084E08C4B464FF00002CDF82B
:1034700000800028EAD14FF04001204602F042F9D6
:1034800040B184F841700320C3E735F8020BC0F364
:103490000800E3E784F841700020BAE77047FEE7D0
:1034A00000B51A4989B00978012906D002290AD045
:1034B00003291FD004290DD122E000EE100A14497F
:1034C000B8EE400A04E000EE100A1249B8EE400AD5
:1034D00081ED000A024610A1684602F065F96846CF
:1034E000FCF725FF82B2642369460E48FFF786FF8A
:1034F00009B000BD00EE100A0B49B8EE400AE7E73C
:1035000000EE100A0949B8EE400AE1E70400002085
:1035100028000020240000205365743A2025640D03
:103520000A000000BC050020300000202C00002014
:1035300070B50122084D0646140221462846FEF7C2
:1035400006FB304605F01AFF21462846BDE87040CC
:103550000022FEF7FCBA00000014024010B51F4C18
:1035600090B0A088FFF79CFF2178012907D002299D
:1035700009D01B48032914D004291ED114E00220CD
:103580002070184802E003202070174890ED000AD0
:10359000BCEEC00A10EE100AA0805020FFF7C8FF52
:1035A0000BE004212170F1E7A18800EE101AB8EEBB
:1035B000400A80ED000A00F0EBF8A38822780BA106
:1035C000684602F0F1F86846FCF7B1FE82B2642367
:1035D00069460B48FFF712FF10B010BD0400002031
:1035E0002C00002024000020300000204D6F646576
:1035F0003A25642C2056616C75653A25640D0A00E5
:10360000BC0500200148007870470000040000203D
:103610000148808870470000040000202DE9F04137
:1036200000F048F94A4C064604212046FEF78AFA83
:10363000074610212046FEF785FA464C0546E7B9B5
:103640006078012819D12178B9B10020012906D06C
:10365000022904D0032904D0042903D101E0632006
:1036600000E06420A188814201D2491CA18088B277
:10367000FFF716FF1E20FFF75BFF677075B9A07894
:1036800001280BD1207848B1A08808B1401EA08045
:1036900080B2FFF705FF1E20FFF74AFFA570002E3E
:1036A00035D02D4E707A022808D001282FD12078ED
:1036B00000282CD0BDE8F041FFF750BF27782749FC
:1036C000274A284B284800251FB394ED030A81EDB3
:1036D000000A94ED020A82ED000A94ED050A83EDDA
:1036E000000A94ED040A80ED000A2570A58064208C
:1036F000FFF71EFF6420FEF780F86420FFF718FF35
:103700006423082219A11C48FFF778FE7572BDE8F2
:10371000F0810127277091ED000AFCEEC00A10EE3F
:10372000901AA18084ED030A92ED000A84ED020A4A
:1037300093ED000A84ED050A90ED000A962084EDD1
:10374000040AFFF7F5FE642310220CA1DBE700005A
:103750000010024004000020BC01002028000020CE
:1037600024000020300000202C00002043616E6304
:10377000656C0D0A00000000BC050020456E7465F4
:103780007220536574204D6F64650D0A00000000BF
:103790002DE9F04737483849DFED380A90ED001A37
:1037A00091ED000A96B0B4EEC01AF1EE10FA0CDBFF
:1037B000B1EE041A30EE411A80ED001AB5EEC01ACF
:1037C000F1EE10FA01D2C0ED000A2D4C2D4DD4EDD2
:1037D000001A95ED001AF4EEC11AF1EE10FA0CDBA6
:1037E000F3EE041A71EE611AC4ED001AF5EEC01A78
:1037F000F1EE10FA01D2C4ED000AD4ED001A8246AF
:10380000D0ED000A8846FDF77FFD1F4900200870B3
:103810004FF44870FFF78CFE2868FCF727FE064639
:103820000F462068FCF722FE04460D46D8F800003B
:10383000FCF71CFE80468946DAF80000FCF716FE0D
:103840000DF1080A41EC100B8AE8F00053EC102B44
:103850000EA106A8CDE9008901F0A6FF06A8FCF795
:1038600066FD82B2642306A91148FFF7C7FD16B0B2
:10387000BDE8F087280000202400002000000000A0
:10388000300000202C0000200400002053617665E9
:10389000642120543A252E31667E252E31662C2057
:1038A000483A252E31667E252E31660D0A0000002D
:1038B000BC05002070B501211E48FEF743F90446FF
:1038C000FEF74AF91C4900220123012C0C7840F62E
:1038D000B83502D0022C1DD028E02CB10222012CD8
:1038E00005D0022C14D10AE00B7048601FE04C6830
:1038F000041B322C0CD90A7048604B7208E04C68EB
:10390000001BA84204D9087A10B90B724A720BE066
:10391000002070BD4C68001B0C7A3CB9322805D3DE
:10392000A84203D24B720A70012070BD0A700A725D
:103930004A72EDE700000240BC0100200D4808B5C6
:10394000016841F4001101600068002200F40010D9
:10395000009005211020FEF771F91020FEF760F9A4
:10396000002205211120FEF769F9BDE80840112069
:10397000FEF756B93038024010B504490448FDF747
:103980008EFA0249491E087010BD00006100002037
:10399000B4DD000830B59FB000201D901E901DA81A
:1039A00005F098FD1D4C1E4D0DF1540C606395E81B
:1039B0000F008CE80F00002115A805F000FD103560
:1039C000206395E80F0019AD85E80F00002119A8C4
:1039D00005F0F5FC124920621C2220316846FCF7F4
:1039E00082FC0021684605F0D7FD0D4960621C226B
:1039F0003C3107A8FCF777FC002107A805F0CCFDB7
:103A00000749A0621C2258310EA8FCF76CFC00216B
:103A10000EA805F0C1FDE0621FB030BD1C00002003
:103A200014DD000800B587B01C216846FCF774FC63
:103A300016484FF0204110220160154941600621CF
:103A400081600021C160C0E904128161C16113027B
:103A50000162C0E90913C16201634163816341648A
:103A60000F20FF230090CDE90103CDE903021120CF
:103A7000CDE90501002269460448FEF7FBFE002857
:103A800001D0FDF70AFA07B000BD0000580400207D
:103A9000040100A0F0B587B014216846FCF73CFC97
:103AA00035480025016841F010010160016801F00E
:103AB00010010591016841F020010160016801F0E9
:103AC00020010591016841F080010160016801F069
:103AD00080010591016841F001010160016801F078
:103AE00001010591016841F008010160016801F0E0
:103AF00008010591016841F004010160016801F0CD
:103B000004010591016841F04001016000681B4F0C
:103B100000F04000059000224FF4A0613846FEF707
:103B200016F81420CDE900050124694602941448D2
:103B3000FDF710FF200202268DE871006946384625
:103B4000FDF708FFA002CDE9000469463846CDE93B
:103B50000245FDF7FFFE8DE870000A4E69463046CB
:103B6000FDF7F8FE2020CDE90005694602943046B5
:103B7000FDF7F0FE07B0F0BD3038024000140240FF
:103B80000010024000000240064805490160002183
:103B900041608160C16001614161816170470000E5
:103BA000002C0140A804002010B588B01C216846F4
:103BB000FCF7B2FB154814490024016042F2CF0122
:103BC000C0E9011440F2E731C0E903148461FEF753
:103BD00017FF08B1FDF761F90C48FFF74EF908B17E
:103BE000FDF75BF96020CDE90004029400226946EC
:103BF00006480494FFF7DBF808B1FDF74EF90348D7
:103C0000FFF7AAF808B010BD00200040740500209E
:103C100010B586B0002416480094019402940394D1
:103C200004944FF08041059401605321C0E90114D0
:103C3000611EC0E9031480218161FEF7E1FE08B135
:103C4000FDF72BF94FF48050009069460848FEF7C5
:103C50007CFF08B1FDF721F9049404A904480594F8
:103C6000FEF786FE002801D0FDF717F906B010BD5B
:103C70002C0500200C4810B50A4901604FF4E131D1
:103C80004160002181600C22C160C0E904128161A1
:103C9000C161FFF7C9FA002803D0BDE81040FDF765
:103CA000FCB810BD00100140BC0500200C4810B548
:103CB0000A4901604FF4E1314160002181600C222A
:103CC000C160C0E904128161C161FFF7ADFA00284B
:103CD00003D0BDE81040FDF7E0B810BD004400403F
:103CE00004060020FEE7FEE70A6842624A68826234
:103CF000D1E902231A43D1E904310B43C16A1A43C3
:103D000021F0F7011143C16200207047006800F004
:103D10000300704708444069704770B50DF1100CFE
:103D200011439CE8700023431943294342683143FF
:103D300047F6FF639A430A434260002070BD0321A7
:103D4000016000207047D0F8800070470A688260E8
:103D5000D1E901231A43D1E903310B43C1681A4366
:103D60006FF30B011143C1600020704710B585B09F
:103D700004463720CDE90010402002900020039037
:103D80004FF48060049069462046FFF7DFFF41F260
:103D900088323721204600F09BF905B010BD0000A5
:103DA00010B504460A4885B001432920CDE900102A
:103DB00040200290002003904FF4806004906946F8
:103DC0002046FFF7C3FF204600F03AFA05B010BDC9
:103DD0000000108010B585B004461020CDE9001019
:103DE00040200290002003904FF4806004906946C8
:103DF0002046FFF7ABFF41F288321021204600F049
:103E000067F905B010BD10B585B004460620CDE9B0
:103E1000001040200290002003904FF48060049036
:103E200069462046FFF792FF41F28832062120467C
:103E300000F04EF905B010BD30B585B00024054640
:103E4000009401944FF480600294CDE903406946E8
:103E50002846FFF77BFF0B484FF4FA510068B0FB90
:103E6000F1F041F288314843401E03D24FF0004048
:103E700005B030BD696B0906F6D5C520A86320469C
:103E8000F6E700009400002010B585B004464FF41A
:103E9000D5700090082001904020029000200390EF
:103EA0004FF48060049069462046FFF74FFF20469C
:103EB00000F02CFA05B010BD10B585B004461220F4
:103EC000CDE9001040200290002003904FF4806064
:103ED000049069462046FFF739FF41F288321221EB
:103EE000204600F0F5F805B010BD10B585B00446C9
:103EF0001120CDE9001040200290002003904FF4E3
:103F00008060049069462046FFF720FF41F2883226
:103F10001121204600F0DCF805B010BD10B585B0C9
:103F200004460720CDE900204020029000200390A5
:103F30004FF48060049069462046FFF707FF41F286
:103F400088320721204600F0C3F805B010BD10B537
:103F500085B0044600210220CDE90010C020CDE943
:103F600002014FF48060049069462046FFF7EEFEA0
:103F7000204600F03DF905B010BD10B585B00446EF
:103F80000920CDE90010C0200290002003904FF4DA
:103F90008060049069462046FFF7D8FE204600F076
:103FA00027F905B010BD10B585B0044600213320B7
:103FB000CDE900104020CDE90201000104906946DE
:103FC0002046FFF7C3FE41F288323321204600F03D
:103FD0007FF805B010BD10B585B004460D20CDE9C1
:103FE000001040200290002003904FF48060049065
:103FF00069462046FFF7AAFE41F288320D2120468D
:1040000000F066F805B010BD30B585B00C46054629
:1040100000210320CDE900104020CDE9020100017C
:10402000049069462846FFF791FE22460321284660
:1040300000F028F905B030BD10B585B00446002168
:104040000C20CDE900104020CDE9020100010490D0
:1040500069462046FFF77AFE034A0C21204600F00D
:1040600037F805B010BD000000E1F50510B585B0CA
:1040700004461920CDE90010402002900020039052
:104080004FF48060049069462046FFF75FFE41F2DE
:1040900088321921204600F01BF805B010BD10B57C
:1040A00085B004461820CDE9001040200290002081
:1040B00003904FF48060049069462046FFF746FE67
:1040C00041F288321821204600F002F805B010BDF8
:1040D000454B10B51B684FF4FA54B3FBF4F353434C
:1040E0005B1E02D24FF0004010BD426B12F0450F34
:1040F000F6D01205F4D4426B520703D50421816334
:10410000084610BD426BD20702D00121816305E051
:10411000C52282630269D2B28A4201D0012010BD59
:104120000021FFF7F7FD3149084201D1002010BD01
:10413000002802DA4FF0007010BD410001D5402088
:1041400010BD810001D5802010BDC10002D54FF403
:10415000807010BD010102D54FF4007010BD410107
:1041600002D54FF4806010BDC10102D54FF400604C
:1041700010BD010202D54FF4805010BD410202D59E
:104180004FF4005010BD810202D54FF4804010BDA5
:10419000C10202D54FF4004010BD410302D54FF4D7
:1041A000003010BD810302D54FF4802010BDC10343
:1041B00002D54FF4002010BD010402D54FF4801049
:1041C00010BD410402D54FF4001010BD810402D58A
:1041D0004FF4800010BD000702D54FF4000010BD61
:1041E0004FF4803010BD00009400002008E0FFFD77
:1041F00012494FF4FA520968B1FBF2F141F28832E8
:104200005143491E02D24FF000407047426B12F0FA
:10421000450FF6D01205F4D4416B490703D50421AC
:10422000816308467047416BC90703D00121816350
:1042300008467047C5218163002070479400002024
:104240000F494FF4FA520968B1FBF2F141F288329A
:104250005143491E02D24FF000407047426B12F0AA
:10426000450FF6D01205F4D4416B490703D504215C
:10427000816308467047C5218163002070470000B4
:104280009400002030B5204B4FF4FA541B68B3FB68
:10429000F4F341F2883463435B1E02D24FF00040D6
:1042A00030BD446B14F0450FF6D02405F4D4436BB5
:1042B0005B0703D504218163084630BD436BDB07F0
:1042C00002D00121816303E00369DBB28B4201D09C
:1042D000012030BDC52181630021FFF71BFD10F4D3
:1042E000604F04D0410406D54FF4005030BD000C9F
:1042F0001080002030BD000402D54FF4805030BD46
:104300004FF4803030BD00009400002014494FF479
:10431000FA520968B1FBF2F141F288325143491E69
:1043200002D24FF000407047426B12F0450FF6D0BA
:104330001205F4D4416B490703D504218163084673
:104340007047416BC90703D001218163084670475C
:10435000416B490601D54021816300207047000070
:104360009400002010B5064C01202070FCF7AEFB35
:1043700018B9207820F001002070207810BD0000CE
:104380005800002070B5054605F00DF8044603E01E
:10439000FCF79CFB002806D005F005F8001BA8429E
:1043A000F6D34FF0FF3070BD10B5846BFDF7B1F858
:1043B000022828D0206C416DE06B406D012901D0AE
:1043C00001281DD12168104888632068C16B21F441
:1043D0009D71C163A06B40F08040A0632046FEF752
:1043E0006BF8062801D0052805D12068FFF724FEC8
:1043F000A16B0843A063012084F8340000202063EF
:104400002046FDF779FF10BDFF05400010B5846B15
:10441000206B822809D12068FFF70EFE28B1A16B1E
:104420000143A1632046FDF767FF2068C16A21F0C0
:104430000801C162216840F23A508863012084F883
:104440003400002020632046FEF780F910BD806B09
:104450000068C16B41F48071C16370472DE9F0477A
:1044600088B00D460446FDF777FB0026824600968D
:104470000196374608212068FFF7ACFC00282CD1B4
:10448000B4F8500001042068FFF770FC002824D124
:10449000401E4FF00808CDE9020830204FF0020915
:1044A000CDE904090120CDE9067002A92068FFF7D3
:1044B0001BFC2068FFF777FD00280ED16F462068AF
:1044C000416B11F02A0F0BD0416B090702D4416BED
:1044D00089051AD5C0F83880082008B0BDE8F087F3
:1044E000416B890205D5FFF72EFC47F82600761CA4
:1044F00002E0416B8904E7D5FDF72EFBA0EB0A0033
:10450000401CDCD14FF00040E7E7416B890703D541
:10451000C0F838900220E0E7416B890603D52021DE
:1045200081630846D9E740F23A518163019800BAA5
:104530002860009800BA68600020CEE710B590B0FF
:1045400004460120ADF838002068FFF7DFFB0028A3
:1045500054D0606C032842D02068FFF7F8FC002894
:104560004AD100212068FFF7D5FB6067042120684D
:10457000FFF7D0FBA06708212068FFF7CBFBE067BF
:104580000C212068FFF7C6FBC4F88000606C03288C
:1045900025D00EA92068FFF737FD00282CD1606CCC
:1045A00003281CD0BDF83800206501042068FFF7FF
:1045B000E4FC002820D100212068FFF7ABFB6066F7
:1045C00004212068FFF7A6FBA06608212068FFF7FA
:1045D000A1FBE0660C212068FFF79CFB206704210B
:1045E0002068FFF797FB000DE06403A92046FDF764
:1045F00085FE30B14FF0805010B010BD4FF080609C
:10460000FAE7B4F85000002302042068FFF786FCA4
:104610000028F1D104F1100007C88DE8070094E8E4
:104620000F00FFF77AFB0020E6E700002DE9F84FC6
:104630000026044600963546B0460068FFF7FCFBAE
:10464000002827D12068FFF71FFC4FF0805B4FF058
:1046500001094FF6FF7748B1A6642068FFF7ECFB2D
:10466000002817D1A06C012802D020E0C4F848909F
:1046700000212068FFF77AFB58B918E00021206874
:10468000FFF774FB002805D151462068FFF788FB2F
:1046900010B15846BDE8F88F00212068FFF73AFBBB
:1046A00005464FEAD0780098401C009002E0DFF801
:1046B0002CA00098B84202D2B8F1000FDED00098CA
:1046C000B84202D34FF08070E4E7680002D5C4F826
:1046D000449000E066640020DCE70000000010C1A8
:1046E0007FB5124C05460120207004F04EFEC8B183
:1046F000FCF7F8F918B92846FFF734FE2070207847
:1047000001280FD0606868B9094B0FCB8DE80F0006
:104710000021684604F053FE606018B9207840F02C
:1047200001002070207804B070BD00005800002007
:10473000C8DD000810B5124888B014460078C007DC
:1047400002D0032008B010BDC1B1012905D0022953
:1047500008D003290CD00420F4E76846FCF7B0F930
:1047600006980AE06846FCF7ABF90798208005E058
:104770006846FCF7A5F90798400A20600020E1E7A9
:10478000580000202DE9FE4347F230541E461746DC
:10479000884601252046FFF7F5FD00281EDB32463E
:1047A00039464046FCF7BEF9C0B90F482246416879
:1047B000684604F017FEDDE9001010290ED101282B
:1047C0000CD104F0F0FD064603E000BFFCF77EF9D3
:1047D00038B104F0E8FD801BA042F7D32846BDE8BD
:1047E000FE830025FAE7000058000020FFF7BABD5D
:1047F0002DE9FE4347F230541D46174688460126F0
:104800002046FFF7BFFD00281EDB2A4639464046FA
:10481000FCF79EF9C0B90F4822464168684604F08B
:10482000E1FDDDE9001010290ED102280CD104F0C1
:10483000BAFD054603E000BFFCF748F938B104F0C3
:10484000B2FD401BA042F7D33046BDE8FE830026F0
:10485000FAE70000580000202DED028BA0B016AB47
:1048600015AA14A913A8FCF7CFFCFC4C9DED130A64
:1048700084ED020A9DED140A84ED030A9DED150AEC
:1048800084ED040A9DED160A84ED050A04F054F93E
:104890004FF6FF7001F03AFC0021F148FEF71CFBD7
:1048A000DFF8BC934FF47A70D9F8001048634FF0EA
:1048B00018081F21EBA2CDF80080CDE90121434665
:1048C000C8220F21142004F0B3FC10204FF0000B7D
:1048D000E7A18DE803080346C8224FF4897114202C
:1048E00004F0A6FC4FF0FF3ADFEDE78A9FEDE78A80
:1048F000564652460BA8216B04F074FDDDE90B759A
:104900003146606B04F016FE102F26D1287A01285C
:104910002CD04FF6FF754023DC222821142000956F
:1049200004F0E6F86823DC2250211420009504F0FE
:10493000DFF8D7A1CDF80080CDE9011B5D46182333
:10494000DC222821142004F073FC00223901D44811
:10495000FDF7FDF8D9F800004563606B04F0C2FD77
:10496000FEF75CFEC82004F009FDC1E7FEF74AFE31
:10497000060053D0FEF74CFE0546A078864202D1D1
:10498000E08885423ED04FF6FF700090E023DC22A5
:104990002821142004F0ACF81422C24918A8FBF70F
:1049A000A2FC18A8C0A150F826200BA800F0FCFE1D
:1049B0001F200BAFCDF80080CDE901701823C8226D
:1049C0002821142004F034FCFEF722FE0246B8A190
:1049D0000BA800F0E9FE1F20CDF80080CDE90170A2
:1049E0001823C8225021142004F022FC1021B3A265
:1049F0008DE806080B46C822FA21142004F018FCA2
:104A0000A670E58000224FF48071A548FDF79FF85D
:104A1000D9F800104FF47A7048639EE7FBF7B2FFB5
:104A20000C9095ED000AD4ED060AB4EE600AF1EEA2
:104A300010FA0BD1D5ED010A94ED070AF4EE400A05
:104A4000F1EE10FA02D1E178884279D04FF6FF708A
:104A500000904FF48573DC222821142004F048F8DC
:104A60002868FBF703FD41EC100B98A153EC102BC9
:104A700003A800F099FE03A9CDE900811823C822FC
:104A8000CDF808B02821142004F0D2FB6868FBF7A9
:104A9000EDFC41EC100B90A153EC102B03A800F09F
:104AA00083FE03A9CDE900811823C822CDF808B000
:104AB0005021142004F0BCFBA068FBF7D7FC06468D
:104AC0000F46E068FBF7D2FC41EC100B86A153ECDB
:104AD000102B03A8CDE9006700F066FE03A9CDE91D
:104AE00000811823C822CDF808B07821142004F0E2
:104AF0009FFB2069FBF7BAFC06460F466069FBF78F
:104B0000B5FC41EC100B7CA153EC102B03A8CDE9B4
:104B1000006700F049FE03A9CDE900811823C822EF
:104B2000CDF808B0A021142004F082FB95ED000A16
:104B300084ED060A95ED010A84ED070A0C98E070F1
:104B400004F1080095EC020A90EC041AFBF762FFEE
:104B5000FBF718FF00287CD0012211025048FCF717
:104B6000F6FFD5ED000A94ED021AB0EE480AF4EE15
:104B7000C10AF1EE10FA02DD70EEC10A08E094ED10
:104B8000031AF4EEC10AF1EE10FA0BD271EE600ACC
:104B900021EE281A80EE810AB5EEC00AF1EE10FA75
:104BA00005D307E0B5EEC00AF1EE10FA09D2B0EE77
:104BB000480A06E010EE100AB0F17E5F01DDB7EEA4
:104BC000000ADFED510A617820EE200ABCEEC00A2F
:104BD00010EE100A0A300029A18880B20AD00844D9
:104BE00080B24FF47A71A08088420CD3A18084F8FF
:104BF00001B008E0814202D9081AA08003E0A4F8BD
:104C000004B001206070A088C0F57A71D9F8000066
:104C100041634FF6FF700090E023DC22C82114208E
:104C200003F066FFFBF7A8FE1E4905461822143163
:104C30000CA8FBF758FB0CA834A150F8252017A8A6
:104C400000F0B2FD4FF4784117AA1823CDF8008088
:104C500000E061E0CDE901217EE000001C000020C1
:104C600074050020454E56204D4F4E49544F52007A
:104C70005041303D534554205045323D414444203D
:104C80005045343D535542009A99993E000000002A
:104C900053656E736F72204572726F72210000004F
:104CA0000014024088DD00085345543A2025730063
:104CB00056616C75653A2025640000004C6F6E6784
:104CC000205041303D43616E63656C0054656D70EA
:104CD0003A252E316620430048756D693A252E31FC
:104CE0006620252500000000543A252E31667E25D9
:104CF0002E31662043000000483A252E31667E257D
:104D00002E316620252500000000B442414C41525E
:104D10004D3A5B25735D000000224FF480712148FD
:104D2000FCF715FFD9F800004FF47A7141634FF694
:104D3000FF700090E023F022C821142003F0D8FE79
:104D4000FBF714FE012809D003281BD016A2CDE9D9
:104D500000821823CDF808B0C8220EE0FBF7D6FD7C
:104D6000024616A103A800F01FFD1F2003A9CDF8DD
:104D70000080CDE901101823C822C821142004F0B6
:104D800057FAEAE5FBF7C8FD024610A103A800F0B8
:104D90000BFD4FF4FC6203A8CDF80080CDE90102C1
:104DA0001823D9E70014024054656D702048756DD2
:104DB00069204E6F726D616C000000005761726E69
:104DC000696E673A25642F3500000000436C656109
:104DD00072696E673A25642F3300000092B04FF479
:104DE000E13004F0DDFE174F4FF0FF3842466846D1
:104DF000396A04F0F7FADDE900041028F6D1207AC8
:104E00000128F3D194EC020A04F01AFF6068FBF762
:104E10002DFB05460E462068FBF728FB41EC100BE6
:104E2000CDE9005653EC102B07A102A800F0BCFC02
:104E300002A8FBF77CFA82B2642302A90948FEF7B4
:104E4000DDFAD3E71C000020525334383520536577
:104E50006E643A20543D252E316620483D252E3182
:104E6000660D0A00BC05002094B09FED370A8DED59
:104E7000020A8DED030AFBF77BFE344FDFF8D0A06A
:104E8000344C4FF480694FF005084FF4FA6B03A9D6
:104E900002A8FBF795FE217801EB410107EB8105A4
:104EA00008B3002028720A222946206B04F0E4FA95
:104EB0000A222946206A04F0DFFA64230D2226A183
:104EC0002948FEF79BFA012249465046FCF73FFE6F
:104ED0002078401CB0FBF8F208FB12002070584606
:104EE00004F04CFAD3E7012028729DED020A0A2251
:104EF00085ED000A9DED030A294685ED010A206B28
:104F000004F0BAFA0A222946206A04F0B5FA039896
:104F1000FBF7ACFA05460E460298FBF7A7FA41EC00
:104F2000100BCDE9005653EC102B10A104A800F093
:104F30003BFC04A8FBF7FBF982B2642304A90A48EE
:104F4000FEF75CFA0022BFE700000000C801002065
:104F5000001402401C0000205265616420457272FA
:104F60006F720D0A00000000BC05002054656D70D2
:104F70003A20252E3166432C2048756D693A20254C
:104F80002E316625250D0A0010B5FCF7EBFD05F066
:104F900045FD012803D0BDE8104005F0E3B810BD81
:104FA00030B593B030216846FBF7B6F914210CA850
:104FB000FBF7B2F91E480025016841F080510160FD
:104FC000006800F0805011901A48016841F4804157
:104FD00001600068022400F48040119001200090DC
:104FE000000401908001CDE90640082008904FF4AC
:104FF000A870CDE9090407200B906846FCF73AFF3A
:1050000008B172B6FEE70CA90F2081E831004FF419
:10501000A0500F904FF48050109005210CA8FCF781
:105020003FFE002801D072B6FEE713B030BD00008D
:1050300040380240007000400248016841F47001AD
:105040000160704788ED00E00148FDF7EDBD00000C
:105050002C050020F0B50268274B284D284E294F1B
:10506000294C4FF0804C984209D0604507D0A842A7
:1050700005D0B04203D0B84201D0A04204D122F002
:10508000700E4A6842EA0E0298421BD0604519D061
:10509000A84217D0B04215D0B84213D0A04211D0C8
:1050A0001A4DA8420ED01A4DA8420BD0194DA84255
:1050B00008D0194DA84205D0184DA84202D0184D6D
:1050C000A84203D122F44075CA682A434D6922F0F0
:1050D00080022A438D68C5620D688562984201D0BE
:1050E000A04201D109690163016841F00401016036
:1050F000012141610260F0BD000001400004004058
:1051000000080040000C0040000401400040014045
:10511000004401400048014000180040001C0040CD
:105120000020004010B501F01F030121046A9940DE
:105130008C430462016A9A401143016210BD10B5AC
:10514000846842EA032224F47F440A4322438260B3
:1051500010BD826822F070020A4342F007018160AC
:1051600070470000F0B5036A026A22F00102026291
:1051700042688469124E24F073050C682C4323F0B6
:1051800002058B682B430D4DA84201D0B04205D1DA
:1051900023F00807CB683B4323F00403A84201D067
:1051A000B04205D14D6922F4407215438A692A4301
:1051B00042608461496841630362F0BD00000140C0
:1051C00000040140F0B5026A036A23F01003036291
:1051D000436884690D6824F4E64444EA05248D6834
:1051E00022F0200242EA05120F4D104EA84201D0D3
:1051F000B04206D1CF6822F0800242EA071222F0C4
:105200004002A84201D0B04207D14D6923F4406367
:1052100043EA85038D6943EA8503436084614968F5
:1052200081630262F0BD0000000001400004014003
:10523000F0B5026A036A23F4807303624368C469A9
:1052400022F4007224F073050C68124E2C438D6812
:1052500042EA05220E4DA84201D0B04206D1CF68E5
:1052600022F4006242EA072222F48062A84201D0BE
:10527000B04207D14D6923F4405343EA05138D69C9
:1052800043EA05134360C4614968C1630262F0BD2B
:10529000000001400004014030B5046A026A22F4B3
:1052A000805202624268C3690D6823F4E64343EA10
:1052B00005238D6824F4005444EA0534084DA842BF
:1052C00002D0084DA84204D14D6922F4804242EA3E
:1052D00085124260C36149680164046230BD000008
:1052E000000001400004014010B5036A046A24F084
:1052F00001040462846924F0F00444EA021423F0F7
:105300000A020A438461026210BD10B5036A046A8E
:1053100024F010040462846923F0A00324F4704490
:1053200044EA023243EA01118261016210BD10B504
:10533000806B0021C185FDF736FE10BD70B5846B12
:105340002068406994F84110C0F3C010002521295D
:1053500004D118B1E584204600F08EF82068406939
:1053600094F84210C0F38010222904D118B1E585C9
:10537000204600F05AF8606C40F01000606420464F
:10538000FDF711FE70BD10B50146806B0968096814
:105390004FF00002C9052ED4C28501680C3151E8D6
:1053A000003F23F4807341E80034002CF5D10168FC
:1053B000143151E8003F23F0010341E80034002C90
:1053C000F5D10168143151E8003F23F0400341E872
:1053D0000034002CF5D1202180F84210016B012906
:1053E00009D101680C3151E8003F23F0100341E876
:1053F0000034002CF5D14263016B012902D0FDF786
:10540000FBFF10BD818DFDF7CDFD10BD10B5806B8C
:1054100001214163016B012902D0FDF7EEFF10BDB0
:10542000818D4908FDF7BEFD10BD01680C3151E8C2
:10543000002F22F4907241E80023002BF5D101687F
:10544000143151E8002F22F0010241E80023002B23
:10545000F5D1016B012909D101680C3151E8002F08
:1054600022F0100241E80023002BF5D1202180F822
:10547000421000210163704701680C3151E8002F90
:1054800022F0C00241E80023002BF5D1202180F852
:105490004110704708B590F84210222901D002202F
:1054A00008BD82684FF480539A4201D1016921B14D
:1054B000816A9A421BD04AB10AE00268816A526846
:1054C000C2F308020A80816A891C08E0026972B18D
:1054D0000268526802F07F020A70816A491C816288
:1054E000C18D491E0904090CC18503D01BE0026867
:1054F0005268F1E70168CA6822F02002CA600168B8
:10550000CA6822F48072CA6001684A6922F0010206
:105510004A61202180F8421000214163026B012A78
:1055200003D0FDF769FF002008BD016301680C315D
:1055300051E8002F22F0100241E80023002BF5D1A2
:1055400001680A68D20602D50A6849680091818D0F
:10555000FDF728FDE7E7000070B504460068016923
:10556000E26821F44051114301612169A068E269B8
:1055700008436169114308432168CA6849F20C6312
:105580009A430243CA6020684169A26921F44071CC
:105590001143416131492068884202D03049884234
:1055A00002D1FCF727FC01E0FCF714FCE2690023C0
:1055B000192164253226B2F5004F626828D0A0FB7D
:1055C0000101930F9200FAF75DFE0146B0FBF5F082
:1055D0006FF01802504301EB800006EB0010B0FBA7
:1055E000F5F000F0F002B1FBF5F002EB0012B1FBB8
:1055F000F5F06FF01803584301EB800006EB001044
:10560000B0FBF5F000F00F0021681044886070BD19
:10561000A0FB010192185B41FAF734FE0146B0FB92
:10562000F5F00201B1FBF5F06FF01803584301EB00
:10563000800006EBC000B0FBF5F000F0F80002EBD4
:105640004002B1FBF5F0584301EB800006EBC000CF
:10565000B0FBF5F000F00700D6E7000000100140B5
:105660000014014038B5816204468285002013464B
:105670006064222284F84220E56B1F4AEA63E56BEE
:105680001E4A2A64E56B1E4AEA64E26B10650A460C
:105690002168E06B091DFCF779F830B110206064D7
:1056A000202084F84200012038BD2068016840684D
:1056B0000090206948B120680C3050E8001F41F488
:1056C000807140E80012002AF5D12068143050E8BB
:1056D000001F41F0010140E80012002AF5D12068C6
:1056E000143050E8001F41F0400140E80012002A49
:1056F000F5D1002038BD0000875300080D54000884
:105700003D5300082DE9F843984617460D460446D8
:10571000089E24E0701C22D0FCF71EFAA0EB0800C3
:10572000B0421AD8CEB12068C168490717D5802D7C
:1057300015D0402D13D00168C94309070FD4016863
:105740000025406800902046FFF76FFE0820606447
:1057500084F840500120BDE8F8830320FBE720686F
:10576000006835EA000004D00020B842D2D0002002
:10577000F1E70120F9E700000148FDF715BC000042
:1057800004060020FEE700000FB4054B10B503A986
:10579000044A029800F0FEF810BC5DF814FB00000B
:1057A000E9600008040100200FB4084B10B504A9FB
:1057B00002AA039800F0EEF8044602A9002000F0C7
:1057C0006CFC204610BC5DF814FB00009B600008D8
:1057D0000907090E002804DB00F1E02080F800141E
:1057E000704700F00F0000F1E02080F8141D7047B2
:1057F00002E008C8121F08C1002AFAD1704770479A
:10580000002001E001C1121F002AFBD170470000F7
:105810002DE9FF5F82B00021DDE90430020DDDF8E3
:1058200040B0034318D044F61050A2F2FF32424376
:105830001514119801281FD0A5EB0B00401C5FEA3E
:10584000000A4FF000064E4FDFF83891B046504640
:1058500015D5CAF1000413E0119801244AA30128C8
:1058600001D16FEA0B010298119AC0E90031C0E939
:10587000024206B0BDE8F09FCBF10000DFE704462E
:105880000021404A491842EB0450CDE9001012E0D3
:10589000E00707D032463B4640464946FAF74EFD00
:1058A0008046894632463B4610461946FAF746FD81
:1058B00006460F466410002CEAD1DDE90401DDE95B
:1058C0000023BAF1000F06DAFAF738FD42464B46DC
:1058D000FAF734FD05E0FAF715FF42464B46FAF7B2
:1058E00011FF04460E460022284BFAF793FF03D817
:1058F0004FF0FF30014607E00022254B204631469D
:10590000FAF759FEFAF76DFF102409E0002C0ADBC4
:105910000A220023FAF7B6FC039B30321A55641EA4
:1059200050EA0102F2D1641C039AC4F11103144439
:10593000119A012A03D0012208430DD10AE008433D
:1059400004D000204FF0110B119072E7A3EB0B0570
:105950006D1E0DE05B4504DD4FF0000205F1010511
:1059600004E003DA4FF00002A5F10105002AECD0B3
:1059700002981199C0E90231C0E9004579E70000B9
:10598000000014400000F03F300000000000F04331
:105990000000E03F2DE9FF4F95B09A468846064645
:1059A0000025EEE1252877D100242746F94A012178
:1059B000039400E0044316F8013F203B01FA03F092
:1059C0001042F7D130782A2811D06FF02F033078A9
:1059D000A0F13002092A16D8039A44F0020402EB1F
:1059E000820203EB42021044761C0390EFE758F862
:1059F000042B0392002A03DA504244F4005403902B
:105A000044F00204761C30782E2816D116F8010FC7
:105A100044F004042A280DD06FF02F023078A0F152
:105A20003003092B09D807EB870302EB4303C718A0
:105A3000761CF3E758F8047B761C30786C280FD07E
:105A400006DC4C2817D068280DD06A2814D104E051
:105A5000742810D07A280FD10DE044F400140AE025
:105A600044F4801401E044F440147278824202D17C
:105A700004F58014761C761C307866280BD013DC75
:105A8000582877D009DC002875D04528F6D046285C
:105A9000F4D047281AD193E118E0632835D0642860
:105AA00079D0652812D18BE1702873D008DC672883
:105AB000F1D069286FD06E280DD06F2806D1ACE0E8
:105AC00073282CD0752874D0782853D05246179953
:105AD00090476D1C54E1C4F30250022809D00328FA
