:020000040800F2
:100000004846002061020008CF25000809230008A7
:10001000CD25000839090008573700080000000006
:10002000000000000000000000000000A101000826
:10003000D10B000800000000FD0100088533000816
:100040007B0200087B0200087B0200087B0200089C
:100050007B0200087B0200087B0200087B0200088C
:100060007B0200087B0200087B0200087B0200087C
:100070007B0200087B0200087B0200087B0200086C
:100080007B0200087B0200087B0200087B0200085C
:100090007B0200087B0200087B0200087B0200084C
:1000A0007B0200087B0200087B0200087B0200083C
:1000B000453400087B0200087B0200087B02000830
:1000C0007B0200087B0200087B0200087B0200081C
:1000D0007B0200087B0200087B0200087B0200080C
:1000E0007B0200087B0200087B0200087B020008FC
:1000F0007B0200087B0200087B0200087B020008EC
:100100007B0200087B0200087B0200087B020008DB
:100110007B0200087B0200087B0200087B020008CB
:100120007B0200087B0200087B0200087B020008BB
:100130007B0200087B0200087B0200087B020008AB
:100140007B0200087B0200087B0200087B0200089B
:100150007B0200087B0200087B0200087B0200088B
:100160007B0200087B0200087B0200087B0200087B
:100170007B0200087B0200087B02000800000000F0
:100180007B0200087B020008DFF810D000F05AFB69
:1001900000480047F9720008AFF30080484600208D
:1001A0002C4B19680868B0E8F04F80F30988BFF35A
:1001B0006F8F4FF0000080F311887047000000003F
:1001C00008480068006880F308884FF0000080F35A
:1001D000148862B661B6BFF34F8FBFF36F8F00DF35
:1001E00000BF00BF08ED00E0DFF80C00016841F43B
:1001F00070010160704700BF88ED00E0EFF30980F7
:10020000BFF36F8F134B1A681EF0100F08BF20ED5D
:10021000108A20E9F04F106009B44FF0500080F3CD
:100220001188BFF34F8FBFF36F8F07F063FE4FF05E
:10023000000080F3118809BC19680868B0E8F04F25
:100240001EF0100F08BFB0EC108A80F30988BFF3CE
:100250006F8F704740000020EFF30580704700006B
:100260000648804706480047FEE7FEE7FEE7FEE750
:10027000FEE7FEE7FEE7FEE7FEE7FEE735340008AF
:10028000890100082DE9F05F0546002092469B4653
:1002900088460646814640241BE02846414647469C
:1002A000224600F01BF953465A46C01A914110D31A
:1002B00011461846224600F002F92D1A67EB010894
:1002C0004F4622460120002100F0F9F817EB000903
:1002D0004E41201EA4F10104DFDC484631462A4687
:1002E0004346BDE8F09F40EA01039B0703D009E0C5
:1002F00008C9121F08C0042AFAD203E011F8013B12
:1003000000F8013B521EF9D27047D2B201E000F86A
:10031000012B491EFBD270470022F6E710B51346A9
:100320000A4604461946FFF7F0FF204610BD421C5E
:1003300010F8011B0029FBD1801A70472DE9FE4FF0
:1003400081EA030404F0004421F0004100944FF0DE
:10035000000B23F0004350EA01045ED052EA03048C
:100360005BD0C3F30A54C1F30A552C44A4F2F3340E
:100370000194A0FB0254C1F3130141F48011C3F3B3
:10038000130343F4801301FB024400FB034E840A71
:10039000970A44EA815447EA8357A4FB0768029509
:1003A0008D0A05FB07854FEA932C04FB0C542705A7
:1003B000029D4FEA065847EA1637B5EB08056EEB83
:1003C000070C870E920E47EA811742EA8312A7FBB9
:1003D0000201B6EB0B0164EB00042B0D43EA0C3376
:1003E0005E1844EB1C50DA465146E7FB0201C5F3A8
:1003F00013044FEA0B3343EA14534FEA0432019CCF
:1004000043EA0603A4F10C040294009CCDE900B475
:1004100000F083F803B0BDE8F08F00200146F9E753
:100420000EB540F2334102910021CDE900110A4698
:100430000B4600F072F803B000BDC1F30A5210B5CC
:10044000C1F3130140F2FF3341F480119A4201DA03
:10045000002010BD40F233439A42A2F2334203DC43
:10046000524200F03BF810BD904010BD00F0004239
:1004700030F000400AD0C10D01F56071C0F31600E4
:1004800042EA0151C208400711437047002001466B
:10049000704730B50B46014600202022012409E0B8
:1004A00021FA02F59D4205D303FA02F5491B04FA2D
:1004B00002F52844151EA2F10102F1DC30BD202A0C
:1004C00004DB203A00FA02F1002070479140C2F1AB
:1004D000200320FA03F3194390407047202A04DBDD
:1004E000203A21FA02F00021704721FA02F3D040AD
:1004F000C2F12002914008431946704710B5141EFE
:1005000073F1000408DA401C41F1000192185B41CC
:100510001A4301D120F0010010BD2DE9F04D9246A3
:100520009B4611B1B1FA81F202E0B0FA80F22032BA
:100530009046FFF7C4FF04460F4640EA0A0041EA2E
:100540000B0153465A46084313D0114653EA0100A3
:1005500019D0C8F140025046FFF7C0FF05460E46CD
:10056000504659464246FFF7AAFF084305D00120EE
:1005700004E020463946BDE8F08D0020054346EAF8
:10058000E0762C4337430A986305E40AA0EB0800A1
:100590000022FD0A44EA47540A3002D500200146F1
:1005A000E9E7010510196941DDE9084500196941CC
:1005B000BDE8F04DA2E72DE9FE4F804681EA030039
:1005C000C00F0C46009021F0004123F00045B8EB2D
:1005D0000200A94105D24046214690461C460B46E2
:1005E000024623F00040104347D0270DC7F30A000E
:1005F000C3F30A510290401A019040286BDAC3F30A
:10060000130040F4801B0098924620B10023D2EBE7
:10061000030A63EB0B0B01985946C0F140025046A8
:10062000FFF74DFF06460D4650465946019A00F029
:100630001BF910EB08006141002487EA115284EA9B
:10064000E7731A4340D0009A62B3019A012A4FEA35
:10065000075215DC001B61EB02014FF0004202EA79
:100660000752CDE90042001C41F5801132462B466D
:10067000FFF753FF03B0BDE8F08F40462146F9E78E
:10068000001B61EB0201001C41F5801300185B4167
:100690002018A2F5001747EB030140EAD570B61900
:1006A0006D4111E06D084FEA360645EAC0754FEA24
:1006B0000752001B61EB0201001C41F58011490843
:1006C0004FEA30000019514132462B4603B0BDE8D5
:1006D000F04FFFF713BF0098012240000023D0EB3A
:1006E000020263EBE073009821464FEAE074B8EB36
:1006F000000061EB0401E9E783F000435BE781F070
:10070000004158E72DE9F04D81EA030404F0004B65
:1007100021F0004514464FF0000A23F0004150EA52
:10072000050220D054EA01021DD0C5F30A57024643
:10073000C5F31303C1F31300C1F30A5640F4801547
:1007400043F48013A7EB0608101BD64608F2FD38C9
:1007500073EB050002D308F1010801E092185B4138
:10076000B8F1000F03DA00200146BDE8F08D00204B
:100770004FF48011064684460EE0171B73EB050705
:1007800005D3121B63EB050306434CEA010C490831
:100790004FEA300092185B4150EA0107EDD152EA6E
:1007A000030012D082EA040083EA0501084305D061
:1007B000101BAB4106D20122002306E000224FF0BD
:1007C000004302E06FF0010253101AEB06004CEBFD
:1007D000085110EB0A0041EB0B01BDE8F04DFFF7AB
:1007E0008DBEC1F30A52C1F3130140F2FF3341F44D
:1007F00080119A4202DA00200146704740F23343EA
:100800009A42A2F2334202DC5242FFF767BEFFF780
:1008100056BE000030B5041E71F1000404DB4FF039
:100820000044404264EB0101141E73F1000405DB37
:100830001C464FF00043524263EB0403994208BF49
:10084000904230BD064C074D06E0E06840F00103E1
:1008500094E8070098471034AC42F6D3FFF798FCB1
:10086000D0BC0008F0BC0008202A06DBCB17203AD9
:1008700041FA02F043EAE07306E041FA02F3D040A5
:10088000C2F12002914008431946704701460148D1
:1008900001F010B8F003002010B5044801F01CF876
:1008A000042801D0012010BD002010BDF00300205D
:1008B00010B500F015F8012801D0012010BD07483F
:1008C00001F020F8040006D14FF40061034800F065
:1008D00097FE00B10124204610BD0000F003002067
:1008E00008B501208DF800009DF8000008BD00004B
:1008F000134610B50A4601460024034801F0A4F847
:1009000000B10124204610BDF0030020024800225F
:100910000121406806F08EBD20000020134610B56E
:100920000A4601460024034801F024F900B10124DD
:10093000204610BDF0030020FEE7000030B587B070
:1009400014216846FFF7E8FC0E48016841F04001B9
:10095000016000684FF4007400F040000590112021
:10096000CDE90040012002900220074D0390694626
:10097000284600F0FFF901222146284600F0F7FA48
:1009800007B030BD303802400018024070B50D4647
:10099000064600242946304600F04CF8002807D0CF
:1009A000642003F073FB641CE4B20A2CF2D3012030
:1009B00070BD00002DE9F84F83460020DFF870A0DD
:1009C0008DF80000054680464FF496764FF4007986
:1009D00000246F463146204600F0C8F830BB31464F
:1009E000012000F0C3F808BB05E00120641C03F0FF
:1009F0004DFBB4421AD84946504600F0B3FA0128DC
:100A0000F3D01E2C01D9012000E0002038709DF8A1
:100A1000000008F1010840EA4500C5B2B8F1080F2E
:100A2000D6DB8BF800500020BDE8F88F0120FBE7F3
:100A3000001802402DE9FC4781460020464D8846BB
:100A40000090064602464FF4007401902146284665
:100A500000F08DFA44F6206003F018FB01222146D5
:100A6000284600F084FA1E2003F010FB4FF496771E
:100A700005E00120761C03F009FBBE4263D8214645
:100A8000284600F06FFA0128F3D0002605E0012087
:100A9000761C03F0FBFABE4255D82146284600F0EA
:100AA00061FA0028F3D0002605E00120761C03F04F
:100AB000EDFABE4247D82146284600F053FA0128F5
:100AC000F3D000246D462819FFF774FFD8BB641CCF
:100AD000052CF8DB9DF800309DF801209DF80210F0
:100AE0009DF803009C180D182C449DF80450AC424E
:100AF00029D100EE103A9FED191A01EE900AF8EE96
:100B0000400A00EE102AF8EE611AB8EE400A40EEF4
:100B1000010A00EE101AB8EE400AF5EEC00A01EE26
:100B2000810AF1EE10FA0ED310EE900A0C498842B9
:100B300009DC10EE100A0B49884204D810EE100AA6
:100B40000949884202DD0120BDE8FC87C8ED000AA2
:100B500089ED000A0020F7E700180240CDCCCC3D1B
:100B60000000C8420000A0C10000A0422DE9F041F1
:100B70000E46054600244FF40077DFF8288008E091
:100B8000012003F083FA641CB44202D30120BDE8C3
:100B9000F0813946404600F0E5F9A842F0D1002046
:100BA000F5E700000018024030B50468256825F418
:100BB00080252560046863608368402B036803D048
:100BC00099600068C26030BD9A600068C16030BD45
:100BD000704772B6FEE70022AFF3008030B50E4BCF
:100BE000054601205C7A002C14D1587A1C54587A9E
:100BF00003EB800045605D7A03F108002A54587ABF
:100C0000421C5A72303008703A2048702F20887089
:100C1000CC70002030BD00004C05002030B5B3F58D
:100C2000804F05D06FF0704140F82210002030BD99
:100C30008C690B688D6823434C688989240144EAD8
:100C40000524234343EA014150F82230014C23405C
:100C50001943E9E70000F0CF10B50A6850F82230D8
:100C600023F0010340F822308C68082C23D00023A5
:100C70004A682243CC681C430B6922431A434B69E0
:100C80000E4C1A43CB691A430B6A1A434B6A1A4338
:100C90008B6A1A43CB6A1A430B6B1A438B69134353
:100CA000CA6B09681A4350F82130A343134340F834
:100CB0002130002010BD4023DAE700007FFF0F0045
:100CC00030B5D1E9003443EA04138C688D892402DD
:100CD00044EA054423430C8A074D00EB820005EBF0
:100CE000045423430C7D6D0105EB0464896923439F
:100CF0000B434360002030BD0000F0FF406D7047A3
:100D00002DE9F0410446866D90F834000025012855
:100D10000DD0012084F8340094F835700020012FA4
:100D200007D084F8340002252846BDE8F08102206F
:100D3000FBE7022784F8357060652046FFF734FF33
:100D400094F85C103F208840B0602068016841F052
:100D500016010160206C20B12068016841F0080193
:100D600001602068016841F001010160DCE780B2A8
:100D700003F086B92DE9F84FDFF8BCA10022012568
:100D800003264FF00F090AF1040BAAF1040E00BF6D
:100D90000B6805FA02F42340A34270D10F7907F0E3
:100DA0000307012F01D0022F16D187684FEA4208AE
:100DB00006FA08FC27EA0C07D1F80CC00CFA08FC6C
:100DC0004CEA070CC0F808C04768A7430C79C4F385
:100DD000001494403C4344600C79E443A4070AD0D7
:100DE000C4684FEA420C06FA0CF7BC438F6807FA56
:100DF0000CF72743C7600C7904F00304022C12D1CE
:100E0000D40800EB840CDCF820405707FF0E09FAE9
:100E100007F824EA0804D1F8108008FA07F848EA2D
:100E20000408CCF8208004684FEA420C06FA0CF75C
:100E3000BC430F7907F0030707FA0CF72743076055
:100E40004C6814F4403F70D03C4C276847F480470E
:100E50002760246822F0030704F480440094384C8F
:100E600007EB040CDCF8084897074FEA177809FAF3
:100E700008F7BC43334FB84202D1002724E054E0C6
:100E8000314FB84201D101271EE0304FB84201D1A5
:100E9000022719E02E4FB84201D1032714E02D4F4D
:100EA000B84201D104270FE02B4FB84201D10527EA
:100EB0000AE02A4FB84201D1062705E0284FB84280
:100EC00001D1072700E0082707FA08F72743CCF8E5
:100ED0000878DAF800405746D1F804C09C435FEA2E
:100EE000CC2C00D51C433C60DBF800405F46D1F8B9
:100EF00004C09C435FEA8C2C00D51C433C60DEF8A8
:100F000000407746D1F804C09C435FEA8C3C00D592
:100F10001C433C60084F083F3C68D1F804C09C4328
:100F20005FEACC3C00D51C433C60521C102AFFF405
:100F30002FAFBDE8F88F0000083C01404438024064
:100F4000003001400000024000040240000802405E
:100F5000000C024000100240001402400018024041
:100F6000001C02400069084000D0012070470AB10F
:100F7000816170470904FBE7014880687047000001
:100F80003000002002488168027811448160704777
:100F9000300000200B4810B5016841F40071016079
:100FA000016841F480610160016841F48071016071
:100FB000032000F073F80F2000F006F800F024F88A
:100FC000002010BD003C024070B50D4D04464FF4AA
:100FD0007A712878B1FBF0F00A490968B1FBF0F0AA
:100FE00000F0C0FE48B9102C07D200222146501E46
:100FF00000F034F800206C6070BD012070BD00006E
:10100000300000203C0000200C4882B0016841F410
:1010100080410160006800F4804000900748001F94
:10102000016841F0805101600068002200F08050AA
:1010300000900F21901E02B000F010B8443802401A
:10104000002809DB00F01F020121914040098000C7
:1010500000F1E020C0F8001170470000F0B40E4B22
:101060001B680C46C3F30223C3F10705042D00D906
:101070000425191D072901D2002300E0DB1E0126EB
:1010800006FA05F1491E214099409E40761E164001
:101090003143F0BC02F084BB0CED00E0064900F0E7
:1010A000070208684FF6FF03184040EA0220034A8F
:1010B00010430860704700000CED00E00000FA05E6
:1010C0002DE9F0470E46050065D0DFF81481D8F809
:1010D0000000F7B200F00700B04207D288F80070B5
:1010E000D8F8000000F00700B04254D128683D4C09
:1010F000810712D5400703D5206840F4E0502060F6
:101100002878000703D5206840F4604020602068FC
:10111000A96820F0F000084320602878C0072DD08F
:10112000304968680839012812D0022813D00328F2
:1011300011D00968890700292DDA216821F00301FF
:1011400001432160FFF718FF814641F2883A0EE023
:1011500009688903EFE709688901ECE7FFF70CFFED
:10116000A0EB0901514502D90320BDE8F0872068B2
:10117000696800F00C00B0EB810FEFD1D8F80010D7
:10118000404601F00701B14207D90770006800F03E
:101190000700B04201D00120E7E72878400705D5D5
:1011A0002068E96820F4E0500843206028780007B0
:1011B00006D52068296920F4604040EAC10020601B
:1011C00000F038F82168084AC1F30311515CC840A7
:1011D0000649086006480068FFF7F6FE0020C4E7ED
:1011E000003C02400838024080BC00083C0000205F
:1011F000340000200448054900680968044AC1F326
:101200008221515CC84070473C00002008380240F1
:1012100090BC00080448054900680968044AC1F305
:101220004231515CC84070473C0000200838024001
:1012300090BC0008154810B5006810F00C02144866
:1012400013D04110042A0FD0082A0ED10F4C241FAE
:101250002268236802F03F025B0207D52068C0F3D2
:101260008810A0FB010106E0084610BD2168C1F30B
:101270008811A1FB00010023FFF704F82168C1F3E6
:101280000141491C4900B0FBF1F010BD0838024093
:101290000024F4002DE9F84F04006ED02078DFF828
:1012A0004C93C007A9F104054AD009F10400016874
:1012B000C1F38101012908D00068C0F38100022830
:1012C0000AD1D9F80000400206D52868800337D536
:1012D00060680028E1D033E06068B0F5803F10D04E
:1012E000B0F5A02F286810D020F48030286028683E
:1012F00020F4802028606068A8B1FFF73DFE064614
:101300000DE0286840F48030F4E740F48020286045
:10131000F7E700BFFFF730FE801B642873D828680A
:101320008003F7D50CE0FFF727FE064605E000BF77
:10133000FFF722FE801B6428F0D828688003F7D4CA
:101340002078DFF8AC8280074FF0000A3ED5A7482E
:10135000001D016811F00C0F08D00068C0F3810077
:1013600002280BD1D9F80000400207D42868800772
:1013700016D5E068012800D112E033E1E068B8B189
:101380000120C8F80000FFF7F7FD064605E000BFA2
:10139000FFF7F2FD801B0228C0D828688007F7D528
:1013A0002868216920F0F80040EAC10028600DE0BB
:1013B000C8F800A0FFF7E0FD064604E0FFF7DCFDFB
:1013C000801B02281FD828688007F7D420780007E0
:1013D00022D5864F87486169703771B1012101605C
:1013E000FFF7CAFD064604E0FFF7C6FD801B022892
:1013F00009D838688007F7D50EE0C0F800A0FFF7DD
:10140000BBFD064605E082E0FFF7B6FD801B022823
:101410007DD838688007F7D42078400768D5DFF892
:10142000CCB100270BF13C0BDBF80000C0000BD463
:10143000DBF8001041F08051CBF80010DBF8000021
:10144000012700F0805000906B4E3068C00510D42A
:10145000306840F480703060FFF78EFD009005E04A
:10146000FFF78AFD0099401A022850D83068C0055D
:10147000F6D55E4EA0686C3601280FD0052830687E
:1014800010D020F001003060306820F0040030609F
:10149000A068B8B1FFF770FD00900FE0306840F031
:1014A0000100F4E740F004003060F7E7FFF764FD67
:1014B0000099411A41F28830814266D8306880072D
:1014C000F4D50EE0FFF758FD009007E0FFF754FD5C
:1014D0000099411A41F28830814256D8306880071D
:1014E000F4D42FB1DBF8001021F08051CBF80010BC
:1014F000A069C8B33D49091D0968C1F381010229EA
:101500004AD00228504607D0C8F8600000E03CE00E
:10151000FFF732FD04463BE04746C8F86000FFF79E
:101520002BFD064605E000BFFFF726FD801B0228C5
:101530002BD828688001F7D4D4E907010843A16AB1
:101540002E4A490802EB0141626A41EA82110843CE
:1015500094F82C1040EA0161C9F8001001203866A7
:10156000FFF70AFD044606E03EE000BFFFF704FD7A
:10157000001B022809D828688001F7D534E000BF95
:10158000FFF7FAFC001B022802D90320BDE8F88F00
:1015900028688001F4D427E00128F7D0D9F80000AA
:1015A000E26900F4800191421CD1226A00F03F01FF
:1015B000914217D147F6C071626A0140B1EB821FB8
:1015C00010D1A26A4FF0FF3300F4403103EB520216
:1015D000B1EB024F06D194F82C1000F07060B0EB24
:1015E000016F01D00120D1E70020CFE7043802408D
:1015F00000004742800E4742007000400000FFFF9D
:101600002DE9FE430446002603200D4684F83400ED
:10161000606C03285ED0B5F5805F5BD04FF4006747
:1016200000204FF08068BD421FD18146009001909C
:101630000021206800F0E2FF800113D469462046B3
:1016400001F080FB07000DD10198400334D5B4F8B8
:1016500050000104206800F0FDFF070002D10221C4
:10166000206823E0A06B384328E01DB1A06B40F058
:10167000006023E08146009001900021206800F086
:10168000BDFF8001EED46946204601F05BFB0700F8
:10169000E8D10198C0030FD5B4F8500001042068C8
:1016A00000F0D8FF0700DDD10021206801F01FF80D
:1016B0000700D7D14F46D5E74746D3E7A063A06BD5
:1016C000144F4FF0010848B12068876384F83480D4
:1016D00001260EE0A06B40F08050EFE7211DD4E919
:1016E000050C0EC9CDE90050CDF808C0206800F007
:1016F00088FF4FF40071206800F0E0FF28B12168F6
:101700008F63A16B0143A163012684F834803046C6
:10171000BDE8FE83FF05400070470000F0B5426E53
:10172000920F0A70426EC2F383624A70426EC2F335
:1017300001628A70426E120CCA70B0F86420120AFC
:101740000A7190F864204A71826E120DCA80826E0E
:10175000C2F303420A72B0F86820C2F3C0324A7280
:10176000B0F86820C2F380328A72B0F86820C2F301
:101770004032CA72B0F86820C2F300320A73002601
:101780004E73426C4FF40075012462B1012A3AD0C5
:10179000026847499163816B41F08051816380F811
:1017A00034400120F0BDB0F86820C36E9205120DE0
:1017B00042EA93720A61C26EC2F3C2620A75C26ED5
:1017C000C2F302624A75C26EC2F342528A75C26E99
:1017D000C2F38242CA75C26EC2F3C2320A760A6985
:1017E000521C42650B7E03F007039B1C9A40426526
:1017F0000B7A03F00F0704FA07F383655B0A5A4379
:10180000C0E917250EE090F86820C36E9206920A90
:1018100042EA13420A610A69521C92024265C0E917
:101820001652056630F86C2FC2F3803201F8192F7A
:101830000288C2F3C6124A70027802F07F028A70F0
:101840004268D20FCA704268C2F341720A7142689C
:10185000C2F382624A714268C2F383528A7142685B
:10186000C2F34052CA710E724268C2F300424A7219
:101870008288C2F3C0328A728288C2F38032CA720E
:101880008288C2F340320A738288C2F300324A73FC
:101890008288C2F381228A738288C2F30122CA73CA
:1018A0000079C0F3460008744C740020F0BD0000BD
:1018B000FF054000426C0A60826C4A60C26C8A601C
:1018C000026DCA60426D0A61826D4A61C26D8A61B1
:1018D000006EC8610020704770B50446B0F8500033
:1018E00000250104206800F0EAFF18B1A16B014354
:1018F000A16304E00021206800F080FE0546C5F3E6
:10190000432070BD70B504000ED094F8340000255B
:1019100018B92577204600F04DF8032084F83400EC
:10192000204600F00BF808B1012070BDA5632563C7
:10193000012084F83400002070BD0000FEB50025B1
:10194000044676200095CDE901502B462A462946CB
:10195000206800F056FE154E46F8A05F206800F0A3
:1019600062FE012535600220FFF701FA204601F0F2
:10197000D1FA28B184F83450A16B0143A16313E07C
:10198000204601F04FFA0028F4D14FF4007120688E
:1019900000F094FE002808D0226805499163A16BED
:1019A0000143A16384F834500120FEBD008025422C
:1019B000FF054000F0B587B0044614216846FEF7E5
:1019C000ABFC1D492068884233D11C4800240168C3
:1019D00041F400610160006800F400600590174860
:1019E0001438016841F004010160016801F004014C
:1019F0000591016841F0080101600068022500F0CE
:101A0000080005904FF4F850CDE9000502AA03261E
:101A10000C2782E8D00069460948FFF7ABF904209B
:101A2000CDE9000502AA694682E8D0000548FFF723
:101A3000A1F907B0F0BD0000002C0140443802407D
:101A400000080240000C02402DE9F04786B01F4616
:101A50000446154639B194F83400012807D0022015
:101A600006B0BDE8F087A06B40F0006008E0002001
:101A7000A063E36DEA199A4204D9A06B40F00070AC
:101A8000A06369E0032284F8342022688146D06292
:101A90002268D36B40F22A363343D363236C2F4A38
:101AA000DA63236C2E4ADA64226C1065226C906033
:101AB000206C0068026822F0C002026020680A46BA
:101AC000266C4FEA472800F180014FEA9803304620
:101AD000FFF716F9DFF88CA0012670B12068C16B02
:101AE00021F49571C1632168C1F838A0A06B40F062
:101AF0008040A06384F834602EE01B480660606C70
:101B0000012800D06D024FF0FF30CDE90008902091
:101B1000029002200596CDE903096946206800F08D
:101B200057FD012F06D9822020632946206800F046
:101B300037FE05E0812020632946206800F049FE39
:101B400000288DD02268C2F838A0A16B0143A163A0
:101B500084F83460C4F83090012081E7F52C000847
:101B6000912C0008FF0540008C85254210B5FEF73A
:101B7000CDFE10BD2DE9F04F5FEA010B87B01E4688
:101B80000446114607D094F83400012807D00220FB
:101B900007B0BDE8F08FA06B40F0006008E00025C2
:101BA000A563E26D8819904204D9A06B40F00070E3
:101BB000A06356E0032084F834002068C5622068E2
:101BC000C26B40F21A2942EA0902C263E26B2D4855
:101BD000D063E26B2C48D064E06B0565606C012833
:101BE00000D049024FF09008012E05D9A0202063B3
:101BF000206800F0AFFE04E0C4F83080206800F0F8
:101C0000C2FEDFF888A0012730B12268C2F838A0F0
:101C1000A16B0143A16321E01D480760E16B4020F7
:101C20008860E06B0068016821F0C00141F040016C
:101C3000016022687602B30859468032E06BFFF7F4
:101C40005FF880B12068C16B21EA0901C163216896
:101C5000C1F838A0A06B40F08040A06384F83470D5
:101C60002563012094E74FF0FF30CDE90006CDE970
:101C70000285CDE904576946206800F0A9FC0020E0
:101C800086E70000372D0008912C0008FF05400072
:101C90008C85254270B515460E46040003D094F895
:101CA000490010B107E0012070BD002084F8480011
:101CB000204600F01DF804F108012068FEF7CCFF73
:101CC0003146A2682068FEF7FBFFD4E901022946ED
:101CD000236BFEF7A3FF2168A06851F8202042F093
:101CE000010241F82020012084F84900002070BD45
:101CF000194800B5016887B041F001010160006832
:101D000000F00100059014480838016841F008010E
:101D10000160016801F008010591016841F01001BE
:101D200001600068012100F0100005904CF2037082
:101D300000900220CDE9010103900C200490694637
:101D40000648FFF717F84FF6807000906946044880
:101D5000FFF710F807B000BD38380240000C024011
:101D60000010024010B5401EB0F1807F01D3012069
:101D700010BD4FF0E02460610F21601701F010FDED
:101D80000020A06107202061002010BD704770472F
:101D900070B590F83C20012A32D0012480F83C40F4
:101DA000022280F83D2003685A689D6822F0700680
:101DB0000A6832435A60134B02689A4214D0B2F157
:101DC000804F11D0104B9A420ED0104B9A420BD03C
:101DD0000F4B9A4208D00F4B9A4205D00E4B9A42B5
:101DE00002D00E4B9A4204D1496825F08003194372
:101DF000916080F83D40002180F83C10084670BD9D
:101E0000022070BD000001400004004000080040B6
:101E1000000C004000040140004001400018004058
:101E200010B5040003D094F83D0010B107E0012084
:101E300010BD002084F83C00204600F01FF802206E
:101E400084F83D00211D206801F002FB012084F888
:101E5000460084F83E0084F83F0084F8400084F88F
:101E6000410084F8420084F8430084F8440084F878
:101E7000450084F83D00002010BD000008B5006852
:101E8000B0F1804F12D10A48016841F001010160B0
:101E90000068002200F00100009005211C20FFF7DF
:101EA000DDF8BDE808401C20FFF7CAB808BD0000F7
:101EB0004038024090F83D10012901D001207047C0
:101EC000022180F83D1000681149884214D0B0F119
:101ED000804F11D00F4988420ED00F4988420BD055
:101EE0000E49884208D00E49884205D00D498842E3
:101EF00002D00D49884204D1816801F0070106290A
:101F000003D0016841F0010101600020704700002A
:101F1000000001400004004000080040000C0040A8
:101F200000040140004001400018004001680A6AB6
:101F300041F211131A4207D10A6A9B101A4203D1C7
:101F40000A6822F001020A60012180F83D10002099
:101F5000704770B5044690F83C000025012817D062
:101F6000012684F83C60022084F83D0020688268E5
:101F700022F0770222F47F4282600868502838D02D
:101F80000DDC20284FD005DC90B3102811D14AE099
:101F9000022070BD302846D040280AD13BE060289E
:101FA0002FD070280DD0B0F5805F03D0B0F5005F62
:101FB00012D0012584F83D60002084F83C002846BA
:101FC00070BDCB68D1E90121206801F0A9FA206831
:101FD000816841F0770109E0CB68D1E901212068EF
:101FE00001F09EFA2068816841F480418160E1E758
:101FF00019E0CA684968206801F0A4FA50212068F5
:1020000006E0CA684968206801F0ADFA60212068DE
:1020100001F090FACEE7CA684968206801F092FAA8
:1020200040212068F4E7226801461046F0E7704737
:102030002DE9F04104460068C66805694FF00007C5
:10204000A90713D5B10711D5F91E01610120207729
:10205000206880698007204602D0FFF7E8FF04E08F
:1020600000F07EF8204600F07CF82777680716D548
:10207000700714D521686FF00400086102202077F2
:102080002068806910F4407F204602D0FFF7CFFF20
:1020900004E000F065F8204600F063F82777280791
:1020A00015D5300713D521686FF0080008610420AA
:1020B00020772068C0698007204602D0FFF7B7FF6D
:1020C00004E000F04DF8204600F04BF82777E806D2
:1020D00016D5F00614D521686FF0100008610820AD
:1020E00020772068C06910F4407F204602D0FFF7B7
:1020F0009EFF04E000F034F8204600F032F8277725
:10210000E80708D0F00706D021686FF001000861E9
:10211000204600F027F8280608D5300606D52168A5
:102120006FF0800008612046FFF730FE680608D592
:10213000700606D521686FF040000861204600F067
:1021400012F8A8060AD5B00608D521686FF020005D
:1021500008612046BDE8F041FFF719BEBDE8F081F7
:10216000704770477047704770B5040004D094F80A
:102170004100002510B106E0012070BD84F84050F8
:10218000204600F023F8242084F841002068C1682C
:1021900021F40051C160204601F01EFA2068016957
:1021A00021F4904101612068416921F02A014161D7
:1021B0002068C16841F40051C1606564202084F842
:1021C000410084F842006563002070BDF0B587B01F
:1021D000044614216846FEF79FF81F4F236800222B
:1021E0001E490224032507261D48BB4213D11B4B61
:1021F00014331F6847F010071F601B6803F01003BB
:1022000005930B6843F001030B60096801F00101BD
:102210000591690215E0134FBB421AD10F4B1033E1
:102220001F6847F400371F601B6803F400330593F1
:102230000B6843F001030B60096801F0010105918F
:102240000C21CDE9001402AB694683E86400FEF777
:1022500091FD07B0F0BD0000001001403038024091
:1022600000000240004400402DE9F843044690F885
:102270004100984616460D46202802D00220BDE8AF
:10228000F88385B17EB100206064212084F841008C
:10229000FEF772FEA6848146E684A0682027B0F58A
:1022A000805F02D003E00120E9E7206910B12E46EB
:1022B00000250EE000260CE08021204601F012FAF5
:1022C000A8B9C6B116F8010B21684860E08C401E21
:1022D000E084E08C4B464FF00002CDF800800028EF
:1022E000EAD14FF04001204601F0FCF940B184F8FA
:1022F00041700320C3E735F8020BC0F30800E3E7A1
:1023000084F841700020BAE7FEE7000010B50449E8
:102310000448FEF760FC0249491E087010BD000029
:10232000290000205CBC000810B5A2B0002020905D
:10233000219020A805F0ACF81D4C1E4B0DF1700C3F
:10234000A0610FCB8CE80F0000211CA805F015F848
:10235000184960611C2210316846FDF7C4FF002156
:10236000684605F0F7F8134960601C222C3107A875
:10237000FDF7B9FF002107A805F0ECF80D49A060B2
:102380001C2248310EA8FDF7AEFF00210EA805F073
:10239000E1F80849E0601C22643115A8FDF7A3FFAD
:1023A000002115A805F0D6F8206122B010BD00006C
:1023B00004000020DCBB000810B588B01C21684672
:1023C000FDF7AAFF16484FF020410622016015498B
:1023D000C0E9011200211023C160C0E9041381612A
:1023E000C1611C020162C0E90914C1620163416359
:1023F00081634164022000900F20CDE90102CDE904
:1024000003031120CDE90501002269460448FFF7C6
:1024100041FC002801D0FEF7DCFB08B010BD000035
:10242000A0030020040100A070B586B01421684606
:10243000FDF772FF26480025016841F01001016098
:10244000016801F010010591016841F0200101606F
:10245000016801F020010591016841F080010160EF
:10246000016801F080010591016841F001010160FE
:10247000016801F001010591016841F0400101602E
:10248000016801F040010591016841F00801016017
:10249000016801F008010591016841F00401016043
:1024A00000680C4E00F004004FF400740590002208
:1024B00021463046FEF75BFD0121CDE90041CDE923
:1024C000021569463046FEF755FC06B070BD0000A7
:1024D00030380240001402400648054901600021DE
:1024E00041608160C16001614161816170470000AC
:1024F000002C0140F003002010B586B000241648DF
:10250000009401940294039404944FF08041059444
:1025100001605321C0E90114611EC0E90314802148
:102520008161FFF77DFC08B1FEF753FB4FF480504B
:10253000009069460848FFF70CFD08B1FEF749FB1B
:10254000049404A904480594FFF722FC002801D054
:10255000FEF73FFB06B010BD740400200C4810B518
:102560000A4901604FF4E1314160002181600C2291
:10257000C160C0E904128161C161FFF7F5FD002867
:1025800003D0BDE81040FEF724BB10BD0010014091
:10259000BC0400200C4810B50A4901604FF4E13139
:1025A0004160002181600C22C160C0E90412816198
:1025B000C161FFF7D9FD002803D0BDE81040FEF748
:1025C00008BB10BD0044004004050020FEE7FEE704
:1025D0000A6842624A688262D1E902231A43D1E959
:1025E00004310B43C16A1A4321F0F7011143C16260
:1025F00000207047006800F00300704708444069FD
:10260000704770B50DF1100C11439CE87000234326
:10261000194329434268314347F6FF639A430A430B
:102620004260002070BD0321016000207047D0F897
:10263000800070470A688260D1E901231A43D1E91A
:1026400003310B43C1681A436FF30B011143C1609F
:102650000020704710B585B004463720CDE9001042
:1026600040200290002003904FF48060049069465F
:102670002046FFF7DFFF41F288323721204600F085
:102680009BF905B010BD000010B504460A4885B09E
:1026900001432920CDE90010402002900020039042
:1026A0004FF48060049069462046FFF7C3FF204640
:1026B00000F03AFA05B010BD0000108010B585B0EA
:1026C00004461020CDE90010402002900020039025
:1026D0004FF48060049069462046FFF7ABFF41F25B
:1026E00088321021204600F067F905B010BD10B502
:1026F00085B004460620CDE900104020029000205D
:1027000003904FF48060049069462046FFF792FFE3
:1027100041F288320621204600F04EF905B010BD86
:1027200030B585B000240546009401944FF48060D4
:102730000294CDE9034069462846FFF77BFF0B482A
:102740004FF4FA510068B0FBF1F041F28831484390
:10275000401E03D24FF0004005B030BD696B090642
:10276000F6D5C520A8632046F6E700003C0000200F
:1027700010B585B004464FF4D57000900820019044
:1027800040200290002003904FF48060049069463E
:102790002046FFF74FFF204600F02CFA05B010BD91
:1027A00010B585B004461220CDE9001040200290FB
:1027B000002003904FF48060049069462046FFF7A4
:1027C00039FF41F288321221204600F0F5F805B0B9
:1027D00010BD10B585B004461120CDE90010402091
:1027E0000290002003904FF48060049069462046D8
:1027F000FFF720FF41F288321121204600F0DCF87B
:1028000005B010BD10B585B004460720CDE9002005
:1028100040200290002003904FF4806004906946AD
:102820002046FFF707FF41F288320721204600F0DB
:10283000C3F805B010BD10B585B0044600210220D4
:10284000CDE90010C020CDE902014FF48060049072
:1028500069462046FFF7EEFE204600F03DF905B040
:1028600010BD10B585B004460920CDE90010C02088
:102870000290002003904FF4806004906946204647
:10288000FFF7D8FE204600F027F905B010BD10B5BF
:1028900085B0044600213320CDE900104020CDE969
:1028A00002010001049069462046FFF7C3FE41F291
:1028B00088323321204600F07FF805B010BD10B5F6
:1028C00085B004460D20CDE9001040200290002084
:1028D00003904FF48060049069462046FFF7AAFEFB
:1028E00041F288320D21204600F066F805B010BD97
:1028F00030B585B00C46054600210320CDE9001017
:102900004020CDE902010001049069462846FFF706
:1029100091FE22460321284600F028F905B030BD7B
:1029200010B585B0044600210C20CDE900104020F0
:10293000CDE902010001049069462046FFF77AFEC6
:10294000034A0C21204600F037F805B010BD000006
:1029500000E1F50510B585B004461920CDE9001059
:1029600040200290002003904FF48060049069465C
:102970002046FFF75FFE41F288321921204600F021
:102980001BF805B010BD10B585B004461820CDE980
:10299000001040200290002003904FF480600490CB
:1029A00069462046FFF746FE41F28832182120464C
:1029B00000F002F805B010BD454B10B51B684FF490
:1029C000FA54B3FBF4F353435B1E02D24FF00040C2
:1029D00010BD426B12F0450FF6D01205F4D4426BD5
:1029E000520703D504218163084610BD426BD2070C
:1029F00002D00121816305E0C52282630269D2B25F
:102A00008A4201D0012010BD0021FFF7F7FD3149B6
:102A1000084201D1002010BD002802DA4FF00070FA
:102A200010BD410001D5402010BD810001D580209E
:102A300010BDC10002D54FF4807010BD010102D558
:102A40004FF4007010BD410102D54FF4806010BDFD
:102A5000C10102D54FF4006010BD010202D54FF450
:102A6000805010BD410202D54FF4005010BD8102CC
:102A700002D54FF4804010BDC10202D54FF4004092
:102A800010BD410302D54FF4003010BD810302D5C3
:102A90004FF4802010BDC10302D54FF4002010BDBB
:102AA000010402D54FF4801010BD410402D54FF44B
:102AB000001010BD810402D54FF4800010BD000746
:102AC00002D54FF4000010BD4FF4803010BD00005F
:102AD0003C00002008E0FFFD12494FF4FA5209685B
:102AE000B1FBF2F141F288325143491E02D24FF05C
:102AF00000407047426B12F0450FF6D01205F4D437
:102B0000416B490703D50421816308467047416B37
:102B1000C90703D00121816308467047C52181633D
:102B2000002070473C0000200F494FF4FA5209681A
:102B3000B1FBF2F141F288325143491E02D24FF00B
:102B400000407047426B12F0450FF6D01205F4D4E6
:102B5000416B490703D50421816308467047C521AD
:102B600081630020704700003C00002030B5204BFE
:102B70004FF4FA541B68B3FBF4F341F28834634317
:102B80005B1E02D24FF0004030BD446B14F0450F85
:102B9000F6D02405F4D4436B5B0703D5042181638D
:102BA000084630BD436BDB0702D00121816303E09F
:102BB0000369DBB28B4201D0012030BDC5218163A6
:102BC0000021FFF71BFD10F4604F04D0410406D52F
:102BD0004FF4005030BD000C1080002030BD0004C8
:102BE00002D54FF4805030BD4FF4803030BD00002E
:102BF0003C00002014494FF4FA520968B1FBF2F18D
:102C000041F288325143491E02D24FF000407047D2
:102C1000426B12F0450FF6D01205F4D4416B490710
:102C200003D50421816308467047416BC90703D06F
:102C30000121816308467047416B490601D5402157
:102C400081630020704700003C00002010B5064C56
:102C500001202070FDF720FE18B9207820F0010037
:102C60002070207810BD00002000002070B50546BF
:102C700004F077FB044603E0FDF70EFE002806D0C3
:102C800004F06FFB001BA842F6D34FF0FF3070BD7D
:102C900010B5846BFEF732F8022828D0206C416D05
:102CA000E06B406D012901D001281DD12168104839
:102CB00088632068C16B21F49D71C163A06B40F0F3
:102CC0008040A0632046FEF707FE062801D00528B5
:102CD00005D12068FFF724FEA16B0843A063012003
:102CE00084F83400002020632046FEF715FD10BD57
:102CF000FF05400010B5846B206B822809D1206845
:102D0000FFF70EFE28B1A16B0143A1632046FEF739
:102D100003FD2068C16A21F00801C162216840F208
:102D20003A508863012084F8340000202063204654
:102D3000FEF71CFF10BD806B0068C16B41F4807111
:102D4000C16370472DE9F04788B00D460446FEF791
:102D500013F900268246009601963746082120681E
:102D6000FFF7ACFC00282CD1B4F850000104206817
:102D7000FFF770FC002824D1401E4FF00808CDE971
:102D8000020830204FF00209CDE904090120CDE905
:102D9000067002A92068FFF71BFC2068FFF777FD8B
:102DA00000280ED16F462068416B11F02A0F0BD01E
:102DB000416B090702D4416B89051AD5C0F83880E8
:102DC000082008B0BDE8F087416B890205D5FFF700
:102DD0002EFC47F82600761C02E0416B8904E7D5FB
:102DE000FEF7CAF8A0EB0A00401CDCD14FF000400F
:102DF000E7E7416B890703D5C0F838900220E0E788
:102E0000416B890603D5202181630846D9E740F24A
:102E10003A518163019800BA2860009800BA68604E
:102E20000020CEE710B590B004460120ADF8380080
:102E30002068FFF7DFFB002854D0606C032842D0E5
:102E40002068FFF7F8FC00284AD100212068FFF72E
:102E5000D5FB606704212068FFF7D0FBA06708213D
:102E60002068FFF7CBFBE0670C212068FFF7C6FB6B
:102E7000C4F88000606C032825D00EA92068FFF7F5
:102E800037FD00282CD1606C03281CD0BDF8380019
:102E9000206501042068FFF7E4FC002820D1002110
:102EA0002068FFF7ABFB606604212068FFF7A6FBF4
:102EB000A06608212068FFF7A1FBE0660C212068CE
:102EC000FFF79CFB206704212068FFF797FB000DAC
:102ED000E06403A92046FEF721FC30B14FF080509A
:102EE00010B010BD4FF08060FAE7B4F85000002336
:102EF00002042068FFF786FC0028F1D104F11000DD
:102F000007C88DE8070094E80F00FFF77AFB002060
:102F1000E6E700002DE9F84F002604460096354606
:102F2000B0460068FFF7FCFB002827D12068FFF7B8
:102F30001FFC4FF0805B4FF001094FF6FF7748B15F
:102F4000A6642068FFF7ECFB002817D1A06C0128CD
:102F500002D020E0C4F8489000212068FFF77AFBF7
:102F600058B918E000212068FFF774FB002805D14C
:102F700051462068FFF788FB10B15846BDE8F88F2E
:102F800000212068FFF73AFB05464FEAD078009809
:102F9000401C009002E0DFF82CA00098B84202D25A
:102FA000B8F1000FDED00098B84202D34FF0807025
:102FB000E4E7680002D5C4F8449000E066640020AD
:102FC000DCE70000000010C17FB5124C054601206F
:102FD000207004F0B8F9C8B1FDF76AFC18B92846AA
:102FE000FFF734FE2070207801280FD0606868B9A0
:102FF000094B0FCB8DE80F000021684604F0BDF9A6
:10300000606018B9207840F001002070207804B08A
:1030100070BD00002000002070BC000810B51248F0
:1030200088B014460078C00702D0032008B010BD55
:10303000C1B1012905D0022908D003290CD00420F0
:10304000F4E76846FDF722FC06980AE06846FDF7BB
:103050001DFC0798208005E06846FDF717FC0798DF
:10306000400A20600020E1E7200000202DE9FE4317
:1030700047F230541E461746884601252046FFF782
:10308000F5FD00281EDB324639464046FDF730FC90
:10309000C0B90F4822464168684604F081F9DDE96D
:1030A000001010290ED101280CD104F05AF906465F
:1030B00003E000BFFDF7F0FB38B104F052F9801BCC
:1030C000A042F7D32846BDE8FE830025FAE70000BA
:1030D00020000020FFF7BABD2DE9FE4347F230542F
:1030E0001D461746884601262046FFF7BFFD0028EB
:1030F0001EDB2A4639464046FDF710FCC0B90F4892
:1031000022464168684604F04BF9DDE900101029B9
:103110000ED102280CD104F024F9054603E000BFCB
:10312000FDF7BAFB38B104F01CF9401BA042F7D3FD
:103130003046BDE8FE830026FAE7000020000020AC
:10314000012004F0F9F8FBE78CB003F0DDFC4FF64A
:10315000FF78404600F0C2FF3A4D4FF0FF364FF087
:1031600000094FF0180A4FF4FA7B32466846696945
:1031700004F016F9DDE900743146A86904F0B8F9E5
:10318000102F1DD1207A012821D044464023DC2273
:1031900028211420CDF8008003F092FC6823DC2263
:1031A00050211420009403F08BFC27A2CDF800A03E
:1031B000CDE901291823C8222821142004F020F881
:1031C000A86904F06DF9584604F0B6F8CDE7474613
:1031D0004023DC2228211420CDF8008003F070FC6D
:1031E0004023DC2250211420009703F069FC206862
:1031F000FDF73CF941EC100B17A153EC102B03A881
:1032000000F0BAFA03A8CDF800A0CDE901094F46B5
:103210001823C8222821142003F0F2FF6068FDF76C
:1032200025F941EC100B0FA153EC102B03A800F073
:10323000A3FA03A8CDF800A0CDE901071823C822FE
:103240005021BAE70400002053656E736F72204569
:1032500072726F722100000054656D703A252E3134
:103260006620430048756D693A252E316620252574
:1032700000000000012004F05FF8FBE794B09FED30
:10328000310A8DED020A8DED030AFDF757FB2E4F33
:10329000DFF8B8A02E4C4FF400794FF005084FF43A
:1032A000FA6B03A902A8FDF771FB217801EB41013C
:1032B00007EB8101D8B1002008720A22606904F08E
:1032C000B9F864230D2223A12648FEF7CDFF002282
:1032D00049465046FDF74BFE2078401CB0FBF8F203
:1032E00008FB12002070584604F026F8D9E70120A8
:1032F00008729DED020A0A2281ED000A9DED030A83
:1033000081ED010A606904F095F80398FDF7AEF8C5
:1033100005460E460298FDF7A9F841EC100BCDE9E1
:10332000005653EC102B10A104A800F025FA04A8B5
:10333000FCF7FDFF82B2642304A90A48FEF794FF5C
:103340000122C5E700000000100100200014024027
:103350000400002052656164204572726F720D0A8C
:1033600000000000BC04002054656D703A20252E3A
:103370003166432C2048756D693A20252E3166252B
:10338000250D0A0010B5FDF7FDFD05F0B7FA01287F
:1033900003D0BDE8104004F055BE10BD30B593B069
:1033A00030216846FCF7B8FF14210CA8FCF7B4FFE5
:1033B0001E480025016841F080510160006800F05E
:1033C000805011901A48016841F480410160006802
:1033D000022400F48040119001200090000401902C
:1033E0008001CDE90640082008904FF4A870CDE98F
:1033F000090407200B906846FDF74CFF08B172B630
:10340000FEE70CA90F2081E831004FF4A0500F9087
:103410004FF48050109005210CA8FDF751FE0028B4
:1034200001D072B6FEE713B030BD00004038024054
:10343000007000400248016841F47001016070476B
:1034400088ED00E00148FEF7F3BD000074040020A1
:10345000F0B50268274B284D284E294F294C4FF0D4
:10346000804C984209D0604507D0A84205D0B042B0
:1034700003D0B84201D0A04204D122F0700E4A68B5
:1034800042EA0E0298421BD0604519D0A84217D0DC
:10349000B04215D0B84213D0A04211D01A4DA84264
:1034A0000ED01A4DA8420BD0194DA84208D0194D84
:1034B000A84205D0184DA84202D0184DA84203D109
:1034C00022F44075CA682A434D6922F080022A43DB
:1034D0008D68C5620D688562984201D0A04201D115
:1034E00009690163016841F0040101600121416142
:1034F0000260F0BD000001400004004000080040F0
:10350000000C004000040140004001400044014024
:103510000048014000180040001C0040002000400E
:1035200010B5846842EA032224F47F440A4322430C
:10353000826010BD826822F070020A4342F00701E7
:103540008160704710B5036A046A24F001040462C4
:10355000846924F0F00444EA021423F00A020A43C6
:103560008461026210BD10B5036A046A24F010047D
:103570000462846923F0A00324F4704444EA023214
:1035800043EA01118261016210BD01680C3151E80A
:10359000002F22F4907241E80023002BF5D101683E
:1035A000143151E8002F22F0010241E80023002BE2
:1035B000F5D1016B012909D101680C3151E8002FC7
:1035C00022F0100241E80023002BF5D1202180F8E1
:1035D000421000210163704770B50446006801691C
:1035E000E26821F44051114301612169A068E26958
:1035F00008436169114308432168CA6849F20C63B2
:103600009A430243CA6020684169A26921F440716B
:103610001143416131492068884202D030498842D3
:1036200002D1FDF7F7FD01E0FDF7E4FDE2690023BB
:10363000192164253226B2F5004F626828D0A0FB1C
:103640000101930F9200FCF71DFE0146B0FBF5F05F
:103650006FF01802504301EB800006EB0010B0FB46
:10366000F5F000F0F002B1FBF5F002EB0012B1FB57
:10367000F5F06FF01803584301EB800006EB0010E3
:10368000B0FBF5F000F00F0021681044886070BDB9
:10369000A0FB010192185B41FCF7F4FD0146B0FB71
:1036A000F5F00201B1FBF5F06FF01803584301EBA0
:1036B000800006EBC000B0FBF5F000F0F80002EB74
:1036C0004002B1FBF5F0584301EB800006EBC0006F
:1036D000B0FBF5F000F00700D6E700000010014055
:1036E000001401402DE9F843984617460D4604465C
:1036F000089E24E0701C22D0FDF73EFCA0EB0800E1
:10370000B0421AD8CEB12068C168490717D5802DBC
:1037100015D0402D13D00168C94309070FD40168A3
:103720000025406800902046FFF72FFF08206064C6
:1037300084F840500120BDE8F8830320FBE72068AF
:10374000006835EA000004D00020B842D2D0002042
:10375000F1E70120F9E7FEE70FB4054B10B503A927
:10376000044A029800F0FEF810BC5DF814FB00005B
:10377000B9400008AC0000200FB4084B10B504A9F4
:1037800002AA039800F0EEF8044602A9002000F017
:103790006CFC204610BC5DF814FB00006B40000878
:1037A0000907090E002804DB00F1E02080F800146E
:1037B000704700F00F0000F1E02080F8141D704702
:1037C00002E008C8121F08C1002AFAD170477047EA
:1037D000002001E001C1121F002AFBD17047000048
:1037E0002DE9FF5F82B00021DDE90430020DDDF834
:1037F00040B0034318D044F61050A2F2FF324243C7
:103800001514119801281FD0A5EB0B00401C5FEA8E
:10381000000A4FF000064E4FDFF83891B046504690
:1038200015D5CAF1000413E0119801244AA3012818
:1038300001D16FEA0B010298119AC0E90031C0E989
:10384000024206B0BDE8F09FCBF10000DFE704467E
:103850000021404A491842EB0450CDE9001012E023
:10386000E00707D032463B4640464946FCF766FD36
:103870008046894632463B4610461946FCF75EFDB7
:1038800006460F466410002CEAD1DDE90401DDE9AB
:103890000023BAF1000F06DAFCF750FD42464B4612
:1038A000FCF74CFD05E0FCF72DFF42464B46FCF7CC
:1038B00029FF04460E460022284BFCF7ABFF03D835
:1038C0004FF0FF30014607E00022254B20463146ED
:1038D000FCF771FEFCF785FF102409E0002C0ADBE1
:1038E0000A220023FCF7CEFC039B30321A55641EDB
:1038F00050EA0102F2D1641C039AC4F1110314448A
:10390000119A012A03D0012208430DD10AE008438D
:1039100004D000204FF0110B119072E7A3EB0B05C0
:103920006D1E0DE05B4504DD4FF0000205F1010561
:1039300004E003DA4FF00002A5F10105002AECD003
:1039400002981199C0E90231C0E9004579E7000009
:10395000000014400000F03F300000000000F04381
:103960000000E03F2DE9FF4F95B09A468846064695
:103970000025EEE1252877D100242746F94A0121C8
:10398000039400E0044316F8013F203B01FA03F0E2
:103990001042F7D130782A2811D06FF02F033078F9
:1039A000A0F13002092A16D8039A44F0020402EB6F
:1039B000820203EB42021044761C0390EFE758F8B2
:1039C000042B0392002A03DA504244F4005403907B
:1039D00044F00204761C30782E2816D116F8010F18
:1039E00044F004042A280DD06FF02F023078A0F1A3
:1039F0003003092B09D807EB870302EB4303C718F1
:103A0000761CF3E758F8047B761C30786C280FD0CE
:103A100006DC4C2817D068280DD06A2814D104E0A1
:103A2000742810D07A280FD10DE044F400140AE075
:103A300044F4801401E044F440147278824202D1CC
:103A400004F58014761C761C307866280BD013DCC5
:103A5000582877D009DC002875D04528F6D04628AC
:103A6000F4D047281AD193E118E0632835D06428B0
:103A700079D0652812D18BE1702873D008DC6728D3
:103A8000F1D069286FD06E280DD06F2806D1ACE038
:103A900073282CD0752874D0782853D052461799A3
:103AA00090476D1C54E1C4F30250022809D003284A
:103AB0000DD0D8F8001004280DD00D6008F10408CE
:103AC00046E1D8F80010EA17C1E90052F6E7D8F845
:103AD00000100D80F2E70D70F0E718F8041B8DF868
:103AE000001000208DF80100EB46012003E058F89B
:103AF00004BB4FF0FF3061074FF0000102D40DE02E
:103B000009F101018946B9420FDA8145F8DB1BF85A
:103B100009100029F4D108E009F101018946814228
:103B2000FADB1BF809100029F6D103985346A0EBE5
:103B3000090721463846179A00F080FA284400EB1E
:103B4000090507E044E008E10DE01BF8010B5246CF
:103B500017999047B9F10109F7D2534621463846E3
:103B6000179AF2E039E00A21C4F302524FF0000B39
:103B70000091022A06D058F8040BC117032A09D075
:103B80000AE023E008F1070020F00702F2E8020152
:103B9000904605E000B2C117042A01D140B2C11716
:103BA000002906DA0A460021404261EB02012D227B
:103BB00002E0220504D52B228DF80420012203E027
:103BC000E20701D02022F7E7914657E00A2100E002
:103BD00010214FF0000B00910BE010214FF0000B73
:103BE00044F004040827009103E008204FF0000B84
:103BF0000090C4F30252022A05D058F8040B0021A9
:103C0000032A08D008E008F1070020F00702F2E8D4
:103C10000201904603E080B2042A00D1C0B24FF006
:103C2000000922072AD53278702A07D0DDF800C0B3
:103C30008CF0100C5CEA0B0C05D00EE040228DF8E5
:103C40000420012208E050EA010306D030238DF859
:103C500004308DF8052002229146009B83F0080372
:103C600053EA0B030AD150EA010201D1620705D5DC
:103C700030228DF804204FF001097F1E3278582A37
:103C800004D039A20C920CAA02920BE03BA2F9E7F5
:103C90005B46009AFCF7F6FA0C9B9B5C029A521E5C
:103CA0000292137050EA0102F2D1029804A9081A94
:103CB00000F1200B600702D524F4803400E00127D6
:103CC0005F4502DDA7EB0B0000E0002000EB0B01DD
:103CD000009003984944401A0390E00306D45346E9
:103CE0002146179A039800F0A9F90544002706E039
:103CF00001A85246C05D179990476D1C7F1C4F4527
:103D0000F6DBE0030CD553462146179A039800F0E2
:103D100095F9054404E030205246179990476D1CF0
:103D20000099481E00900029F5DC08E002980299ED
:103D300052460078491C0291179990476D1CBBF1BF
:103D40000001ABF1010BF1DC5BE100F065F905442A
:103D5000761C307800287FF40DAE19B02846BDE8F7
:103D6000F08F000009280100303132333435363706
:103D700038396162636465660000000030313233B7
:103D80003435363738394142434445460000000057
:103D9000600700D4062708F1070020F00700F0E8CC
:103DA0000223804603F0004C5FEA0C0001D097A08C
:103DB00009E0200501D596A005E0E00701D095A017
:103DC00001E0AFF24C001390307823F000436528F7
:103DD0000CD006DC452809D046281DD047287FD1C5
:103DE0003BE0662818D067287AD136E00021112FF1
:103DF00001DB112000E0781CCDE9000104A90CA82A
:103E0000FFF7EEFCDDE90D010C9A4FF0000B07F116
:103E10000109109200914EE04FF000400097CDE96B
:103E2000011004A90CA8FFF7DBFCDDE90D020C9BD7
:103E30000F994FF0000B91461093009211B9791C25
:103E400000EB0109B7EB090003D4C0F1FF3B07F118
:103E50000109A9EB0700019042E0012F00DA0127D8
:103E60000021112F01DD112000E03846CDE90001CD
:103E700004A90CA8FFF7B4FCDDE90D010C9A009130
:103E80004FF0000BB946109221070FD4009A4A4513
:103E900003DA914601E0A9F10109B9F1010F05DD4D
:103EA000109AA9F10101515C3029F4D0B84202DA2C
:103EB00010F1040F03DA0121CDE9011010E0002810
:103EC00003DC8344A9EB000102E0411C494500DD0D
:103ED0008946A0EB0B00401C01904FF0004002907F
:103EE000200705D40198484502DB4FF0FF300190D0
:103EF00000208DF84B0002980DF14B07B0F1004FF8
:103F000025D002200C902B200D90029800280CDA6E
:103F1000404202902D200D9007E00A210298FCF704
:103F2000B8FA3031029007F8011D0C99481E0C9028
:103F30000029F2DC02980028EFD1791E0D98087054
:103F4000307800F0200040F0450007F8020D11A87D
:103F5000C01BC01D02901398007800B1012000EB37
:103F60000901019801EBE071029801440398401A9D
:103F7000401E0390E00306D453462146179A039847
:103F800000F05CF805441398007818B15246179970
:103F900090476D1CE00323D553462146179A03989A
:103FA00000F04CF805441BE0BBF1000F07DB009864
:103FB000584504DD1098179910F80B0001E0179987
:103FC00030205246904701980BF1010B401E05F13D
:103FD0000105019004D12E205246179990476D1C7F
:103FE000B9F10001A9F10109DEDC05E017F8010BC8
:103FF0005246179990476D1C0299481E029000295D
:10400000F4DC53462146179A03989EE62D000000E3
:104010002B000000200000002DE9F041044600259F
:104020001E461746880404D405E039462020B047D0
:104030006D1C641EF9D52846BDE8F0812DE9F041DC
:10404000044600251E469046C80301D5302700E0EF
:104050002027880404D505E041463846B0476D1C4A
:10406000641EF9D52846BDE8F0810A68531C0B6030
:10407000107070470149086070470000A8000020D8
:104080004FF47A71484300F001B8000010B5040005
:104090000FD00848FDF70EFF064800210268516264
:1040A0000068416AA142FCD3BDE810400148FDF719
:1040B0003DBF10BD7404002013B54FF6FF730122FD
:1040C00069460248FEF7D0F800981CBDBC040020E9
:1040D000EFF30580002800D00120704770B50A4931
:1040E0000646002408884D8821464543204602F0B4
:1040F0009FFF03F0F1F84FF0D84002E0A0F8806095
:10410000641CAC42FAD370BD000100202DE9F04FD1
:1041100038492C260A46887192884FF4305A4FF459
:10412000285B41F6631E2B274FF02A0C4FF0F00856
:1041300045F210594FF448754FF4A0744FF4F073E2
:1041400058B10C80A1F802804A4530D1A1F808A0EE
:10415000A1F80AB03802888141E0A1F800804C80C3
:104160004A4507D1A1F808A0A1F80AB04FF42C5095
:10417000888105E072450E8105D14F81A1F80CC000
:104180000B804D8002E0A1F80AC08F81A2F5A64005
:10419000103803D0A2F5EE40963801D10C804B8048
:1041A000A2F5184006381FD10B804D801CE07245E7
:1041B00011D0A2F5184006380DD00E81A1F80AC022
:1041C000A1F80C70A2F5A64010380BD0A2F5EE4075
:1041D000963807D008E00E81A1F80AC08F810D80C3
:1041E0004B80EFE70B804C80BDE8F04F002002F0E1
:1041F0005DBE00000001002010B5144602F018FF5B
:1042000003F06AF84FF0D840A0F8804010BD10B518
:10421000CF2003F055F8002003F046F8C12003F04A
:1042200043F8302003F040F8ED2003F049F8642013
:1042300003F03AF8032003F037F8122003F034F8C3
:10424000812003F031F8E82003F03AF8852003F0EC
:104250002BF8102003F028F87A2003F025F8CB2063
:1042600003F02EF8392003F01FF82C2003F01CF87F
:10427000002003F019F8342003F016F8022003F0B0
:1042800013F8F72003F01CF8202003F00DF8EA20C3
:1042900003F016F8002003F007F8002003F004F8FC
:1042A000C02003F00DF81B2002F0FEFFC12003F038
:1042B00007F8012002F0F8FFC52003F001F83020D4
:1042C00002F0F2FF302002F0EFFFC72002F0F8FF0B
:1042D000B72002F0E9FF362002F0F2FF482002F09A
:1042E000E3FF3A2002F0ECFF552002F0DDFFB120A1
:1042F00002F0E6FF002002F0D7FF1A2002F0D4FF00
:10430000B62002F0DDFF0A2002F0CEFFA22002F06C
:10431000CBFFF22002F0D4FF002002F0C5FF2620E0
:1043200002F0CEFF012002F0BFFFE02002F0C8FF44
:104330000F2002F0B9FF2A2002F0B6FF282002F079
:10434000B3FF082002F0B0FF0E2002F0ADFF0820FE
:1043500002F0AAFF542002F0A7FFA92002F0A4FF58
:10436000432002F0A1FF0A2002F09EFF0F2002F07E
:104370009BFF002002F098FF002002F095FF002034
:1043800002F092FF002002F08FFFE12002F098FF80
:10439000002002F089FF152002F086FF172002F0AE
:1043A00083FF072002F080FF112002F07DFF06202E
:1043B00002F07AFF2B2002F077FF562002F074FF04
:1043C0003C2002F071FF052002F06EFF102002F089
:1043D0006BFF0F2002F068FF3F2002F065FF3F20D7
:1043E00002F062FF0F2002F05FFF2B2002F068FF57
:1043F000002002F059FF002002F056FF012002F0D9
:1044000053FF3F2002F050FF2A2002F059FF002006
:1044100002F04AFF002002F047FF002002F044FFB4
:10442000EF2002F041FF112002F04AFF7820FFF751
:1044300027FEBDE81040292002F042BF10B5FF2042
:1044400002F03EFFFF2002F02FFF982002F02CFF29
:10445000062002F029FFBC2002F032FF012002F00A
:1044600023FF0F2002F020FF612002F01DFFFF203C
:1044700002F01AFF012002F017FF012002F014FFE2
:104480000B2002F011FF102002F00EFF372002F087
:104490000BFF632002F008FFFF2002F005FFFF2062
:1044A00002F002FF012002F0FFFE012002F0FCFEFC
:1044B000002002F0F9FE002002F0F6FEFF2002F0DC
:1044C000F3FE522002F0F0FE012002F0EDFE00208B
:1044D00002F0EAFE402002F0E7FEBD2002F0F0FE0E
:1044E000012002F0E1FE232002F0DEFE452002F072
:1044F000DBFE672002F0D8FE012002F0D5FE23206B
:1045000002F0D2FE452002F0CFFE672002F0CCFE82
:10451000BE2002F0D5FE002002F0C6FE012002F00F
:10452000C3FEAB2002F0C0FE602002F0BDFE2220E0
:1045300002F0BAFE222002F0B7FE222002F0B4FE02
:10454000222002F0B1FE222002F0AEFEC72002F0CF
:10455000B7FE362002F0A8FEED2002F0B1FE7F206B
:1045600002F0A2FE0F2002F09FFEC02002F0A8FE83
:104570000F2002F099FE0B2002F096FE0A2002F0B6
:1045800093FEFC2002F09CFE082002F08DFEDF204E
:1045900002F096FE002002F087FE002002F084FE6A
:1045A000002002F081FE002002F07EFE002002F0DA
:1045B0007BFE202002F078FEF32002F081FE7420C2
:1045C00002F072FEB42002F07BFE002002F06CFECE
:1045D000002002F069FE002002F066FEF72002F0E3
:1045E0006FFE822002F060FEB12002F069FE002022
:1045F00002F05AFE132002F057FE132002F054FE80
:10460000F22002F05DFE802002F04EFE042002F057
:104610004BFE402002F048FE282002F045FEC1205B
:1046200002F04EFE172002F03FFE882002F03CFE12
:10463000882002F039FE202002F036FEE02002F051
:104640003FFE002002F030FE0A2002F02DFE122074
:1046500002F02AFE102002F027FE0E2002F024FEB7
:10466000202002F021FECC2002F01EFE072002F0E6
:104670001BFE062002F018FE0B2002F015FE0E2095
:1046800002F012FE0F2002F00FFE0D2002F00CFED1
:10469000152002F009FE102002F006FE002002F0B4
:1046A00003FEE12002F00CFE002002F0FDFD0B20D5
:1046B00002F0FAFD132002F0F7FD0D2002F0F4FDE8
:1046C0000E2002F0F1FD1B2002F0EEFD712002F041
:1046D000EBFD062002F0E8FD062002F0E5FD0A20D1
:1046E00002F0E2FD0F2002F0DFFD0E2002F0DCFD03
:1046F0000F2002F0D9FD152002F0D6FD0C2002F0AB
:10470000D3FD002002F0D0FD2A2002F0D9FD0020C8
:1047100002F0CAFD002002F0C7FD012002F0C4FD36
:10472000DF2002F0C1FD2B2002F0CAFD002002F0C4
:10473000BBFD002002F0B8FD032002F0B5FD1F20F4
:1047400002F0B2FD3A2002F0BBFD552002F0ACFDB4
:10475000362002F0B5FD002002F0A6FD112002F087
:10476000AFFD7820FFF78CFC292002F0A9FD142072
:10477000FFF786FCBDE810402C2002F0A1BD10B56B
:10478000ED2002F09DFD012002F08EFDFE2002F0E2
:104790008BFDEE2002F094FDDE2002F085FD21204D
:1047A00002F082FDF12002F08BFD012002F07CFD81
:1047B000DF2002F085FD102002F076FDC42002F01B
:1047C0007FFD8F2002F070FDC62002F079FD0020F1
:1047D00002F06AFDE22002F067FDE22002F064FDD3
:1047E000E22002F061FDBF2002F06AFDAA2002F083
:1047F0005BFDB02002F064FD0D2002F055FD0020AD
:1048000002F052FD0D2002F04FFD002002F04CFDA1
:10481000112002F049FD002002F046FD192002F0AF
:1048200043FD002002F040FD212002F03DFD00206C
:1048300002F03AFD2D2002F037FD002002F034FD99
:104840003D2002F031FD002002F02EFD5D2002F03F
:104850002BFD002002F028FD5D2002F025FD002048
:1048600002F022FDB12002F02BFD802002F01CFDA1
:10487000002002F019FD8B2002F016FD002002F04E
:1048800013FD962002F010FD002002F00DFDB22075
:1048900002F016FD002002F007FD002002F004FDEA
:1048A000022002F001FD002002F0FEFC032002F0D5
:1048B000FBFC002002F0F8FCB32002F001FD002018
:1048C00002F0F2FC002002F0EFFC002002F0ECFC11
:1048D000002002F0E9FC002002F0E6FC002002F0DB
:1048E000E3FC002002F0E0FC002002F0DDFC0020F0
:1048F00002F0DAFC002002F0D7FC002002F0D4FC29
:10490000002002F0D1FC002002F0CEFC002002F0DA
:10491000CBFC002002F0C8FC002002F0C5FC002007
:1049200002F0C2FC002002F0BFFC002002F0BCFC40
:10493000002002F0B9FC002002F0B6FC002002F0DA
:10494000B3FC002002F0B0FC002002F0ADFCB4206B
:1049500002F0B6FC8B2002F0A7FC002002F0A4FCC1
:10496000962002F0A1FC002002F09EFCA12002F0A3
:104970009BFC002002F098FCB52002F0A1FC022074
:1049800002F092FC002002F08FFC032002F08CFC6D
:10499000002002F089FC042002F086FC002002F0D6
:1049A00083FCB62002F08CFC002002F07DFC00208D
:1049B00002F07AFCB72002F083FC002002F074FCC5
:1049C000002002F071FC3F2002F06EFC002002F09B
:1049D0006BFC5E2002F068FC002002F065FC6420A5
:1049E00002F062FC002002F05FFC8C2002F05CFC14
:1049F000002002F059FCAC2002F056FC002002F02E
:104A000053FCDC2002F050FC002002F04DFC702032
:104A100002F04AFC002002F047FC902002F044FC27
:104A2000002002F041FCEB2002F03EFC002002F0EE
:104A30003BFCDC2002F038FC002002F035FCB82002
:104A400002F03EFC002002F02FFC002002F02CFCC3
:104A5000002002F029FC002002F026FC002002F0D9
:104A600023FC002002F020FC002002F01DFC0020AE
:104A700002F01AFCBA2002F023FC242002F014FCFD
:104A8000002002F011FC002002F00EFC002002F0D9
:104A90000BFCC12002F014FC202002F005FC0020D9
:104AA00002F002FC542002F0FFFB002002F0FCFBAD
:104AB000FF2002F0F9FB002002F0F6FBC22002F01A
:104AC000FFFB0A2002F0F0FB002002F0EDFB0420C7
:104AD00002F0EAFB002002F0E7FBC32002F0F0FB4B
:104AE0003C2002F0E1FB002002F0DEFB3A2002F065
:104AF000DBFB002002F0D8FB392002F0D5FB0020C0
:104B000002F0D2FB372002F0CFFB002002F0CCFBFA
:104B10003C2002F0C9FB002002F0C6FB362002F068
:104B2000C3FB002002F0C0FB322002F0BDFB0020DE
:104B300002F0BAFB2F2002F0B7FB002002F0B4FB1A
:104B40002C2002F0B1FB002002F0AEFB292002F085
:104B5000ABFB002002F0A8FB262002F0A5FB002002
:104B600002F0A2FB242002F09FFB002002F09CFB3D
:104B7000242002F099FB002002F096FB232002F093
:104B800093FB002002F090FB3C2002F08DFB002004
:104B900002F08AFB362002F087FB002002F084FB43
:104BA000322002F081FB002002F07EFB2F2002F079
:104BB0007BFB002002F078FB2C2002F075FB00202C
:104BC00002F072FB292002F06FFB002002F06CFB68
:104BD000262002F069FB002002F066FB242002F090
:104BE00063FB002002F060FB242002F05DFB00204C
:104BF00002F05AFB232002F057FB002002F054FB86
:104C0000C42002F05DFB622002F04EFB002002F0A7
:104C10004BFB052002F048FB002002F045FB8420FE
:104C200002F042FB002002F03FFBF02002F03CFBD0
:104C3000002002F039FB182002F036FB002002F0C1
:104C400033FBA42002F030FB002002F02DFB1820E3
:104C500002F02AFB002002F027FB502002F024FB88
:104C6000002002F021FB0C2002F01EFB002002F0CD
:104C70001BFB172002F018FB002002F015FB95200B
:104C800002F012FB002002F00FFBF32002F00CFBFD
:104C9000002002F009FBE62002F006FB002002F0F3
:104CA00003FBC52002F00CFB322002F0FDFA0020CD
:104CB00002F0FAFA442002F0F7FA002002F0F4FAC7
:104CC000652002F0F1FA002002F0EEFA762002F000
:104CD000EBFA002002F0E8FA882002F0E5FA002062
:104CE00002F0E2FAC62002F0EBFA202002F0DCFA31
:104CF000002002F0D9FA172002F0D6FA002002F0C4
:104D0000D3FA012002F0D0FA002002F0CDFAC72039
:104D100002F0D6FA002002F0C7FA002002F0C4FA2E
:104D2000002002F0C1FA002002F0BEFAC82002F012
:104D3000C7FA002002F0B8FA002002F0B5FA00200D
:104D400002F0B2FA002002F0AFFAC92002F0B8FA7D
:104D5000002002F0A9FA002002F0A6FA002002F0DA
:104D6000A3FA002002F0A0FA002002F09DFA002031
:104D700002F09AFA002002F097FA002002F094FA6A
:104D8000002002F091FA002002F08EFA002002F0DA
:104D90008BFA002002F088FA002002F085FA002049
:104DA00002F082FA002002F07FFA002002F07CFA82
:104DB000E02002F085FA162002F076FA002002F0D8
:104DC00073FA1C2002F070FA002002F06DFA212024
:104DD00002F06AFA002002F067FA362002F064FA64
:104DE000002002F061FA462002F05EFA002002F094
:104DF0005BFA522002F058FA002002F055FA6420C3
:104E000002F052FA002002F04FFA7A2002F04CFA37
:104E1000002002F049FA8B2002F046FA002002F04E
:104E200043FA992002F040FA002002F03DFAA8204F
:104E300002F03AFA002002F037FAB92002F034FA10
:104E4000002002F031FAC42002F02EFA002002F015
:104E50002BFACA2002F028FA002002F025FAD2200C
:104E600002F022FA002002F01FFAD92002F01CFA08
:104E7000002002F019FAE02002F016FA002002F0F9
:104E800013FAF32002F010FA002002F00DFAE120EC
:104E900002F016FA162002F007FA002002F004FAD7
:104EA0001C2002F001FA002002F0FEF9222002F09C
:104EB000FBF9002002F0F8F9362002F0F5F90020A5
:104EC00002F0F2F9452002F0EFF9002002F0ECF9CF
:104ED000522002F0E9F9002002F0E6F9642002F025
:104EE000E3F9002002F0E0F97A2002F0DDF9002079
:104EF00002F0DAF98B2002F0D7F9002002F0D4F9A1
:104F0000992002F0D1F9002002F0CEF9A82002F099
:104F1000CBF9002002F0C8F9B92002F0C5F9002051
:104F200002F0C2F9C42002F0BFF9002002F0BCF97F
:104F3000CA2002F0B9F9002002F0B6F9D22002F03E
:104F4000B3F9002002F0B0F9D82002F0ADF900204A
:104F500002F0AAF9E02002F0A7F9002002F0A4F97B
:104F6000F32002F0A1F9002002F09EF9E22002F005
:104F7000A7F9052002F098F9002002F095F90B201E
:104F800002F092F9002002F08FF91B2002F08CF958
:104F9000002002F089F9342002F086F9002002F0A6
:104FA00083F9442002F080F9002002F07DF94F20BF
:104FB00002F07AF9002002F077F9612002F074F92A
:104FC000002002F071F9792002F06EF9002002F061
:104FD0006BF9882002F068F9002002F065F997204B
:104FE00002F062F9002002F05FF9A62002F05CF9FD
:104FF000002002F059F9B72002F056F9002002F023
:1050000053F9C22002F050F9002002F04DF9C720F8
:1050100002F04AF9002002F047F9D12002F044F9E9
:10502000002002F041F9D62002F03EF9002002F003
:105030003BF9DD2002F038F9002002F035F9F320C9
:1050400002F032F9002002F02FF9E32002F038F9E3
:10505000052002F029F9002002F026F90A2002F0CA
:1050600023F9002002F020F91C2002F01DF9002095
:1050700002F01AF9332002F017F9002002F014F9B7
:10508000442002F011F9002002F00EF9502002F045
:105090000BF9002002F008F9622002F005F9002067
:1050A00002F002F9782002F0FFF8002002F0FCF88C
:1050B000882002F0F9F8002002F0F6F8972002F0BC
:1050C000F3F8002002F0F0F8A62002F0EDF800203E
:1050D00002F0EAF8B72002F0E7F8002002F0E4F866
:1050E000C22002F0E1F8002002F0DEF8C72002F052
:1050F000DBF8002002F0D8F8D12002F0D5F800202B
:1051000002F0D2F8D52002F0CFF8002002F0CCF85F
:10511000DD2002F0C9F8002002F0C6F8F32002F00A
:10512000C3F8002002F0C0F8E42002F0C9F8012022
:1051300002F0BAF8002002F0B7F8012002F0B4F84B
:10514000002002F0B1F8022002F0AEF8002002F0D8
:10515000ABF82A2002F0A8F8002002F0A5F83C20C5
:1051600002F0A2F8002002F09FF84B2002F09CF819
:10517000002002F099F85D2002F096F8002002F07D
:1051800093F8742002F090F8002002F08DF884204B
:1051900002F08AF8002002F087F8932002F084F8E9
:1051A000002002F081F8A22002F07EF8002002F038
:1051B0007BF8B32002F078F8002002F075F8BE20EA
:1051C00002F072F8002002F06FF8C42002F06CF8D0
:1051D000002002F069F8CD2002F066F8002002F00D
:1051E00063F8D32002F060F8002002F05DF8DD20C3
:1051F00002F05AF8002002F057F8F32002F054F8B9
:10520000002002F051F8E52002F05AF8002002F0E8
:105210004BF8002002F048F8002002F045F800208A
:1052200002F042F8022002F03FF8002002F03CF8C1
:10523000292002F039F8002002F036F83C2002F074
:1052400033F8002002F030F84B2002F02DF8002057
:1052500002F02AF85D2002F027F8002002F024F87E
:10526000742002F021F8002002F01EF8842002F0E1
:105270001BF8002002F018F8932002F015F8002027
:1052800002F012F8A22002F00FF8002002F00CF851
:10529000B32002F009F8002002F006F8BE2002F068
:1052A00003F8002002F000F8C42001F0FDFF002008
:1052B00001F0FAFFCD2001F0F7FF002001F0F4FF2C
:1052C000D32001F0F1FF002001F0EEFFDC2001F01F
:1052D000EBFF002001F0E8FFF32001F0E5FF0020E4
:1052E00001F0E2FFE62001F0EBFF112001F0DCFF0E
:1052F000002001F0D9FF342001F0D6FF002001F09A
:10530000D3FF562001F0D0FF002001F0CDFF762022
:1053100001F0CAFF002001F0C7FF772001F0C4FFB1
:10532000002001F0C1FF662001F0BEFF002001F067
:10533000BBFF882001F0B8FF002001F0B5FF9920E5
:1053400001F0B2FF002001F0AFFFBB2001F0ACFF85
:10535000002001F0A9FF992001F0A6FF002001F034
:10536000A3FF662001F0A0FF002001F09DFF552063
:1053700001F09AFF002001F097FF552001F094FF03
:10538000002001F091FF452001F08EFF002001F088
:105390008BFF432001F088FF002001F085FF4420AF
:1053A00001F082FF002001F07FFFE72001F088FF7D
:1053B000322001F079FF002001F076FF552001F046
:1053C00073FF002001F070FF762001F06DFF0020D8
:1053D00001F06AFF662001F067FF002001F064FF22
:1053E000672001F061FF002001F05EFF672001F0FF
:1053F0005BFF002001F058FF872001F055FF0020DF
:1054000001F052FF992001F04FFF002001F04CFF06
:10541000BB2001F049FF002001F046FF992001F078
:1054200043FF002001F040FF772001F03DFF002006
:1054300001F03AFF442001F037FF002001F034FF73
:10544000562001F031FF002001F02EFF232001F053
:105450002BFF002001F028FF332001F025FF002062
:1054600001F022FF452001F01FFF002001F01CFF8A
:10547000E82001F025FF002001F016FF002001F0D8
:1054800013FF992001F010FF002001F00DFF87208D
:1054900001F00AFF002001F007FF882001F004FF5F
:1054A000002001F001FF772001F0FEFE002001F056
:1054B000FBFE662001F0F8FE002001F0F5FE8820DA
:1054C00001F0F2FE002001F0EFFEAA2001F0ECFE58
:1054D000002001F0E9FEBB2001F0E6FE002001F013
:1054E000E3FE992001F0E0FE002001F0DDFE6620E1
:1054F00001F0DAFE002001F0D7FE552001F0D4FEC5
:10550000002001F0D1FE552001F0CEFE002001F078
:10551000CBFE442001F0C8FE002001F0C5FE44206F
:1055200001F0C2FE002001F0BFFE552001F0BCFEDC
:10553000002001F0B9FEE92001F0C2FEAA2001F02E
:10554000B3FE002001F0B0FE002001F0ADFE00200F
:1055500001F0AAFE002001F0B3FEAA2001F0A4FE93
:10556000CF2001F0ADFE002001F09EFE002001F0F2
:105570009BFE002001F098FE002001F095FE002027
:1055800001F092FE002001F08FFE002001F08CFE61
:10559000002001F089FE002001F086FE002001F0CD
:1055A00083FE002001F080FE002001F07DFE00203F
:1055B00001F07AFE002001F077FE002001F074FE79
:1055C000002001F071FE002001F06EFEF02001F0DD
:1055D00077FE002001F068FE502001F065FE0020FB
:1055E00001F062FE002001F05FFE002001F05CFE91
:1055F000F32001F065FE002001F056FEF92001F0D5
:105600005FFE062001F050FE102001F04DFE292023
:1056100001F04AFE002001F047FE3A2001F050FE62
:10562000552001F041FE112001F04AFE6420FEF7F2
:1056300027FD292001F044FE352001F041FE002025
:1056400001F032FE512001F03BFEFF2001F02CFE64
:10565000532001F035FE2C2001F026FE552001F0EC
:105660002FFE822001F020FEBDE810402C2001F02A
:1056700027BE2DE9F05F4FF470445521204601F01C
:1056800035FE651CAA21284601F030FEA61C5221D9
:10569000304601F02BFEE71C0821384601F026FEBB
:1056A0004FF204080121404601F020FE4FF436433A
:1056B0003421184601F01AFE34214BF2016001F04A
:1056C00015FE34214BF2026001F010FE4FF4304918
:1056D0000D21484601F00AFE4BF2010A0D21504609
:1056E00001F004FE4BF2020B0D21584601F0FEFDC5
:1056F00024214FF4374001F0F9FD24214BF20170D1
:1057000001F0F4FD24214BF2027001F0EFFD0D21B8
:105710004FF4314001F0EAFD0D214BF2011001F090
:10572000E5FD0D214BF2021001F0E0FD24214FF4C4
:10573000384001F0DBFD24214BF6010001F0D6FDDD
:1057400024214BF6020001F0D1FD00214FF432403C
:1057500001F0CCFD24214FF4394001F0C7FD242194
:105760004BF6011001F0C2FD24214BF6021001F0AE
:10577000BDFD05214FF4334001F0B8FD05214BF28A
:10578000013001F0B3FD05214BF2023001F0AEFD16
:1057900034214FF43A4001F0A9FD34214BF60120A9
:1057A00001F0A4FD34214BF6022001F09FFD0B21F6
:1057B0004FF4354001F09AFD0B214BF2015001F0FE
:1057C00095FD0B214BF2025001F090FD00214FF4AA
:1057D0003C4001F08BFDA3214BF6014001F086FD1A
:1057E00000214BF6024001F081FD00214FF43D40C5
:1057F00001F07CFDA3214BF6015001F077FD002163
:105800004BF6025001F072FD00214FF43E4001F0D2
:105810006DFD37214BF6016001F068FD00214FF46A
:10582000514001F063FD37214DF2011001F05EFDA2
:1058300000214DF2021001F059FD53214DF20310E9
:1058400001F054FD00214DF2041001F04FFD7921CB
:105850004DF2051001F04AFD00214DF2061001F055
:1058600045FD97214DF2071001F040FD00214DF25A
:10587000081001F03BFDB1214DF2091001F036FD99
:1058800000214DF20A1001F031FDD5214DF20B102F
:1058900001F02CFD00214DF20C1001F027FDF42148
:1058A0004DF20D1001F022FD01214DF20E1001F01C
:1058B0001DFD23214DF20F1001F018FD01214DF2C5
:1058C000101001F013FD49214DF2111001F00EFDF1
:1058D00001214DF2121001F009FD87214DF2131044
:1058E00001F004FD01214DF2141001F0FFFCB6217E
:1058F0004DF2151001F0FAFC02214DF2161001F0E4
:10590000F5FC00214DF2171001F0F0FC02214DF2E0
:10591000181001F0EBFC3B214DF2191001F0E6FCF0
:1059200002214DF21A1001F0E1FC3D214DF21B1055
:1059300001F0DCFC02214DF21C1001F0D7FC7521B6
:105940004DF21D1001F0D2FC02214DF21E1001F0AB
:10595000CDFCB1214DF21F1001F0C8FC02214DF227
:10596000201001F0C3FCD5214DF2211001F0BEFC46
:1059700003214DF2221001F0B9FC09214DF2231050
:1059800001F0B4FC03214DF2241001F0AFFC2821FA
:105990004DF2251001F0AAFC03214DF2261001F072
:1059A000A5FC52214DF2271001F0A0FC03214DF27D
:1059B000281001F09BFC6B214DF2291001F096FCA0
:1059C00003214DF22A1001F091FC8D214DF22B1094
:1059D00001F08CFC03214DF22C1001F087FCA22178
:1059E0004DF22D1001F082FC03214DF22E1001F03A
:1059F0007DFCBB214DF22F1001F078FC03214DF20C
:105A0000301001F073FCC1214DF2311001F06EFC39
:105A100003214DF2321001F069FCC1214DF2331027
:105A200001F064FC00214FF4524001F05FFC37218B
:105A30004DF2012001F05AFC00214DF2022001F04C
:105A400055FC53214DF2032001F050FC00214DF292
:105A5000042001F04BFC79214DF2052001F046FCB9
:105A600000214DF2062001F041FC97214DF2072064
:105A700001F03CFC00214DF2082001F037FCB1217F
:105A80004DF2092001F032FC00214DF20A2001F014
:105A90002DFCD5214DF20B2001F028FC00214DF208
:105AA0000C2001F023FCF4214DF20D2001F01EFC2E
:105AB00001214DF20E2001F019FC23214DF20F209F
:105AC00001F014FC01214DF2102001F00FFC4921DE
:105AD0004DF2112001F00AFC01214DF2122001F0DB
