:020000040800F2
:10000000A049002061020008BB3F0008C337000878
:10001000B93F0008810B0008C55E00080000000021
:10002000000000000000000000000000A101000826
:10003000C50E000800000000FD010008C9560008B8
:100040007B0200087B0200087B0200087B0200089C
:100050007B0200087B0200087B0200087B0200088C
:100060007B0200087B0200087B0200087B0200087C
:100070007B0200087B0200087B0200087B0200086C
:10008000F10D0008FD0D00087B0200087B0200084E
:100090007B0200087B0200087B0200087B0200084C
:1000A0007B0200087B0200087B0200087B0200083C
:1000B000895700087B0200087B0200087B020008C9
:1000C0007B0200087B0200087B0200087B0200081C
:1000D0007B0200087B020008B95E00087B02000872
:1000E0007B0200087B0200087B0200087B020008FC
:1000F0007B0200087B0200087B0200087B020008EC
:100100007B020008F13F00087B0200087B02000828
:100110007B0200087B0200087B0200087B020008CB
:100120007B0200087B0200087B020008090E000821
:100130007B0200087B0200087B0200087B020008AB
:100140007B0200087B0200087B0200087B0200089B
:100150007B020008150E00087B0200087B020008E5
:100160007B0200087B0200087B0200087B0200087B
:100170007B0200087B0200087B02000800000000F0
:100180007B0200087B020008DFF810D000F05AFB69
:100190000048004779B10008AFF30080A049002073
:1001A0002C4B19680868B0E8F04F80F30988BFF35A
:1001B0006F8F4FF0000080F311887047000000003F
:1001C00008480068006880F308884FF0000080F35A
:1001D000148862B661B6BFF34F8FBFF36F8F00DF35
:1001E00000BF00BF08ED00E0DFF80C00016841F43B
:1001F00070010160704700BF88ED00E0EFF30980F7
:10020000BFF36F8F134B1A681EF0100F08BF20ED5D
:10021000108A20E9F04F106009B44FF0500080F3CD
:100220001188BFF34F8FBFF36F8F0CF055F84FF06D
:10023000000080F3118809BC19680868B0E8F04F25
:100240001EF0100F08BFB0EC108A80F30988BFF3CE
:100250006F8F7047A8000020EFF305807047000003
:100260000648804706480047FEE7FEE7FEE7FEE750
:10027000FEE7FEE7FEE7FEE7FEE7FEE77957000848
:10028000890100082DE9F05F0546002092469B4653
:1002900088460646814640241BE02846414647469C
:1002A000224600F01BF953465A46C01A914110D31A
:1002B00011461846224600F002F92D1A67EB010894
:1002C0004F4622460120002100F0F9F817EB000903
:1002D0004E41201EA4F10104DFDC484631462A4687
:1002E0004346BDE8F09F40EA01039B0703D009E0C5
:1002F00008C9121F08C0042AFAD203E011F8013B12
:1003000000F8013B521EF9D27047D2B201E000F86A
:10031000012B491EFBD270470022F6E710B51346A9
:100320000A4604461946FFF7F0FF204610BD421C5E
:1003300010F8011B0029FBD1801A70472DE9FE4FF0
:1003400081EA030404F0004421F0004100944FF0DE
:10035000000B23F0004350EA01045ED052EA03048C
:100360005BD0C3F30A54C1F30A552C44A4F2F3340E
:100370000194A0FB0254C1F3130141F48011C3F3B3
:10038000130343F4801301FB024400FB034E840A71
:10039000970A44EA815447EA8357A4FB0768029509
:1003A0008D0A05FB07854FEA932C04FB0C542705A7
:1003B000029D4FEA065847EA1637B5EB08056EEB83
:1003C000070C870E920E47EA811742EA8312A7FBB9
:1003D0000201B6EB0B0164EB00042B0D43EA0C3376
:1003E0005E1844EB1C50DA465146E7FB0201C5F3A8
:1003F00013044FEA0B3343EA14534FEA0432019CCF
:1004000043EA0603A4F10C040294009CCDE900B475
:1004100000F083F803B0BDE8F08F00200146F9E753
:100420000EB540F2334102910021CDE900110A4698
:100430000B4600F072F803B000BDC1F30A5210B5CC
:10044000C1F3130140F2FF3341F480119A4201DA03
:10045000002010BD40F233439A42A2F2334203DC43
:10046000524200F03BF810BD904010BD00F0004239
:1004700030F000400AD0C10D01F56071C0F31600E4
:1004800042EA0151C208400711437047002001466B
:10049000704730B50B46014600202022012409E0B8
:1004A00021FA02F59D4205D303FA02F5491B04FA2D
:1004B00002F52844151EA2F10102F1DC30BD202A0C
:1004C00004DB203A00FA02F1002070479140C2F1AB
:1004D000200320FA03F3194390407047202A04DBDD
:1004E000203A21FA02F00021704721FA02F3D040AD
:1004F000C2F12002914008431946704710B5141EFE
:1005000073F1000408DA401C41F1000192185B41CC
:100510001A4301D120F0010010BD2DE9F04D9246A3
:100520009B4611B1B1FA81F202E0B0FA80F22032BA
:100530009046FFF7C4FF04460F4640EA0A0041EA2E
:100540000B0153465A46084313D0114653EA0100A3
:1005500019D0C8F140025046FFF7C0FF05460E46CD
:10056000504659464246FFF7AAFF084305D00120EE
:1005700004E020463946BDE8F08D0020054346EAF8
:10058000E0762C4337430A986305E40AA0EB0800A1
:100590000022FD0A44EA47540A3002D500200146F1
:1005A000E9E7010510196941DDE9084500196941CC
:1005B000BDE8F04DA2E72DE9FE4F804681EA030039
:1005C000C00F0C46009021F0004123F00045B8EB2D
:1005D0000200A94105D24046214690461C460B46E2
:1005E000024623F00040104347D0270DC7F30A000E
:1005F000C3F30A510290401A019040286BDAC3F30A
:10060000130040F4801B0098924620B10023D2EBE7
:10061000030A63EB0B0B01985946C0F140025046A8
:10062000FFF74DFF06460D4650465946019A00F029
:100630001BF910EB08006141002487EA115284EA9B
:10064000E7731A4340D0009A62B3019A012A4FEA35
:10065000075215DC001B61EB02014FF0004202EA79
:100660000752CDE90042001C41F5801132462B466D
:10067000FFF753FF03B0BDE8F08F40462146F9E78E
:10068000001B61EB0201001C41F5801300185B4167
:100690002018A2F5001747EB030140EAD570B61900
:1006A0006D4111E06D084FEA360645EAC0754FEA24
:1006B0000752001B61EB0201001C41F58011490843
:1006C0004FEA30000019514132462B4603B0BDE8D5
:1006D000F04FFFF713BF0098012240000023D0EB3A
:1006E000020263EBE073009821464FEAE074B8EB36
:1006F000000061EB0401E9E783F000435BE781F070
:10070000004158E72DE9F04D81EA030404F0004B65
:1007100021F0004514464FF0000A23F0004150EA52
:10072000050220D054EA01021DD0C5F30A57024643
:10073000C5F31303C1F31300C1F30A5640F4801547
:1007400043F48013A7EB0608101BD64608F2FD38C9
:1007500073EB050002D308F1010801E092185B4138
:10076000B8F1000F03DA00200146BDE8F08D00204B
:100770004FF48011064684460EE0171B73EB050705
:1007800005D3121B63EB050306434CEA010C490831
:100790004FEA300092185B4150EA0107EDD152EA6E
:1007A000030012D082EA040083EA0501084305D061
:1007B000101BAB4106D20122002306E000224FF0BD
:1007C000004302E06FF0010253101AEB06004CEBFD
:1007D000085110EB0A0041EB0B01BDE8F04DFFF7AB
:1007E0008DBEC1F30A52C1F3130140F2FF3341F44D
:1007F00080119A4202DA00200146704740F23343EA
:100800009A42A2F2334202DC5242FFF767BEFFF780
:1008100056BE000030B5041E71F1000404DB4FF039
:100820000044404264EB0101141E73F1000405DB37
:100830001C464FF00043524263EB0403994208BF49
:10084000904230BD064C074D06E0E06840F00103E1
:1008500094E8070098471034AC42F6D3FFF798FCB1
:100860002006010840060108202A06DBCB17203AA3
:1008700041FA02F043EAE07306E041FA02F3D040A5
:10088000C2F12002914008431946704710B5114942
:10089000002090B00871C87048700F4C02464FF4A9
:1008A0008071204601F069F900226115204601F0AF
:1008B00064F9032209A1684605F016FB6846FFF7B4
:1008C00036FD82B2642369460F4802F029FF10B05A
:1008D00010BD0000780100200014024021212120D9
:1008E000414C41524D20434C454152454420212129
:1008F0002120284E6F726D616C2025642074696D13
:100900006573290D0A000000F00600200148807878
:1009100070470000780100200148C078704700004F
:1009200078010020104910B50B7C002003B1012094
:100930004A7C02B1401C8C7C04B1401CC97C01B1D2
:10094000401C022801D3052010BD0BB1012010BDB1
:100950000AB1022010BD0CB1032010BD09B1042062
:1009600010BD002010BD0000780100200148007873
:10097000704700007801002001484078704700006F
:1009800078010020014800797047000078010020BC
:1009900070B501201A4CACB01A4D2071024601020C
:1009A000284601F0EAF801225102284601F0E5F854
:1009B0001822154925A8FFF796FCE068FFF756FDB9
:1009C00005460E46A068FFF751FD02460520029538
:1009D000CDE90360CDE90021607825A951F82020F8
:1009E0000A4905A805F080FA05A8FFF7A0FC82B225
:1009F000642305A9064802F093FE2CB070BD0000E8
:100A00007801002000140240080001085C0501087C
:100A1000F006002070B5294CB4EEC10AF1EE10FAD0
:100A200084ED020AC4ED030A01DB012100E000218C
:100A3000B4EEE10A2174F1EE10FA01D8012000E0D1
:100A40000020F4EEC20A6074F1EE10FA01DB01221C
:100A500000E00022F4EEE20AA274F1EE10FA01D8EE
:100A6000012300E00023E374002511B908B902B99D
:100A700063B1A078401CA070E570FFF753FF607071
:100A8000A078052815D3207970B10FE0E078401CDC
:100A9000C0B2E070A5706570217919B103280AD33E
:100AA000FFF7F4FE257070BDFFF772FF0220207083
:100AB00070BD0120FBE70320F9E70000780100206A
:100AC000704700000146014801F0FEBC1C050020F3
:100AD00010B5044801F00AFD042801D0012010BD22
:100AE000002010BD1C05002010B500F015F80128ED
:100AF00001D0012010BD074801F012FE040006D10C
:100B00004FF40061034801F085FB00B10124204649
:100B100010BD00001C05002008B501208DF8000064
:100B20009DF8000008BD0000134610B50A460146B6
:100B30000024034801F006FF00B10124204610BD47
:100B40001C05002002480022012140680AF0E4BB95
:100B500060000020134610B50A46014600240348F1
:100B600001F08AFF00B10124204610BD1C050020C1
:100B700002480022022140680AF0CEBB600000203B
:100B8000FEE7000030B587B014216846FFF7C4FBCC
:100B90000E48016841F04001016000684FF40074A4
:100BA00000F0400005901120CDE9004001200290A6
:100BB0000220074D03906946284600F0E1FE01221D
:100BC0002146284600F0D9FF07B030BD303802403A
:100BD0000018024070B50D460646002429463046EE
:100BE00000F04CF8002807D0642006F053F8641C8D
:100BF000E4B20A2CF2D3012070BD00002DE9F84FB9
:100C000083460020DFF870A08DF80000054680467E
:100C10004FF496764FF4007900246F463146204613
:100C200000F0C8F830BB3146012000F0C3F808BB23
:100C300005E00120641C06F02DF8B4421AD849469C
:100C4000504600F095FF0128F3D01E2C01D9012059
:100C500000E0002038709DF8000008F1010840EA2B
:100C60004500C5B2B8F1080FD6DB8BF80050002064
:100C7000BDE8F88F0120FBE7001802402DE9FC4792
:100C800081460020464D88460090064602464FF4B5
:100C9000007401902146284600F06FFF44F6206062
:100CA00005F0F8FF01222146284600F066FF1E20CD
:100CB00005F0F0FF4FF4967705E00120761C05F073
:100CC000E9FFBE4263D82146284600F051FF0128C3
:100CD000F3D0002605E00120761C05F0DBFFBE42C4
:100CE00055D82146284600F043FF0028F3D00026BF
:100CF00005E00120761C05F0CDFFBE4247D8214615
:100D0000284600F035FF0128F3D000246D4628194D
:100D1000FFF774FFD8BB641C052CF8DB9DF800308E
:100D20009DF801209DF802109DF803009C180D18F5
:100D30002C449DF80450AC4229D100EE103A9FEDAE
:100D4000191A01EE900AF8EE400A00EE102AF8EEA9
:100D5000611AB8EE400A40EE010A00EE101AB8EE31
:100D6000400AF5EEC00A01EE810AF1EE10FA0ED348
:100D700010EE900A0C49884209DC10EE100A0B496B
:100D8000884204D810EE100A0949884202DD012089
:100D9000BDE8FC87C8ED000A89ED000A0020F7E7EE
:100DA00000180240CDCCCC3D0000C8420000A0C1DC
:100DB0000000A0422DE9F0410E46054600244FF404
:100DC0000077DFF8288008E0012005F063FF641C4D
:100DD000B44202D30120BDE8F0813946404600F01C
:100DE000C7FEA842F0D10020F5E70000001802403D
:100DF000014800F0A7BB0000E0070020014800F018
:100E0000A1BB000080070020014800F09BBB000050
:100E1000A0050020014800F095BB0000000600205E
:100E200001681823CAB2103AB2FBF3F2054B6FF314
:100E30000901032A9B5CC36500D9091D8165084629
:100E400070470000E400010810B5014600208B69DE
:100E50008A6A4FF0C07453B1B3F5005F15D072B118
:100E6000012A0CD0022A0AD0032A09D104E01AB1BF
:100E7000012A06D0022A03D1C96AC90100D501207E
:100E800010BDC96AA142FAD010BD002AF7D0012ACC
:100E9000F2D0022AF3D0032AF3D010BD30B5046893
:100EA000256825F480252560046863608368402BED
:100EB000036803D099600068C26030BD9A60006822
:100EC000C16030BD704772B6FEE70022AFF300800C
:100ED00030B50E4B054601205C7A002C14D1587AAF
:100EE0001C54587A03EB800045605D7A03F10800DA
:100EF0002A54587A421C5A72303008703A2048708E
:100F00002F208870CC70002030BD000060080020C9
:100F1000002229B101291AD002291BD04FF44072B6
:100F20000E490B6823F440730B600B6813430B608E
:100F30000A6822F078020A600A68022303EBC00004
:100F400002430A60086840F48030086070474FF43C
:100F50008072E5E74FF40072E2E70000103C0240C7
:100F60001348016889050FD5016821F400710160FB
:100F7000016841F400610160016821F400610160D1
:100F8000016841F400710160016849050FD50168ED
:100F900021F480610160016841F4805101600168C1
:100FA00021F480510160016841F480610160704763
:100FB000003C024008490A6822F440720A600A684C
:100FC00042F004020A600A684FF4803343EA0020CA
:100FD00002430A6070470000103C0240064A136852
:100FE00023F44073136013681360136843F0010324
:100FF0001360017070470000103C0240094910B5B1
:101000000C6824F440740C600C6844F440740C6068
:101010000C6844F001040C600260BFF36F8F436002
:1010200010BD0000103C0240074A136823F44073CF
:101030001360136843F480731360136843F0010373
:101040001360018070470000103C0240074A13689B
:1010500023F440731360136843F400731360136840
:1010600043F001031360016070470000103C024030
:1010700017490868C206174805D5C26942F0100230
:10108000C26110220A600A68920605D5C26942F060
:101090000802C26120220A600A68520605D5C269A8
:1010A00042F00402C26140220A600A68120605D5B5
:1010B000C26942F00202C26180220A600A68920795
:1010C00005D5C26942F02002C26102200860704763
:1010D0000C3C02407000002070B51149044600200D
:1010E000C86100F04FFD06460E4D09E0601C07D0B8
:1010F00024B100F047FD801BA04201D9032070BD40
:101100002868C003F2D42868C00701D001202860F5
:10111000286810F0F200F2D0FFF7AAFF012070BD9E
:10112000700000200C3C024030B5B3F5804F05D074
:101130006FF0704140F82210002030BD8C690B68C0
:101140008D6823434C688989240144EA052423439C
:1011500043EA014150F82230014C23401943E9E7AA
:101160000000F0CF10B50A6850F8223023F00103D8
:1011700040F822308C68082C23D000234A68224390
:10118000CC681C430B6922431A434B690E4C1A432B
:10119000CB691A430B6A1A434B6A1A438B6A1A4388
:1011A000CB6A1A430B6B1A438B691343CA6B0968EA
:1011B0001A4350F82130A343134340F82130002054
:1011C00010BD4023DAE700007FFF0F0030B5D1E902
:1011D000003443EA04138C688D89240244EA0544F0
:1011E00023430C8A074D00EB820005EB0454234394
:1011F0000C7D6D0105EB0464896923430B43436057
:10120000002030BD0000F0FF00B587B00020009046
:101210000B200290012003900220049072B600F08F
:1012200099FB05A9684600F001FB00F04BFB62B694
:1012300007B000BD30B50C46054600F045F885ED19
:10124000000A00F05DF884ED000A00F007F882ED76
:10125000000A00F01FF883ED000A30BD0A4890ED47
:10126000020AB4EE400AF1EE10FA09D1B5EEC00A56
:10127000F1EE10FA04D310EE100A0449884201DDA1
:101280009FED030A7047000000000E080000C842EE
:101290000000BE420A4890ED030AB4EE400AF1EEA7
:1012A00010FA09D1B5EEC00AF1EE10FA04D310EE2F
:1012B000100A0449884201DDB3EE0E0A70470000AF
:1012C00000000E080000C8420A4890ED000AB4EE83
:1012D000400AF1EE10FA09D1B5EEC00AF1EE10FAAB
:1012E00004D310EE100A0449884201DD9FED030A81
:1012F0007047000000000E080000704200000C4221
:101300000A4890ED010AB4EE400AF1EE10FA09D154
:10131000B5EEC00AF1EE10FA04D310EE100A04493B
:10132000884201DDB1EE040A7047000000000E089B
:101330000000704210B52DED048BB0EE618AF0EE26
:10134000418AB0EE609AF0EE409A9FED3F0AB4EE0B
:10135000E99AF1EE10FA0ADBF1EE040A39EEE09AAE
:10136000B5EEC09AF1EE10FA01D2B0EE409AB4EEAA
:10137000E88AF1EE10FA0ADBF3EE040A38EEE08AAE
:10138000B5EEC08AF1EE10FA01D2B0EE408A18EE46
:10139000900A2E49884201DDDFED2D8AB5EEC08A24
:1013A000F1EE10FA01D2B0EE408AFFF78DFFF0EEB9
:1013B000401AFFF7A5FFF0EE400AFFF74FFFB0EE2F
:1013C000401AFFF767FF71EEE91A2248F0EEE11AC2
:1013D00011EE901A814217DA70EEC90AF0EEE00AB7
:1013E00010EE901A81420FDA71EE680AF0EEE00A10
:1013F00010EE901A814207DA30EE480AB0EEC00AC9
:1014000010EE101A81421CDBFFF7FEFEB0EE690AF7
:10141000114800F023F81048B0EE490A001D00F012
:101420001DF80D48B0EE680A083000F017F8B0EE6D
:10143000480ABDEC048B0848BDE810400C3000F0B1
:101440000DB8BDEC048B10BD000000000000C842C8
:101450000000C8420AD7233C00000E0810B504461D
:101460002DED028BB0EE408A72B600F073FA18EEE2
:10147000102A00232146022000F02EFA00F022FA62
:1014800062B6BDEC028B10BD2DE9F0410446876DBC
:1014900000F078FB064694F835000025022806D0B7
:1014A0008020606584F834500120BDE8F081206818
:1014B000016821F0160101602068416921F0800176
:1014C0004161206C08B9A06C20B12068016821F04E
:1014D000080101602068016821F0010101600CE051
:1014E00000F050FB801B052807D9202060650320F1
:1014F00084F8350084F83450D7E720680068C007C6
:10150000EED194F85C103F208840B860012084F848
:10151000350084F834500020C7E790F835100229D0
:1015200003D08021416501207047052180F83510E6
:101530000068016821F00101016000207047406DE2
:10154000704700002DE9F84304464FF00009CDF83C
:10155000009063484FF41651A56D0068B0FBF1F799
:101560002E6894F85C10082000FA01F131420FD087
:1015700021680A6852070BD50A6822F004020A6043
:1015800094F85C108840A860606D40F001006065D0
:1015900094F85C104FF0010808FA01F0304208D0CE
:1015A00021684969090604D5A860606D40F0020011
:1015B000606594F85C1004208840304208D02168AF
:1015C0000968890704D5A860606D40F00400606573
:1015D00094F85C1010208840304218D021680968C7
:1015E000090714D5A86020680168490304D500687C
:1015F000000308D5A16C07E00168C90503D40168A0
:1016000021F008010160216C09B12046884794F857
:101610005C1020208840304231D021680968C9061A
:101620002DD5A86094F8350005282068016806D0FB
:10163000490347D5006800031DD4616C1CE021F00C
:10164000160101602068416921F080014161206C30
:1016500008B9A06C20B12068016821F00801016080
:1016600094F85C103F208840A86084F8358084F8A6
:101670003490216D1FE0E16B09B120468847606D11
:1016800000282BD0606DC00714D0052084F83500E9
:101690002068016821F0010101600098401C009061
:1016A000B84203D820680068C007F6D184F83580B6
:1016B00084F83490E16C002910D001B02046BDE8D8
:1016C000F04308470168C905D5D4016821F010012D
:1016D000016084F8358084F83490CCE7BDE8F88365
:1016E0009C0000202DE9F041044600F04BFA06462C
:1016F0005CB1022084F83500002584F8345020685D
:10170000016821F0010101600DE00120BDE8F081D8
:1017100000F038FA801B052805D9202060650320D9
:1017200084F83500F2E720680068C007F0D122682D
:10173000116820480140D4E901031843D4E9033675
:101740003343184363691843A3691843E369184393
:10175000236A18430843616A042903D1D4E90B13AF
:1017600019430843106020684069666A20F0070149
:1017700030460E43012704280CD1A06A0643E06AD4
:1017800040B12046FFF760FB20B14020606584F83F
:101790003570BAE7206846612046FFF741FB94F8B0
:1017A0005C203F2191408160656584F835700020A0
:1017B000ACE700003F8010F02DE9F0410446866D53
:1017C00090F83400002501280DD0012084F8340061
:1017D00094F835700020012F07D084F834000225DA
:1017E0002846BDE8F0810220FBE7022784F8357027
:1017F00060652046FFF752FB94F85C103F2088405C
:10180000B0602068016841F016010160206C20B1D1
:101810002068016841F0080101602068016841F01A
:1018200001010160DCE780B205F02EBA2DE9F04736
:10183000044622480F46017E01290AD00121804634
:1018400001764CF250394846FFF746FC020003D0BF
:101850002FE00220BDE8F0874FF0FF3038602068AD
:10186000174D012801D0A6681CE0207C6168FFF7B5
:10187000A1FB4846FFF730FC0246286820F0040030
:10188000286014E0217C3046FFF742FB4846FFF712
:1018900023FC0200286820F07A00286001D03E6016
:1018A00005E0761CD4E902100844B042EAD8FFF7FC
:1018B00057FB002188F818101046CBE77000002075
:1018C000103C02400348016841F0004101600020E3
:1018D00070470000103C02402DE9F0471B4E0546C2
:1018E0001446307E1F468946012808D001203076F4
:1018F0004CF250384046FFF7EFFB18B114E00220DD
:10190000BDE8F0879DB1012D16D0022D19D02246D9
:101910003B464846FFF772FB4046FFF7DDFB0C49AC
:101920000A6822F001020A6000213176E8E7E1B29C
:101930004846FFF753FBEFE7A1B24846FFF774FBB9
:10194000EAE721464846FFF781FBE5E77000002003
:10195000103C0240074900200A68002A09DA054ABB
:10196000054B0C3A1360054B13600968002900DA37
:1019700001207047103C024023016745AB89EFCD41
:101980002DE9F84FDFF8BCA10022012503264FF016
:101990000F090AF1040BAAF1040E00BF0B6805FA47
:1019A00002F42340A34270D10F7907F00307012FFF
:1019B00001D0022F16D187684FEA420806FA08FCC8
:1019C00027EA0C07D1F80CC00CFA08FC4CEA070C0B
:1019D000C0F808C04768A7430C79C4F300149440CA
:1019E0003C4344600C79E443A4070AD0C4684FEA3E
:1019F000420C06FA0CF7BC438F6807FA0CF7274332
:101A0000C7600C7904F00304022C12D1D40800EB57
:101A1000840CDCF820405707FF0E09FA07F824EA87
:101A20000804D1F8108008FA07F848EA0408CCF84E
:101A3000208004684FEA420C06FA0CF7BC430F7989
:101A400007F0030707FA0CF7274307604C6814F404
:101A5000403F70D03C4C276847F48047276024689B
:101A600022F0030704F480440094384C07EB040C84
:101A7000DCF8084897074FEA177809FA08F7BC43DB
:101A8000334FB84202D1002724E054E0314FB8422E
:101A900001D101271EE0304FB84201D1022719E0E1
:101AA0002E4FB84201D1032714E02D4FB84201D187
:101AB00004270FE02B4FB84201D105270AE02A4F37
:101AC000B84201D1062705E0284FB84201D10727C7
:101AD00000E0082707FA08F72743CCF80878DAF877
:101AE00000405746D1F804C09C435FEACC2C00D597
:101AF0001C433C60DBF800405F46D1F804C09C43C7
:101B00005FEA8C2C00D51C433C60DEF80040774631
:101B1000D1F804C09C435FEA8C3C00D51C433C6078
:101B2000084F083F3C68D1F804C09C435FEACC3CB6
:101B300000D51C433C60521C102AFFF42FAFBDE8B7
:101B4000F88F0000083C014044380240003001405A
:101B5000000002400004024000080240000C024065
:101B6000001002400014024000180240001C024015
:101B70000069084000D0012070470AB181617047B8
:101B80000904FBE7014880687047000090000020CE
:101B900002488168027811448160704790000020FB
:101BA0000B4810B5016841F400710160016841F40F
:101BB00080610160016841F480710160032000F0E0
:101BC00073F80F2000F006F800F024F8002010BD94
:101BD000003C024070B50D4D04464FF47A712878F0
:101BE000B1FBF0F00A490968B1FBF0F001F03CF8F4
:101BF00048B9102C07D200222146501E00F034F8BC
:101C000000206C6070BD012070BD000090000020BD
:101C10009C0000200C4882B0016841F480410160C2
:101C2000006800F4804000900748001F016841F000
:101C3000805101600068002200F0805000900F2168
:101C4000901E02B000F010B844380240002809DBB2
:101C500000F01F02012191404009800000F1E020C6
:101C6000C0F8001170470000F0B40E4B1B680C4622
:101C7000C3F30223C3F10705042D00D90425191D60
:101C8000072901D2002300E0DB1E012606FA05F138
:101C9000491E214099409E40761E16403143F0BCBB
:101CA00004F036B90CED00E0064900F007020868C0
:101CB0004FF6FF03184040EA0220034A1043086031
:101CC000704700000CED00E00000FA052DE9F04738
:101CD0000E46050065D0DFF81481D8F80000F7B291
:101CE00000F00700B04207D288F80070D8F8000072
:101CF00000F00700B04254D128683D4C810712D54E
:101D0000400703D5206840F4E050206028780007A1
:101D100003D5206840F4604020602068A96820F066
:101D2000F000084320602878C0072DD0304968684B
:101D30000839012812D0022813D0032811D00968CD
:101D4000890700292DDA216821F003010143216070
:101D5000FFF718FF814641F2883A0EE009688903CF
:101D6000EFE709688901ECE7FFF70CFFA0EB090139
:101D7000514502D90320BDE8F0872068696800F06A
:101D80000C00B0EB810FEFD1D8F80010404601F005
:101D90000701B14207D90770006800F00700B042A0
:101DA00001D00120E7E72878400705D52068E968D9
:101DB00020F4E050084320602878000706D520680A
:101DC000296920F4604040EAC100206000F038F842
:101DD0002168084AC1F30311515CC84006490860F4
:101DE00006480068FFF7F6FE0020C4E7003C02400A
:101DF00008380240EC0001089C00002094000020FC
:101E00000448054900680968044AC1F38221515C0D
:101E1000C84070479C00002008380240FC000108C0
:101E20000448054900680968044AC1F34231515C1D
:101E3000C84070479C00002008380240FC000108A0
:101E4000154810B5006810F00C02144813D041106A
:101E5000042A0FD0082A0ED10F4C241F22682368B1
:101E600002F03F025B0207D52068C0F38810A0FB98
:101E7000010106E0084610BD2168C1F38811A1FBED
:101E800000010023FEF7FEF92168C1F30141491C5E
:101E90004900B0FBF1F010BD083802400024F40006
:101EA0002DE9F84F04006ED02078DFF84C93C0077E
:101EB000A9F104054AD009F104000168C1F38101C8
:101EC000012908D00068C0F3810002280AD1D9F89E
:101ED0000000400206D52868800337D560680028D6
:101EE000E1D033E06068B0F5803F10D0B0F5A02FAE
:101EF000286810D020F480302860286820F48020E2
:101F000028606068A8B1FFF73DFE06460DE028682E
:101F100040F48030F4E740F480202860F7E700BF09
:101F2000FFF730FE801B642873D828688003F7D53C
:101F30000CE0FFF727FE064605E000BFFFF722FE94
:101F4000801B6428F0D828688003F7D42078DFF855
:101F5000AC8280074FF0000A3ED5A748001D0168FB
:101F600011F00C0F08D00068C0F3810002280BD1DB
:101F7000D9F80000400207D42868800716D5E06829
:101F8000012800D112E033E1E068B8B10120C8F8BF
:101F90000000FFF7F7FD064605E000BFFFF7F2FD82
:101FA000801B0228C0D828688007F7D528682169D7
:101FB00020F0F80040EAC10028600DE0C8F800A059
:101FC000FFF7E0FD064604E0FFF7DCFD801B02287A
:101FD0001FD828688007F7D42078000722D5864FBD
:101FE00087486169703771B101210160FFF7CAFD4F
:101FF000064604E0FFF7C6FD801B022809D83868B2
:102000008007F7D50EE0C0F800A0FFF7BBFD06463D
:1020100005E082E0FFF7B6FD801B02287DD8386816
:102020008007F7D42078400768D5DFF8CCB10027C7
:102030000BF13C0BDBF80000C0000BD4DBF8001008
:1020400041F08051CBF80010DBF80000012700F0D0
:10205000805000906B4E3068C00510D4306840F45A
:1020600080703060FFF78EFD009005E0FFF78AFD7D
:102070000099401A022850D83068C005F6D55E4E47
:10208000A0686C3601280FD00528306810D020F0E9
:1020900001003060306820F004003060A068B8B102
:1020A000FFF770FD00900FE0306840F00100F4E7AA
:1020B00040F004003060F7E7FFF764FD0099411A33
:1020C00041F28830814266D830688007F4D50EE04E
:1020D000FFF758FD009007E0FFF754FD0099411A03
:1020E00041F28830814256D830688007F4D42FB14D
:1020F000DBF8001021F08051CBF80010A069C8B3C4
:102100003D49091D0968C1F3810102294AD002280D
:10211000504607D0C8F8600000E03CE0FFF732FD11
:1021200004463BE04746C8F86000FFF72BFD064633
:1021300005E000BFFFF726FD801B02282BD828688A
:102140008001F7D4D4E907010843A16A2E4A49085F
:1021500002EB0141626A41EA8211084394F82C10B3
:1021600040EA0161C9F8001001203866FFF70AFD56
:10217000044606E03EE000BFFFF704FD001B022816
:1021800009D828688001F7D534E000BFFFF7FAFCD2
:10219000001B022802D90320BDE8F88F28688001BF
:1021A000F4D427E00128F7D0D9F80000E26900F460
:1021B000800191421CD1226A00F03F01914217D167
:1021C00047F6C071626A0140B1EB821F10D1A26A6A
:1021D0004FF0FF3300F4403103EB5202B1EB024FFA
:1021E00006D194F82C1000F07060B0EB016F01D0B4
:1021F0000120D1E70020CFE7043802400000474229
:10220000800E4742007000400000FFFF10B5FEF74F
:1022100057FC10BD2DE9FE430446002603200D4661
:1022200084F83400606C03285ED0B5F5805F5BD025
:102230004FF4006700204FF08068BD421FD18146F7
:10224000009001900021206801F0CEFE800113D49F
:102250006946204602F0BCFA07000DD10198400300
:1022600034D5B4F850000104206801F0F5FE0700F1
:1022700002D10221206823E0A06B384328E01DB181
:10228000A06B40F0006023E08146009001900021A7
:10229000206801F0A9FE8001EED46946204602F0D4
:1022A00097FA0700E8D10198C0030FD5B4F85000A1
:1022B0000104206801F0D0FE0700DDD10021206874
:1022C00001F017FF0700D7D14F46D5E74746D3E7C0
:1022D000A063A06B144F4FF0010848B120688763DA
:1022E00084F8348001260EE0A06B40F08050EFE7C8
:1022F000211DD4E9050C0EC9CDE90050CDF808C068
:10230000206801F07BFE4FF40071206801F0D8FED8
:1023100028B121688F63A16B0143A163012684F872
:1023200034803046BDE8FE83FF0540007047000062
:10233000F0B5426E920F0A70426EC2F383624A7029
:10234000426EC2F301628A70426E120CCA70B0F81B
:102350006420120A0A7190F864204A71826E120D8C
:10236000CA80826EC2F303420A72B0F86820C2F3D8
:10237000C0324A72B0F86820C2F380328A72B0F874
:102380006820C2F34032CA72B0F86820C2F300324B
:102390000A7300264E73426C4FF40075012462B13B
:1023A000012A3AD0026847499163816B41F080511C
:1023B000816380F834400120F0BDB0F86820C36E1E
:1023C0009205120D42EA93720A61C26EC2F3C262B2
:1023D0000A75C26EC2F302624A75C26EC2F34252FD
:1023E0008A75C26EC2F38242CA75C26EC2F3C2322D
:1023F0000A760A69521C42650B7E03F007039B1C98
:102400009A4042650B7A03F00F0704FA07F38365DD
:102410005B0A5A43C0E917250EE090F86820C36EA6
:102420009206920A42EA13420A610A69521C920217
:102430004265C0E91652056630F86C2FC2F380324F
:1024400001F8192F0288C2F3C6124A70027802F00E
:102450007F028A704268D20FCA704268C2F341722A
:102460000A714268C2F382624A714268C2F38352BF
:102470008A714268C2F34052CA710E724268C2F356
:1024800000424A728288C2F3C0328A728288C2F3E2
:102490008032CA728288C2F340320A738288C2F3E1
:1024A00000324A738288C2F381228A738288C2F31F
:1024B0000122CA730079C0F3460008744C740020EE
:1024C000F0BD0000FF054000426C0A60826C4A606B
:1024D000C26C8A60026DCA60426D0A61826D4A6197
:1024E000C26D8A61006EC8610020704770B50446F5
:1024F000B0F8500000250104206801F0E2FE18B198
:10250000A16B0143A16304E00021206801F06CFD90
:102510000546C5F3432070BDF8B5056B0446006859
:10252000416B09041BD5290719D5D4E90A56002E99
:1025300014D00027206801F077FD05F8010B010A8F
:1025400005F8011B010C05F8021B000E361F7F1C4D
:1025500005F8010C082FEDD3C4E90A56F8BD416B0C
:102560004FF00006C9054FF0010744D539028163D9
:102570002068C16B4CF23A329143C1632068C16A52
:1025800021F00101C16228071DD515F0220F09D0E5
:10259000206801F0C7FE28B1A16B0143A16320466A
:1025A000FFF7C4FE216840F23A50886384F8347023
:1025B0002663A80703D0204600F056FAF8BD20464F
:1025C00000F056FAF8BD2806FCD5A80609D5206803
:1025D00001F0A8FE28B1A16B0143A1632046FFF7DB
:1025E000A5FEA807EED12068C16A21F00801C162EA
:1025F00084F83470E3E7416B490424D5290722D5D8
:10260000D4E90856002EDDD05FF0000715F8010B65
:10261000009015F8011B361F40EA0120009015F8C4
:10262000021B40EA0140009015F8011C40EA0160DD
:1026300000906946206801F00AFD7F1C082FE5D351
:10264000C4E90856F8BD416B40F23A221142F9D074
:10265000416B890703D5A16B41F00201A163416B76
:10266000090703D5A16B41F00801A163416B8906FD
:1026700003D5A16B41F02001A163416BC90603D5CD
:10268000A16B41F01001A163416B890503D5A16BDA
:1026900041F00801A16340F23A7181632068C16B87
:1026A00040F23A329143C163206801F03BFEA16BD6
:1026B0000843A063280706D584F8347026632046B3
:1026C000FFF734FEF8BD2806FCD515F0300F0CD00E
:1026D000E16B11480865E06BFEF71FFF0028F1D0A1
:1026E000E06BBDE8F84002F051B8A8070CD0216CAF
:1026F0000A480865206CFEF710FF0028E2D0206C25
:10270000BDE8F84002F019B8A66384F83470266377
:102710002046FFF77BFDF8BD8D4700083B470008CA
:1027200070B504000ED094F83400002518B9257750
:10273000204600F04DF8032084F83400204600F0D5
:102740000BF808B1012070BDA5632563012084F852
:102750003400002070BD0000FEB500250446762040
:102760000095CDE901502B462A462946206801F004
:1027700045FC154E46F8A05F206801F051FC01258C
:1027800035600220FFF74FF8204602F009F928B122
:1027900084F83450A16B0143A16313E0204602F09A
:1027A00087F80028F4D14FF40071206801F088FC0C
:1027B000002808D0226805499163A16B0143A163F9
:1027C00084F834500120FEBD00802542FF05400002
:1027D0002DE9F04F87B0054614216846FDF79CFDB2
:1027E0005249286888427DD151480068504940F4D8
:1027F00000600860086800F4006005904C481438D8
:1028000000684B4940F0040014390860086800F083
:1028100004000590086840F0080008600868032676
:1028200000F0080005904FF4F8500090022001904D
:102830000020CDE902060C24694604943D48FFF7C8
:102840009FF804270220CDE900700020CDE90206A0
:10285000694604943848FFF793F8394C37484FF0ED
:102860000068C4E900080020A060E0603802206130
:10287000C4E90976800004F114014FF480494FF057
:10288000200A4FF4403B81E8010EC6024702204671
:10289000C4E90B67FEF726FF08B1FEF714FB2C64B2
:1028A000A563274C254860344830C4E9000840201F
:1028B000A0600020E0604FF48060206104F114010A
:1028C000800081E8010E042060621431032081E859
:1028D000C1002046FEF706FF08B1FEF7F4FAEC63EC
:1028E000002200E01FE005213120A563FFF7BCF9BD
:1028F0003120FFF7ABF9002205213120FFF7B4F9B1
:102900003120FFF7A3F9002205213B20FFF7ACF9A6
:102910003B20FFF79BF9002205214520FFF7A4F992
:102920004520FFF793F907B0BDE8F08F002C014078
:102930004438024000080240000C02405864024043
:10294000A00500202DE9F04786B01F460446154635
:1029500039B194F83400012807D0022006B0BDE850
:10296000F087A06B40F0006008E00020A063E36DFA
:10297000EA199A4204D9A06B40F00070A06369E0A4
:10298000032284F8342022688146D0622268D36B07
:1029900040F22A363343D363236C2F4ADA63236C25
:1029A0002E4ADA64226C1065226C9060206C0068FC
:1029B000026822F0C002026020680A46266C4FEAD4
:1029C000472800F180014FEA98033046FEF7F4FEF5
:1029D000DFF88CA0012670B12068C16B21F49571DD
:1029E000C1632168C1F838A0A06B40F08040A063AB
:1029F00084F834602EE01B480660606C012800D02B
:102A00006D024FF0FF30CDE90008902002900220C7
:102A10000596CDE903096946206801F0CFFA012F38
:102A200006D9822020632946206801F0BBFB05E01F
:102A3000812020632946206801F0CDFB00288DD03D
:102A40002268C2F838A0A16B0143A16384F8346006
:102A5000C4F83090012081E7F94600089546000847
:102A6000FF0540008C85254210B5FEF76BF810BDC0
:102A700010B5FEF77DF810BD2DE9F04F5FEA010BB0
:102A800087B01E460446114607D094F8340001284A
:102A900007D0022007B0BDE8F08FA06B40F00060C7
:102AA00008E00025A563E26D8819904204D9A06B67
:102AB00040F00070A06356E0032084F834002068E2
:102AC000C5622068C26B40F21A2942EA0902C26359
:102AD000E26B2D48D063E26B2C48D064E06B056557
:102AE000606C012800D049024FF09008012E05D9F2
:102AF000A0202063206801F02FFC04E0C4F830809F
:102B0000206801F042FCDFF888A0012730B122687C
:102B1000C2F838A0A16B0143A16321E01D48076002
:102B2000E16B40208860E06B0068016821F0C00123
:102B300041F04001016022687602B30859468032B4
:102B4000E06BFEF739FE80B12068C16B21EA090114
:102B5000C1632168C1F838A0A06B40F08040A06339
:102B600084F834702563012094E74FF0FF30CDE9FD
:102B70000006CDE90285CDE904576946206801F0D9
:102B80001DFA002086E700007F47000895460008F0
:102B9000FF0540008C85254270B515460E460400A1
:102BA00003D094F8490010B107E0012070BD002067
:102BB00084F84800204600F01DF804F10801206860
:102BC000FEF7D0FA3146A2682068FEF7FFFAD4E992
:102BD00001022946236BFEF7A7FA2168A06851F885
:102BE000202042F0010241F82020012084F8490011
:102BF000002070BD194800B5016887B041F001019F
:102C00000160006800F00100059014480838016870
:102C100041F008010160016801F0080105910168B7
:102C200041F0100101600068012100F010000590E2
:102C30004CF2037000900220CDE9010103900C20BA
:102C4000049069460648FEF79BFE4FF680700090A0
:102C500069460448FEF794FE07B000BD38380240CC
:102C6000000C02400010024010B5401EB0F1807F01
:102C700001D3012010BD4FF0E02460610F216017E7
:102C800003F046F90020A06107202061002010BD5C
:102C90007047704770B590F83C20012A32D001246B
:102CA00080F83C40022280F83D2003685A689D6805
:102CB00022F070060A6832435A60134B02689A4247
:102CC00014D0B2F1804F11D0104B9A420ED0104B5D
:102CD0009A420BD00F4B9A4208D00F4B9A4205D024
:102CE0000E4B9A4202D00E4B9A4204D1496825F00D
:102CF00080031943916080F83D40002180F83C102A
:102D0000084670BD022070BD000001400004004074
:102D100000080040000C0040000401400040014059
:102D20000018004010B5040003D094F83D0010B125
:102D300007E0012010BD002084F83C00204600F090
:102D40001FF8022084F83D00211D206802F022FDBA
:102D5000012084F8460084F83E0084F83F0084F89F
:102D6000400084F8410084F8420084F8430084F86D
:102D7000440084F8450084F83D00002010BD0000A8
:102D800008B501681048B1F1804F0BD00F4A91424D
:102D900007D1016841F480710160006800F480701F
:102DA000009008BD016841F0010101600068002247
:102DB00000F00100009005211C20FEF755FFBDE842
:102DC00008401C20FEF742BF40380240002000406F
:102DD00090F83D10012901D001207047022180F8B0
:102DE0003D1000681149884214D0B0F1804F11D0D5
:102DF0000F4988420ED00F4988420BD00E498842B5
:102E000008D00E49884205D00D49884202D00D49AC
:102E1000884204D1816801F00701062903D00168C6
:102E200041F00101016000207047000000000140F6
:102E30000004004000080040000C00400004014075
:102E4000004001400018004001680A6A41F2111375
:102E50001A4207D10A6A9B101A4203D10A6822F06B
:102E600001020A60012180F83D100020704770B512
:102E7000044690F83C000025012817D0012684F86C
:102E80003C60022084F83D002068826822F07702CE
:102E900022F47F4282600868502838D00DDC202858
:102EA0004FD005DC90B3102811D14AE0022070BD4C
:102EB000302846D040280AD13BE060282FD0702827
:102EC0000DD0B0F5805F03D0B0F5005F12D00125C2
:102ED00084F83D60002084F83C00284670BDCB6833
:102EE000D1E90121206802F0CAFC2068816841F024
:102EF000770109E0CB68D1E90121206802F0BFFC2D
:102F00002068816841F480418160E1E719E0CA6886
:102F10004968206802F088FD5021206806E0CA68F0
:102F20004968206802F091FD6021206802F0B1FC40
:102F3000CEE7CA684968206802F076FD4021206823
:102F4000F4E7226801461046F0E770472DE9F041AA
:102F500004460068C66805694FF00007A90713D545
:102F6000B10711D5F91E0161012020772068806921
:102F70008007204602D0FFF7E8FF04E000F0A8F841
:102F8000204600F03AF92777680716D5700714D560
:102F900021686FF0040008610220207720688069B2
:102FA00010F4407F204602D0FFF7CFFF04E000F08E
:102FB0008FF8204600F021F92777280715D530072C
:102FC00013D521686FF0080008610420207720687D
:102FD000C0698007204602D0FFF7B7FF04E000F089
:102FE00077F8204600F009F92777E80616D5F006AD
:102FF00014D521686FF01000086108202077206840
:10300000C06910F4407F204602D0FFF79EFF04E025
:1030100000F05EF8204600F0F0F82777E80708D0C7
:10302000F00706D021686FF001000861204600F02B
:1030300049F9280608D5300606D521686FF08000CA
:1030400008612046FFF724FE680608D5700606D5FD
:1030500021686FF040000861204600F034F9A806AE
:103060000AD5B00608D521686FF020000861204617
:10307000BDE8F041FFF70DBEBDE8F08110B586B0A8
:10308000044614216846FDF747F90E492068884236
:1030900016D10D480021026842F02002026000684B
:1030A00000F0200005904FF4007000900220CDE960
:1030B00001010920CDE9031069460448FEF760FCD0
:1030C00006B010BD0020004030380240001402401D
:1030D000704770B5044690F83C0000260D46012864
:1030E0000FD0012084F83C006AB1042A1DD0082AC0
:1030F0002FD00C2A3FD00126002084F83C00304617
:1031000070BD022070BD206802F0CCFB2068816990
:1031100041F0080181612068816921F00401816129
:10312000206881692A69114311E0206802F0EAFBF6
:103130002068816941F4006181612068816921F41E
:1031400080618161206881692A6941EA0221816187
:10315000D2E7206802F00CFC2068C16941F0080148
:10316000C1612068C16921F00401C1612068C169A1
:103170002A69114311E0206802F02EFC2068C16921
:1031800041F40061C1612068C16921F48061C161BD
:103190002068C1692A6941EA0221C161ACE710B522
:1031A000040003D094F83D0010B107E0012010BDE9
:1031B000002084F83C00204600F01EF8022084F82D
:1031C0003D00211D206802F0E5FA012084F8460048
:1031D00084F83E0084F83F0084F8400084F8410001
:1031E00084F8420084F8430084F8440084F84500E1
:1031F00084F83D00002010BD7047704710B50446AC
:10320000022249B104290ED0082913D094F84100B4
:10321000012816D0012010BD94F83E000128F9D1F4
:1032200084F83E200FE094F83F000128F2D184F8A2
:103230003F2008E094F840000128EBD184F84020BA
:1032400001E084F841200122206802F00BFB1649BE
:103250002068164A884201D0904203D1436C43F45F
:10326000004343642068884213D0B0F1804F10D0EF
:103270000F4988420DD00F4988420AD00E49884232
:1032800007D0904205D00D49884202D00C498842AF
:1032900004D1816801F00701062903D0016841F0DB
:1032A00001010160002010BD000001400004014048
:1032B0000004004000080040000C004000400140B5
:1032C000001800407047704770477047F8B50168B4
:1032D00004460868CA684B6910F00F0F4FF00005EC
:1032E00059D003F0010602F49077374365D0C10747
:1032F00005D0D10503D5616C41F00101616441073E
:1033000005D5D90703D0616C41F0020161648107E2
:1033100005D5D90703D0616C41F004016164010750
:1033200007D502F02001314303D0616C41F0080160
:103330006164616C00293AD0800604D5900602D5FC
:10334000204602F047FC20684069616CC0F38010A1
:10335000090700D460B3204602F007FC20684069EA
:10336000400621D52068143050E8001F21F04001AC
:1033700040E80012002AF5D1E06BA8B1724901655E
:10338000E06BFEF7CAF8002811D0E06B016D01B0C8
:10339000BDE8F040084783060FD593060DD52046BB
:1033A000BDE8F84002F016BC2046FFF78EFFF8BDDE
:1033B0002046FFF78AFF6564F8BD266B2023012EA7
:1033C0007ED1C6067CD5D6067AD5086848680090B6
:1033D00048694FF0020640064DD5E26B1068406820
:1033E0004FF480770004000C3AD0A18D814237D988
:1033F000E085D069B8422DD020680C3050E8001F1D
:1034000021F4807140E80012002AF5D120681430C0
:1034100050E8001F21F0010140E80012002AF5D118
:103420002068143050E8001F21F0400140E80012ED
:10343000002AF5D184F84230256320680C3050E82A
:10344000001F21F0100140E80012002AF5D1E06BC6
:10345000FEF71AF86663A08DE18D401A81B206E08E
:10346000A18D8142A8D1D069B842A5D1666320461A
:10347000FFF72AFFF8BDA08DE18D401A81B2E08DE3
:103480000028F7D00029F5D020680C3050E8002F34
:1034900022F4907240E80027002FF5D12068143004
:1034A00050E8002F22F0010240E80027002FF5D15C
:1034B00084F84230256320680C3050E8002F00E08B
:1034C00006E022F0100240E80023002BF3D1CDE704
:1034D00005062BD5150629D594F841002128C9D118
:1034E000A068B0F5805F01D12069B0B1206A411CAD
:1034F0002162216800784860E08C401E0004000CC6
:10350000E084B7D12068C16821F08001C1602068E3
:10351000C16841F04001C160F8BD206A0088C0F375
:1035200008004860206A801C2062E5E74006F3D569
:103530005006F1D5CA68204622F04002CA6084F8DD
:10354000413000F03DF9F8BD6F5A000870B5040035
:1035500004D094F84100002510B106E0012070BDB0
:1035600084F84050204600F023F8242084F84100DD
:103570002068C16821F40051C160204602F08CFB34
:103580002068016921F4904101612068416921F0BE
:103590002A0141612068C16841F40051C16065643D
:1035A000202084F8410084F842006563002070BD4B
:1035B0002DE9F04387B0064614216846FCF7ACFEBF
:1035C000DFF824C131684948022203230727484D08
:1035D000002461451DD1454914310E6846F010069E
:1035E0000E60096801F010010591016841F00101C8
:1035F00001600068694600F00100059058028DE8FE
:103600001500CDE903372846FEF7BAF907B0BDE843
:10361000F083DFF8E0C06145F8D1016841F0400176
:103620000160016801F040010591016841F4001159
:103630000160016801F4001105912C491031D1F8A5
:1036400000C04CF4003CC1F800C0096801F400312E
:103650000591016841F0010101600068694600F0D0
:10366000010005900C208DE81500CDE903372846B0
:10367000FEF786F9214D20484FF00068E5E8020882
:1036800040204FF48069A5E81102870245F81449EB
:103690001A48AC61C5E907476C62FEF723F808B128
:1036A000FDF711FCB563AE63144D1348603518384F
:1036B0002860C5E90184C5E903496C61AC61C5E9CD
:1036C000074728466C62FEF70DF808B1FDF7FBFBD3
:1036D000F563002205212620AE63FEF7C5FA2620F9
:1036E000FEF7B4FA92E700000010014030380240C3
:1036F0000000024000440040A0600240800700201B
:1037000090F84230202B01D00220704721B11AB12D
:103710000023036302F046BB0120704770477047E7
:103720002DE9F843044690F84100984616460D46A8
:10373000202802D00220BDE8F88385B17EB10020A8
:103740006064212084F84100FEF71CFAA6848146BB
:10375000E684A0682027B0F5805F02D003E0012056
:10376000E9E7206910B12E4600250EE000260CE0A6
:103770008021204602F066FBA8B9C6B116F8010BFD
:1037800021684860E08C401EE084E08C4B464FF09E
:103790000002CDF800800028EAD14FF04001204619
:1037A00002F050FB40B184F841700320C3E735F8C4
:1037B000020BC0F30800E3E784F841700020BAE789
:1037C0007047FEE700B51A4989B00978012906D08B
:1037D00002290AD003291FD004290DD122E000EECE
:1037E000100A1449B8EE400A04E000EE100A12492B
:1037F000B8EE400A81ED000A024610A1684602F0C8
:1038000073FB6846FCF793FD82B2642369460E4859
:10381000FFF786FF09B000BD00EE100A0B49B8EEB5
:10382000400AE7E700EE100A0949B8EE400AE1E76E
:10383000040000202C000020280000205365743A6A
:103840002025640D0A000000F0060020340000204E
:103850003000002070B50122084D064614022146B2
:103860002846FEF78AF9304607F0D8FC214628465C
:10387000BDE870400022FEF780B90000001402404D
:1038800010B51F4C90B0A088FFF79CFF217801294C
:1038900007D0022909D01B48032914D004291ED1BE
:1038A00014E002202070184802E00320207017481E
:1038B00090ED000ABCEEC00A10EE100AA080502065
:1038C000FFF7C8FF0BE004212170F1E7A18800EEAB
:1038D000101AB8EE400A80ED000A00F0EBF8A38859
:1038E00022780BA1684602F0FFFA6846FCF71FFD3C
:1038F00082B2642369460B48FFF712FF10B010BD77
:1039000004000020300000202800002034000020A7
:103910004D6F64653A25642C2056616C75653A25B7
:10392000640D0A00F006002001480078704700008E
:103930000400002001488088704700000400002037
:103940002DE9F04100F048F94A4C06460421204692
:10395000FEF70EF9074610212046FEF709F9464CFE
:103960000546E7B96078012819D12178B9B100205E
:10397000012906D0022904D0032904D0042903D147
:1039800001E0632000E06420A188814201D2491C4B
:10399000A18088B2FFF716FF1E20FFF75BFF67705C
:1039A00075B9A07801280BD1207848B1A08808B15A
:1039B000401EA08080B2FFF705FF1E20FFF74AFFE0
:1039C000A570002E35D02D4E707A022808D001281F
:1039D0002FD1207800282CD0BDE8F041FFF750BF50
:1039E00027782749274A284B284800251FB394EDFC
:1039F000030A81ED000A94ED020A82ED000A94EDBB
:103A0000050A83ED000A94ED040A80ED000A257092
:103A1000A5806420FFF71EFF6420FDF704FF6420EB
:103A2000FFF718FF6423082219A11C48FFF778FE4E
:103A30007572BDE8F0810127277091ED000AFCEE58
:103A4000C00A10EE901AA18084ED030A92ED000ADC
:103A500084ED020A93ED000A84ED050A90ED000A58
:103A6000962084ED040AFFF7F5FE642310220CA1D2
:103A7000DBE700000010024004000020CC01002021
:103A80002C000020280000203400002030000020FE
:103A900043616E63656C0D0A00000000F0060020B3
:103AA000456E74657220536574204D6F64650D0A10
:103AB000000000002DE9F04737483849DFED380AAB
:103AC00090ED001A91ED000A96B0B4EEC01AF1EE36
:103AD00010FA0CDBB1EE041A30EE411A80ED001A38
:103AE000B5EEC01AF1EE10FA01D2C0ED000A2D4C6D
:103AF0002D4DD4ED001A95ED001AF4EEC11AF1EE39
:103B000010FA0CDBF3EE041A71EE611AC4ED001A20
:103B1000F5EEC01AF1EE10FA01D2C4ED000AD4EDB0
:103B2000001A8246D0ED000A8846FDF703FC1F49C3
:103B3000002008704FF44870FFF78CFE2868FCF7EF
:103B400095FC06460F462068FCF790FC04460D469F
:103B5000D8F80000FCF78AFC80468946DAF80000B5
:103B6000FCF784FC0DF1080A41EC100B8AE8F00028
:103B700053EC102B0EA106A8CDE9008902F0B4F990
:103B800006A8FCF7D4FB82B2642306A91148FFF70C
:103B9000C7FD16B0BDE8F0872C00002028000020EB
:103BA000000000003400002030000020040000204D
:103BB00053617665642120543A252E31667E252E88
:103BC00031662C20483A252E31667E252E31660D31
:103BD0000A000000F006002070B501211E48FDF724
:103BE000C7FF0446FDF7CEFF1C4900220123012C2C
:103BF0000C7840F6B83502D0022C1DD028E02CB14C
:103C00000222012C05D0022C14D10AE00B7048606E
:103C10001FE04C68041B322C0CD90A7048604B72B0
:103C200008E04C68001BA84204D9087A10B90B724E
:103C30004A720BE0002070BD4C68001B0C7A3CB946
:103C4000322805D3A84203D24B720A70012070BDFE
:103C50000A700A724A72EDE700000240CC010020AF
:103C6000194808B5016841F400110160016801F4C8
:103C700000110091016841F4800101600068002298
:103C800000F48000009005211020FDF7EDFF1020CA
:103C9000FDF7DCFF002205211120FDF7E5FF1120D3
:103CA000FDF7D4FF002205213B20FDF7DDFF3B207F
:103CB000FDF7CCFF002205214520FDF7D5FFBDE82B
:103CC00008404520FDF7C2BF3038024010B5044916
:103CD0000448FDF7FAF80249491E087010BD0000BB
:103CE00069000020C000010830B59FB000201D9081
:103CF0001E901DA807F03EFB1D4C1E4D0DF1540CEF
:103D0000E06395E80F008CE80F00002115A807F08C
:103D1000A6FA1035A06395E80F0019AD85E80F00ED
:103D2000002119A807F09BFA1249A0621C22203139
:103D30006846FCF7D8FA0021684607F003FC0D49F5
:103D4000E0621C223C3107A8FCF7CDFA002107A84D
:103D500007F0F8FB074920631C2258310EA8FCF736
:103D6000C2FA00210EA807F0EDFB60631FB030BD62
:103D70001C00002020000108F0B587B0142168461F
:103D8000FCF7CAFA31480025016841F010010160D2
:103D9000016801F010010591016841F02001016006
:103DA000016801F020010591016841F08001016086
:103DB000016801F080010591016841F00101016095
:103DC000016801F001010591016841F00401016001
:103DD000016801F004010591016841F008010160EA
:103DE00000681B4F00F00800059000224FF4A0610E
:103DF0003846FDF7C2FE1420CDE9000501246946CE
:103E000002941448FDF7BCFD200202268DE87100E3
:103E100069463846FDF7B4FDA002CDE900046946C5
:103E20003846CDE90245FDF7ABFD8DE870000A4E3E
:103E300069463046FDF7A4FD2020CDE9000569461E
:103E400002943046FDF79CFD07B0F0BD30380240CB
:103E500000140240001002400000024006480549DC
:103E60000160002141608160C16001614161816147
:103E700070470000002C01401C05002010B588B0E0
:103E80001C216846FCF748FA1548144900240160D3
:103E900042F2CF01C0E9011440F2E731C0E9031456
:103EA0008461FEF73FFF08B1FDF70DF80C48FFF7FE
:103EB00076F908B1FDF707F86020CDE90004029417
:103EC0000022694606480494FFF703F908B1FCF79D
:103ED000FAFF0348FFF7D2F808B010BD00200040F9
:103EE000A806002010B586B000241648009401945E
:103EF0000294039404944FF080410594016053218F
:103F0000C0E90114611EC0E9031480218161FEF73C
:103F100009FF08B1FCF7D7FF4FF4805000906946C5
:103F20000848FEF7A4FF08B1FCF7CDFF049404A9EC
:103F300004480594FEF7AEFE002801D0FCF7C3FF4D
:103F400006B010BD600600200C4810B50A4901609B
:103F50004FF4E1314160002181600C22C160C0E971
:103F600004128161C161FFF7F1FA002803D0BDE8B6
:103F70001040FCF7A8BF10BD00100140F006002063
:103F80000C4810B50A4901604FF4E131416000214D
:103F900081600C22C160C0E904128161C161FFF738
:103FA000D5FA002803D0BDE81040FCF78CBF10BD47
:103FB0000044004038070020FEE7FEE70A6842623E
:103FC0004A688262D1E902231A43D1E904310B43E2
:103FD000C16A1A4321F0F7011143C1620020704702
:103FE000006800F003007047084440697047000013
:103FF0000148FEF791BA00001C05002070B50DF1D4
:10400000100C11439CE87000234319432943426874
:10401000314347F6FF639A430A434260002070BD74
:104020000321016000207047D0F8800070470A68C3
:104030008260D1E901231A43D1E903310B43C168FE
:104040001A436FF30B011143C160002070470968E8
:10405000C0F880100020704710B585B004463720A6
:10406000CDE9001040200290002003904FF48060C2
:10407000049069462046FFF7DAFF41F28832372183
:10408000204600F09BF905B010BD000010B50446B5
:104090000A4885B001432920CDE900104020029054
:1040A000002003904FF48060049069462046FFF79B
:1040B000BEFF204600F03AFA05B010BD00001080A7
:1040C00010B585B004461020CDE9001040200290C4
:1040D000002003904FF48060049069462046FFF76B
:1040E000A6FF41F288321021204600F067F905B0A2
:1040F00010BD10B585B004460620CDE90010402063
:104100000290002003904FF480600490694620469E
:10411000FFF78DFF41F288320621204600F04EF96C
:1041200005B010BD30B585B000240546009401945B
:104130004FF480600294CDE9034069462846FFF7BA
:1041400076FF0B484FF4FA510068B0FBF1F041F2F2
:1041500088314843401E03D24FF0004005B030BDC7
:10416000696B0906F6D5C520A8632046F6E700006E
:104170009C00002010B585B004464FF4D570009027
:104180000820019040200290002003904FF48060AE
:10419000049069462046FFF74AFF204600F02CFABB
:1041A00005B010BD10B585B004461220CDE9001051
:1041B00040200290002003904FF4806004906946F4
:1041C0002046FFF734FF41F288321221204600F0EA
:1041D000F5F805B010BD10B585B004461120CDE945
:1041E000001040200290002003904FF48060049063
:1041F00069462046FFF71BFF41F288321121204615
:1042000000F0DCF805B010BD10B585B004460720FD
:10421000CDE9002040200290002003904FF4806000
:10422000049069462046FFF702FF41F288320721D9
:10423000204600F0C3F805B010BD10B585B00446A7
:1042400000210220CDE90010C020CDE902014FF489
:104250008060049069462046FFF7E9FE204600F0A2
:104260003DF905B010BD10B585B004460920CDE973
:104270000010C0200290002003904FF48060049052
:1042800069462046FFF7D3FE204600F027F905B027
:1042900010BD10B585B0044600213320CDE90010D3
:1042A0004020CDE902010001049069462046FFF755
:1042B000BEFE41F288323321204600F07FF805B07F
:1042C00010BD10B585B004460D20CDE9001040208A
:1042D0000290002003904FF48060049069462046CD
:1042E000FFF7A5FE41F288320D21204600F066F866
:1042F00005B010BD30B585B00C4605460021032041
:10430000CDE900104020CDE902010001049069468A
:104310002846FFF78CFE22460321284600F028F9A4
:1043200005B030BD10B585B0044600210C20CDE9A4
:1043300000104020CDE902010001049069462046AA
:10434000FFF775FE034A0C21204600F037F805B050
:1043500010BD000000E1F50510B585B00446192038
:10436000CDE9001040200290002003904FF48060BF
:10437000049069462046FFF75AFE41F2883219211F
:10438000204600F01BF805B010BD10B585B00446FE
:104390001820CDE9001040200290002003904FF437
:1043A0008060049069462046FFF741FE41F2883262
:1043B0001821204600F002F805B010BD454B10B59D
:1043C0001B684FF4FA54B3FBF4F353435B1E02D261
:1043D0004FF0004010BD426B12F0450FF6D01205B1
:1043E000F4D4426B520703D504218163084610BD03
:1043F000426BD20702D00121816305E0C5228263AE
:104400000269D2B28A4201D0012010BD0021FFF71B
:10441000EBFD3149084201D1002010BD002802DA2D
:104420004FF0007010BD410001D5402010BD81004B
:1044300001D5802010BDC10002D54FF4807010BDA1
:10444000010102D54FF4007010BD410102D54FF4B7
:10445000806010BDC10102D54FF4006010BD0102A3
:1044600002D54FF4805010BD410202D54FF40050E8
:1044700010BD810202D54FF4804010BDC10202D5AB
:104480004FF4004010BD410302D54FF4003010BD81
:10449000810302D54FF4802010BDC10302D54FF433
:1044A000002010BD010402D54FF4801010BD41045E
:1044B00002D54FF4001010BD810402D54FF48000E6
:1044C00010BD000702D54FF4000010BD4FF480303E
:1044D00010BD00009C00002008E0FFFD12494FF4D1
:1044E000FA520968B1FBF2F141F288325143491E98
:1044F00002D24FF000407047426B12F0450FF6D0E9
:104500001205F4D4416B490703D5042181630846A1
:104510007047416BC90703D001218163084670478A
:10452000C5218163002070479C0000200F494FF493
:10453000FA520968B1FBF2F141F288325143491E47
:1045400002D24FF000407047426B12F0450FF6D098
:104550001205F4D4416B490703D504218163084651
:104560007047C52181630020704700009C00002037
:1045700030B5204B4FF4FA541B68B3FBF4F341F20F
:10458000883463435B1E02D24FF0004030BD446B61
:1045900014F0450FF6D02405F4D4436B5B0703D524
:1045A00004218163084630BD436BDB0702D0012143
:1045B000816303E00369DBB28B4201D0012030BD8F
:1045C000C52181630021FFF70FFD10F4604F04D077
:1045D000410406D54FF4005030BD000C108000207F
:1045E00030BD000402D54FF4805030BD4FF4803010
:1045F00030BD00009C00002014494FF4FA520968B5
:10460000B1FBF2F141F288325143491E02D24FF020
:1046100000407047426B12F0450FF6D01205F4D4FB
:10462000416B490703D50421816308467047416BFC
:10463000C90703D00121816308467047416B4906D1
:1046400001D5402181630020704700009C000020BC
:1046500010B5064C01202070FCF73AFA18B9207802
:1046600020F001002070207810BD000060000020C4
:1046700070B5054606F0E7FD044603E0FCF728FAAE
:10468000002806D006F0DFFD001BA842F6D34FF04D
:10469000FF3070BD10B5846BFCF751FF022828D0A5
:1046A000206C416DE06B406D012901D001281DD1C6
:1046B0002168104888632068C16B21F49D71C16333
:1046C000A06B40F08040A0632046FDF70FFF062856
:1046D00001D0052805D12068FFF724FEA16B08430F
:1046E000A063012084F83400002020632046FDF7F9
:1046F0001DFE10BDFF05400010B5846B206B8228A5
:1047000009D12068FFF70EFE28B1A16B0143A16318
:104710002046FDF70BFE2068C16A21F00801C16246
:10472000216840F23A508863012084F83400002068
:1047300020632046FEF798F910BD10B5846B40F257
:104740003A50216888632046FDF7D0FE012184F8A5
:10475000341000212163062801D0052805D12068E6
:10476000FFF7E0FDA16B0843A063A06B0028204683
:1047700002D0FDF7DBFD10BDFDF748FD10BD806BDD
:104780000068C16B41F48071C163704710B5846BE0
:1047900040F23A50216888632046FDF7A7FE0121C8
:1047A00084F8341000212163062801D0052805D1A2
:1047B0002068FFF7B7FDA16B0843A063A06B00283A
:1047C000204602D0FDF7B2FD10BDFDF71FFD10BD64
:1047D0002DE9F04788B00D460446FDF7D3F90026D1
:1047E000824600960196374608212068FFF768FC4C
:1047F00000282CD1B4F8500001042068FFF72CFCED
:10480000002824D1401E4FF00808CDE902083020CE
:104810004FF00209CDE904090120CDE9067002A993
:104820002068FFF7CBFB2068FFF733FD00280ED18F
:104830006F462068416B11F02A0F0BD0416B0907BE
:1048400002D4416B89051AD5C0F83880082008B019
:10485000BDE8F087416B890205D5FFF7E5FB47F816
:104860002600761C02E0416B8904E7D5FDF78AF942
:10487000A0EB0A00401CDCD14FF00040E7E7416BA1
:10488000890703D5C0F838900220E0E7416B89061C
:1048900003D5202181630846D9E740F23A5181636C
:1048A000019800BA2860009800BA68600020CEE73E
:1048B00010B590B004460120ADF838002068FFF72D
:1048C0008FFB002854D0606C032842D02068FFF78B
:1048D000B4FC00284AD100212068FFF785FB6067FF
:1048E00004212068FFF780FBA06708212068FFF7FC
:1048F0007BFBE0670C212068FFF776FBC4F88000A3
:10490000606C032825D00EA92068FFF7F3FC00286F
:104910002CD1606C03281CD0BDF838002065010440
:104920002068FFF7A0FC002820D100212068FFF7B5
:104930005BFB606604212068FFF756FBA066082138
:104940002068FFF751FBE0660C212068FFF74CFB65
:10495000206704212068FFF747FB000DE06403A9EE
:104960002046FDF7E5FC30B14FF0805010B010BD8F
:104970004FF08060FAE7B4F850000023020420688A
:10498000FFF742FC0028F1D104F1100007C88DE8C0
:10499000070094E80F00FFF731FB0020E6E7000076
:1049A0002DE9F84F0026044600963546B0460068CB
:1049B000FFF7B8FB002827D12068FFF7DBFB4FF09B
:1049C000805B4FF001094FF6FF7748B1A66420687D
:1049D000FFF7A8FB002817D1A06C012802D020E027
:1049E000C4F8489000212068FFF736FB58B918E05A
:1049F00000212068FFF730FB002805D151462068D0
:104A0000FFF744FB10B15846BDE8F88F002120683D
:104A1000FFF7EAFA05464FEAD0780098401C00906C
:104A200002E0DFF82CA00098B84202D2B8F1000FE3
:104A3000DED00098B84202D34FF08070E4E76800FF
:104A400002D5C4F8449000E066640020DCE7000072
:104A5000000010C17FB5124C05460120207006F001
:104A6000E4FBC8B1FCF740F818B92846FFF7F0FDA1
:104A70002070207801280FD0606868B9094B0FCBEF
:104A80008DE80F000021684606F0E9FB606018B968
:104A9000207840F001002070207804B070BD000044
:104AA00060000020D400010810B5124888B01446F8
:104AB0000078C00702D0032008B010BDC1B10129A1
:104AC00005D0022908D003290CD00420F4E7684659
:104AD000FBF7F8FF06980AE06846FBF7F3FF079834
:104AE000208005E06846FBF7EDFF0798400A20604C
:104AF0000020E1E7600000202DE9FE4347F230543A
:104B00001E461746884601252046FFF7B1FD0028BE
:104B10001EDB324639464046FCF706F8C0B90F485E
:104B200022464168684606F0ADFBDDE90010102919
:104B30000ED101280CD106F086FB064603E000BF2B
:104B4000FBF7C6FF38B106F07EFB801BA042F7D30F
:104B50002846BDE8FE830025FAE70000600000203B
:104B6000FFF776BD2DE9FE4347F230541D46174648
:104B7000884601262046FFF77BFD00281EDB2A46DB
:104B800039464046FBF7E6FFC0B90F482246416868
:104B9000684606F077FBDDE9001010290ED10228E7
:104BA0000CD106F050FB054603E000BFFBF790FF79
:104BB00038B106F048FB401BA042F7D33046BDE8B1
:104BC000FE830026FAE70000600000202DED028B36
:104BD000A0B016AB15AA14A913A8FCF72BFBFC4C2C
:104BE0009DED130A84ED030A9DED140A84ED040A79
:104BF0009DED150A84ED050A9DED160A84ED060A61
:104C000005F094FE4FF6FF7003F07AF90021F148A9
:104C1000FEF7F4FADFF8BC934FF47A70D9F800107D
:104C200048634FF018081F21EBA2CDF80080CDE9B2
:104C300001214346C8220F21142006F0F3F9102069
:104C40004FF0000BE7A18DE803080346C8224FF49C
:104C50008971142006F0E6F94FF0FF3ADFEDE78A9C
:104C60009FEDE78A564652460BA8A16B06F00AFB59
:104C7000DDE90B753146E06B06F0ACFB102F26D159
:104C8000287A01282CD04FF6FF754023DC222821FA
:104C90001420009505F026FE6823DC225021142004
:104CA000009505F01FFED7A1CDF80080CDE9011BCE
:104CB0005D461823DC222821142006F0B3F90022D7
:104CC0003901D448FCF759FFD9F800004563E06B7F
:104CD00006F058FBFEF734FEC82006F09FFAC1E745
:104CE000FEF722FE060053D0FEF724FE0546A0780C
:104CF000864202D1208985423ED04FF6FF70009057
:104D0000E023DC222821142005F0ECFD1422C24906
:104D100018A8FBF7E8FA18A8C0A150F826200BA89D
:104D200001F0E2F81F200BAFCDF80080CDE9017053
:104D30001823C8222821142006F074F9FEF7FAFD82
:104D40000246B8A10BA801F0CFF81F20CDF80080D3
:104D5000CDE901701823C8225021142006F062F911
:104D60001021B3A28DE806080B46C822FA211420B0
:104D700006F058F9A670258100224FF48071A548ED
:104D8000FCF7FBFED9F800104FF47A7048639EE7F9
:104D9000FBF7F8FD0C9095ED000AD4ED070AB4EE90
:104DA000600AF1EE10FA0BD1D5ED010A94ED080A74
:104DB000F4EE400AF1EE10FA02D1E178884279D09F
:104DC0004FF6FF7000904FF48573DC2228211420E9
:104DD00005F088FD2868FBF749FB41EC100B98A112
:104DE00053EC102B03A801F07FF803A9CDE9008153
:104DF0001823C822CDF808B02821142006F012F993
:104E00006868FBF733FB41EC100B90A153EC102BBF
:104E100003A801F069F803A9CDE900811823C8228D
:104E2000CDF808B05021142006F0FCF8E068FBF73C
:104E30001DFB06460F462069FBF718FB41EC100BE3
:104E400086A153EC102B03A8CDE9006701F04CF8C4
:104E500003A9CDE900811823C822CDF808B0782134
:104E6000142006F0DFF86069FBF700FB06460F46EA
:104E7000A069FBF7FBFA41EC100B7CA153EC102B63
:104E800003A8CDE9006701F02FF803A9CDE900815F
:104E90001823C822CDF808B0A021142006F0C2F8CB
:104EA00095ED000A84ED070A95ED010A84ED080AE4
:104EB0000C98E07004F10C0095EC020A90EC041AD6
:104EC000FBF7A8FDFBF75EFD00287CD00122110254
:104ED0005048FCF752FED5ED000A94ED031AB0EEEF
:104EE000480AF4EEC10AF1EE10FA02DD70EEC10AD2
:104EF00008E094ED041AF4EEC10AF1EE10FA0BD2B8
:104F000071EE600A21EE281A80EE810AB5EEC00A21
:104F1000F1EE10FA05D307E0B5EEC00AF1EE10FA93
:104F200009D2B0EE480A06E010EE100AB0F17E5F3A
:104F300001DDB7EE000ADFED510A617820EE200AAC
:104F4000BCEEC00A10EE100A0A300029E18880B2D7
:104F50000AD0084480B24FF47A71E08088420CD3C2
:104F6000E18084F801B008E0814202D9081AE080AB
:104F700003E0A4F806B001206070E088C0F57A7103
:104F8000D9F8000041634FF6FF700090E023DC2267
:104F9000C821142005F0A6FCFBF7EEFC1E490546CF
:104FA000182214310CA8FBF79EF90CA834A150F874
:104FB000252017A800F098FF4FF4784117AA18236E
:104FC000CDF8008000E061E0CDE901217EE0000045
:104FD0001C000020A8060020454E56204D4F4E498B
:104FE000544F52005041303D534554205045323DBE
:104FF000414444205045343D535542009A99993ECE
:105000000000000053656E736F72204572726F72FC
:105010002100000000140240940001085345543A56
:105020002025730056616C75653A202564000000E8
:105030004C6F6E67205041303D43616E63656C007C
:1050400054656D703A252E316620430048756D69B0
:105050003A252E316620252500000000543A252EE1
:1050600031667E252E31662043000000483A252E09
:1050700031667E252E316620252500000000B442D1
:10508000414C41524D3A5B25735D000000224FF4C4
:1050900080712148FCF771FDD9F800004FF47A7156
:1050A00041634FF6FF700090E023F022C8211420E6
:1050B00005F018FCFBF75AFC012809D003281BD087
:1050C00016A2CDE900821823CDF808B0C8220EE060
:1050D000FBF71CFC024616A103A800F005FF1F20E9
:1050E00003A9CDF80080CDE901101823C822C821FA
:1050F000142005F097FFEAE5FBF70EFC024610A12D
:1051000003A800F0F1FE4FF4FC6203A8CDF8008084
:10511000CDE901021823D9E70014024054656D70EF
:105120002048756D69204E6F726D616C0000000043
:105130005761726E696E673A25642F350000000072
:10514000436C656172696E673A25642F3300000015
:10515000ADF5A26D4FF4E13006F0A6FD64231422F4
:10516000ADA1B348FEF7DCFA4FF4FA7006F056F83A
:105170004FF00008C14664231722AEA1AC48FEF7E9
:10518000CFFAFBF7B1FC04460246B0A10DF58F60E3
:1051900000F0AAFE0DF58F60FBF7C9F882B2642318
:1051A0000DF58F61A248FEF7BBFA002C4FF06403A7
:1051B0003DD01622ABA19E48FEF7B2FA0DF59C60D9
:1051C000FBF780FC0DF59F62ACA10CCA0DF58F605A
:1051D00000F08AFE0DF58F60FBF7A9F882B2642318
:1051E0000DF58F619248FEF79BFA64230C22A9A16A
:1051F0008F48FEF795FA0122AAA190A802F0F0F8D4
:1052000004460246A8A10DF58F6000F06DFE0DF575
:105210008F60FBF78CF882B264230DF58F618448B0
:10522000FEF77EFA34B164231622A4A137E01122DE
:10523000A8A1C0E74FF0010864231222AAA17C486C
:10524000FEF76EFA3A22ADA104A802F007F90200B7
:105250000DD0AFA10DF58F6000F046FE0DF58F600B
:10526000FBF765F882B264230DF58F6117E000212A
:1052700004A801F09FFF079848B90DF20C531F22B4
:10528000A8A104A802F065FA04A802F011FA4FF0F0
:10529000010904A801F076FF64231022AAA1644842
:1052A000FEF73EFAFCF76EFCAC49DFF8B4B28A4672
:1052B000C1F824004FF0FF32554601A8DAF8281053
:1052C00005F0E0FFDDE901041028F3D1207A012880
:1052D000F0D194EC020A06F037FD6068FBF7C6F8DF
:1052E00006460F462068FBF7C1F841EC100B9DA164
:1052F00053EC102B0DF59360CDE9006700F0F4FD41
:105300000DF59360FBF713F882B264230DF59361FA
:105310004748FEF705FAB8F1000FCBD0B9F1000FFE
:10532000C8D0287994ED000A00EB40000BEB800018
:105330005E4680ED000A94ED010A80ED010AFCF75B
:1053400021FC4FF47A71B0FBF1F1287900EB4002B7
:1053500006EB8202401C91602871FCF713FCCDF82B
:10536000000528790F2807D2DDF80005696A401A80
:1053700047F2305188429DD3322260A104A802F046
:105380006DF8002896D10024AA4621E004EB4401E0
:105390000BEB81077868FBF769F805460E4638681D
:1053A000FBF764F80A468DE8650075A10DF593607A
:1053B000BA6800F099FD0DF59360FAF7B8FF024660
:1053C0000DF20C530DF5936104A802F0C2F9641CB0
:1053D0009AF804008442D9DB04A802F069F904A811
:1053E00001F0D0FE54469AF8042069A10DF59360AF
:1053F00000F07AFD0DF59360FAF799FF82B264230D
:105400000DF593610A48FEF78BF900202071DDF855
:10541000000560624EE70000525334383520546175
:10542000736B20537461727465640D0A0000000090
:10543000F00600204253505F53445F496E69742068
:1054400053746172742E2E2E0D0A00004253505F69
:1054500053445F496E6974207265743A2025640D67
:105460000A0000004253505F53445F496E69742044
:105470004661696C6564210D0A000000426C6F632F
:105480006B733A2025642C2053697A653A20256491
:105490000D0A0000665F6D6F756E742E2E2E0D0A5C
:1054A00000000000303A0000665F6D6F756E74207A
:1054B0007265743A2025640D0A00000053442043AD
:1054C000617264204D6F756E74204661696C65640D
:1054D0000D0A00004253505F53445F496E697420C7
:1054E0004F4B0D0A000000005344204361726420BA
:1054F0004D6F756E74204F4B0D0A0000303A736586
:105500006E736F725F646174612E63737600000066
:10551000665F6F70656E206572726F723A202564E7
:105520000D0A000054696D657374616D702C5465CB
:105530006D70657261747572652C48756D6964690A
:1055400074790D0A000000004353562066696C65AB
:105550002072656164790D0A000000001C000020C3
:10556000D801002052533438352053656E643A20F8
:10557000543D252E316620483D252E31660D0A000A
:10558000256C752C252E31662C252E31660D0A00D2
:105590005344205361766564202564207265636FEF
:1055A0007264730D0A00000094B09FED370A8DED10
:1055B000020A8DED030AFBF7E5FA344FDFF8D0A0BD
:1055C000344C4FF480694FF005084FF4FA6B03A98F
:1055D00002A8FBF7FFFA217801EB410107EB8105F7
:1055E00008B3002028720A222946A06B05F094FE19
:1055F0000A222946A06A05F08FFE64230D2226A107
:105600002948FEF78DF8012249465046FCF7B5FAC5
:105610002078401CB0FBF8F208FB120020705846BE
:1056200005F0FCFDD3E7012028729DED020A0A2255
:1056300085ED000A9DED030A294685ED010AA06B60
:1056400005F06AFE0A222946A06A05F065FE039865
:10565000FAF70CFF05460E460298FAF707FF41ECF1
:10566000100BCDE9005653EC102B10A104A800F04C
:105670003BFC04A8FAF75BFE82B2642304A90A4843
:10568000FEF74EF80022BFE7000000008C02002069
:10569000001402401C0000205265616420457272B3
:1056A0006F720D0A00000000F006002054656D7056
:1056B0003A20252E3166432C2048756D693A202505
:1056C0002E316625250D0A0010B5FCF761FA07F0AA
:1056D0002BFB012803D0BDE8104006F0C9BE10BD69
:1056E00030B593B030216846FAF716FE14210CA8A5
:1056F000FAF712FE1E480025016841F08051016052
:10570000006800F0805011901A48016841F480410F
:1057100001600068022400F4804011900120009094
:10572000000401908001CDE90640082008904FF464
:10573000A870CDE9090407200B906846FCF7B0FB80
:1057400008B172B6FEE70CA90F2081E831004FF4D2
:10575000A0500F904FF48050109005210CA8FCF73A
:10576000B5FA002801D072B6FEE713B030BD0000D4
:1057700040380240007000400248016841F4700166
:105780000160704788ED00E00148FDF7DFBB0000D5
:1057900060060020F0B50268274B284D284E294F9F
:1057A000294C4FF0804C984209D0604507D0A84260
:1057B00005D0B04203D0B84201D0A04204D122F0BB
:1057C000700E4A6842EA0E0298421BD0604519D01A
:1057D000A84217D0B04215D0B84213D0A04211D081
:1057E0001A4DA8420ED01A4DA8420BD0194DA8420E
:1057F00008D0194DA84205D0184DA84202D0184D26
:10580000A84203D122F44075CA682A434D6922F0A8
:1058100080022A438D68C5620D688562984201D076
:10582000A04201D109690163016841F004010160EE
:10583000012141610260F0BD000001400004004010
:1058400000080040000C00400004014000400140FE
:10585000004401400048014000180040001C004086
:105860000020004010B501F01F030121046A994097
:105870008C430462016A9A401143016210BD10B565
:10588000846842EA032224F47F440A43224382606C
:1058900010BD826822F070020A4342F00701816065
:1058A00070470000F0B5036A026A22F0010202624A
:1058B00042688469124E24F073050C682C4323F06F
:1058C00002058B682B430D4DA84201D0B04205D193
:1058D00023F00807CB683B4323F00403A84201D020
:1058E000B04205D14D6922F4407215438A692A43BA
:1058F00042608461496841630362F0BD0000014079
:1059000000040140F0B5026A036A23F01003036249
:10591000436884690D6824F4E64444EA05248D68EC
:1059200022F0200242EA05120F4D104EA84201D08B
:10593000B04206D1CF6822F0800242EA071222F07C
:105940004002A84201D0B04207D14D6923F4406320
:1059500043EA85038D6943EA8503436084614968AE
:1059600081630262F0BD00000000014000040140BC
:10597000F0B5026A036A23F4807303624368C46962
:1059800022F4007224F073050C68124E2C438D68CB
:1059900042EA05220E4DA84201D0B04206D1CF689E
:1059A00022F4006242EA072222F48062A84201D077
:1059B000B04207D14D6923F4405343EA05138D6982
:1059C00043EA05134360C4614968C1630262F0BDE4
:1059D000000001400004014030B5046A026A22F46C
:1059E000805202624268C3690D6823F4E64343EAC9
:1059F00005238D6824F4005444EA0534084DA84278
:105A000002D0084DA84204D14D6922F4804242EAF6
:105A100085124260C36149680164046230BD0000C0
:105A2000000001400004014010B5036A046A24F03C
:105A300001040462846924F0F00444EA021423F0AF
:105A40000A020A438461026210BD10B5036A046A47
:105A500024F010040462846923F0A00324F4704449
:105A600044EA023243EA01118261016210BD10B5BD
:105A7000806B0021C185FDF728FC10BD70B5846BDB
:105A80002068406994F84110C0F3C0100025212916
:105A900004D118B1E584204600F08EF820684069F2
:105AA00094F84210C0F38010222904D118B1E58582
:105AB000204600F05AF8606C40F010006064204608
:105AC000FDF703FC70BD10B50146806B09680968DD
:105AD0004FF00002C9052ED4C28501680C3151E88F
