:020000040800F2
:10000000F04700206102000817370008DB2E0008C7
:10001000153700086D0B000885510008000000002E
:10002000000000000000000000000000A101000826
:10003000990E000800000000FD0100088949000831
:100040007B0200087B0200087B0200087B0200089C
:100050007B0200087B0200087B0200087B0200088C
:100060007B0200087B0200087B0200087B0200087C
:100070007B0200087B0200087B0200087B0200086C
:10008000DD0D0008E90D00087B0200087B02000876
:100090007B0200087B0200087B0200087B0200084C
:1000A0007B0200087B0200087B0200087B0200083C
:1000B000494A00087B0200087B0200087B02000816
:1000C0007B0200087B0200087B0200087B0200081C
:1000D0007B0200087B020008795100087B020008BF
:1000E0007B0200087B0200087B0200087B020008FC
:1000F0007B0200087B0200087B0200087B020008EC
:100100007B0200087B0200087B0200087B020008DB
:100110007B0200087B0200087B0200087B020008CB
:100120007B0200087B0200087B0200087B020008BB
:100130007B0200087B0200087B0200087B020008AB
:100140007B0200087B0200087B0200087B0200089B
:100150007B0200087B0200087B0200087B0200088B
:100160007B0200087B0200087B0200087B0200087B
:100170007B0200087B0200087B02000800000000F0
:100180007B0200087B020008DFF810D000F05AFB69
:1001900000480047298D0008AFF30080F047002099
:1001A0002C4B19680868B0E8F04F80F30988BFF35A
:1001B0006F8F4FF0000080F311887047000000003F
:1001C00008480068006880F308884FF0000080F35A
:1001D000148862B661B6BFF34F8FBFF36F8F00DF35
:1001E00000BF00BF08ED00E0DFF80C00016841F43B
:1001F00070010160704700BF88ED00E0EFF30980F7
:10020000BFF36F8F134B1A681EF0100F08BF20ED5D
:10021000108A20E9F04F106009B44FF0500080F3CD
:100220001188BFF34F8FBFF36F8F09F0F9FB4FF0C9
:10023000000080F3118809BC19680868B0E8F04F25
:100240001EF0100F08BFB0EC108A80F30988BFF3CE
:100250006F8F70477C000020EFF30580704700002F
:100260000648804706480047FEE7FEE7FEE7FEE750
:10027000FEE7FEE7FEE7FEE7FEE7FEE7394A000895
:10028000890100082DE9F05F0546002092469B4653
:1002900088460646814640241BE02846414647469C
:1002A000224600F01BF953465A46C01A914110D31A
:1002B00011461846224600F002F92D1A67EB010894
:1002C0004F4622460120002100F0F9F817EB000903
:1002D0004E41201EA4F10104DFDC484631462A4687
:1002E0004346BDE8F09F40EA01039B0703D009E0C5
:1002F00008C9121F08C0042AFAD203E011F8013B12
:1003000000F8013B521EF9D27047D2B201E000F86A
:10031000012B491EFBD270470022F6E710B51346A9
:100320000A4604461946FFF7F0FF204610BD421C5E
:1003300010F8011B0029FBD1801A70472DE9FE4FF0
:1003400081EA030404F0004421F0004100944FF0DE
:10035000000B23F0004350EA01045ED052EA03048C
:100360005BD0C3F30A54C1F30A552C44A4F2F3340E
:100370000194A0FB0254C1F3130141F48011C3F3B3
:10038000130343F4801301FB024400FB034E840A71
:10039000970A44EA815447EA8357A4FB0768029509
:1003A0008D0A05FB07854FEA932C04FB0C542705A7
:1003B000029D4FEA065847EA1637B5EB08056EEB83
:1003C000070C870E920E47EA811742EA8312A7FBB9
:1003D0000201B6EB0B0164EB00042B0D43EA0C3376
:1003E0005E1844EB1C50DA465146E7FB0201C5F3A8
:1003F00013044FEA0B3343EA14534FEA0432019CCF
:1004000043EA0603A4F10C040294009CCDE900B475
:1004100000F083F803B0BDE8F08F00200146F9E753
:100420000EB540F2334102910021CDE900110A4698
:100430000B4600F072F803B000BDC1F30A5210B5CC
:10044000C1F3130140F2FF3341F480119A4201DA03
:10045000002010BD40F233439A42A2F2334203DC43
:10046000524200F03BF810BD904010BD00F0004239
:1004700030F000400AD0C10D01F56071C0F31600E4
:1004800042EA0151C208400711437047002001466B
:10049000704730B50B46014600202022012409E0B8
:1004A00021FA02F59D4205D303FA02F5491B04FA2D
:1004B00002F52844151EA2F10102F1DC30BD202A0C
:1004C00004DB203A00FA02F1002070479140C2F1AB
:1004D000200320FA03F3194390407047202A04DBDD
:1004E000203A21FA02F00021704721FA02F3D040AD
:1004F000C2F12002914008431946704710B5141EFE
:1005000073F1000408DA401C41F1000192185B41CC
:100510001A4301D120F0010010BD2DE9F04D9246A3
:100520009B4611B1B1FA81F202E0B0FA80F22032BA
:100530009046FFF7C4FF04460F4640EA0A0041EA2E
:100540000B0153465A46084313D0114653EA0100A3
:1005500019D0C8F140025046FFF7C0FF05460E46CD
:10056000504659464246FFF7AAFF084305D00120EE
:1005700004E020463946BDE8F08D0020054346EAF8
:10058000E0762C4337430A986305E40AA0EB0800A1
:100590000022FD0A44EA47540A3002D500200146F1
:1005A000E9E7010510196941DDE9084500196941CC
:1005B000BDE8F04DA2E72DE9FE4F804681EA030039
:1005C000C00F0C46009021F0004123F00045B8EB2D
:1005D0000200A94105D24046214690461C460B46E2
:1005E000024623F00040104347D0270DC7F30A000E
:1005F000C3F30A510290401A019040286BDAC3F30A
:10060000130040F4801B0098924620B10023D2EBE7
:10061000030A63EB0B0B01985946C0F140025046A8
:10062000FFF74DFF06460D4650465946019A00F029
:100630001BF910EB08006141002487EA115284EA9B
:10064000E7731A4340D0009A62B3019A012A4FEA35
:10065000075215DC001B61EB02014FF0004202EA79
:100660000752CDE90042001C41F5801132462B466D
:10067000FFF753FF03B0BDE8F08F40462146F9E78E
:10068000001B61EB0201001C41F5801300185B4167
:100690002018A2F5001747EB030140EAD570B61900
:1006A0006D4111E06D084FEA360645EAC0754FEA24
:1006B0000752001B61EB0201001C41F58011490843
:1006C0004FEA30000019514132462B4603B0BDE8D5
:1006D000F04FFFF713BF0098012240000023D0EB3A
:1006E000020263EBE073009821464FEAE074B8EB36
:1006F000000061EB0401E9E783F000435BE781F070
:10070000004158E72DE9F04D81EA030404F0004B65
:1007100021F0004514464FF0000A23F0004150EA52
:10072000050220D054EA01021DD0C5F30A57024643
:10073000C5F31303C1F31300C1F30A5640F4801547
:1007400043F48013A7EB0608101BD64608F2FD38C9
:1007500073EB050002D308F1010801E092185B4138
:10076000B8F1000F03DA00200146BDE8F08D00204B
:100770004FF48011064684460EE0171B73EB050705
:1007800005D3121B63EB050306434CEA010C490831
:100790004FEA300092185B4150EA0107EDD152EA6E
:1007A000030012D082EA040083EA0501084305D061
:1007B000101BAB4106D20122002306E000224FF0BD
:1007C000004302E06FF0010253101AEB06004CEBFD
:1007D000085110EB0A0041EB0B01BDE8F04DFFF7AB
:1007E0008DBEC1F30A52C1F3130140F2FF3341F44D
:1007F00080119A4202DA00200146704740F23343EA
:100800009A42A2F2334202DC5242FFF767BEFFF780
:1008100056BE000030B5041E71F1000404DB4FF039
:100820000044404264EB0101141E73F1000405DB37
:100830001C464FF00043524263EB0403994208BF49
:10084000904230BD064C074D06E0E06840F00103E1
:1008500094E8070098471034AC42F6D3FFF798FCB1
:10086000BCD80008DCD80008202A06DBCB17203AC9
:1008700041FA02F043EAE07306E041FA02F3D040A5
:10088000C2F12002914008431946704710B5114942
:10089000002090B00871C87048700F4C02464FF4A9
:1008A0008071204600F071FE00226115204600F0A4
:1008B0006CFE032209A1684604F076FC6846FFF747
:1008C00036FD82B2642369460F4802F0B5FA10B0D3
:1008D00010BD00004C010020001402402121212005
:1008E000414C41524D20434C454152454420212129
:1008F0002120284E6F726D616C2025642074696D13
:100900006573290D0A000000A005002001488078C9
:10091000704700004C0100200148C078704700007B
:100920004C010020104910B50B7C002003B10120C0
:100930004A7C02B1401C8C7C04B1401CC97C01B1D2
:10094000401C022801D3052010BD0BB1012010BDB1
:100950000AB1022010BD0CB1032010BD09B1042062
:1009600010BD002010BD00004C010020014800789F
:10097000704700004C01002001484078704700009B
:100980004C01002001480079704700004C01002014
:1009900070B501201A4CACB01A4D2071024601020C
:1009A000284600F0F2FD01225102284600F0EDFD3C
:1009B0001822154925A8FFF796FCE068FFF756FDB9
:1009C00005460E46A068FFF751FD02460520029538
:1009D000CDE90360CDE90021607825A951F82020F8
:1009E0000A4905A804F0E0FB05A8FFF7A0FC82B2C5
:1009F000642305A9064802F01FFA2CB070BD000060
:100A00004C0100200014024008D7000804D8000858
:100A1000A005002070B5294CB4EEC10AF1EE10FA21
:100A200084ED020AC4ED030A01DB012100E000218C
:100A3000B4EEE10A2174F1EE10FA01D8012000E0D1
:100A40000020F4EEC20A6074F1EE10FA01DB01221C
:100A500000E00022F4EEE20AA274F1EE10FA01D8EE
:100A6000012300E00023E374002511B908B902B99D
:100A700063B1A078401CA070E570FFF753FF607071
:100A8000A078052815D3207970B10FE0E078401CDC
:100A9000C0B2E070A5706570217919B103280AD33E
:100AA000FFF7F4FE257070BDFFF772FF0220207083
:100AB00070BD0120FBE70320F9E700004C01002096
:100AC0000146014801F004BA8C04002010B5044826
:100AD00001F010FA042801D0012010BD002010BD43
:100AE0008C04002010B500F015F8012801D0012079
:100AF00010BD074801F014FA040006D14FF400615C
:100B0000034801F08BF800B10124204610BD00001D
:100B10008C04002008B501208DF800009DF800002D
:100B200008BD0000134610B50A46014600240348DC
:100B300001F098FA00B10124204610BD8C04002079
:100B4000024800220121406808F09CB95C000020A6
:100B5000134610B50A4601460024034801F018FB6D
:100B600000B10124204610BD8C040020FEE70000E7
:100B700030B587B014216846FFF7CEFB0E480168F8
:100B800041F04001016000684FF4007400F0400043
:100B900005901120CDE90040012002900220074D70
:100BA00003906946284600F0F3FB012221462846BF
:100BB00000F0EBFC07B030BD3038024000180240B6
:100BC00070B50D46064600242946304600F04CF824
:100BD000002807D0642004F071FF641CE4B20A2CE2
:100BE000F2D3012070BD00002DE9F84F83460020AC
:100BF000DFF870A08DF80000054680464FF4967629
:100C00004FF4007900246F463146204600F0C8F8C2
:100C100030BB3146012000F0C3F808BB05E00120DD
:100C2000641C04F04BFFB4421AD84946504600F009
:100C3000A7FC0128F3D01E2C01D9012000E00020E0
:100C400038709DF8000008F1010840EA4500C5B27F
:100C5000B8F1080FD6DB8BF800500020BDE8F88F04
:100C60000120FBE7001802402DE9FC4781460020E7
:100C7000464D88460090064602464FF400740190A7
:100C80002146284600F081FC44F6206004F016FF5F
:100C900001222146284600F078FC1E2004F00EFFB9
:100CA0004FF4967705E00120761C04F007FFBE4262
:100CB00063D82146284600F063FC0128F3D00026C3
:100CC00005E00120761C04F0F9FEBE4255D821460D
:100CD000284600F055FC0028F3D0002605E001204E
:100CE000761C04F0EBFEBE4247D82146284600F0B1
:100CF00047FC0128F3D000246D462819FFF774FF44
:100D0000D8BB641C052CF8DB9DF800309DF8012051
:100D10009DF802109DF803009C180D182C449DF8B6
:100D20000450AC4229D100EE103A9FED191A01EEA1
:100D3000900AF8EE400A00EE102AF8EE611AB8EEBA
:100D4000400A40EE010A00EE101AB8EE400AF5EE35
:100D5000C00A01EE810AF1EE10FA0ED310EE900AED
:100D60000C49884209DC10EE100A0B49884204D86D
:100D700010EE100A0949884202DD0120BDE8FC8717
:100D8000C8ED000A89ED000A0020F7E700180240CC
:100D9000CDCCCC3D0000C8420000A0C10000A04264
:100DA0002DE9F0410E46054600244FF40077DFF8A8
:100DB000288008E0012004F081FE641CB44202D3C4
:100DC0000120BDE8F0813946404600F0D9FBA84239
:100DD000F0D10020F5E7000000180240014800F0C3
:100DE00063B9000090060020014800F05DB90000E2
:100DF0003006002001681823CAB2103AB2FBF3F2A1
:100E0000054B6FF30901032A9B5CC36500D9091DDB
:100E10008165084670470000E4D7000810B5014618
:100E200000208B698A6A4FF0C07453B1B3F5005F3C
:100E300015D072B1012A0CD0022A0AD0032A09D196
:100E400004E01AB1012A06D0022A03D1C96AC901F5
:100E500000D5012010BDC96AA142FAD010BD002AF8
:100E6000F7D0012AF2D0022AF3D0032AF3D010BD22
:100E700030B50468256825F4802525600468636022
:100E80008368402B036803D099600068C26030BD5E
:100E90009A600068C16030BD704772B6FEE70022FC
:100EA000AFF3008030B50E4B054601205C7A002C74
:100EB00014D1587A1C54587A03EB800045605D7A4F
:100EC00003F108002A54587A421C5A7230300870D4
:100ED0003A2048702F208870CC70002030BD000070
:100EE000F006002030B5B3F5804F05D06FF07041AB
:100EF00040F82210002030BD8C690B688D682343B8
:100F00004C688989240144EA0524234343EA0141CA
:100F100050F82230014C23401943E9E70000F0CF9C
:100F200010B50A6850F8223023F0010340F822304F
:100F30008C68082C23D000234A682243CC681C43C9
:100F40000B6922431A434B690E4C1A43CB691A436F
:100F50000B6A1A434B6A1A438B6A1A43CB6A1A43C9
:100F60000B6B1A438B691343CA6B09681A4350F819
:100F70002130A343134340F82130002010BD40230B
:100F8000DAE700007FFF0F0030B5D1E9003443EA13
:100F900004138C688D89240244EA054423430C8A97
:100FA000074D00EB820005EB045423430C7D6D01DB
:100FB00005EB0464896923430B434360002030BD83
:100FC0000000F0FF074890ED000AB5EEC00AF1EE10
:100FD00010FA04D310EE100A0349884201DDB3EE83
:100FE0000C0A704700000E08000070422DE9F04125
:100FF0000446876D00F0CEFA064694F835000025C9
:10100000022806D08020606584F834500120BDE8B5
:10101000F0812068016821F01601016020684169B3
:1010200021F080014161206C08B9A06C20B12068DA
:10103000016821F0080101602068016821F00101C8
:1010400001600CE000F0A6FA801B052807D92020DB
:101050006065032084F8350084F83450D7E72068B1
:101060000068C007EED194F85C103F208840B8605B
:10107000012084F8350084F834500020C7E790F848
:101080003510022903D080214165012070470521D8
:1010900080F835100068016821F00101016000202E
:1010A0007047406D704700002DE9F84304464FF04B
:1010B0000009CDF8009063484FF41651A56D006803
:1010C000B0FBF1F72E6894F85C10082000FA01F1EB
:1010D00031420FD021680A6852070BD50A6822F006
:1010E00004020A6094F85C108840A860606D40F0CB
:1010F0000100606594F85C104FF0010808FA01F0F7
:10110000304208D021684969090604D5A860606D9D
:1011100040F00200606594F85C1004208840304282
:1011200008D021680968890704D5A860606D40F07F
:101130000400606594F85C1010208840304218D09C
:1011400021680968090714D5A86020680168490367
:1011500004D50068000308D5A16C07E00168C90543
:1011600003D4016821F008010160216C09B1204617
:10117000884794F85C1020208840304231D02168A4
:101180000968C9062DD5A86094F83500052820689F
:10119000016806D0490347D5006800031DD4616C7F
:1011A0001CE021F0160101602068416921F08001F6
:1011B0004161206C08B9A06C20B12068016821F061
:1011C0000801016094F85C103F208840A86084F812
:1011D000358084F83490216D1FE0E16B09B1204621
:1011E0008847606D00282BD0606DC00714D00520A3
:1011F00084F835002068016821F001010160009841
:10120000401C0090B84203D820680068C007F6D19F
:1012100084F8358084F83490E16C002910D001B056
:101220002046BDE8F04308470168C905D5D40168E8
:1012300021F01001016084F8358084F83490CCE707
:10124000BDE8F883780000202DE9F041044600F065
:10125000A1F906465CB1022084F83500002584F827
:1012600034502068016821F0010101600DE0012087
:10127000BDE8F08100F08EF9801B052805D92020FB
:101280006065032084F83500F2E720680068C00735
:10129000F0D12268116820480140D4E901031843C5
:1012A000D4E903363343184363691843A3691843E9
:1012B000E3691843236A18430843616A042903D188
:1012C000D4E90B1319430843106020684069666A2B
:1012D00020F0070130460E43012704280CD1A06AF4
:1012E0000643E06A40B12046FFF798FD20B1402058
:1012F000606584F83570BAE7206846612046FFF7DC
:1013000079FD94F85C203F2191408160656584F807
:1013100035700020ACE700003F8010F02DE9F0416F
:101320000446866D90F83400002501280DD0012078
:1013300084F8340094F835700020012F07D084F829
:10134000340002252846BDE8F0810220FBE7022791
:1013500084F8357060652046FFF78AFD94F85C10CC
:101360003F208840B0602068016841F016010160AC
:10137000206C20B12068016841F0080101602068FC
:10138000016841F001010160DCE780B204F090BB2C
:101390002DE9F84FDFF8BCA10022012503264FF00C
:1013A0000F090AF1040BAAF1040E00BF0B6805FA3D
:1013B00002F42340A34270D10F7907F00307012FF5
:1013C00001D0022F16D187684FEA420806FA08FCBE
:1013D00027EA0C07D1F80CC00CFA08FC4CEA070C01
:1013E000C0F808C04768A7430C79C4F300149440C0
:1013F0003C4344600C79E443A4070AD0C4684FEA34
:10140000420C06FA0CF7BC438F6807FA0CF7274327
:10141000C7600C7904F00304022C12D1D40800EB4D
:10142000840CDCF820405707FF0E09FA07F824EA7D
:101430000804D1F8108008FA07F848EA0408CCF844
:10144000208004684FEA420C06FA0CF7BC430F797F
:1014500007F0030707FA0CF7274307604C6814F4FA
:10146000403F70D03C4C276847F480472760246891
:1014700022F0030704F480440094384C07EB040C7A
:10148000DCF8084897074FEA177809FA08F7BC43D1
:10149000334FB84202D1002724E054E0314FB84224
:1014A00001D101271EE0304FB84201D1022719E0D7
:1014B0002E4FB84201D1032714E02D4FB84201D17D
:1014C00004270FE02B4FB84201D105270AE02A4F2D
:1014D000B84201D1062705E0284FB84201D10727BD
:1014E00000E0082707FA08F72743CCF80878DAF86D
:1014F00000405746D1F804C09C435FEACC2C00D58D
:101500001C433C60DBF800405F46D1F804C09C43BC
:101510005FEA8C2C00D51C433C60DEF80040774627
:10152000D1F804C09C435FEA8C3C00D51C433C606E
:10153000084F083F3C68D1F804C09C435FEACC3CAC
:1015400000D51C433C60521C102AFFF42FAFBDE8AD
:10155000F88F0000083C0140443802400030014050
:10156000000002400004024000080240000C02405B
:10157000001002400014024000180240001C02400B
:101580000069084000D0012070470AB181617047AE
:101590000904FBE701488068704700006C000020E8
:1015A0000248816802781144816070476C00002015
:1015B0000B4810B5016841F400710160016841F405
:1015C00080610160016841F480710160032000F0D6
:1015D00073F80F2000F006F800F024F8002010BD8A
:1015E000003C024070B50D4D04464FF47A712878E6
:1015F000B1FBF0F00A490968B1FBF0F000F0C0FE61
:1016000048B9102C07D200222146501E00F034F8B1
:1016100000206C6070BD012070BD00006C000020D7
:10162000780000200C4882B0016841F480410160DC
:10163000006800F4804000900748001F016841F0F6
:10164000805101600068002200F0805000900F215E
:10165000901E02B000F010B844380240002809DBA8
:1016600000F01F02012191404009800000F1E020BC
:10167000C0F8001170470000F0B40E4B1B680C4618
:10168000C3F30223C3F10705042D00D90425191D56
:10169000072901D2002300E0DB1E012606FA05F12E
:1016A000491E214099409E40761E16403143F0BCB1
:1016B00003F08EBD0CED00E0064900F0070208685B
:1016C0004FF6FF03184040EA0220034A1043086027
:1016D000704700000CED00E00000FA052DE9F0472E
:1016E0000E46050065D0DFF81481D8F80000F7B287
:1016F00000F00700B04207D288F80070D8F8000068
:1017000000F00700B04254D128683D4C810712D543
:10171000400703D5206840F4E05020602878000797
:1017200003D5206840F4604020602068A96820F05C
:10173000F000084320602878C0072DD03049686841
:101740000839012812D0022813D0032811D00968C3
:10175000890700292DDA216821F003010143216066
:10176000FFF718FF814641F2883A0EE009688903C5
:10177000EFE709688901ECE7FFF70CFFA0EB09012F
:10178000514502D90320BDE8F0872068696800F060
:101790000C00B0EB810FEFD1D8F80010404601F0FB
:1017A0000701B14207D90770006800F00700B04296
:1017B00001D00120E7E72878400705D52068E968CF
:1017C00020F4E050084320602878000706D5206800
:1017D000296920F4604040EAC100206000F038F838
:1017E0002168084AC1F30311515CC84006490860EA
:1017F00006480068FFF7F6FE0020C4E7003C024000
:1018000008380240ECD70008780000207000002063
:101810000448054900680968044AC1F38221515C03
:10182000C84070477800002008380240FCD7000804
:101830000448054900680968044AC1F34231515C13
:10184000C84070477800002008380240FCD70008E4
:10185000154810B5006810F00C02144813D0411060
:10186000042A0FD0082A0ED10F4C241F22682368A7
:1018700002F03F025B0207D52068C0F38810A0FB8E
:10188000010106E0084610BD2168C1F38811A1FBE3
:1018900000010023FEF7F6FC2168C1F30141491C59
:1018A0004900B0FBF1F010BD083802400024F400FC
:1018B0002DE9F84F04006ED02078DFF84C93C00774
:1018C000A9F104054AD009F104000168C1F38101BE
:1018D000012908D00068C0F3810002280AD1D9F894
:1018E0000000400206D52868800337D560680028CC
:1018F000E1D033E06068B0F5803F10D0B0F5A02FA4
:10190000286810D020F480302860286820F48020D7
:1019100028606068A8B1FFF73DFE06460DE0286824
:1019200040F48030F4E740F480202860F7E700BFFF
:10193000FFF730FE801B642873D828688003F7D532
:101940000CE0FFF727FE064605E000BFFFF722FE8A
:10195000801B6428F0D828688003F7D42078DFF84B
:10196000AC8280074FF0000A3ED5A748001D0168F1
:1019700011F00C0F08D00068C0F3810002280BD1D1
:10198000D9F80000400207D42868800716D5E0681F
:10199000012800D112E033E1E068B8B10120C8F8B5
:1019A0000000FFF7F7FD064605E000BFFFF7F2FD78
:1019B000801B0228C0D828688007F7D528682169CD
:1019C00020F0F80040EAC10028600DE0C8F800A04F
:1019D000FFF7E0FD064604E0FFF7DCFD801B022870
:1019E0001FD828688007F7D42078000722D5864FB3
:1019F00087486169703771B101210160FFF7CAFD45
:101A0000064604E0FFF7C6FD801B022809D83868A7
:101A10008007F7D50EE0C0F800A0FFF7BBFD064633
:101A200005E082E0FFF7B6FD801B02287DD838680C
:101A30008007F7D42078400768D5DFF8CCB10027BD
:101A40000BF13C0BDBF80000C0000BD4DBF80010FE
:101A500041F08051CBF80010DBF80000012700F0C6
:101A6000805000906B4E3068C00510D4306840F450
:101A700080703060FFF78EFD009005E0FFF78AFD73
:101A80000099401A022850D83068C005F6D55E4E3D
:101A9000A0686C3601280FD00528306810D020F0DF
:101AA00001003060306820F004003060A068B8B1F8
:101AB000FFF770FD00900FE0306840F00100F4E7A0
:101AC00040F004003060F7E7FFF764FD0099411A29
:101AD00041F28830814266D830688007F4D50EE044
:101AE000FFF758FD009007E0FFF754FD0099411AF9
:101AF00041F28830814256D830688007F4D42FB143
:101B0000DBF8001021F08051CBF80010A069C8B3B9
:101B10003D49091D0968C1F3810102294AD0022803
:101B2000504607D0C8F8600000E03CE0FFF732FD07
:101B300004463BE04746C8F86000FFF72BFD064629
:101B400005E000BFFFF726FD801B02282BD8286880
:101B50008001F7D4D4E907010843A16A2E4A490855
:101B600002EB0141626A41EA8211084394F82C10A9
:101B700040EA0161C9F8001001203866FFF70AFD4C
:101B8000044606E03EE000BFFFF704FD001B02280C
:101B900009D828688001F7D534E000BFFFF7FAFCC8
:101BA000001B022802D90320BDE8F88F28688001B5
:101BB000F4D427E00128F7D0D9F80000E26900F456
:101BC000800191421CD1226A00F03F01914217D15D
:101BD00047F6C071626A0140B1EB821F10D1A26A60
:101BE0004FF0FF3300F4403103EB5202B1EB024FF0
:101BF00006D194F82C1000F07060B0EB016F01D0AA
:101C00000120D1E70020CFE704380240000047421E
:101C1000800E4742007000400000FFFF2DE9FE43A8
:101C20000446002603200D4684F83400606C032827
:101C30005ED0B5F5805F5BD04FF4006700204FF0B9
:101C40008068BD421FD1814600900190002120682C
:101C500001F078FD800113D46946204602F016F9A0
:101C600007000DD10198400334D5B4F850000104A9
:101C7000206801F093FD070002D10221206823E0D3
:101C8000A06B384328E01DB1A06B40F0006023E05A
:101C90008146009001900021206801F053FD8001F1
:101CA000EED46946204602F0F1F80700E8D1019829
:101CB000C0030FD5B4F850000104206801F06EFD98
:101CC0000700DDD10021206801F0B5FD0700D7D164
:101CD0004F46D5E74746D3E7A063A06B144F4FF0BC
:101CE000010848B12068876384F8348001260EE03B
:101CF000A06B40F08050EFE7211DD4E9050C0EC920
:101D0000CDE90050CDF808C0206801F01EFD4FF469
:101D10000071206801F076FD28B121688F63A16B06
:101D20000143A163012684F834803046BDE8FE8378
:101D3000FF05400070470000F0B5426E920F0A7038
:101D4000426EC2F383624A70426EC2F301628A70CD
:101D5000426E120CCA70B0F86420120A0A7190F830
:101D600064204A71826E120DCA80826EC2F30342F1
:101D70000A72B0F86820C2F3C0324A72B0F8682024
:101D8000C2F380328A72B0F86820C2F34032CA725D
:101D9000B0F86820C2F300320A7300264E73426C1A
:101DA0004FF40075012462B1012A3AD00268474914
:101DB0009163816B41F08051816380F83440012050
:101DC000F0BDB0F86820C36E9205120D42EA93721E
:101DD0000A61C26EC2F3C2620A75C26EC2F30262C7
:101DE0004A75C26EC2F342528A75C26EC2F3824213
:101DF000CA75C26EC2F3C2320A760A69521C4265C3
:101E00000B7E03F007039B1C9A4042650B7A03F09C
:101E10000F0704FA07F383655B0A5A43C0E91725E5
:101E20000EE090F86820C36E9206920A42EA1342CE
:101E30000A610A69521C92024265C0E9165205669F
:101E400030F86C2FC2F3803201F8192F0288C2F3E8
:101E5000C6124A70027802F07F028A704268D20F7E
:101E6000CA704268C2F341720A714268C2F3826268
:101E70004A714268C2F383528A714268C2F3405287
:101E8000CA710E724268C2F300424A728288C2F37B
:101E9000C0328A728288C2F38032CA728288C2F3E8
:101EA00040320A738288C2F300324A738288C2F3D6
:101EB00081228A738288C2F30122CA730079C0F337
:101EC000460008744C740020F0BD0000FF0540007F
:101ED000426C0A60826C4A60C26C8A60026DCA60A1
:101EE000426D0A61826D4A61C26D8A61006EC8618D
:101EF0000020704770B50446B0F85000002501047A
:101F0000206801F080FD18B1A16B0143A16304E0DA
:101F10000021206801F016FC0546C5F3432070BD82
:101F200070B504000ED094F83400002518B9257758
:101F3000204600F04DF8032084F83400204600F0DD
:101F40000BF808B1012070BDA5632563012084F85A
:101F50003400002070BD0000FEB500250446762048
:101F60000095CDE901502B462A462946206801F00C
:101F7000ECFB154E46F8A05F206801F0F8FB012548
:101F800035600220FFF701FA204602F067F828B119
:101F900084F83450A16B0143A16313E0204601F0A3
:101FA000E5FF0028F4D14FF40071206801F02AFC0D
:101FB000002808D0226805499163A16B0143A16301
:101FC00084F834500120FEBD00802542FF0540000A
:101FD000F0B587B0044614216846FEF79DF91D4907
:101FE0002068884233D11C480024016841F4006114
:101FF0000160006800F4006005901748143801681B
:1020000041F004010160016801F0040105910168DB
:1020100041F0080101600068022500F00800059009
:102020004FF4F850CDE9000502AA03260C2782E8F8
:10203000D00069460948FFF7ABF90420CDE9000557
:1020400002AA694682E8D0000548FFF7A1F907B067
:10205000F0BD0000002C014044380240000802405E
:10206000000C02402DE9F04786B01F460446154695
:1020700039B194F83400012807D0022006B0BDE839
:10208000F087A06B40F0006008E00020A063E36DE3
:10209000EA199A4204D9A06B40F00070A06369E08D
:1020A000032284F8342022688146D0622268D36BF0
:1020B00040F22A363343D363236C2F4ADA63236C0E
:1020C0002E4ADA64226C1065226C9060206C0068E5
:1020D000026822F0C002026020680A46266C4FEABD
:1020E000472800F180014FEA98033046FFF716F9C0
:1020F000DFF88CA0012670B12068C16B21F49571C6
:10210000C1632168C1F838A0A06B40F08040A06393
:1021100084F834602EE01B480660606C012800D013
:102120006D024FF0FF30CDE90008902002900220B0
:102130000596CDE903096946206801F0EDFA012F03
:1021400006D9822020632946206801F0CDFB05E0F6
:10215000812020632946206801F0DFFB00288DD014
:102160002268C2F838A0A16B0143A16384F83460EF
:10217000C4F83090012081E73D3E0008D93D0008B9
:10218000FF0540008C85254210B5FEF7D9FC10BD37
:102190002DE9F04F5FEA010B87B01E460446114659
:1021A00007D094F83400012807D0022007B0BDE81A
:1021B000F08FA06B40F0006008E00025A563E26DA1
:1021C0008819904204D9A06B40F00070A06356E0DB
:1021D000032084F834002068C5622068C26B40F296
:1021E0001A2942EA0902C263E26B2D48D063E26B0E
:1021F0002C48D064E06B0565606C012800D0490272
:102200004FF09008012E05D9A0202063206801F02E
:1022100045FC04E0C4F83080206801F058FCDFF889
:1022200088A0012730B12268C2F838A0A16B014311
:10223000A16321E01D480760E16B40208860E06BEE
:102240000068016821F0C00141F04001016022688E
:102250007602B30859468032E06BFFF75FF880B131
:102260002068C16B21EA0901C1632168C1F838A067
:10227000A06B40F08040A06384F834702563012097
:1022800094E74FF0FF30CDE90006CDE90285CDE9B6
:1022900004576946206801F03FFA002086E70000F5
:1022A0007F3E0008D93D0008FF0540008C8525428F
:1022B00070B515460E46040003D094F8490010B1DD
:1022C00007E0012070BD002084F84800204600F09F
:1022D0001DF804F108012068FEF722FE3146A268CD
:1022E0002068FEF751FED4E901022946236BFEF770
:1022F000F9FD2168A06851F8202042F0010241F860
:102300002020012084F84900002070BD194800B544
:10231000016887B041F001010160006800F0010030
:10232000059014480838016841F00801016001680F
:1023300001F008010591016841F010010160006899
:10234000012100F0100005904CF203700090022073
:10235000CDE9010103900C20049069460648FFF77F
:1023600017F84FF68070009069460448FFF710F8A0
:1023700007B000BD38380240000C02400010024097
:1023800010B5401EB0F1807F01D3012010BD4FF089
:10239000E02460610F21601702F01AFF0020A061A5
:1023A00007202061002010BD7047704770B590F87D
:1023B0003C20012A32D0012480F83C40022280F8DF
:1023C0003D2003685A689D6822F070060A6832430F
:1023D0005A60134B02689A4214D0B2F1804F11D068
:1023E000104B9A420ED0104B9A420BD00F4B9A4290
:1023F00008D00F4B9A4205D00E4B9A4202D00E4B9A
:102400009A4204D1496825F080031943916080F80D
:102410003D40002180F83C10084670BD022070BD90
:10242000000001400004004000080040000C004093
:1024300000040140004001400018004010B50400B5
:1024400003D094F83D0010B107E0012010BD00203A
:1024500084F83C00204600F01FF8022084F83D007C
:10246000211D206802F0F6FA012084F8460084F865
:102470003E0084F83F0084F8400084F8410084F86E
:10248000420084F8430084F8440084F8450084F84E
:102490003D00002010BD000008B501681048B1F1F2
:1024A000804F0BD00F4A914207D1016841F48071EF
:1024B0000160006800F48070009008BD016841F080
:1024C000010101600068002200F001000090052178
:1024D0001C20FFF7D1F8BDE808401C20FFF7BEB86C
:1024E000403802400020004090F83D10012901D002
:1024F00001207047022180F83D1000681149884290
:1025000014D0B0F1804F11D00F4988420ED00F493E
:1025100088420BD00E49884208D00E49884205D027
:102520000D49884202D00D49884204D1816801F0EA
:102530000701062903D0016841F001010160002074
:102540007047000000000140000400400008004007
:10255000000C004000040140004001400018004011
:1025600001680A6A41F211131A4207D10A6A9B10E4
:102570001A4203D10A6822F001020A60012180F8A0
:102580003D100020704770B5044690F83C000025CF
:10259000012817D0012684F83C60022084F83D0011
:1025A0002068826822F0770222F47F428260086805
:1025B000502838D00DDC20284FD005DC90B31028EF
:1025C00011D14AE0022070BD302846D040280AD1FF
:1025D0003BE060282FD070280DD0B0F5805F03D08D
:1025E000B0F5005F12D0012584F83D60002084F82A
:1025F0003C00284670BDCB68D1E90121206802F07B
:102600009EFA2068816841F0770109E0CB68D1E942
:102610000121206802F093FA2068816841F480412A
:102620008160E1E719E0CA684968206802F05CFB54
:102630005021206806E0CA684968206802F065FBFE
:102640006021206802F085FACEE7CA6849682068F0
:1026500002F04AFB40212068F4E722680146104658
:10266000F0E770472DE9F04104460068C668056947
:102670004FF00007A90713D5B10711D5F91E016165
:1026800001202077206880698007204602D0FFF76C
:10269000E8FF04E000F0A8F8204600F03AF92777B8
:1026A000680716D5700714D521686FF0040008611B
:1026B000022020772068806910F4407F204602D0F5
:1026C000FFF7CFFF04E000F08FF8204600F021F97B
:1026D0002777280715D5300713D521686FF0080034
:1026E0000861042020772068C0698007204602D056
:1026F000FFF7B7FF04E000F077F8204600F009F993
:102700002777E80616D5F00614D521686FF010007B
:102710000861082020772068C06910F4407F2046B7
:1027200002D0FFF79EFF04E000F05EF8204600F0C4
:10273000F0F82777E80708D0F00706D021686FF097
:1027400001000861204600F049F9280608D5300646
:1027500006D521686FF0800008612046FFF724FE4F
:10276000680608D5700606D521686FF0400008613C
:10277000204600F034F9A8060AD5B00608D521682D
:102780006FF0200008612046BDE8F041FFF70DBE64
:10279000BDE8F08110B586B0044614216846FDF707
:1027A000BBFD0E492068884216D10D480021026801
:1027B00042F020020260006800F0200005904FF413
:1027C000007000900220CDE901010920CDE903103D
:1027D00069460448FEF7DCFD06B010BD002000404D
:1027E0003038024000140240704770B5044690F83B
:1027F0003C0000260D4601280FD0012084F83C0043
:102800006AB1042A1DD0082A2FD00C2A3FD00126F5
:10281000002084F83C00304670BD022070BD206866
:1028200002F0A0F92068816941F008018161206807
:10283000816921F004018161206881692A6911435D
:1028400011E0206802F0BEF92068816941F400615E
:1028500081612068816921F48061816120688169DA
:102860002A6941EA02218161D2E7206802F0E0F999
:102870002068C16941F00801C1612068C16921F087
:102880000401C1612068C1692A69114311E020680F
:1028900002F002FA2068C16941F40061C161206858
:1028A000C16921F48061C1612068C1692A6941EA76
:1028B0000221C161ACE710B5040003D094F83D00DB
:1028C00010B107E0012010BD002084F83C00204634
:1028D00000F01EF8022084F83D00211D206802F05F
:1028E000B9F8012084F8460084F83E0084F83F00DF
:1028F00084F8400084F8410084F8420084F84300E2
:1029000084F8440084F8450084F83D00002010BDA0
:102910007047704710B50446022249B104290ED011
:10292000082913D094F84100012816D0012010BDC9
:1029300094F83E000128F9D184F83E200FE094F885
:102940003F000128F2D184F83F2008E094F84000CD
:102950000128EBD184F8402001E084F841200122D5
:10296000206802F0DFF816492068164A884201D034
:10297000904203D1436C43F400434364206888428F
:1029800013D0B0F1804F10D00F4988420DD00F49BD
:1029900088420AD00E49884207D0904205D00D499E
:1029A000884202D00C49884204D1816801F00701B5
:1029B000062903D0016841F001010160002010BD2B
:1029C00000000140000401400004004000080040F5
:1029D000000C004000400140001800407047704764
:1029E00070477047F8B5016804460868CA684B69C3
:1029F00010F00F0F4FF0000559D003F0010602F45C
:102A00009077374365D0C10705D0D10503D5616CF8
:102A100041F001016164410705D5D90703D0616C1C
:102A200041F002016164810705D5D90703D0616CCB
:102A300041F004016164010707D502F02001314330
:102A400003D0616C41F008016164616C00293AD0E7
:102A5000800604D5900602D5204602F01BFA2068B5
:102A60004069616CC0F38010090700D460B3204650
:102A700002F0DBF920684069400621D52068143057
:102A800050E8001F21F0400140E80012002AF5D173
:102A9000E06BA8B172490165E06BFEF7F0FA00281F
:102AA00011D0E06B016D01B0BDE8F040084783062E
:102AB0000FD593060DD52046BDE8F84002F0EAB9DF
:102AC0002046FFF78EFFF8BD2046FFF78AFF6564BA
:102AD000F8BD266B2023012E7ED1C6067CD5D606F6
:102AE0007AD508684868009048694FF002064006A9
:102AF0004DD5E26B106840684FF480770004000CFD
:102B00003AD0A18D814237D9E085D069B8422DD025
:102B100020680C3050E8001F21F4807140E800125A
:102B2000002AF5D12068143050E8001F21F001017F
:102B300040E80012002AF5D12068143050E8001F48
:102B400021F0400140E80012002AF5D184F842301B
:102B5000256320680C3050E8001F21F0100140E888
:102B60000012002AF5D1E06BFEF740FA6663A08DF3
:102B7000E18D401A81B206E0A18D8142A8D1D069D1
:102B8000B842A5D166632046FFF72AFFF8BDA08DA5
:102B9000E18D401A81B2E08D0028F7D00029F5D0F0
:102BA00020680C3050E8002F22F4907240E8002793
:102BB000002FF5D12068143050E8002F22F00102D8
:102BC00040E80027002FF5D184F8423025632068C3
:102BD0000C3050E8002F00E006E022F0100240E840
:102BE0000023002BF3D1CDE705062BD5150629D5FB
:102BF00094F841002128C9D1A068B0F5805F01D1C7
:102C00002069B0B1206A411C2162216800784860C7
:102C1000E08C401E0004000CE084B7D12068C1683D
:102C200021F08001C1602068C16841F04001C160AD
:102C3000F8BD206A0088C0F308004860206A801C44
:102C40002062E5E74006F3D55006F1D5CA68204674
:102C500022F04002CA6084F8413000F03DF9F8BD2E
:102C60002F4D000870B5040004D094F841000025F1
:102C700010B106E0012070BD84F84050204600F0FD
:102C800023F8242084F841002068C16821F4005111
:102C9000C160204602F060F92068016921F490418A
:102CA00001612068416921F02A0141612068C16801
:102CB00041F40051C1606564202084F8410084F82B
:102CC00042006563002070BD2DE9F04387B00646E1
:102CD00014216846FDF720FBDFF824C1316849481C
:102CE000022203230727484D002461451DD1454991
:102CF00014310E6846F010060E60096801F01001EC
:102D00000591016841F0010101600068694600F029
:102D10000100059058028DE81500CDE903372846DB
:102D2000FEF736FB07B0BDE8F083DFF8E0C0614591
:102D3000F8D1016841F040010160016801F04001F3
:102D40000591016841F400110160016801F400116E
:102D500005912C491031D1F800C04CF4003CC1F869
:102D600000C0096801F400310591016841F00101DA
:102D700001600068694600F0010005900C208DE8B4
:102D80001500CDE903372846FEF702FB214D204808
:102D90004FF00068E5E8020840204FF48069A5E89C
:102DA0001102870245F814491A48AC61C5E9074782
:102DB0006C62FEF749FA08B1FEF76FF8B563AE63CF
:102DC000144D1348603518382860C5E90184C5E9F9
:102DD00003496C61AC61C5E9074728466C62FEF7A0
:102DE00033FA08B1FEF759F8F563002205212620D1
:102DF000AE63FEF741FC2620FEF730FC92E70000B0
:102E00000010014030380240000002400044004001
:102E1000A06002403006002090F84230202B01D004
:102E20000220704721B11AB10023036302F01AB9DE
:102E300001207047704770472DE9F843044690F829
:102E40004100984616460D46202802D00220BDE8D3
:102E5000F88385B17EB100206064212084F84100B0
:102E6000FEF798FBA6848146E684A0682027B0F58B
:102E7000805F02D003E00120E9E7206910B12E460F
:102E800000250EE000260CE08021204602F03AF9F1
:102E9000A8B9C6B116F8010B21684860E08C401E45
:102EA000E084E08C4B464FF00002CDF80080002813
:102EB000EAD14FF04001204602F024F940B184F8F5
:102EC00041700320C3E735F8020BC0F30800E3E7C5
:102ED00084F841700020BAE77047FEE700B51A4950
:102EE00089B00978012906D002290AD003291FD008
:102EF00004290DD122E000EE100A1449B8EE400A70
:102F000004E000EE100A1249B8EE400A81ED000A12
:102F1000024610A1684602F047F96846FDF707FA35
:102F200082B2642369460E48FFF786FF09B000BDF0
:102F300000EE100A0B49B8EE400AE7E700EE100A6F
:102F40000949B8EE400AE1E7040000202C00002007
:102F5000280000205365743A2025640D0A00000003
:102F6000A0050020340000203000002070B50122B0
:102F7000084D0646140221462846FEF706FB304659
:102F8000FEF703FA21462846BDE870400022FEF70E
:102F9000FCBA00000014024010B51F4C90B0A0888D
:102FA000FFF79CFF2178012907D0022909D01B488F
:102FB000032914D004291ED114E0022020701848DF
:102FC00002E003202070174890ED000ABCEEC00A12
:102FD00010EE100AA0805020FFF7C8FF0BE004217C
:102FE0002170F1E7A18800EE101AB8EE400A80EDDA
:102FF000000A00F0EBF8A38822780BA1684602F0E3
:10300000D3F86846FDF793F982B2642369460B480A
:10301000FFF712FF10B010BD0400002030000020A8
:1030200028000020340000204D6F64653A25642C90
:103030002056616C75653A25640D0A00A0050020D4
:103040000148007870470000040000200148808893
:1030500070470000040000202DE9F04100F042F923
:103060004A4C064604212046FEF78AFA07461021FC
:103070002046FEF785FA464C0546E7B960780128F8
:1030800019D12178B9B10020012906D0022904D034
:10309000032904D0042903D101E0632000E0642067
:1030A000A188814201D2491CA18088B2FFF716FF96
:1030B0001E20FFF75BFF677075B9A07801280BD160
:1030C000207848B1A08808B1401EA08080B2FFF7E8
:1030D00005FF1E20FFF74AFFA570002E54D02D4893
:1030E000407A022808D001284ED1207800284BD001
:1030F000BDE8F041FFF750BF257827482749284B06
:10310000284A1DB394ED030A80ED000A94ED020AEB
:10311000002081ED000A94ED050A83ED000A94ED8C
:10312000040A82ED000A2070A0806420FFF71EFFD1
:103130006420FEF72AF96420FFF718FF64230822B1
:1031400019A1BDE8F0411B48FFF776BE01252570A7
:1031500090ED000AFCEEC00A10EE900AA08084ED0B
:10316000030A91ED000A962084ED020A93ED000A0D
:1031700084ED050A92ED000A84ED040AFFF7F6FEDD
:10318000642310220CA1DCE7BDE8F08100100240AE
:1031900004000020A00100202C00002028000020B6
:1031A000340000203000002043616E63656C0D0A1E
:1031B00000000000A0050020456E74657220536574
:1031C00074204D6F64650D0A000000002DE9F04782
:1031D000DFF8D0A0DFF8D0809FED340A9AED001A16
:1031E000D8ED000A96B0B4EEE01AF1EE10FA0CDB5E
:1031F000B1EE041A70EEC10ACAED000AF5EEC00A7B
:10320000F1EE10FA01D28AED000A294C294D94ED15
:10321000001AD5ED000AB4EEE01AF1EE10FA0CDB5C
:10322000B3EE041A70EEC10AC4ED000AF5EEC00A4E
:10323000F1EE10FA01D284ED000A1F48002101705E
:103240004FF44870FFF792FE2868FDF70FF9064625
:103250000F462068FDF70AF904460D46D8F800002D
:10326000FDF704F980468946DAF80000FDF7FEF81C
:103270000DF1080C41EC100B8CE8F00053EC102B16
:103280000EA106A8CDE9008901F08EFF06A8FDF782
:103290004EF882B2642306A91148FFF7CDFD16B09F
:1032A000BDE8F0872C00002028000020000000006E
:1032B00034000020300000200400002053617665B7
:1032C000642120543A252E31667E252E31662C202D
:1032D000483A252E31667E252E31660D0A00000003
:1032E000A005002070B501211E48FEF749F90446EB
:1032F000FEF750F91C4900220123012C0C7840F6FE
:10330000B83502D0022C1DD028E02CB10222012CAD
:1033100005D0022C14D10AE00B7048601FE04C6805
:10332000041B322C0CD90A7048604B7208E04C68C0
:10333000001BA84204D9087A10B90B724A720BE03C
:10334000002070BD4C68001B0C7A3CB9322805D3B4
:10335000A84203D24B720A70012070BD0A700A7233
:103360004A72EDE700000240A00100200D4808B5B8
:10337000016841F4001101600068002200F40010AF
:10338000009005211020FEF777F91020FEF766F96E
:10339000002205211120FEF76FF9BDE80840112039
:1033A000FEF75CB93038024010B504490448FDF717
:1033B00076FD0249491E087010BD0000650000201E
:1033C000C0D7000830B59FB000201D901E901DA8EA
:1033D00005F086FD1D4C1E4D0DF1540C606395E803
:1033E0000F008CE80F00002115A805F0EEFC103549
:1033F000206395E80F0019AD85E80F00002119A89A
:1034000005F0E3FC124920621C2220316846FCF7DB
:103410006AFF0021684605F0C5FD0D4960621C2267
:103420003C3107A8FCF75FFF002107A805F0BAFDB3
:103430000749A0621C2258310EA8FCF754FF002156
:103440000EA805F0AFFDE0621FB030BD20000020E7
:1034500020D7000800B587B01C216846FCF75CFF48
:1034600016484FF0204110220160154941600621A5
:1034700081600021C160C0E904128161C161130251
:103480000162C0E90913C162016341638163416460
:103490000F20FF230090CDE90103CDE903021120A5
:1034A000CDE90501002269460448FEF701FF002826
:1034B00001D0FDF7F2FC07B000BD00003C04002085
:1034C000040100A0F0B587B014216846FCF724FF82
:1034D00035480025016841F010010160016801F0E4
:1034E00010010591016841F020010160016801F0BF
:1034F00020010591016841F080010160016801F03F
:1035000080010591016841F001010160016801F04D
:1035100001010591016841F008010160016801F0B5
:1035200008010591016841F004010160016801F0A2
:1035300004010591016841F04001016000681B4FE2
:1035400000F04000059000224FF4A0613846FEF7DD
:103550001CF81420CDE900050124694602941448A2
:10356000FDF716FF200202268DE8710069463846F5
:10357000FDF70EFFA002CDE9000469463846CDE90B
:103580000245FDF705FF8DE870000A4E694630469A
:10359000FDF7FEFE2020CDE9000569460294304685
:1035A000FDF7F6FE07B0F0BD3038024000140240CF
:1035B0000010024000000240064805490160002159
:1035C00041608160C16001614161816170470000BB
:1035D000002C01408C04002010B588B01C216846E6
:1035E000FCF79AFE154814490024016042F2CF010D
:1035F000C0E9011440F2E731C0E903148461FEF729
:103600001DFF08B1FDF749FC0C48FFF754F908B15C
:10361000FDF743FC6020CDE90004029400226946D6
:1036200006480494FFF7E1F808B1FDF736FC0348BB
:10363000FFF7B0F808B010BD00200040580500208A
:1036400010B586B0002416480094019402940394A7
:1036500004944FF08041059401605321C0E90114A6
:10366000611EC0E9031480218161FEF7E7FE08B105
:10367000FDF713FC4FF48050009069460848FEF7B0
:1036800082FF08B1FDF709FC049404A904480594DD
:10369000FEF78CFE002801D0FDF7FFFB06B010BD41
:1036A000100500200C4810B50A4901604FF4E131C3
:1036B0004160002181600C22C160C0E90412816177
:1036C000C161FFF7CFFA002803D0BDE81040FDF735
:1036D000E4BB10BD00100140A00500200C4810B54F
:1036E0000A4901604FF4E1314160002181600C2200
:1036F000C160C0E904128161C161FFF7B3FA00281B
:1037000003D0BDE81040FDF7C8BB10BD0044004029
:10371000E8050020FEE7FEE70A6842624A68826226
:10372000D1E902231A43D1E904310B43C16A1A4398
:1037300021F0F7011143C16200207047006800F0DA
:103740000300704708444069704770B50DF1100CD4
:1037500011439CE8700023431943294342683143D5
:1037600047F6FF639A430A434260002070BD03217D
:10377000016000207047D0F8800070470A688260BE
:10378000D1E901231A43D1E903310B43C1681A433C
:103790006FF30B011143C1600020704710B585B075
:1037A00004463720CDE9001040200290002003900D
:1037B0004FF48060049069462046FFF7DFFF41F236
:1037C00088323721204600F09BF905B010BD00007B
:1037D00010B504460A4885B001432920CDE9001000
:1037E00040200290002003904FF4806004906946CE
:1037F0002046FFF7C3FF204600F03AFA05B010BD9F
:103800000000108010B585B004461020CDE90010EE
:1038100040200290002003904FF48060049069469D
:103820002046FFF7ABFF41F288321021204600F01E
:1038300067F905B010BD10B585B004460620CDE986
:10384000001040200290002003904FF4806004900C
:1038500069462046FFF792FF41F288320621204652
:1038600000F04EF905B010BD30B585B00024054616
:10387000009401944FF480600294CDE903406946BE
:103880002846FFF77BFF0B484FF4FA510068B0FB66
:10389000F1F041F288314843401E03D24FF000401E
:1038A00005B030BD696B0906F6D5C520A863204672
:1038B000F6E700007800002010B585B004464FF40C
:1038C000D5700090082001904020029000200390C5
:1038D0004FF48060049069462046FFF74FFF204672
:1038E00000F02CFA05B010BD10B585B004461220CA
:1038F000CDE9001040200290002003904FF480603A
:10390000049069462046FFF739FF41F288321221C0
:10391000204600F0F5F805B010BD10B585B004469E
:103920001120CDE9001040200290002003904FF4B8
:103930008060049069462046FFF720FF41F28832FC
:103940001121204600F0DCF805B010BD10B585B09F
:1039500004460720CDE9002040200290002003907B
:103960004FF48060049069462046FFF707FF41F25C
:1039700088320721204600F0C3F805B010BD10B50D
:1039800085B0044600210220CDE90010C020CDE919
:1039900002014FF48060049069462046FFF7EEFE76
:1039A000204600F03DF905B010BD10B585B00446C5
:1039B0000920CDE90010C0200290002003904FF4B0
:1039C0008060049069462046FFF7D8FE204600F04C
:1039D00027F905B010BD10B585B00446002133208D
:1039E000CDE900104020CDE90201000104906946B4
:1039F0002046FFF7C3FE41F288323321204600F013
:103A00007FF805B010BD10B585B004460D20CDE996
:103A1000001040200290002003904FF4806004903A
:103A200069462046FFF7AAFE41F288320D21204662
:103A300000F066F805B010BD30B585B00C460546FF
:103A400000210320CDE900104020CDE90201000152
:103A5000049069462846FFF791FE22460321284636
:103A600000F028F905B030BD10B585B0044600213E
:103A70000C20CDE900104020CDE9020100010490A6
:103A800069462046FFF77AFE034A0C21204600F0E3
:103A900037F805B010BD000000E1F50510B585B0A0
:103AA00004461920CDE90010402002900020039028
:103AB0004FF48060049069462046FFF75FFE41F2B4
:103AC00088321921204600F01BF805B010BD10B552
:103AD00085B004461820CDE9001040200290002057
:103AE00003904FF48060049069462046FFF746FE3D
:103AF00041F288321821204600F002F805B010BDCE
:103B0000454B10B51B684FF4FA54B3FBF4F3534321
:103B10005B1E02D24FF0004010BD426B12F0450F09
:103B2000F6D01205F4D4426B520703D50421816309
:103B3000084610BD426BD20702D00121816305E027
:103B4000C52282630269D2B28A4201D0012010BD2F
:103B50000021FFF7F7FD3149084201D1002010BDD7
:103B6000002802DA4FF0007010BD410001D540205E
:103B700010BD810001D5802010BDC10002D54FF4D9
:103B8000807010BD010102D54FF4007010BD4101DD
:103B900002D54FF4806010BDC10102D54FF4006022
:103BA00010BD010202D54FF4805010BD410202D574
:103BB0004FF4005010BD810202D54FF4804010BD7B
:103BC000C10202D54FF4004010BD410302D54FF4AD
:103BD000003010BD810302D54FF4802010BDC10319
:103BE00002D54FF4002010BD010402D54FF480101F
:103BF00010BD410402D54FF4001010BD810402D560
:103C00004FF4800010BD000702D54FF4000010BD36
:103C10004FF4803010BD00007800002008E0FFFD68
:103C200012494FF4FA520968B1FBF2F141F28832BD
:103C30005143491E02D24FF000407047426B12F0D0
:103C4000450FF6D01205F4D4416B490703D5042182
:103C5000816308467047416BC90703D00121816326
:103C600008467047C5218163002070477800002016
:103C70000F494FF4FA520968B1FBF2F141F2883270
:103C80005143491E02D24FF000407047426B12F080
:103C9000450FF6D01205F4D4416B490703D5042132
:103CA000816308467047C52181630020704700008A
:103CB0007800002030B5204B4FF4FA541B68B3FB5A
:103CC000F4F341F2883463435B1E02D24FF00040AC
:103CD00030BD446B14F0450FF6D02405F4D4436B8B
:103CE0005B0703D504218163084630BD436BDB07C6
:103CF00002D00121816303E00369DBB28B4201D072
:103D0000012030BDC52181630021FFF71BFD10F4A8
:103D1000604F04D0410406D54FF4005030BD000C74
:103D20001080002030BD000402D54FF4805030BD1B
:103D30004FF4803030BD00007800002014494FF46B
:103D4000FA520968B1FBF2F141F288325143491E3F
:103D500002D24FF000407047426B12F0450FF6D090
:103D60001205F4D4416B490703D504218163084649
:103D70007047416BC90703D0012181630846704732
:103D8000416B490601D54021816300207047000046
:103D90007800002010B5064C01202070FCF796FE3C
:103DA00018B9207820F001002070207810BD0000A4
:103DB0005C00002070B5054604F0FBFF044603E0FC
:103DC000FCF784FE002806D004F0F3FF001BA84295
:103DD000F6D34FF0FF3070BD10B5846BFDF761F97D
:103DE000022828D0206C416DE06B406D012901D084
:103DF00001281DD12168104888632068C16B21F417
:103E00009D71C163A06B40F08040A0632046FEF727
:103E100071F8062801D0052805D12068FFF724FE97
:103E2000A16B0843A063012084F8340000202063C4
:103E30002046FDF77FFF10BDFF05400010B5846BE5
:103E4000206B822809D12068FFF70EFE28B1A16BF4
:103E50000143A1632046FDF76DFF2068C16A21F090
:103E60000801C162216840F23A508863012084F859
:103E70003400002020632046FEF786F910BD806BD9
:103E80000068C16B41F48071C16370472DE9F04750
:103E900088B00D460446FDF77DFB0026824600965D
:103EA0000196374608212068FFF7ACFC00282CD18A
:103EB000B4F8500001042068FFF770FC002824D1FA
:103EC000401E4FF00808CDE9020830204FF00209EB
:103ED000CDE904090120CDE9067002A92068FFF7A9
:103EE0001BFC2068FFF777FD00280ED16F46206885
:103EF000416B11F02A0F0BD0416B090702D4416BC3
:103F000089051AD5C0F83880082008B0BDE8F087C8
:103F1000416B890205D5FFF72EFC47F82600761C79
:103F200002E0416B8904E7D5FDF734FBA0EB0A0002
:103F3000401CDCD14FF00040E7E7416B890703D517
:103F4000C0F838900220E0E7416B890603D52021B4
:103F500081630846D9E740F23A518163019800BA7B
:103F60002860009800BA68600020CEE710B590B0D5
:103F700004460120ADF838002068FFF7DFFB002879
:103F800054D0606C032842D02068FFF7F8FC00286A
:103F90004AD100212068FFF7D5FB60670421206823
:103FA000FFF7D0FBA06708212068FFF7CBFBE06795
:103FB0000C212068FFF7C6FBC4F88000606C032862
:103FC00025D00EA92068FFF737FD00282CD1606CA2
:103FD00003281CD0BDF83800206501042068FFF7D5
:103FE000E4FC002820D100212068FFF7ABFB6066CD
:103FF00004212068FFF7A6FBA06608212068FFF7D0
:10400000A1FBE0660C212068FFF79CFB20670421E0
:104010002068FFF797FB000DE06403A92046FDF739
:104020008BFE30B14FF0805010B010BD4FF080606B
:10403000FAE7B4F85000002302042068FFF786FC7A
:104040000028F1D104F1100007C88DE8070094E8BA
:104050000F00FFF77AFB0020E6E700002DE9F84F9C
:104060000026044600963546B0460068FFF7FCFB84
:10407000002827D12068FFF71FFC4FF0805B4FF02E
:1040800001094FF6FF7748B1A6642068FFF7ECFB03
:10409000002817D1A06C012802D020E0C4F8489075
:1040A00000212068FFF77AFB58B918E0002120684A
:1040B000FFF774FB002805D151462068FFF788FB05
:1040C00010B15846BDE8F88F00212068FFF73AFB91
:1040D00005464FEAD0780098401C009002E0DFF8D7
:1040E0002CA00098B84202D2B8F1000FDED00098A0
:1040F000B84202D34FF08070E4E7680002D5C4F8FC
:10410000449000E066640020DCE70000000010C17D
:104110007FB5124C05460120207004F03CFEC8B16A
:10412000FCF7E0FC18B92846FFF734FE2070207831
:1041300001280FD0606868B9094B0FCB8DE80F00DC
:104140000021684604F041FE606018B9207840F014
:1041500001002070207804B070BD00005C000020D9
:10416000D4D7000810B5124888B014460078C007AC
:1041700002D0032008B010BDC1B1012905D0022929
:1041800008D003290CD00420F4E76846FCF798FC1B
:1041900006980AE06846FCF793FC0798208005E043
:1041A0006846FCF78DFC0798400A20600020E1E794
:1041B0005C0000202DE9FE4347F230541E461746AE
:1041C000884601252046FFF7F5FD00281EDB324614
:1041D00039464046FCF7A6FCC0B90F482246416864
:1041E000684604F005FEDDE9001010290ED1012813
:1041F0000CD104F0DEFD064603E000BFFCF766FCD0
:1042000038B104F0D6FD801BA042F7D32846BDE8A4
:10421000FE830025FAE700005C000020FFF7BABD2E
:104220002DE9FE4347F230541D46174688460126C5
:104230002046FFF7BFFD00281EDB2A4639464046D0
:10424000FCF786FCC0B90F4822464168684604F076
:10425000CFFDDDE9001010290ED102280CD104F0A9
:10426000A8FD054603E000BFFCF730FC38B104F0C0
:10427000A0FD401BA042F7D33046BDE8FE830026D8
:10428000FAE700005C0000202DED028B9AB004F0EC
:1042900053F94FF6FF7001F039FC0021FE48FEF79C
:1042A00039FBDFF8F4934FF47A71D9F800004163D9
:1042B0004FF018081F20F9A2CDF80080CDE90120A9
:1042C0004346C8220F21142004F0B2FC1021F6A0AE
:1042D000CDE900104FF0000B0B46C822CDF808B016
:1042E0004FF48971142004F0A3FC4FF0FF3A9FEDC6
:1042F000F48ADFEDF48AF44C564652466846216B48
:1043000004F076FDDDE900753146606B04F018FEBF
:10431000102F26D1287A01282CD04FF6FF75402384
:10432000DC2228211420009504F0E2F86823DC2226
:1043300050211420009504F0DBF8E4A1CDF80080B2
:10434000CDE9011B5D461823DC222821142004F04E
:104350006FFC00223901E148FDF717F9D9F8000098
:104360004563606B04F0C4FDFEF776FEC82004F0E0
:104370000BFDC1E7FEF764FE060053D0FEF766FEB4
:104380000546A078864202D1E08885423ED04FF6AD
:10439000FF700090E023DC222821142004F0A8F80C
:1043A0001422CF4913A8FBF79EFF13A8CDA150F804
:1043B00026200BA800F0F8FE1F200BAFCDF80080E0
:1043C000CDE901701823C8222821142004F030FC04
:1043D000FEF73CFE0246C5A10BA800F0E5FE1F213A
:1043E000CDF80080CDE901711823C8225021142096
:1043F00004F01EFC1021C0A28DE806080B46C8225E
:10440000FA21142004F014FCA670E58000224FF479
:104410008071B248FDF7B9F8D9F800004FF47A710D
:1044200041639EE7FCF7AEFA0B90D5ED000A94EDE0
:10443000060AF4EE400AF1EE10FA0BD1D5ED010AAE
:1044400094ED070AF4EE400AF1EE10FA02D1E17899
:10445000884279D04FF6FF7000904FF48573DC22CC
:104460002821142004F044F82868FBF7FFFF41ECF2
:10447000100BA5A153EC102B03A800F095FE03AA86
:10448000CDE900821823CDF808B0C82228211420D5
:1044900004F0CEFB6868FBF7E9FF41EC100B9DA12F
:1044A00053EC102B03A800F07FFE03A8CDE9008099
:1044B0001823C8225021CDF808B0142004F0B8FB0E
:1044C000A068FBF7D3FF06460F46E068FBF7CEFF78
:1044D00041EC100B93A153EC102B03A8CDE900671E
:1044E00000F062FE03A9CDE900811823C822CDF8AF
:1044F00008B07821142004F09BFB2069FBF7B6FF7D
:1045000006460F466069FBF7B1FF41EC100B89A12D
:1045100053EC102B03A8CDE9006700F045FE03AA79
:10452000CDE900821823CDF808B0C822A0211420BC
:1045300004F07EFB95ED000A84ED060A95ED010A74
:1045400084ED070A0B98E07004F1080095EC020A6C
:1045500090EC041AFCF75EFAFCF714FA00287CD001
:10456000012211025D48FDF710F8D5ED000AD4EDE7
:10457000021AB0EE681AF4EEE10AB0EE410AF1EE6A
:1045800010FA02DD70EEE10A08E0D4ED031AF4EE51
:10459000E10AF1EE10FA0BD271EEE00A61EE881A30
:1045A00080EEA10AB5EEC00AF1EE10FA05D307E0DD
:1045B000B5EEC00AF1EE10FA09D2B0EE410A06E0FB
:1045C00010EE100AB0F17E5F01DDB7EE000ADFEDFC
:1045D0005D0A617820EE200ABCEEC00A10EE100AD7
:1045E0000A300029A18880B20AD0084480B24FF472
:1045F0007A71A08088420CD3A18084F801B008E0D1
:10460000814202D9081AA08003E0A4F804B0012076
:104610006070A088C0F57A71D9F8000041634FF648
:10462000FF700090E023DC22C821142003F060FF1B
:10463000FCF7A2F92A4905461822143113A8FBF702
:1046400052FE13A840A150F825200BA800F0ACFDA5
:104650004FF478410BAA95E0FFE700224FF48071F8
:104660001E48FCF792FFD9F800104FF47A704863A7
:104670004FF6FF700090E023F022C821142003F0D1
:1046800037FFFCF773F9012873D003286DD031A2EE
:104690001823CDF808B069E058050020454E562093
:1046A0004D4F4E49544F52005041303D53455420D8
:1046B0005045323D414444205045343D535542001D
:1046C0009A99993E000000002000002053656E7307
:1046D0006F72204572726F72210000000014024058
:1046E00094D700085345543A2025730056616C75E1
:1046F000653A2025640000004C6F6E672050413001
:104700003D43616E63656C0054656D703A252E31D2
:104710006620430048756D693A252E3166202525AF
:1047200000000000543A252E31667E252E31662089
:1047300043000000483A252E31667E252E31662042
:10474000252500000000B442414C41524D3A5B2502
:10475000735D000054656D702048756D69204E6F63
:10476000726D616C0000000003E011E0CDE9008291
:104770001DE0FCF7CBF8024610A103A800F014FDE1
:104780001F2103AACDF80080CDE9012118230EE0F6
:10479000FCF7C2F802460DA103A800F005FD4FF496
:1047A000FC6203A9CDF80080CDE901121823C822CC
:1047B0001146142004F03CFAD3E500005761726EF4
:1047C000696E673A25642F3500000000436C65610F
:1047D00072696E673A25642F3300000092B04FF47F
:1047E000E13004F0E3FE174F4FF0FF3842466846D1
:1047F000396A04F0FDFADDE900041028F6D1207AC8
:104800000128F3D194EC020A04F020FF6068FBF762
:104810002DFE05460E462068FBF728FE41EC100BE6
:10482000CDE9005653EC102B07A102A800F0BCFC08
:1048300002A8FBF77CFD82B2642302A90948FEF7B7
:10484000FBFAD3E72000002052533438352053655B
:104850006E643A20543D252E316620483D252E3188
:10486000660D0A00A005002094B09FED370A8DED7B
:10487000020A8DED030AFCF77BF9344FDFF8D0A074
:10488000344C4FF480694FF005084FF4FA6B03A9DC
:1048900002A8FCF795F9217801EB410107EB8105AE
:1048A00008B3002028720A222946206B04F0EAFA95
:1048B0000A222946206A04F0E5FA64230D2226A183
:1048C0002948FEF7B9FA012249465046FCF75DFE39
:1048D0002078401CB0FBF8F208FB1200207058460C
:1048E00004F052FAD3E7012028729DED020A0A2251
:1048F00085ED000A9DED030A294685ED010A206B2E
:1049000004F0C0FA0A222946206A04F0BBFA039890
:10491000FBF7ACFD05460E460298FBF7A7FD41EC00
:10492000100BCDE9005653EC102B10A104A800F099
:104930003BFC04A8FBF7FBFC82B2642304A90A48F1
:10494000FEF77AFA0022BFE700000000AC01002069
:1049500000140240200000205265616420457272FC
:104960006F720D0A00000000A005002054656D70F4
:104970003A20252E3166432C2048756D693A202552
:104980002E316625250D0A0010B5FCF709FE05F04D
:104990004BFD012803D0BDE8104005F0E9B810BD7B
:1049A00030B593B030216846FBF7B6FC14210CA853
:1049B000FBF7B2FC1E480025016841F08051016000
:1049C000006800F0805011901A48016841F480415D
:1049D00001600068022400F48040119001200090E2
:1049E000000401908001CDE90640082008904FF4B2
:1049F000A870CDE9090407200B906846FCF758FF22
:104A000008B172B6FEE70CA90F2081E831004FF41F
:104A1000A0500F904FF48050109005210CA8FCF787
:104A20005DFE002801D072B6FEE713B030BD000075
:104A300040380240007000400248016841F47001B3
:104A40000160704788ED00E00148FDF70BBE0000F3
:104A500010050020F0B50268274B284D284E294F3D
:104A6000294C4FF0804C984209D0604507D0A842AD
:104A700005D0B04203D0B84201D0A04204D122F008
:104A8000700E4A6842EA0E0298421BD0604519D067
:104A9000A84217D0B04215D0B84213D0A04211D0CE
:104AA0001A4DA8420ED01A4DA8420BD0194DA8425B
:104AB00008D0194DA84205D0184DA84202D0184D73
:104AC000A84203D122F44075CA682A434D6922F0F6
:104AD00080022A438D68C5620D688562984201D0C4
:104AE000A04201D109690163016841F0040101603C
:104AF000012141610260F0BD00000140000400405E
:104B000000080040000C004000040140004001404B
:104B1000004401400048014000180040001C0040D3
:104B20000020004010B501F01F030121046A9940E4
:104B30008C430462016A9A401143016210BD10B5B2
:104B4000846842EA032224F47F440A4322438260B9
:104B500010BD826822F070020A4342F007018160B2
:104B600070470000F0B5036A026A22F00102026297
:104B700042688469124E24F073050C682C4323F0BC
:104B800002058B682B430D4DA84201D0B04205D1E0
:104B900023F00807CB683B4323F00403A84201D06D
:104BA000B04205D14D6922F4407215438A692A4307
:104BB00042608461496841630362F0BD00000140C6
:104BC00000040140F0B5026A036A23F01003036297
:104BD000436884690D6824F4E64444EA05248D683A
:104BE00022F0200242EA05120F4D104EA84201D0D9
:104BF000B04206D1CF6822F0800242EA071222F0CA
:104C00004002A84201D0B04207D14D6923F440636D
:104C100043EA85038D6943EA8503436084614968FB
:104C200081630262F0BD0000000001400004014009
:104C3000F0B5026A036A23F4807303624368C469AF
:104C400022F4007224F073050C68124E2C438D6818
:104C500042EA05220E4DA84201D0B04206D1CF68EB
:104C600022F4006242EA072222F48062A84201D0C4
:104C7000B04207D14D6923F4405343EA05138D69CF
:104C800043EA05134360C4614968C1630262F0BD31
:104C9000000001400004014030B5046A026A22F4B9
:104CA000805202624268C3690D6823F4E64343EA16
:104CB00005238D6824F4005444EA0534084DA842C5
:104CC00002D0084DA84204D14D6922F4804242EA44
:104CD00085124260C36149680164046230BD00000E
:104CE000000001400004014010B5036A046A24F08A
:104CF00001040462846924F0F00444EA021423F0FD
:104D00000A020A438461026210BD10B5036A046A94
:104D100024F010040462846923F0A00324F4704496
:104D200044EA023243EA01118261016210BD10B50A
:104D3000806B0021C185FDF754FE10BD70B5846BFA
:104D40002068406994F84110C0F3C0100025212963
:104D500004D118B1E584204600F08EF8206840693F
:104D600094F84210C0F38010222904D118B1E585CF
:104D7000204600F05AF8606C40F010006064204655
:104D8000FDF72FFE70BD10B50146806B09680968FC
:104D90004FF00002C9052ED4C28501680C3151E8DC
:104DA000003F23F4807341E80034002CF5D1016802
:104DB000143151E8003F23F0010341E80034002C96
:104DC000F5D10168143151E8003F23F0400341E878
:104DD0000034002CF5D1202180F84210016B01290C
:104DE00009D101680C3151E8003F23F0100341E87C
:104DF0000034002CF5D14263016B012902D0FEF78B
:104E000019F810BD818DFDF7EBFD10BD10B5806B5D
:104E100001214163016B012902D0FEF70CF810BD9E
:104E2000818D4908FDF7DCFD10BD01680C3151E8AA
:104E3000002F22F4907241E80023002BF5D1016885
:104E4000143151E8002F22F0010241E80023002B29
:104E5000F5D1016B012909D101680C3151E8002F0E
:104E600022F0100241E80023002BF5D1202180F828
:104E7000421000210163704701680C3151E8002F96
:104E800022F0C00241E80023002BF5D1202180F858
:104E90004110704708B590F84210222901D0022035
:104EA00008BD82684FF480539A4201D1016921B153
:104EB000816A9A421BD04AB10AE00268816A52684C
:104EC000C2F308020A80816A891C08E0026972B193
:104ED0000268526802F07F020A70816A491C81628E
:104EE000C18D491E0904090CC18503D01BE002686D
:104EF0005268F1E70168CA6822F02002CA600168BE
:104F0000CA6822F48072CA6001684A6922F001020C
:104F10004A61202180F8421000214163026B012A7E
:104F200003D0FDF787FF002008BD016301680C3145
:104F300051E8002F22F0100241E80023002BF5D1A8
:104F400001680A68D20602D50A6849680091818D15
:104F5000FDF746FDE7E7000070B50446006801690B
:104F6000E26821F44051114301612169A068E269BE
:104F700008436169114308432168CA6849F20C6318
:104F80009A430243CA6020684169A26921F44071D2
:104F90001143416131492068884202D0304988423A
:104FA00002D1FCF745FC01E0FCF732FCE26900238A
:104FB000192164253226B2F5004F626828D0A0FB83
:104FC0000101930F9200FBF75DF90146B0FBF5F08C
:104FD0006FF01802504301EB800006EB0010B0FBAD
:104FE000F5F000F0F002B1FBF5F002EB0012B1FBBE
:104FF000F5F06FF01803584301EB800006EB00104A
:10500000B0FBF5F000F00F0021681044886070BD1F
:10501000A0FB010192185B41FBF734F90146B0FB9C
:10502000F5F00201B1FBF5F06FF01803584301EB06
:10503000800006EBC000B0FBF5F000F0F80002EBDA
:105040004002B1FBF5F0584301EB800006EBC000D5
:10505000B0FBF5F000F00700D6E7000000100140BB
:105060000014014038B58162044682850020134651
:105070006064222284F84220E56B1F4AEA63E56BF4
:105080001E4A2A64E56B1E4AEA64E26B10650A4612
:105090002168E06B091DFCF741F930B11020606414
:1050A000202084F84200012038BD20680168406853
:1050B0000090206948B120680C3050E8001F41F48E
:1050C000807140E80012002AF5D12068143050E8C1
:1050D000001F41F0010140E80012002AF5D12068CC
:1050E000143050E8001F41F0400140E80012002A4F
:1050F000F5D1002038BD0000874D00080D4E000896
:105100003D4D00082DE9F843984617460D460446E4
:10511000089E24E0701C22D0FCF73CFAA0EB0800AB
:10512000B0421AD8CEB12068C168490717D5802D82
:1051300015D0402D13D00168C94309070FD4016869
:105140000025406800902046FFF76FFE082060644D
:1051500084F840500120BDE8F8830320FBE7206875
:10516000006835EA000004D00020B842D2D0002008
:10517000F1E70120F9E700000148FDF733BC00002A
:10518000E8050020FEE700000FB4054B10B503A9A9
:10519000044A029800F0FEF810BC5DF814FB000011
:1051A000E95A0008E80000200FB4084B10B504A924
:1051B00002AA039800F0EEF8044602A9002000F0CD
:1051C0006CFC204610BC5DF814FB00009B5A0008E4
:1051D0000907090E002804DB00F1E02080F8001424
:1051E000704700F00F0000F1E02080F8141D7047B8
:1051F00002E008C8121F08C1002AFAD170477047A0
:10520000002001E001C1121F002AFBD170470000FD
:105210002DE9FF5F82B00021DDE90430020DDDF8E9
:1052200040B0034318D044F61050A2F2FF3242437C
:105230001514119801281FD0A5EB0B00401C5FEA44
:10524000000A4FF000064E4FDFF83891B046504646
:1052500015D5CAF1000413E0119801244AA30128CE
:1052600001D16FEA0B010298119AC0E90031C0E93F
:10527000024206B0BDE8F09FCBF10000DFE7044634
:105280000021404A491842EB0450CDE9001012E0D9
:10529000E00707D032463B4640464946FBF74EF80A
:1052A0008046894632463B4610461946FBF746F88B
:1052B00006460F466410002CEAD1DDE90401DDE961
:1052C0000023BAF1000F06DAFBF738F842464B46E6
:1052D000FBF734F805E0FBF715FA42464B46FBF7BF
:1052E00011FA04460E460022284BFBF793FA03D826
:1052F0004FF0FF30014607E00022254B20463146A3
:10530000FBF759F9FBF76DFA102409E0002C0ADBD2
:105310000A220023FAF7B6FF039B30321A55641EA7
:1053200050EA0102F2D1641C039AC4F1110314443F
:10533000119A012A03D0012208430DD10AE0084343
:1053400004D000204FF0110B119072E7A3EB0B0576
:105350006D1E0DE05B4504DD4FF0000205F1010517
:1053600004E003DA4FF00002A5F10105002AECD0B9
:1053700002981199C0E90231C0E9004579E70000BF
:10538000000014400000F03F300000000000F04337
:105390000000E03F2DE9FF4F95B09A46884606464B
:1053A0000025EEE1252877D100242746F94A01217E
:1053B000039400E0044316F8013F203B01FA03F098
:1053C0001042F7D130782A2811D06FF02F033078AF
:1053D000A0F13002092A16D8039A44F0020402EB25
:1053E000820203EB42021044761C0390EFE758F868
:1053F000042B0392002A03DA504244F40054039031
:1054000044F00204761C30782E2816D116F8010FCD
:1054100044F004042A280DD06FF02F023078A0F158
:105420003003092B09D807EB870302EB4303C718A6
:10543000761CF3E758F8047B761C30786C280FD084
:1054400006DC4C2817D068280DD06A2814D104E057
:10545000742810D07A280FD10DE044F400140AE02B
:1054600044F4801401E044F440147278824202D182
:1054700004F58014761C761C307866280BD013DC7B
:10548000582877D009DC002875D04528F6D0462862
:10549000F4D047281AD193E118E0632835D0642866
:1054A00079D0652812D18BE1702873D008DC672889
:1054B000F1D069286FD06E280DD06F2806D1ACE0EE
:1054C00073282CD0752874D0782853D05246179959
:1054D00090476D1C54E1C4F30250022809D0032800
:1054E0000DD0D8F8001004280DD00D6008F1040884
:1054F00046E1D8F80010EA17C1E90052F6E7D8F8FB
:1055000000100D80F2E70D70F0E718F8041B8DF81D
:10551000001000208DF80100EB46012003E058F850
:1055200004BB4FF0FF3061074FF0000102D40DE0E3
:1055300009F101018946B9420FDA8145F8DB1BF810
:1055400009100029F4D108E009F1010189468142DE
:10555000FADB1BF809100029F6D103985346A0EB9B
:10556000090721463846179A00F080FA284400EBD4
:10557000090507E044E008E10DE01BF8010B524685
:1055800017999047B9F10109F7D253462146384699
:10559000179AF2E039E00A21C4F302524FF0000BEF
:1055A0000091022A06D058F8040BC117032A09D02B
:1055B0000AE023E008F1070020F00702F2E8020108
:1055C000904605E000B2C117042A01D140B2C117CC
:1055D000002906DA0A460021404261EB02012D2231
:1055E00002E0220504D52B228DF80420012203E0DD
:1055F000E20701D02022F7E7914657E00A2100E0B8
:1056000010214FF0000B00910BE010214FF0000B28
:1056100044F004040827009103E008204FF0000B39
:105620000090C4F30252022A05D058F8040B00215E
:10563000032A08D008E008F1070020F00702F2E88A
:105640000201904603E080B2042A00D1C0B24FF0BC
:10565000000922072AD53278702A07D0DDF800C069
:105660008CF0100C5CEA0B0C05D00EE040228DF89B
:105670000420012208E050EA010306D030238DF80F
:1056800004308DF8052002229146009B83F0080328
:1056900053EA0B030AD150EA010201D1620705D592
:1056A00030228DF804204FF001097F1E3278582AED
:1056B00004D039A20C920CAA02920BE03BA2F9E7AB
:1056C0005B46009AFAF7DEFD0C9B9B5C029A521E29
:1056D0000292137050EA0102F2D1029804A9081A4A
:1056E00000F1200B600702D524F4803400E001278C
:1056F0005F4502DDA7EB0B0000E0002000EB0B0193
:10570000009003984944401A0390E00306D453469E
:105710002146179A039800F0A9F90544002706E0EE
:1057200001A85246C05D179990476D1C7F1C4F45DC
:10573000F6DBE0030CD553462146179A039800F098
:1057400095F9054404E030205246179990476D1CA6
:105750000099481E00900029F5DC08E002980299A3
:1057600052460078491C0291179990476D1CBBF175
:105770000001ABF1010BF1DC5BE100F065F90544E0
:10578000761C307800287FF40DAE19B02846BDE8AD
:10579000F08F0000092801003031323334353637BC
:1057A000383961626364656600000000303132336D
:1057B000343536373839414243444546000000000D
:1057C000600700D4062708F1070020F00700F0E882
:1057D0000223804603F0004C5FEA0C0001D097A042
:1057E00009E0200501D596A005E0E00701D095A0CD
:1057F00001E0AFF24C001390307823F000436528AD
:105800000CD006DC452809D046281DD047287FD17A
:105810003BE0662818D067287AD136E00021112FA6
:1058200001DB112000E0781CCDE9000104A90CA8DF
:10583000FFF7EEFCDDE90D010C9A4FF0000B07F1CC
:105840000109109200914EE04FF000400097CDE921
:10585000011004A90CA8FFF7DBFCDDE90D020C9B8D
:105860000F994FF0000B91461093009211B9791CDB
:1058700000EB0109B7EB090003D4C0F1FF3B07F1CE
:105880000109A9EB0700019042E0012F00DA01278E
:105890000021112F01DD112000E03846CDE9000183
:1058A00004A90CA8FFF7B4FCDDE90D010C9A0091E6
:1058B0004FF0000BB946109221070FD4009A4A45C9
:1058C00003DA914601E0A9F10109B9F1010F05DD03
:1058D000109AA9F10101515C3029F4D0B84202DAE2
:1058E00010F1040F03DA0121CDE9011010E00028C6
:1058F00003DC8344A9EB000102E0411C494500DDC3
:105900008946A0EB0B00401C01904FF00040029034
:10591000200705D40198484502DB4FF0FF30019085
:1059200000208DF84B0002980DF14B07B0F1004FAD
:1059300025D002200C902B200D90029800280CDA24
:10594000404202902D200D9007E00A210298FAF7BC
:10595000A0FD3031029007F8011D0C99481E0C90F3
:105960000029F2DC02980028EFD1791E0D9808700A
:10597000307800F0200040F0450007F8020D11A833
:10598000C01BC01D02901398007800B1012000EBED
:105990000901019801EBE071029801440398401A53
:1059A000401E0390E00306D453462146179A0398FD
:1059B00000F05CF805441398007818B15246179926
:1059C00090476D1CE00323D553462146179A039850
:1059D00000F04CF805441BE0BBF1000F07DB00981A
:1059E000584504DD1098179910F80B0001E017993D
:1059F00030205246904701980BF1010B401E05F1F3
:105A00000105019004D12E205246179990476D1C34
:105A1000B9F10001A9F10109DEDC05E017F8010B7D
:105A20005246179990476D1C0299481E0290002912
:105A3000F4DC53462146179A03989EE62D00000099
:105A40002B000000200000002DE9F0410446002555
:105A50001E461746880404D405E039462020B04786
:105A60006D1C641EF9D52846BDE8F0812DE9F04192
:105A7000044600251E469046C80301D5302700E0A5
:105A80002027880404D505E041463846B0476D1C00
:105A9000641EF9D52846BDE8F0810A68531C0B60E6
:105AA000107070470149086070470000E400002052
:105AB0004FF47A71484300F001B8000010B50400BB
:105AC0000FD00848FCF710FD06480021026851621B
:105AD0000068416AA142FCD3BDE810400148FCF7D0
