:020000040800F2
:10000000C84A00206102000873470008D33E000878
:1000100071470008E1130008856700080000000030
:10002000000000000000000000000000A101000826
:10003000B914000800000000FD010008E95E000896
:100040007B0200087B0200087B0200087B0200089C
:100050007B0200087B020008BB1400087B0200083A
:100060007B0200087B0200087B0200087B0200087C
:100070007B0200087B0200087B0200087B0200086C
:10008000E5130008F11300087B0200087B0200085A
:100090007B0200087B0200087B0200087B0200084C
:1000A0007B0200087B0200087B0200087B0200083C
:1000B000AD5F00087B0200087B0200087B0200089D
:1000C0007B0200087B0200087B0200087B0200081C
:1000D0007B0200086D670008796700087B02000852
:1000E0007B0200087B0200087B0200087B020008FC
:1000F0007B0200087B0200087B0200087B020008EC
:100100007B020008B94700087B0200087B02000858
:100110007B0200087B0200087B0200087B020008CB
:100120007B0200087B0200087B020008FD13000828
:100130007B0200087B0200087B0200087B020008AB
:100140007B0200087B0200087B0200087B0200089B
:100150007B020008091400087B0200087B020008EB
:100160007B0200087B0200087B0200087B0200087B
:100170007B0200087B0200087B02000800000000F0
:100180007B0200087B020008DFF810D000F082FD3F
:100190000048004749BA0008AFF30080C84A002071
:1001A0002C4B19680868B0E8F04F80F30988BFF35A
:1001B0006F8F4FF0000080F311887047000000003F
:1001C00008480068006880F308884FF0000080F35A
:1001D000148862B661B6BFF34F8FBFF36F8F00DF35
:1001E00000BF00BF08ED00E0DFF80C00016841F43B
:1001F00070010160704700BF88ED00E0EFF30980F7
:10020000BFF36F8F134B1A681EF0100F08BF20ED5D
:10021000108A20E9F04F106009B44FF0500080F3CD
:100220001188BFF34F8FBFF36F8F0CF0C1FC4FF0FD
:10023000000080F3118809BC19680868B0E8F04F25
:100240001EF0100F08BFB0EC108A80F30988BFF3CE
:100250006F8F7047C8000020EFF3058070470000E3
:100260000648804706480047FEE7FEE7FEE7FEE750
:10027000FEE7FEE7FEE7FEE7FEE7FEE79D5F00081C
:10028000890100082DE9F05F0546002092469B4653
:1002900088460646814640241BE02846414647469C
:1002A000224600F0E7FA53465A46C01A914110D34D
:1002B00011461846224600F0CEFA2D1A67EB0108C7
:1002C0004F4622460120002100F0C5FA17EB000935
:1002D0004E41201EA4F10104DFDC484631462A4687
:1002E0004346BDE8F09F40EA01039B0703D009E0C5
:1002F00008C9121F08C0042AFAD203E011F8013B12
:1003000000F8013B521EF9D27047D2B201E000F86A
:10031000012B491EFBD270470022F6E710B51346A9
:100320000A4604461946FFF7F0FF204610BD421C5E
:1003300010F8011B0029FBD1801A70470FB400B5DB
:100340008DB010A909900B9000914FF0FF300A90EA
:1003500000200C9005480690054807906A4609A8B9
:100360000F9900F09DFA0DB05DF814FBBD08000870
:10037000DB0800082DE9FF4F087883B09946FF2875
:1003800005D0491C2D2804D00024002008E00020BE
:100390000BE00124F9E700EB800003EB4000491C6F
:1003A0000B78FF2BF7D104B140420023029314785D
:1003B00019461D462D2C01D02B2C04D1521C2D2C5E
:1003C00013D000240294AA461478FF2C0FD00A25DB
:1003D000A3FB057801FB05814FF0000C03FB0C111A
:1003E000521CE3194AEB0101EEE70124EAE78144DC
:1003F00053EA010002D019F5C87F06DA03980021FC
:10040000C0E9001107B0BDE8F08F0025AE4E2F46C1
:10041000DFF8B882184600F0E4FBCDE90001B9F13D
:10042000000002DAC9F1000400E004460023A74AF4
:100430001AEB030B42EB045A12E0E00707D02A46FE
:1004400033463846414600F045F9074688462A4675
:1004500033461046194600F03DF905460E46641035
:10046000002CEAD1DDE90001B9F1000F5A465346EC
:1004700006DA00F047FB3A46434600F043FB05E04E
:1004800000F028F93A46434600F024F9029A0AB1EE
:1004900081F00041039AC2E90001B3E72DE9FF4F63
:1004A0001F468DB0D7E901464FF0FF382E20454654
:1004B0004FF000090B90B9696D1C0E988847396A96
:1004C000824688470028F6D1BAF1FF3F0AD024F4CB
:1004D000D064002E11DDBAF12B0F08D0BAF12D0F28
:1004E0000BD102E0404611B08DE744F48064B96955
:1004F0006D1C0E9888478246761E6946600501D5B8
:100500002D2000E02B208DF8000001F1010B0DF1F2
:10051000200809E0B9696D1C0E98884782460F983B
:1005200044F40074761E0560002E02DDBAF1300F2F
:10053000F0D00B998A453ED144F0800406E00F9933
:10054000681CA9F1010944F400740860B9696D1CC4
:10055000761E0E98884782463028F0D02BE00B9903
:100560008A4505D1200603D444F08004761E18E0A5
:10057000504606F00FFA08B30DF11301761E44F44D
:1005800000748B4508D2AAF130000BF8010B20064D
:1005900007D5A9F1010003E0200602D409F101000A
:1005A0008146A00502D50F99681C0860B9696D1CC9
:1005B0000E9888478246002ED1DC53E0002E51DD94
:1005C000BAF1650F02D0BAF1450F4BD1A00549D55C
:1005D000B9696D1C24F44074761E0E9888478246D3
:1005E000002E0CDD2B2804D0BAF12D0F07D144F4D6
:1005F0008074B9696D1C0E9888478246761EE005A6
:1006000001D52D2100E02B2108F8011BCDF82C800D
:1006100021E00DF12901761E44F4007488450CD2C6
:10062000AAF1300010F0FF0088F8000002D10B9909
:10063000884509D908F1010806E0E00501D52448FC
:1006400001E042F20F708146B9696D1C0E9888472F
:1006500082460F980560002E04DD504606F09AF998
:100660000028D6D1F9690E988847FF208BF8000042
:1006700088F800000020069007904B466A4608A9BB
:1006800006A8FFF777FEA00502D46FF001002AE765
:1006900014F0240F0AD0E00714D1DDE906123868FF
:1006A000031D3B600068C0E900120BE0DDE90601B4
:1006B00000F0D4FA0146E00704D13868021D3A6020
:1006C0000068016028460EE7000014400000F03F7B
:1006D000F1D8FFFF2DE9FE4F81EA030404F0004446
:1006E00021F0004100944FF0000B23F0004350EA4A
:1006F00001045ED052EA03045BD0C3F30A54C1F391
:100700000A552C44A4F2F3340194A0FB0254C1F323
:10071000130141F48011C3F3130343F4801301FB6D
:10072000024400FB034E840A970A44EA815447EAD4
:100730008357A4FB076802958D0A05FB07854FEADE
:10074000932C04FB0C542705029D4FEA065847EAF8
:100750001637B5EB08056EEB070C870E920E47EACD
:10076000811742EA8312A7FB0201B6EB0B0164EB8F
:1007700000042B0D43EA0C335E1844EB1C50DA46A0
:100780005146E7FB0201C5F313044FEA0B3343EA7A
:1007900014534FEA0432019C43EA0603A4F10C040B
:1007A0000294009CCDE900B400F0B7F803B0BDE8B6
:1007B000F08F00200146F9E70EB540F23341029177
:1007C0000021CDE900110A460B4600F0A6F803B05F
:1007D00000BDC1F30A5210B5C1F3130140F2FF335B
:1007E00041F480119A4201DA002010BD40F23343F7
:1007F0009A42A2F2334203DC524200F03BF810BDB1
:10080000904010BD00F0004230F000400AD0C10D11
:1008100001F56071C0F3160042EA0151C2084007B9
:100820001143704700200146704730B50B46014622
:1008300000202022012409E021FA02F59D4205D37F
:1008400003FA02F5491B04FA02F52844151EA2F129
:100850000102F1DC30BD202A04DB203A00FA02F16B
:10086000002070479140C2F1200320FA03F319439E
:1008700090407047202A04DB203A21FA02F0002140
:10088000704721FA02F3D040C2F1200291400843A0
:100890001946704702681144137801601846704782
:1008A000D16004495161044911620021116111466E
:1008B00000F01ABA95080008DD0C0008426842B141
:1008C000016811F8013B23B1521EC0E9001218461D
:1008D00070470121C160881E704742685AB1C368E1
:1008E000016843B983688B4205D0491E521CC0E998
:1008F0000012002070474FF0FF30704710B5141EF3
:1009000073F1000408DA401C41F1000192185B41C8
:100910001A4301D120F0010010BD2DE9F04D92469F
:100920009B4611B1B1FA81F202E0B0FA80F22032B6
:100930009046FFF790FF04460F4640EA0A0041EA5E
:100940000B0153465A46084313D0114653EA01009F
:1009500019D0C8F140025046FFF78CFF05460E46FD
:10096000504659464246FFF776FF084305D001201E
:1009700004E020463946BDE8F08D0020054346EAF4
:10098000E0762C4337430A986305E40AA0EB08009D
:100990000022FD0A44EA47540A3002D500200146ED
:1009A000E9E7010510196941DDE9084500196941C8
:1009B000BDE8F04DA2E72DE9FE4F804681EA030035
:1009C000C00F0C46009021F0004123F00045B8EB29
:1009D0000200A94105D24046214690461C460B46DE
:1009E000024623F00040104347D0270DC7F30A000A
:1009F000C3F30A510290401A019040286BDAC3F306
:100A0000130040F4801B0098924620B10023D2EBE3
:100A1000030A63EB0B0B01985946C0F140025046A4
:100A2000FFF719FF06460D4650465946019A00F059
:100A300043F910EB08006141002487EA115284EA6F
:100A4000E7731A4340D0009A62B3019A012A4FEA31
:100A5000075215DC001B61EB02014FF0004202EA75
:100A60000752CDE90042001C41F5801132462B4669
:100A7000FFF753FF03B0BDE8F08F40462146F9E78A
:100A8000001B61EB0201001C41F5801300185B4163
:100A90002018A2F5001747EB030140EAD570B619FC
:100AA0006D4111E06D084FEA360645EAC0754FEA20
:100AB0000752001B61EB0201001C41F5801149083F
:100AC0004FEA30000019514132462B4603B0BDE8D1
:100AD000F04FFFF713BF0098012240000023D0EB36
:100AE000020263EBE073009821464FEAE074B8EB32
:100AF000000061EB0401E9E783F000435BE781F06C
:100B0000004158E72DE9F04D81EA030404F0004B61
:100B100021F0004514464FF0000A23F0004150EA4E
:100B2000050220D054EA01021DD0C5F30A5702463F
:100B3000C5F31303C1F31300C1F30A5640F4801543
:100B400043F48013A7EB0608101BD64608F2FD38C5
:100B500073EB050002D308F1010801E092185B4134
:100B6000B8F1000F03DA00200146BDE8F08D002047
:100B70004FF48011064684460EE0171B73EB050701
:100B800005D3121B63EB050306434CEA010C49082D
:100B90004FEA300092185B4150EA0107EDD152EA6A
:100BA000030012D082EA040083EA0501084305D05D
:100BB000101BAB4106D20122002306E000224FF0B9
:100BC000004302E06FF0010253101AEB06004CEBF9
:100BD000085110EB0A0041EB0B01BDE8F04DFFF7A7
:100BE0008DBE0EB540F2334202920022CDE90022C2
:100BF0001346FFF792FE03B000BDC1F30A52C1F3E2
:100C0000130140F2FF3341F480119A4202DA0020CE
:100C10000146704740F233439A42A2F2334202DC6B
:100C20005242FFF727BEFFF716BE000030B5041E84
:100C300071F1000404DB4FF00044404264EB010119
:100C4000141E73F1000405DB1C464FF000435242B2
:100C500063EB0403994208BF904230BD01F00043AA
:100C600030B421F0004150EA010206D00A0DA2F58D
:100C70006072C1F31301002A02DC30BC002070470F
:100C8000440F44EAC104C100E01830BC00EBC2507C
:100C900000F0C2B9064C074D06E0E06840F00103E1
:100CA00094E8070098471034AC42F6D3FFF770FA87
:100CB000640F0108840F0108202A06DBCB17203AB5
:100CC00041FA02F043EAE07306E041FA02F3D04051
:100CD000C2F120029140084319467047C0B24FF458
:100CE000F05100F0D1B900002DE9F34F8BB04FF077
:100CF000000801F10C000C464FF0010B46460DF1C7
:100D0000080A01906269012101989047051E2DD0C3
:100D1000252D2CD0216A8847C0B162690121019834
:100D20009047216A88470028F7D1411E62690198DF
:100D3000904700E0761CA1690B988847216A884794
:100D40000028F7D1E1690B988847DBE7A1690B9888
:100D500088470746A84201D1761CD3E7E1690B9882
:100D600088477F1C02D1B8F1000F6FD047E1002700
:100D700062693D463946019890472A2804D1626944
:100D80000121019890470125DFF8889262690121CD
:100D900001989047A0F130010A290AD24F45E5DCBD
:100DA00007EB870100EB4107303FDFD445F010052A
:100DB000ECE7E90601D46FF000476C280AD04C2814
:100DC00014D0682815D06A280DD074281CD07A2831
:100DD0001AD01DE062690121019890476C2802D069
:100DE00045F0040514E045F002050DE045F020054E
:100DF0000AE06269012101989047682802D045F015
:100E0000080505E045F400656269012101989047F5
:100E1000C4E9015765283DD019DC58287AD00CDC8C
:100E2000452837D004DC252826D0412831D131E0AF
:100E300046282FD047282CD12CE05B2877D061287A
:100E400028D063287CD0642823D15AE0D1E06F28D1
:100E500048D008DC66281DD067281BD0692821D01F
:100E60006E2816D127E0702845D0732868D07528E1
:100E700047D078280DD14DE0A1690B9888470546E9
:100E800025283FF469AFE1690B9888476D1C3FF452
:100E90006AAFB4E023466A466FF001000B99FFF792
:100EA000FDFA9FE045F040006060A80723464FF040
:100EB000000236D43EE0E8077FF447AF2068011D0A
:100EC00021600068290501D506701BE7290701D5B7
:100ED000068017E7A90703D5F117C0E9006111E7FC
:100EE00006600FE745F040006060A80723464FF01A
:100EF000080216D41EE040F60E0125EA01006060EB
:100F000016E045F040006060A80723464FF00A0253
:100F100007D40FE045F040006060A80708D52346DD
:100F200010226FF001000B99AFF300805AE007E048
:100F3000234610226FF001000B99AFF3008051E0BF
:100F40004FF000094F464B46632802D05B2807D07C
:100F500041E02079C00601D40120A06001273AE0D9
:100F600062690121019890475E2805D14FF001097F
:100F70006269494601989047216939B900210A46BA
:100F8000534643F82120491C0829FADBB0B32169F4
:100F900069B9C11700EBD16253110AEB830122F04A
:100FA0001F02821A01200B68904003430B606269A4
:100FB0000121019890475D28E8D1B9F1000F09D0CF
:100FC0000020514651F82020D24341F82020401CF7
:100FD0000828F7DB02AB224600976FF001000B995F
:100FE000AFF3008000280CDA401C08D1BBF1000FE1
:100FF00005D04FF0FF300DB0BDE8F08FFFE7404661
:10100000F9E7E90701D108F1010806444FF0000BA8
:1010100078E60000CCCCCC0C0029A8BF7047401C5F
:10102000490008BF20F00100704710B4B0FA80FCFE
:1010300000FA0CF050EA010404BF10BC704749B13B
:10104000CCF1200421FA04F411FA0CF118BF0121AB
:1010500021430843A3EB0C01CB1D4FEA00614FEA8B
:10106000102042BF002010BC704700EBC35010445A
:101070000029A4BF10BC7047401C490008BF20F0E5
:10108000010010BC704700007F2801D9002208E051
:10109000064A02EB5002C007127800D1120902F092
:1010A0000F0201209040084070470000500E0108D8
:1010B00030B58C1810F8012B12F00F0301D110F885
:1010C000013B120906D110F8012B03E010F8015B77
:1010D00001F8015B5B1EF9D101E001F8013B521EF2
:1010E000FBD1A142E6D3002030BD000010B511496C
:1010F000002090B00871C87048700F4C02464FF441
:101100008071204601F04FF800226115204601F061
:101110004AF8032209A1684605F046FB6846FFF736
:1011200006F982B2642369460F4802F081FE10B0CE
:1011300010BD000098010020001402402121212050
:10114000414C41524D20434C4541524544202121C0
:101150002120284E6F726D616C2025642074696DAA
:101160006573290D0A0000001C08002001488078E2
:1011700070470000980100200148C07870470000C7
:1011800098010020104910B50B7C002003B101200C
:101190004A7C02B1401C8C7C04B1401CC97C01B16A
:1011A000401C022801D3052010BD0BB1012010BD49
:1011B0000AB1022010BD0CB1032010BD09B10420FA
:1011C00010BD002010BD00009801002001480078EB
:1011D00070470000980100200148407870470000E7
:1011E0009801002001480079704700009801002014
:1011F00070B501201A4CACB01A4D207102460102A4
:10120000284600F0D0FF01225102284600F0CBFF13
:101210001822154925A8FFF766F8E068FFF7F2FAEB
:1012200005460E46A068FFF7EDFA02460520029536
:10123000CDE90360CDE90021607825A951F820208F
:101240000A4905A805F0B0FA05A8FFF770F882B2C0
:10125000642305A9064802F0EBFD2CB070BD000028
:101260009801002000140240E0080108900E0108D7
:101270001C08002070B5294CB4EEC10AF1EE10FA3A
:1012800084ED020AC4ED030A01DB012100E0002124
:10129000B4EEE10A2174F1EE10FA01D8012000E069
:1012A0000020F4EEC20A6074F1EE10FA01DB0122B4
:1012B00000E00022F4EEE20AA274F1EE10FA01D886
:1012C000012300E00023E374002511B908B902B935
:1012D00063B1A078401CA070E570FFF753FF607009
:1012E000A078052815D3207970B10FE0E078401C74
:1012F000C0B2E070A5706570217919B103280AD3D6
:10130000FFF7F4FE257070BDFFF772FF022020701A
:1013100070BD0120FBE70320F9E7000098010020E1
:10132000704700000146014801F01ABCC8050020C2
:1013300010B5044801F026FC042801D0012010BD9E
:10134000002010BDC805002010B500F015F80128D8
:1013500001D0012010BD074801F02EFD040006D188
:101360004FF40061034801F0A1FA00B101242046C6
:1013700010BD0000C805002008B501208DF8000050
:101380009DF8000008BD0000134610B50A4601464E
:101390000024034801F022FE00B10124204610BDC4
:1013A000C805002002480022012140680AF020BC44
:1013B00080000020134610B50A4601460024034869
:1013C00001F0A6FE00B10124204610BDC805002092
:1013D00002480022022140680AF00ABC8000002076
:1013E000FEE70000014800F0ABBB00000C09002044
:1013F000014800F0A5BB0000AC080020014800F047
:101400009FBB00004C060020014800F099BB000083
:10141000AC06002001681823CAB2103AB2FBF3F2FE
:10142000054B6FF30901032A9B5CC36500D9091DB5
:101430008165084670470000D809010810B50146CB
:1014400000208B698A6A4FF0C07453B1B3F5005F16
:1014500015D072B1012A0CD0022A0AD0032A09D170
:1014600004E01AB1012A06D0022A03D1C96AC901CF
:1014700000D5012010BDC96AA142FAD010BD002AD2
:10148000F7D0012AF2D0022AF3D0032AF3D010BDFC
:1014900030B50468256825F48025256004686360FC
:1014A0008368402B036803D099600068C26030BD38
:1014B0009A600068C16030BD7047012000F06ABDCD
:1014C00072B6FEE7002200F001B8000030B50E4B06
:1014D000054601205C7A002C14D1587A1C54587AA5
:1014E00003EB800045605D7A03F108002A54587AC6
:1014F000421C5A72303008703A2048702F20887091
:10150000CC70002030BD00008C090020002229B1E1
:1015100001291AD002291BD04FF440720E490B68E2
:1015200023F440730B600B6813430B600A6822F0CE
:1015300078020A600A68022303EBC00002430A60D3
:10154000086840F48030086070474FF48072E5E727
:101550004FF40072E2E70000103C024013480168BB
:1015600089050FD5016821F400710160016841F41B
:1015700000610160016821F400610160016841F4CB
:1015800000710160016849050FD5016821F480618F
:101590000160016841F480510160016821F48051CB
:1015A0000160016841F4806101607047003C0240C5
:1015B00008490A6822F440720A600A6842F004028C
:1015C0000A600A684FF4803343EA002002430A604D
:1015D00070470000103C0240064A136823F4407331
:1015E000136013681360136843F001031360017004
:1015F00070470000103C0240094910B50C6824F403
:1016000040740C600C6844F440740C600C6844F046
:1016100001040C600260BFF36F8F436010BD0000D7
:10162000103C0240074A136823F4407313601368A8
:1016300043F480731360136843F001031360018067
:1016400070470000103C0240074A136823F44073BF
:101650001360136843F400731360136843F00103CD
:101660001360016070470000103C02401749086891
:10167000C206174805D5C26942F01002C2611022A5
:101680000A600A68920605D5C26942F00802C26182
:1016900020220A600A68520605D5C26942F0040297
:1016A000C26140220A600A68120605D5C26942F08A
:1016B0000202C26180220A600A68920705D5C269E7
:1016C00042F02002C2610220086070470C3C0240D8
:1016D0009000002070B5114904460020C86100F058
:1016E00067FD06460E4D09E0601C07D024B100F0EE
:1016F0005FFD801BA04201D9032070BD2868C00394
:10170000F2D42868C00701D001202860286810F0B2
:10171000F200F2D0FFF7AAFF012070BD9000002078
:101720000C3C024030B5B3F5804F05D06FF07041EE
:1017300040F82210002030BD8C690B688D6823436F
:101740004C688989240144EA0524234343EA014182
:1017500050F82230014C23401943E9E70000F0CF54
:1017600010B50A6850F8223023F0010340F8223007
:101770008C68082C23D000234A682243CC681C4381
:101780000B6922431A434B690E4C1A43CB691A4327
:101790000B6A1A434B6A1A438B6A1A43CB6A1A4381
:1017A0000B6B1A438B691343CA6B09681A4350F8D1
:1017B0002130A343134340F82130002010BD4023C3
:1017C000DAE700007FFF0F0030B5D1E9003443EACB
:1017D00004138C688D89240244EA054423430C8A4F
:1017E000074D00EB820005EB045423430C7D6D0193
:1017F00005EB0464896923430B434360002030BD3B
:101800000000F0FF00B587B0002000900B20029090
:10181000012003900220049072B600F099FB05A904
:10182000684600F001FB00F04BFB62B607B000BD5C
:1018300030B50C46054600F045F885ED000A00F08D
:101840005DF884ED000A00F007F882ED000A00F070
:101850001FF883ED000A30BD0A4890ED020AB4EE8D
:10186000400AF1EE10FA09D1B5EEC00AF1EE10FA15
:1018700004D310EE100A0449884201DD9FED030AEB
:101880007047000000000E080000C8420000BE4281
:101890000A4890ED030AB4EE400AF1EE10FA09D1BD
:1018A000B5EEC00AF1EE10FA04D310EE100A0449A6
:1018B000884201DDB3EE0E0A7047000000000E08FA
:1018C0000000C8420A4890ED000AB4EE400AF1EE6A
:1018D00010FA09D1B5EEC00AF1EE10FA04D310EEF9
:1018E000100A0449884201DD9FED030A7047000099
:1018F00000000E080000704200000C420A4890ED03
:10190000010AB4EE400AF1EE10FA09D1B5EEC00AB0
:10191000F1EE10FA04D310EE100A0449884201DDFA
:10192000B1EE040A7047000000000E08000070428B
:1019300010B52DED048BB0EE618AF0EE418AB0EE69
:10194000609AF0EE409A9FED3F0AB4EEE99AF1EE0C
:1019500010FA0ADBF1EE040A39EEE09AB5EEC09A0D
:10196000F1EE10FA01D2B0EE409AB4EEE88AF1EE50
:1019700010FA0ADBF3EE040A38EEE08AB5EEC08A0C
:10198000F1EE10FA01D2B0EE408A18EE900A2E491C
:10199000884201DDDFED2D8AB5EEC08AF1EE10FA46
:1019A00001D2B0EE408AFFF78DFFF0EE401AFFF74C
:1019B000A5FFF0EE400AFFF74FFFB0EE401AFFF729
:1019C00067FF71EEE91A2248F0EEE11A11EE901A63
:1019D000814217DA70EEC90AF0EEE00A10EE901AB2
:1019E00081420FDA71EE680AF0EEE00A10EE901A0A
:1019F000814207DA30EE480AB0EEC00A10EE101A43
:101A000081421CDBFFF7FEFEB0EE690A114800F0D0
:101A100023F81048B0EE490A001D00F01DF80D48EB
:101A2000B0EE680A083000F017F8B0EE480ABDECD6
:101A3000048B0848BDE810400C3000F00DB8BDEC38
:101A4000048B10BD000000000000C8420000C84226
:101A50000AD7233C00000E0810B504462DED028B7A
:101A6000B0EE408A72B600F073FA18EE102A002326
:101A70002146022000F02EFA00F022FA62B6BDECF8
:101A8000028B10BD2DE9F0410446876D00F090FBFC
:101A9000064694F835000025022806D080206065AF
:101AA00084F834500120BDE8F0812068016821F0FD
:101AB000160101602068416921F080014161206CBC
:101AC00008B9A06C20B12068016821F0080101600C
:101AD0002068016821F0010101600CE000F068FB62
:101AE000801B052807D920206065032084F8350075
:101AF00084F83450D7E720680068C007EED194F826
:101B00005C103F208840B860012084F8350084F8DC
:101B100034500020C7E790F83510022903D0802107
:101B2000416501207047052180F835100068016883
:101B300021F00101016000207047406D70470000F6
:101B40002DE9F84304464FF00009CDF800906348B2
:101B50004FF41651A56D0068B0FBF1F72E6894F8AC
:101B60005C10082000FA01F131420FD021680A68A8
:101B700052070BD50A6822F004020A6094F85C1040
:101B80008840A860606D40F00100606594F85C10CA
:101B90004FF0010808FA01F0304208D02168496985
:101BA000090604D5A860606D40F00200606594F8F5
:101BB0005C1004208840304208D0216809688907F9
:101BC00004D5A860606D40F00400606594F85C1076
:101BD00010208840304218D021680968090714D5C0
:101BE000A86020680168490304D50068000308D58F
:101BF000A16C07E00168C90503D4016821F0080160
:101C00000160216C09B12046884794F85C102020BF
:101C10008840304231D021680968C9062DD5A860B6
:101C200094F8350005282068016806D0490347D597
:101C3000006800031DD4616C1CE021F016010160F6
:101C40002068416921F080014161206C08B9A06CD5
:101C500020B12068016821F00801016094F85C104F
:101C60003F208840A86084F8358084F83490216D46
:101C70001FE0E16B09B120468847606D00282BD03A
:101C8000606DC00714D0052084F835002068016815
:101C900021F0010101600098401C0090B84203D877
:101CA00020680068C007F6D184F8358084F8349045
:101CB000E16C002910D001B02046BDE8F043084790
:101CC0000168C905D5D4016821F01001016084F8CC
:101CD000358084F83490CCE7BDE8F883BC00002060
:101CE0002DE9F041044600F063FA06465CB102209B
:101CF00084F83500002584F834502068016821F00C
:101D0000010101600DE00120BDE8F08100F050FA12
:101D1000801B052805D920206065032084F8350044
:101D2000F2E720680068C007F0D1226811682048F7
:101D30000140D4E901031843D4E90336334318437F
:101D400063691843A3691843E3691843236A184376
:101D50000843616A042903D1D4E90B1319430843EA
:101D6000106020684069666A20F0070130460E4323
:101D7000012704280CD1A06A0643E06A40B120463E
:101D8000FFF75CFB20B14020606584F83570BAE74E
:101D9000206846612046FFF73DFB94F85C203F2118
:101DA00091408160656584F835700020ACE70000E3
:101DB0003F8010F02DE9F0410446866D90F8340024
:101DC000002501280DD0012084F8340094F83570E6
:101DD0000020012F07D084F8340002252846BDE8F2
:101DE000F0810220FBE7022784F835706065204609
:101DF000FFF74EFB94F85C103F208840B0602068ED
:101E0000016841F016010160206C20B12068016872
:101E100041F0080101602068016841F001010160A2
:101E2000DCE780B205F098BB2DE9F0470446224874
:101E30000F46017E01290AD00121804601764CF22D
:101E400050394846FFF746FC020003D02FE002203D
:101E5000BDE8F0874FF0FF3038602068174D01284B
:101E600001D0A6681CE0207C6168FFF7A1FB484612
:101E7000FFF730FC0246286820F00400286014E0D8
:101E8000217C3046FFF742FB4846FFF723FC020067
:101E9000286820F07A00286001D03E6005E0761CBA
:101EA000D4E902100844B042EAD8FFF757FB0021FA
:101EB00088F818101046CBE790000020103C024034
:101EC0000348016841F000410160002070470000B4
:101ED000103C02402DE9F0471B4E05461446307E6B
:101EE0001F468946012808D0012030764CF2503830
:101EF0004046FFF7EFFB18B114E00220BDE8F08781
:101F00009DB1012D16D0022D19D022463B464846E0
:101F1000FFF772FB4046FFF7DDFB0C490A6822F031
:101F200001020A6000213176E8E7E1B24846FFF796
:101F300053FBEFE7A1B24846FFF774FBEAE72146FF
:101F40004846FFF781FBE5E790000020103C024087
:101F5000074900200A68002A09DA054A054B0C3AAD
:101F60001360054B13600968002900DA01207047EF
:101F7000103C024023016745AB89EFCD10B5012825
:101F800004D1034CA07000F013F9A06010BD000054
:101F900004000020044910B50A68024202D008601B
:101FA000FFF7ECFF10BD0000143C01402DE9F84F95
:101FB000DFF8BCA10022012503264FF00F090AF12A
:101FC000040BAAF1040E00BF0B6805FA02F42340CB
:101FD000A34270D10F7907F00307012F01D0022F20
:101FE00016D187684FEA420806FA08FC27EA0C0770
:101FF000D1F80CC00CFA08FC4CEA070CC0F808C079
:102000004768A7430C79C4F3001494403C434460F0
:102010000C79E443A4070AD0C4684FEA420C06FADC
:102020000CF7BC438F6807FA0CF72743C7600C799D
:1020300004F00304022C12D1D40800EB840CDCF869
:1020400020405707FF0E09FA07F824EA0804D1F8E0
:10205000108008FA07F848EA0408CCF820800468E1
:102060004FEA420C06FA0CF7BC430F7907F003075E
:1020700007FA0CF7274307604C6814F4403F70D010
:102080003C4C276847F480472760246822F0030708
:1020900004F480440094384C07EB040CDCF8084846
:1020A00097074FEA177809FA08F7BC43334FB8424D
:1020B00002D1002724E054E0314FB84201D101277A
:1020C0001EE0304FB84201D1022719E02E4FB8422E
:1020D00001D1032714E02D4FB84201D104270FE0AE
:1020E0002B4FB84201D105270AE02A4FB84201D14F
:1020F000062705E0284FB84201D1072700E008274E
:1021000007FA08F72743CCF80878DAF80040574672
:10211000D1F804C09C435FEACC2C00D51C433C6042
:10212000DBF800405F46D1F804C09C435FEA8C2C8A
:1021300000D51C433C60DEF800407746D1F804C06F
:102140009C435FEA8C3C00D51C433C60084F083F31
:102150003C68D1F804C09C435FEACC3C00D51C43EA
:102160003C60521C102AFFF42FAFBDE8F88F00002E
:10217000083C014044380240003001400000024069
:102180000004024000080240000C0240001002401F
:102190000014024000180240001C02400069084080
:1021A00000D0012070470AB1816170470904FBE744
:1021B0000148806870470000B000002070B504003E
:1021C00013D021684CF6CC400860216845F2555088
:1021D0000860D4E9000141602168A0688860FFF7C9
:1021E000E7FF054641F601060DE0012070BD00BF86
:1021F000FFF7DEFF401BB04205D92068C0688007AA
:1022000001D0032070BD2068C0688007F0D121682C
:102210004AF6AA200860002070BD00684AF6AA218C
:102220000160002070470000024881680278114474
:1022300081607047B00000200B4810B5016841F480
:1022400000710160016841F480610160016841F43E
:1022500080710160032000F073F80F2000F006F891
:1022600000F024F8002010BD003C024070B50D4D78
:1022700004464FF47A712878B1FBF0F00A490968F6
:10228000B1FBF0F001F03CF848B9102C07D2002265
:102290002146501E00F034F800206C6070BD012013
:1022A00070BD0000B0000020BC0000200C4882B0CF
:1022B000016841F480410160006800F480400090B2
:1022C0000748001F016841F080510160006800224A
:1022D00000F0805000900F21901E02B000F010B866
:1022E00044380240002809DB00F01F020121914020
:1022F0004009800000F1E020C0F8001170470000A4
:10230000F0B40E4B1B680C46C3F30223C3F1070560
:10231000042D00D90425191D072901D2002300E04E
:10232000DB1E012606FA05F1491E214099409E4018
:10233000761E16403143F0BC04F04ABA0CED00E0C2
:10234000064900F0070208684FF6FF03184040EA0C
:102350000220034A10430860704700000CED00E0C3
:102360000000FA052DE9F0470E46050065D0DFF8BC
:102370001481D8F80000F7B200F00700B04207D28D
:1023800088F80070D8F8000000F00700B04254D17F
:1023900028683D4C810712D5400703D5206840F4DA
:1023A000E05020602878000703D5206840F46040A2
:1023B00020602068A96820F0F00008432060287899
:1023C000C0072DD0304968680839012812D002288A
:1023D00013D0032811D00968890700292DDA216854
:1023E00021F0030101432160FFF7E2FE814641F243
:1023F000883A0EE009688903EFE709688901ECE78C
:10240000FFF7D6FEA0EB0901514502D90320BDE834
:10241000F0872068696800F00C00B0EB810FEFD105
:10242000D8F80010404601F00701B14207D9077003
:10243000006800F00700B04201D00120E7E72878EB
:10244000400705D52068E96820F4E0500843206083
:102450002878000706D52068296920F4604040EA02
:10246000C100206000F038F82168084AC1F3031168
:10247000515CC8400649086006480068FFF7F6FE50
:102480000020C4E7003C024008380240E00901088F
:10249000BC000020B4000020044805490068096819
:1024A000044AC1F38221515CC8407047BC0000203F
:1024B00008380240F0090108044805490068096825
:1024C000044AC1F34231515CC8407047BC0000204F
:1024D00008380240F0090108154810B5006810F0EE
:1024E0000C02144813D04110042A0FD0082A0ED130
:1024F0000F4C241F2268236802F03F025B0207D5BD
:102500002068C0F38810A0FB010106E0084610BD5A
:102510002168C1F38811A1FB00010023FDF7B2FE81
:102520002168C1F30141491C4900B0FBF1F010BD25
:10253000083802400024F4002DE9F84F04006ED062
:102540002078DFF84C93C007A9F104054AD009F1BF
:1025500004000168C1F38101012908D00068C0F3BB
:10256000810002280AD1D9F80000400206D5286867
:10257000800337D560680028E1D033E06068B0F5AB
:10258000803F10D0B0F5A02F286810D020F4803004
:102590002860286820F4802028606068A8B1FFF7D0
:1025A00007FE06460DE0286840F48030F4E740F46A
:1025B00080202860F7E700BFFFF7FAFD801B642842
:1025C00073D828688003F7D50CE0FFF7F1FD0646C5
:1025D00005E000BFFFF7ECFD801B6428F0D82868F9
:1025E0008003F7D42078DFF8AC8280074FF0000A30
:1025F0003ED5A748001D016811F00C0F08D00068F7
:10260000C0F3810002280BD1D9F80000400207D4A2
:102610002868800716D5E068012800D112E033E170
:10262000E068B8B10120C8F80000FFF7C1FD064618
:1026300005E000BFFFF7BCFD801B0228C0D828685A
:102640008007F7D52868216920F0F80040EAC1002A
:1026500028600DE0C8F800A0FFF7AAFD064604E0D8
:10266000FFF7A6FD801B02281FD828688007F7D433
:102670002078000722D5864F87486169703771B18D
:1026800001210160FFF794FD064604E0FFF790FD8D
:10269000801B022809D838688007F7D50EE0C0F8FB
:1026A00000A0FFF785FD064605E082E0FFF780FD0C
:1026B000801B02287DD838688007F7D4207840072F
:1026C00068D5DFF8CCB100270BF13C0BDBF800003C
:1026D000C0000BD4DBF8001041F08051CBF80010A3
:1026E000DBF80000012700F0805000906B4E30684E
:1026F000C00510D4306840F480703060FFF758FD9A
:10270000009005E0FFF754FD0099401A022850D8C8
:102710003068C005F6D55E4EA0686C3601280FD033
:102720000528306810D020F001003060306820F0BB
:1027300004003060A068B8B1FFF73AFD00900FE0E8
:10274000306840F00100F4E740F004003060F7E743
:10275000FFF72EFD0099411A41F28830814266D878
:1027600030688007F4D50EE0FFF722FD009007E007
:10277000FFF71EFD0099411A41F28830814256D878
:1027800030688007F4D42FB1DBF8001021F08051BD
:10279000CBF80010A069C8B33D49091D0968C1F311
:1027A000810102294AD00228504607D0C8F86000AB
:1027B00000E03CE0FFF7FCFC04463BE04746C8F87D
:1027C0006000FFF7F5FC064605E000BFFFF7F0FCF0
:1027D000801B02282BD828688001F7D4D4E9070190
:1027E0000843A16A2E4A490802EB0141626A41EAA4
:1027F0008211084394F82C1040EA0161C9F80010D6
:1028000001203866FFF7D4FC044606E03EE000BF36
:10281000FFF7CEFC001B022809D828688001F7D5F5
:1028200034E000BFFFF7C4FC001B022802D90320DC
:10283000BDE8F88F28688001F4D427E00128F7D09C
:10284000D9F80000E26900F4800191421CD1226AAB
:1028500000F03F01914217D147F6C071626A014012
:10286000B1EB821F10D1A26A4FF0FF3300F4403168
:1028700003EB5202B1EB024F06D194F82C1000F09A
:102880007060B0EB016F01D00120D1E70020CFE7ED
:102890000438024000004742800E4742007000406A
:1028A0000000FFFF10B5FEF73BFD10BD2DE9FE4314
:1028B0000446002603200D4684F83400606C03288B
:1028C0005ED0B5F5805F5BD04FF4006700204FF01D
:1028D0008068BD421FD18146009001900021206890
:1028E00001F066FF800113D46946204602F054FBD4
:1028F00007000DD10198400334D5B4F8500001040D
:10290000206801F08DFF070002D10221206823E03A
:10291000A06B384328E01DB1A06B40F0006023E0BD
:102920008146009001900021206801F041FF800164
:10293000EED46946204602F02FFB0700E8D101984B
:10294000C0030FD5B4F850000104206801F068FFFF
:102950000700DDD10021206801F0AFFF0700D7D1CB
:102960004F46D5E74746D3E7A063A06B144F4FF01F
:10297000010848B12068876384F8348001260EE09E
:10298000A06B40F08050EFE7211DD4E9050C0EC983
:10299000CDE90050CDF808C0206801F013FF4FF4D6
:1029A0000071206801F070FF28B121688F63A16B6E
:1029B0000143A163012684F834803046BDE8FE83DC
:1029C000FF05400070470000F0B5426E920F0A709C
:1029D000426EC2F383624A70426EC2F301628A7031
:1029E000426E120CCA70B0F86420120A0A7190F894
:1029F00064204A71826E120DCA80826EC2F3034255
:102A00000A72B0F86820C2F3C0324A72B0F8682087
:102A1000C2F380328A72B0F86820C2F34032CA72C0
:102A2000B0F86820C2F300320A7300264E73426C7D
:102A30004FF40075012462B1012A3AD00268474977
:102A40009163816B41F08051816380F834400120B3
:102A5000F0BDB0F86820C36E9205120D42EA937281
:102A60000A61C26EC2F3C2620A75C26EC2F302622A
:102A70004A75C26EC2F342528A75C26EC2F3824276
:102A8000CA75C26EC2F3C2320A760A69521C426526
:102A90000B7E03F007039B1C9A4042650B7A03F000
:102AA0000F0704FA07F383655B0A5A43C0E9172549
:102AB0000EE090F86820C36E9206920A42EA134232
:102AC0000A610A69521C92024265C0E91652056603
:102AD00030F86C2FC2F3803201F8192F0288C2F34C
:102AE000C6124A70027802F07F028A704268D20FE2
:102AF000CA704268C2F341720A714268C2F38262CC
:102B00004A714268C2F383528A714268C2F34052EA
:102B1000CA710E724268C2F300424A728288C2F3DE
:102B2000C0328A728288C2F38032CA728288C2F34B
:102B300040320A738288C2F300324A738288C2F339
:102B400081228A738288C2F30122CA730079C0F39A
:102B5000460008744C740020F0BD0000FF054000E2
:102B6000426C0A60826C4A60C26C8A60026DCA6004
:102B7000426D0A61826D4A61C26D8A61006EC861F0
:102B80000020704770B50446B0F8500000250104DD
:102B9000206801F07AFF18B1A16B0143A16304E042
:102BA0000021206801F004FE0546C5F3432070BDF6
:102BB000F8B5056B04460068416B09041BD529076D
:102BC00019D5D4E90A56002E14D00027206801F048
:102BD0000FFE05F8010B010A05F8011B010C05F8B1
:102BE000021B000E361F7F1C05F8010C082FEDD3C9
:102BF000C4E90A56F8BD416B4FF00006C9054FF015
:102C0000010744D5390281632068C16B4CF23A3226
:102C10009143C1632068C16A21F00101C1622807A4
:102C20001DD515F0220F09D0206801F05FFF28B1F3
:102C3000A16B0143A1632046FFF7C4FE216840F267
:102C40003A50886384F834702663A80703D020467E
:102C500000F056FAF8BD204600F056FAF8BD2806F6
:102C6000FCD5A80609D5206801F040FF28B1A16B6A
:102C70000143A1632046FFF7A5FEA807EED1206817
:102C8000C16A21F00801C16284F83470E3E7416B46
:102C9000490424D5290722D5D4E90856002EDDD0D1
:102CA0005FF0000715F8010B009015F8011B361FA7
:102CB00040EA0120009015F8021B40EA0140009014
:102CC00015F8011C40EA016000906946206801F097
:102CD000A2FD7F1C082FE5D3C4E90856F8BD416B5F
:102CE00040F23A221142F9D0416B890703D5A16B1A
:102CF00041F00201A163416B090703D5A16B41F0CB
:102D00000801A163416B890603D5A16B41F0200145
:102D1000A163416BC90603D5A16B41F01001A1630A
:102D2000416B890503D5A16B41F00801A16340F215
:102D30003A7181632068C16B40F23A329143C163BA
:102D4000206801F0D3FEA16B0843A063280706D5D5
:102D500084F8347026632046FFF734FEF8BD280659
:102D6000FCD515F0300F0CD0E16B11480865E06B15
:102D7000FEF7D1FE0028F1D0E06BBDE8F84002F08C
:102D8000E9B8A8070CD0216C0A480865206CFEF74A
:102D9000C2FE0028E2D0206CBDE8F84002F0B1B8D5
:102DA000A66384F8347026632046FFF77BFDF8BDE8
:102DB000554F0008034F000870B504000ED094F87A
:102DC0003400002518B92577204600F04DF803207F
:102DD00084F83400204600F00BF808B1012070BDE3
:102DE000A5632563012084F83400002070BD000035
:102DF000FEB50025044676200095CDE901502B460E
:102E00002A462946206801F0DDFC154E46F8A05FF1
:102E1000206801F0E9FC012535600220FFF701F888
:102E2000204602F0A1F928B184F83450A16B014387
:102E3000A16313E0204602F01FF90028F4D14FF4FB
:102E40000071206801F020FD002808D022680549A3
:102E50009163A16B0143A16384F834500120FEBD4E
:102E600000802542FF0540002DE9F04F87B0054660
:102E700014216846FDF750FA5249286888427DD1EE
:102E800051480068504940F400600860086800F448
:102E9000006005904C48143800684B4940F004002D
:102EA00014390860086800F004000590086840F0D4
:102EB000080008600868032600F0080005904FF439
:102EC000F8500090022001900020CDE902060C2469
:102ED000694604943D48FFF769F804270220CDE9CC
:102EE00000700020CDE90206694604943848FFF7D7
:102EF0005DF8394C37484FF00068C4E900080020FD
:102F0000A060E06038022061C4E90976800004F125
:102F100014014FF480494FF0200A4FF4403B81E800
:102F2000010EC60247022046C4E90B67FEF7D8FE31
:102F300008B1FEF7C5FA2C64A563274C2548603418
:102F40004830C4E900084020A0600020E0604FF451
:102F50008060206104F11401800081E8010E0420EA
:102F600060621431032081E8C1002046FEF7B8FEFC
:102F700008B1FEF7A5FAEC63002200E01FE005218E
:102F80003120A563FFF7BCF93120FFF7ABF9002230
:102F900005213120FFF7B4F93120FFF7A3F9002212
:102FA00005213B20FFF7ACF93B20FFF79BF90022FE
:102FB00005214520FFF7A4F94520FFF793F907B055
:102FC000BDE8F08F002C0140443802400008024068
:102FD000000C0240586402404C0600202DE9F047E6
:102FE00086B01F460446154639B194F834000128CE
:102FF00007D0022006B0BDE8F087A06B40F000606B
:1030000008E00020A063E36DEA199A4204D9A06B9E
:1030100040F00070A06369E0032284F83420226845
:103020008146D0622268D36B40F22A363343D363A1
:10303000236C2F4ADA63236C2E4ADA64226C106503
:10304000226C9060206C0068026822F0C00202606E
:1030500020680A46266C4FEA472800F180014FEAB3
:1030600098033046FEF7A6FEDFF88CA0012670B16B
:103070002068C16B21F49571C1632168C1F838A043
:10308000A06B40F08040A06384F834602EE01B48C1
:103090000660606C012800D06D024FF0FF30CDE972
:1030A00000089020029002200596CDE903096946A8
:1030B000206801F067FB012F06D982202063294692
:1030C000206801F053FC05E0812020632946206838
:1030D00001F065FC00288DD02268C2F838A0A16BF1
:1030E0000143A16384F83460C4F83090012081E783
:1030F000C14E00085D4E0008FF0540008C8525424A
:1031000010B5FEF74FF910BD10B5FEF761F910BD0F
:103110002DE9F04F5FEA010B87B01E4604461146C9
:1031200007D094F83400012807D0022007B0BDE88A
:10313000F08FA06B40F0006008E00025A563E26D11
:103140008819904204D9A06B40F00070A06356E04B
:10315000032084F834002068C5622068C26B40F206
:103160001A2942EA0902C263E26B2D48D063E26B7E
:103170002C48D064E06B0565606C012800D04902E2
:103180004FF09008012E05D9A0202063206801F09F
:10319000C7FC04E0C4F83080206801F0DAFCDFF8F6
:1031A00088A0012730B12268C2F838A0A16B014382
:1031B000A16321E01D480760E16B40208860E06B5F
:1031C0000068016821F0C00141F0400101602268FF
:1031D0007602B30859468032E06BFEF7EBFD80B112
:1031E0002068C16B21EA0901C1632168C1F838A0D8
:1031F000A06B40F08040A06384F834702563012008
:1032000094E74FF0FF30CDE90006CDE90285CDE926
:1032100004576946206801F0B5FA002086E70000EF
:10322000474F00085D4E0008FF0540008C85254291
:1032300070B515460E46040003D094F8490010B14D
:1032400007E0012070BD002084F84800204600F00F
:103250001DF804F108012068FEF782FA3146A268E1
:103260002068FEF7B1FAD4E901022946236BFEF784
:1032700059FA2168A06851F8202042F0010241F873
:103280002020012084F84900002070BD194800B5B5
:10329000016887B041F001010160006800F00100A1
:1032A000059014480838016841F008010160016880
:1032B00001F008010591016841F01001016000680A
:1032C000012100F0100005904CF2037000900220E4
:1032D000CDE9010103900C20049069460648FEF7F1
:1032E00065FE4FF68070009069460448FEF75EFE6A
:1032F00007B000BD38380240000C02400010024008
:1033000010B5401EB0F1807F01D3012010BD4FF0F9
:10331000E02460610F21601703F05AFA0020A061D9
:1033200007202061002010BD7047704770B590F8ED
:103330003C20012A32D0012480F83C40022280F84F
:103340003D2003685A689D6822F070060A6832437F
:103350005A60134B02689A4214D0B2F1804F11D0D8
:10336000104B9A420ED0104B9A420BD00F4B9A4200
:1033700008D00F4B9A4205D00E4B9A4202D00E4B0A
:103380009A4204D1496825F080031943916080F87E
:103390003D40002180F83C10084670BD022070BD01
:1033A000000001400004004000080040000C004004
:1033B00000040140004001400018004010B5040026
:1033C00003D094F83D0010B107E0012010BD0020AB
:1033D00084F83C00204600F01FF8022084F83D00ED
:1033E000211D206802F0E8FD012084F8460084F8E1
:1033F0003E0084F83F0084F8400084F8410084F8DF
:10340000420084F8430084F8440084F8450084F8BE
:103410003D00002010BD000008B501681048B1F162
:10342000804F0BD00F4A914207D1016841F480715F
:103430000160006800F48070009008BD016841F0F0
:10344000010101600068002200F0010000900521E8
:103450001C20FEF755FFBDE808401C20FEF742BFC8
:10346000403802400020004090F83D10012901D072
:1034700001207047022180F83D1000681149884200
:1034800014D0B0F1804F11D00F4988420ED00F49AF
:1034900088420BD00E49884208D00E49884205D098
:1034A0000D49884202D00D49884204D1816801F05B
:1034B0000701062903D0016841F0010101600020E5
:1034C0007047000000000140000400400008004078
:1034D000000C004000040140004001400018004082
:1034E00001680A6A41F211131A4207D10A6A9B1055
:1034F0001A4203D10A6822F001020A60012180F811
:103500003D100020704770B5044690F83C0000253F
:10351000012817D0012684F83C60022084F83D0081
:103520002068826822F0770222F47F428260086875
:10353000502838D00DDC20284FD005DC90B310285F
:1035400011D14AE0022070BD302846D040280AD16F
:103550003BE060282FD070280DD0B0F5805F03D0FD
:10356000B0F5005F12D0012584F83D60002084F89A
:103570003C00284670BDCB68D1E90121206802F0EB
:1035800090FD2068816841F0770109E0CB68D1E9BE
:103590000121206802F085FD2068816841F48041A6
:1035A0008160E1E719E0CA684968206802F04EFED0
:1035B0005021206806E0CA684968206802F057FE7A
:1035C0006021206802F077FDCEE7CA68496820686C
:1035D00002F03CFE40212068F4E7226801461046D4
:1035E000F0E770472DE9F04104460068C6680569B8
:1035F0004FF00007A90713D5B10711D5F91E0161D6
:1036000001202077206880698007204602D0FFF7DC
:10361000E8FF04E000F0A8F8204600F03AF9277728
:10362000680716D5700714D521686FF0040008618B
:10363000022020772068806910F4407F204602D065
:10364000FFF7CFFF04E000F08FF8204600F021F9EB
:103650002777280715D5300713D521686FF00800A4
:103660000861042020772068C0698007204602D0C6
:10367000FFF7B7FF04E000F077F8204600F009F903
:103680002777E80616D5F00614D521686FF01000EC
:103690000861082020772068C06910F4407F204628
:1036A00002D0FFF79EFF04E000F05EF8204600F035
:1036B000F0F82777E80708D0F00706D021686FF008
:1036C00001000861204600F049F9280608D53006B7
:1036D00006D521686FF0800008612046FFF724FEC0
:1036E000680608D5700606D521686FF040000861AD
:1036F000204600F034F9A8060AD5B00608D521689E
:103700006FF0200008612046BDE8F041FFF70DBED4
:10371000BDE8F08110B586B0044614216846FCF778
:10372000FBFD0E492068884216D10D480021026831
:1037300042F020020260006800F0200005904FF483
:10374000007000900220CDE901010920CDE90310AD
:1037500069460448FEF72AFC06B010BD0020004070
:103760003038024000140240704770B5044690F8AB
:103770003C0000260D4601280FD0012084F83C00B3
:103780006AB1042A1DD0082A2FD00C2A3FD0012666
:10379000002084F83C00304670BD022070BD2068D7
:1037A00002F092FC2068816941F008018161206883
:1037B000816921F004018161206881692A691143CE
:1037C00011E0206802F0B0FC2068816941F40061DA
:1037D00081612068816921F480618161206881694B
:1037E0002A6941EA02218161D2E7206802F0D2FC15
:1037F0002068C16941F00801C1612068C16921F0F8
:103800000401C1612068C1692A69114311E020687F
:1038100002F0F4FC2068C16941F40061C1612068D4
:10382000C16921F48061C1612068C1692A6941EAE6
:103830000221C161ACE710B5040003D094F83D004B
:1038400010B107E0012010BD002084F83C002046A4
:1038500000F01EF8022084F83D00211D206802F0CF
:10386000ABFB012084F8460084F83E0084F83F005A
:1038700084F8400084F8410084F8420084F8430052
:1038800084F8440084F8450084F83D00002010BD11
:103890007047704710B50446022249B104290ED082
:1038A000082913D094F84100012816D0012010BD3A
:1038B00094F83E000128F9D184F83E200FE094F8F6
:1038C0003F000128F2D184F83F2008E094F840003E
:1038D0000128EBD184F8402001E084F84120012246
:1038E000206802F0D1FB16492068164A884201D0B0
:1038F000904203D1436C43F4004343642068884200
:1039000013D0B0F1804F10D00F4988420DD00F492D
:1039100088420AD00E49884207D0904205D00D490E
:10392000884202D00C49884204D1816801F0070125
:10393000062903D0016841F001010160002010BD9B
:103940000000014000040140000400400008004065
:10395000000C0040004001400018004070477047D4
:1039600018B5034690F84200202801D0022018BD67
:1039700061B15AB10120186300205863184602F063
:1039800073FE0028F3D1196B012901D0012018BD65
:1039900019680A684968009119680C3151E8002FCC
:1039A00042F0100241E80024002CF5D118BD0000BF
:1039B0000068044A904203D103484180012101700C
:1039C00070470000001001407A000020704700009E
:1039D000F8B5016804460868CA684B6910F00F0F13
:1039E0004FF0000559D003F0010602F490773743F9
:1039F00065D0C10705D0D10503D5616C41F0010147
:103A00006164410705D5D90703D0616C41F002011B
:103A10006164810705D5D90703D0616C41F00401C9
:103A20006164010707D502F02001314303D0616CC6
:103A300041F008016164616C00293AD0800604D528
:103A4000900602D5204602F0D7FC20684069616CE0
:103A5000C0F38010090700D460B3204602F097FC41
:103A600020684069400621D52068143050E8001FC6
:103A700021F0400140E80012002AF5D1E06BA8B126
:103A800072490165E06BFEF746F8002811D0E06B43
:103A9000016D01B0BDE8F040084783060FD59306DD
:103AA0000DD52046BDE8F84002F0A6BC2046FFF741
:103AB0008DFFF8BD2046FFF789FF6564F8BD266BD2
:103AC0002023012E7ED1C6067CD5D6067AD508687D
:103AD0004868009048694FF0020640064DD5E26BF9
:103AE000106840684FF480770004000C3AD0A18D34
:103AF000814237D9E085D069B8422DD020680C309A
:103B000050E8001F21F4807140E80012002AF5D12E
:103B10002068143050E8001F21F0010140E8001235
:103B2000002AF5D12068143050E8001F21F0400130
:103B300040E80012002AF5D184F84230256320685D
:103B40000C3050E8001F21F0100140E80012002A5C
:103B5000F5D1E06BFDF796FF6663A08DE18D401A0D
:103B600081B206E0A18D8142A8D1D069B842A5D129
:103B700066632046FFF71CFFF8BDA08DE18D401A5B
:103B800081B2E08D0028F7D00029F5D020680C30F4
:103B900050E8002F22F4907240E80027002FF5D162
:103BA0002068143050E8002F22F0010240E800277E
:103BB000002FF5D184F84230256320680C3050E89E
:103BC000002F00E006E022F0100240E80023002B66
:103BD000F3D1CDE705062BD5150629D594F841007C
:103BE0002128C9D1A068B0F5805F01D12069B0B1AA
:103BF000206A411C2162216800784860E08C401EE8
:103C00000004000CE084B7D12068C16821F0800175
:103C1000C1602068C16841F04001C160F8BD206A00
:103C20000088C0F308004860206A801C2062E5E735
:103C30004006F3D55006F1D5CA68204622F040026E
:103C4000CA6084F8413000F043F9F8BD936200087F
:103C500070B5040004D094F84100002510B106E0CE
:103C6000012070BD84F84050204600F023F8242045
:103C700084F841002068C16821F40051C1602046E9
:103C800002F01CFC2068016921F490410161206868
:103C9000416921F02A0141612068C16841F4005165
:103CA000C1606564202084F8410084F842006563A7
:103CB000002070BD2DE9F04387B006461421684608
:103CC000FCF72AFBDFF830C131684C48022203239D
:103CD00007274B4D0024614521D1484914310E6816
:103CE00046F010060E60096801F0100105910168A8
:103CF00041F0010101600068694600F00100059093
:103D000058028DE81500CDE903372846FEF74EF935
:103D1000002205212520FEF7F3FA252066E0DFF8D2
:103D2000E4C0614564D1016841F04001016001686F
:103D300001F040010591016841F400110160016842
:103D400001F4001105912D491031D1F800C04CF457
:103D5000003CC1F800C0096801F400310591016818
:103D600041F0010101600068694600F00100059022
:103D70000C208DE81500CDE903372846FEF716F92B
:103D8000224D21484FF00068E5E8020840204FF43A
:103D90008069A5E81102870245F814491B48AC6107
:103DA000C5E907476C62FDF79BFF08B1FDF788FB8B
:103DB000B563AE63154D1448603518382860C5E901
:103DC0000184C5E903496C61AC61C5E90747284630
:103DD0006C62FDF785FF08B1FDF772FBF563002209
:103DE00005212620AE63FEF78BFA2620FEF77AFA2D
:103DF00007B0BDE8F08300000010014030380240F9
:103E00000000024000440040A0600240AC080020D6
:103E100090F84230202B01D00220704721B11AB116
:103E20000023036302F0D0BB012070477047704746
:103E30002DE9F843044690F84100984616460D4691
:103E4000202802D00220BDE8F88385B17EB1002091
:103E50006064212084F84100FEF7AAF9A684814617
:103E6000E684A0682027B0F5805F02D003E001203F
:103E7000E9E7206910B12E4600250EE000260CE08F
:103E80008021204602F00BFCA8B9C6B116F8010B40
:103E900021684860E08C401EE084E08C4B464FF087
:103EA0000002CDF800800028EAD14FF04001204602
:103EB00002F0F5FB40B184F841700320C3E735F808
:103EC000020BC0F30800E3E784F841700020BAE772
:103ED0007047FEE700B51A4989B00978012906D074
:103EE00002290AD003291FD004290DD122E000EEB7
:103EF000100A1449B8EE400A04E000EE100A124914
:103F0000B8EE400A81ED000A024610A1684602F0B0
:103F10004BFC6846FCF70BFA82B2642369460E48F4
:103F2000FFF786FF09B000BD00EE100A0B49B8EE9E
:103F3000400AE7E700EE100A0949B8EE400AE1E757
:103F4000040000203C000020380000205365743A33
:103F50002025640D0A0000001C08002044000020F9
:103F60004000002070B50122084D0646140221468B
:103F70002846FEF718F9304607F0BCFD21462846D2
:103F8000BDE870400022FEF70EB9000000140240A8
:103F900010B51F4C90B0E088FFF79CFF21780129F5
:103FA00007D0022909D01B48032914D004291ED1A7
:103FB00014E002202070184802E003202070174807
:103FC00090ED000ABCEEC00A10EE100AE08050200E
:103FD000FFF7C8FF0BE004212170F1E7E18800EE54
:103FE000101AB8EE400A80ED000A00F0DFF8E3880E
:103FF00022780BA1684602F0D7FB6846FCF797F9D8
:1040000082B2642369460B48FFF712FF10B010BD5F
:104010000400002040000020380000204400002060
:104020004D6F64653A25642C2056616C75653A25A0
:10403000640D0A001C080020014800787047000049
:10404000040000200148C0887047000004000020E0
:104050002DE9F047FEF7ACF8474C05460027A0785D
:1040600040B10020A070E168691A142902D9E56006
:104070006070012701214148FEF790F84FF00109D7
:1040800008B984F801903E4E04213046FEF786F8C8
:10409000804610213046FEF781F80646B8F1000F41
:1040A00021D1E07801281ED12069281A14281AD9B4
:1040B00025612178B9B10020012906D0022904D058
:1040C000032904D0042903D101E0632000E0642027
:1040D000E188814201D2491CE18088B2FFF7FAFEF3
:1040E0001E20FFF73FFF84F803809EB92079012846
:1040F00010D16069281A14280CD96561207848B15C
:10410000E08808B1401EE08080B2FFF7E3FE1E2089
:10411000FFF728FF2671002F2BD0207818B1BDE8BB
:10412000F047FFF735BF174884F8009090ED000A7C
:10413000FCEEC00A10EE900AE080134884ED070AF6
:1041400090ED000A114884ED060A90ED000A10482F
:1041500084ED090A90ED000A962084ED080AFFF725
:1041600001FFBDE8F047642310220AA10E48FFF7C3
:104170005FBEBDE8F08700000400002000000240A0
:10418000001002403C0000203800002044000020C5
:1041900040000020456E74657220536574204D6F99
:1041A00064650D0A000000001C0800202DE9F04F96
:1041B0004F48504A97B090ED001A92ED000ADFED9B
:1041C0004E0AB4EEC01AF1EE10FA0CDBB1EE041A8E
:1041D00030EE411A80ED001AB5EEC01AF1EE10FA79
:1041E00001D2C0ED000A454C454DD4ED001A95EDC5
:1041F000001AF4EEC11AF1EE10FA0CDBF3EE041A19
:1042000071EE611AC4ED001AF5EEC01AF1EE10FA63
:1042100001D2C4ED000ADFF8ECA05146DAED060A3F
:10422000B4EE600AF1EE10FA18D1D0ED000AD1ED2B
:10423000071AF4EE610AF1EE10FA0FD1D1ED080A77
:10424000B4EE601AF1EE10FA08D1D4ED000ADAEDFE
:10425000091AF4EE610AF1EE10FA3AD0D4ED001A20
:104260008346D0ED000A9046FDF762FB00208AF8F5
:1042700000004FF44870FFF775FE2868FCF7C2FA9B
:1042800006460F462068FCF7BDFA04460D46D8F8EE
:104290000000FCF7B7FA80468946DBF80000FCF71F
:1042A000B1FA0DF1080B41EC100B8BE8F00053EC68
:1042B000102B15A106A8CDE9008902F075FA06A811
:1042C000FCF735F882B2642306A91848FFF7B0FD61
:1042D00008E064230C2216A11448FFF7A9FDC820AA
:1042E000FFF740FE00208AF8000017B0BDE8F08F0D
:1042F0003C000020380000200000000044000020A6
:1043000040000020040000205361766564212054A1
:104310003A252E31667E252E31662C20483A252EF0
:1043200031667E252E31660D0A0000001C08002033
:104330004E6F206368616E67650D0A00194808B505
:10434000016841F400110160016801F4001100915D
:10435000016841F4800101600068002200F48000DF
:10436000009005211020FDF7CBFF1020FDF7BAFFCC
:10437000002205211120FDF7C3FF1120FDF7B2FF38
:10438000002205213B20FDF7BBFF3B20FDF7AAFFE4
:10439000002205214520FDF7B3FFBDE80840452078
:1043A000FDF7A0BF3038024010B504490448FDF7BE
:1043B00089F80249491E087010BD000089000020DC
:1043C000B409010830B5A7B000202490259024A896
:1043D00007F03CFC234C244D0DF1700CA06495E8D3
:1043E0000F008CE80F0000211CA807F0A4FB10357B
:1043F000606495E80F0020AD85E80F00002120A83B
:1044000007F099FB184920631C2220316846FBF70E
:104410006AFF0021684607F001FD134960631C2212
:104420003C3107A8FBF75FFF002107A807F0F6FC67
:104430000D49A0631C2258310EA8FBF754FF002140
:104440000EA807F0EBFC0849E0631C22743115A8A4
:10445000FBF749FF002115A807F0E0FC206427B016
:1044600030BD00002C000020F808010800B587B01E
:104470001C216846FBF750FF16484FF020411022E0
:10448000016015494160062181600021C160C0E9D9
:1044900004128161C16113020162C0E90913C162A2
:1044A00001634163816341640F20FF230090CDE9E4
:1044B0000103CDE903021120CDE90501002269467F
:1044C0000448FEF7B5FE002801D0FCF7F9FF07B05D
:1044D00000BD00006C050020040100A0F0B587B00D
:1044E00014216846FBF718FF3B480025016841F09E
:1044F00010010160016801F010010591016841F0AF
:1045000020010160016801F020010591016841F07E
:1045100080010160016801F080010591016841F0AE
:1045200001010160016801F001010591016841F09C
:1045300008010160016801F008010591016841F07E
:1045400004010160016801F004010591016841F076
:10455000400101600068214F00F0400005900022FA
:104560004FF4A0613846FDF71EFE1420CDE900058A
:104570000124694602941A48FDF718FD200202261C
:104580008DE8710069463846FDF710FDA002CDE9BF
:10459000000469463846CDE90245FDF707FD4FF4B2
:1045A00088100094CDE901060E4E69463046FDF7AD
:1045B000FDFC2020CDE90005694602943046FDF758
:1045C000F5FC002205210620FDF79AFE0620FDF7E6
:1045D00089FE07B0F0BD00003038024000140240F0
:1045E0000010024000000240094810B50749016070
:1045F0000421416040F6FF718160FDF7DFFD002876
:1046000003D0BDE81040FCF75BBF10BD0030004098
:10461000BC05002006480549016000214160816019
:10462000C16001614161816170470000002C01405F
:10463000C805002010B588B01C216846FBF76CFE49
:10464000154814490024016042F2CF01C0E9011469
:1046500040F2E731C0E903148461FEF7AFFE08B110
:10466000FCF72EFF0C48FFF7E6F808B1FCF728FF2F
:104670006020CDE9000402940022694606480494B3
:10468000FFF773F808B1FCF71BFF0348FFF742F888
:1046900008B010BD002000405407002010B586B0BF
:1046A00000241648009401940294039404944FF05B
:1046B0008041059401605321C0E90114611EC0E9E5
:1046C000031480218161FEF779FE08B1FCF7F8FE42
:1046D0004FF48050009069460848FEF714FF08B177
:1046E000FCF7EEFE049404A904480594FEF71EFEB0
:1046F000002801D0FCF7E4FE06B010BD0C07002036
:104700000C4810B50A4901604FF4E13141600021C5
:1047100081600C22C160C0E904128161C161FFF7B0
:1047200097FA08B1FCF7CCFEBDE8104000F022B8C3
:10473000001001401C0800200C4810B50A49016017
:104740004FF4E1314160002181600C22C160C0E979
:1047500004128161C161FFF77BFA002803D0BDE834
:104760001040FCF7ADBE10BD0044004064080020BE
:10477000FEE7FEE70249802201F18000FFF7F0B872
:104780009C0700200A6842624A688262D1E90223DB
:104790001A43D1E904310B43C16A1A4321F0F701EE
:1047A0001143C16200207047006800F003007047A9
:1047B00008444069704700000148FEF7F9B900005D
:1047C000C805002070B50DF1100C11439CE8700075
:1047D0002343194329434268314347F6FF639A4311
:1047E0000A434260002070BD032101600020704731
:1047F000D0F8800070470A688260D1E901231A432B
:10480000D1E903310B43C1681A436FF30B01114324
:10481000C160002070470968C0F880100020704710
:1048200010B585B004463720CDE900104020029035
:10483000002003904FF48060049069462046FFF703
:10484000DAFF41F288323721204600F09BF905B0AB
:1048500010BD000010B504460A4885B00143292068
:10486000CDE9001040200290002003904FF48060BA
:10487000049069462046FFF7BEFF204600F03AFA52
:1048800005B010BD0000108010B585B004461020A2
:10489000CDE9001040200290002003904FF480608A
:1048A000049069462046FFF7A6FF41F288321021A6
:1048B000204600F067F905B010BD10B585B004467C
:1048C0000620CDE9001040200290002003904FF414
:1048D0008060049069462046FFF78DFF41F28832E0
:1048E0000621204600F04EF905B010BD30B585B068
:1048F00000240546009401944FF480600294CDE9B1
:10490000034069462846FFF776FF0B484FF4FA51FB
:104910000068B0FBF1F041F288314843401E03D2F9
:104920004FF0004005B030BD696B0906F6D5C520D3
:10493000A8632046F6E70000BC00002010B585B053
:1049400004464FF4D570009008200190402002905A
:10495000002003904FF48060049069462046FFF7E2
:104960004AFF204600F02CFA05B010BD10B585B006
:1049700004461220CDE90010402002900020039050
:104980004FF48060049069462046FFF734FF41F2FF
:1049900088321221204600F0F5F805B010BD10B5A0
:1049A00085B004461120CDE900104020029000207F
:1049B00003904FF48060049069462046FFF71BFF88
:1049C00041F288321121204600F0DCF805B010BD1C
:1049D00010B585B004460720CDE9002040200290A4
:1049E000002003904FF48060049069462046FFF752
:1049F00002FF41F288320721204600F0C3F805B0DB
:104A000010BD10B585B0044600210220CDE900108C
:104A1000C020CDE902014FF4806004906946204631
:104A2000FFF7E9FE204600F03DF905B010BD10B5D6
:104A300085B004460920CDE90010C0200290002076
:104A400003904FF48060049069462046FFF7D3FE40
:104A5000204600F027F905B010BD10B585B004461A
:104A600000213320CDE900104020CDE902010001F2
:104A7000049069462046FFF7BEFE41F2883233219A
:104A8000204600F07FF805B010BD10B585B0044693
:104A90000D20CDE9001040200290002003904FF43B
:104AA0008060049069462046FFF7A5FE41F28832F7
:104AB0000D21204600F066F805B010BD30B585B078
:104AC0000C46054600210320CDE900104020CDE929
:104AD00002010001049069462846FFF78CFE224639
:104AE0000321284600F028F905B030BD10B585B087
:104AF000044600210C20CDE900104020CDE9020140
:104B00000001049069462046FFF775FE034A0C2118
:104B1000204600F037F805B010BD000000E1F505B3
:104B200010B585B004461920CDE900104020029050
:104B3000002003904FF48060049069462046FFF700
:104B40005AFE41F288321921204600F01BF805B0C8
:104B500010BD10B585B004461820CDE900104020E6
:104B60000290002003904FF4806004906946204634
:104B7000FFF741FE41F288321821204600F002F88A
:104B800005B010BD454B10B51B684FF4FA54B3FB8C
:104B9000F4F353435B1E02D24FF0004010BD426B52
:104BA00012F0450FF6D01205F4D4426B520703D52C
:104BB00004218163084610BD426BD20702D0012157
:104BC000816305E0C52282630269D2B28A4201D0C4
:104BD000012010BD0021FFF7EBFD3149084201D152
:104BE000002010BD002802DA4FF0007010BD410017
:104BF00001D5402010BD810001D5802010BDC1002D
:104C000002D54FF4807010BD010102D54FF4007041
:104C100010BD410102D54FF4806010BDC10102D525
:104C20004FF4006010BD010202D54FF4805010BD5A
:104C3000410202D54FF4005010BD810202D54FF45D
:104C4000804010BDC10202D54FF4004010BD4103A9
:104C500002D54FF4003010BD810302D54FF48020FF
:104C600010BDC10302D54FF4002010BD010402D5D0
:104C70004FF4801010BD410402D54FF4001010BD58
:104C8000810402D54FF4800010BD000702D54FF417
:104C9000000010BD4FF4803010BD0000BC000020AB
:104CA00008E0FFFD12494FF4FA520968B1FBF2F136
:104CB00041F288325143491E02D24FF00040704702
:104CC000426B12F0450FF6D01205F4D4416B490740
:104CD00003D50421816308467047416BC90703D09F
:104CE0000121816308467047C52181630020704718
:104CF000BC0000200F494FF4FA520968B1FBF2F1F1
:104D000041F288325143491E02D24FF000407047B1
:104D1000426B12F0450FF6D01205F4D4416B4907EF
:104D200003D50421816308467047C52181630020B3
:104D300070470000BC00002030B5204B4FF4FA54FF
:104D40001B68B3FBF4F341F2883463435B1E02D269
:104D50004FF0004030BD446B14F0450FF6D02405F1
:104D6000F4D4436B5B0703D504218163084630BD4F
:104D7000436BDB0702D00121816303E00369DBB2EF
:104D80008B4201D0012030BDC52181630021FFF796
:104D90000FFD10F4604F04D0410406D54FF40050CD
:104DA00030BD000C1080002030BD000402D54FF44F
:104DB000805030BD4FF4803030BD0000BC0000207A
:104DC00014494FF4FA520968B1FBF2F141F288320A
:104DD0005143491E02D24FF000407047426B12F01F
:104DE000450FF6D01205F4D4416B490703D50421D1
:104DF000816308467047416BC90703D00121816375
:104E000008467047416B490601D540218163002067
:104E100070470000BC00002010B5064C0120207037
:104E2000FCF786FA18B9207820F00100207020786D
:104E300010BD00008000002070B5054606F06FFE32
:104E4000044603E0FCF774FA002806D006F067FE7B
:104E5000001BA842F6D34FF0FF3070BD10B5846B35
:104E6000FCF76BFE022828D0206C416DE06B406D92
:104E7000012901D001281DD12168104888632068CC
:104E8000C16B21F49D71C163A06B40F08040A063B1
:104E90002046FDF777FE062801D0052805D12068B9
:104EA000FFF724FEA16B0843A063012084F83400BF
:104EB000002020632046FDF785FD10BDFF05400062
:104EC00010B5846B206B822809D12068FFF70EFE95
:104ED00028B1A16B0143A1632046FDF773FD206853
:104EE000C16A21F00801C162216840F23A5088632A
:104EF000012084F83400002020632046FEF700F9EA
:104F000010BD10B5846B40F23A502168886320468A
:104F1000FDF738FE012184F83410002121630628B2
:104F200001D0052805D12068FFF7E0FDA16B0843FB
:104F3000A063A06B0028204602D0FDF743FD10BD02
:104F4000FDF7B0FC10BD806B0068C16B41F480714F
:104F5000C163704710B5846B40F23A502168886392
:104F60002046FDF70FFE012184F834100021216353
:104F7000062801D0052805D12068FFF7B7FDA16BF1
:104F80000843A063A06B0028204602D0FDF71AFD5D
:104F900010BDFDF787FC10BD2DE9F04788B00D4628
:104FA0000446FDF705F9002682460096019637462D
:104FB00008212068FFF768FC00282CD1B4F85000C5
:104FC00001042068FFF72CFC002824D1401E4FF07C
:104FD0000808CDE9020830204FF00209CDE90409A4
:104FE0000120CDE9067002A92068FFF7CBFB2068FD
:104FF000FFF733FD00280ED16F462068416B11F09A
:105000002A0F0BD0416B090702D4416B89051AD5D1
:10501000C0F83880082008B0BDE8F087416B8902ED
:1050200005D5FFF7E5FB47F82600761C02E0416B4B
:105030008904E7D5FDF7BCF8A0EB0A00401CDCD1E1
:105040004FF00040E7E7416B890703D5C0F838907F
:105050000220E0E7416B890603D5202181630846E1
:10506000D9E740F23A518163019800BA286000986C
:1050700000BA68600020CEE710B590B00446012069
:10508000ADF838002068FFF78FFB002854D0606C23
:10509000032842D02068FFF7B4FC00284AD1002141
:1050A0002068FFF785FB606704212068FFF780FB1D
:1050B000A06708212068FFF77BFBE0670C212068D0
:1050C000FFF776FBC4F88000606C032825D00EA99A
:1050D0002068FFF7F3FC00282CD1606C03281CD05B
:1050E000BDF83800206501042068FFF7A0FC002807
:1050F00020D100212068FFF75BFB60660421206857
:10510000FFF756FBA06608212068FFF751FBE06619
:105110000C212068FFF74CFB206704212068FFF773
:1051200047FB000DE06403A92046FDF74DFC30B1BC
:105130004FF0805010B010BD4FF08060FAE7B4F827
:105140005000002302042068FFF742FC0028F1D140
:1051500004F1100007C88DE8070094E80F00FFF77E
:1051600031FB0020E6E700002DE9F84F0026044659
:1051700000963546B0460068FFF7B8FB002827D1F7
:105180002068FFF7DBFB4FF0805B4FF001094FF623
:10519000FF7748B1A6642068FFF7A8FB002817D165
:1051A000A06C012802D020E0C4F8489000212068BB
:1051B000FFF736FB58B918E000212068FFF730FBF5
:1051C000002805D151462068FFF744FB10B158462E
:1051D000BDE8F88F00212068FFF7EAFA05464FEA9C
:1051E000D0780098401C009002E0DFF82CA00098D6
:1051F000B84202D2B8F1000FDED00098B84202D314
:105200004FF08070E4E7680002D5C4F8449000E0F5
:1052100066640020DCE70000000010C17FB5124C7E
:1052200005460120207006F06CFCC8B1FCF78CF834
:1052300018B92846FFF7F0FD2070207801280FD01C
:10524000606868B9094B0FCB8DE80F0000216846F4
:1052500006F071FC606018B9207840F00100207001
:10526000207804B070BD000080000020C80901084B
:1052700010B5124888B014460078C00702D0032049
:1052800008B010BDC1B1012905D0022908D00329F9
:105290000CD00420F4E76846FCF744F806980AE0CE
:1052A0006846FCF73FF80798208005E06846FCF761
:1052B00039F80798400A20600020E1E780000020CC
:1052C0002DE9FE4347F230541E4617468846012515
:1052D0002046FFF7B1FD00281EDB32463946404626
:1052E000FCF752F8C0B90F4822464168684606F0FC
:1052F00035FCDDE9001010290ED101280CD106F093
:105300000EFC064603E000BFFCF712F838B106F0C9
:1053100006FC801BA042F7D32846BDE8FE8300258B
:10532000FAE7000080000020FFF776BD2DE9FE437C
:1053300047F230541D461746884601262046FFF79F
:105340007BFD00281EDB2A4639464046FCF732F832
:10535000C0B90F4822464168684606F0FFFBDDE908
:10536000001010290ED102280CD106F0D8FB0546FA
:1053700003E000BFFBF7DCFF38B106F0D0FB401BB9
:10538000A042F7D33046BDE8FE830026FAE70000CE
:10539000800000202DED048B9EB016AB15AA14A939
:1053A00013A8FCF745FAFF4C9DED130A84ED030AA0
:1053B0009DED140A84ED040A9DED150A84ED050A9D
:1053C0009DED160A84ED060A05F018FF4FF6FF70F2
:1053D00003F0FEF90021F448FEF75CFADFF8C8A3F9
:1053E0004FF47A76DAF8000046634FF018091F2070
:1053F000EEA2CDF80090CDE901204B46C8220F2146
:10540000142006F077FA1022EBA0CDE900204FF02F
:10541000000B1346CDF808B0C8224FF48971142050
:1054200006F068FADFEDEA8A9FEDEA9A32466846AE
:10543000616C06F093FBDDE900754FF0FF31A06C65
:1054400006F034FC102F26D1287A012830D04FF6F0
:10545000FF754023DC2228211420009505F0AAFEC8
:105460006823DC2250211420009505F0A3FEDAA168
:10547000CDF80090CDE9011B5D461823DC222821E0
:10548000142006F037FA00223901D748FCF78BFECA
:10549000DAF800004563A06C06F0E0FBFEF7D8FDEB
:1054A000E06940F00200E0610A2006F023FBBDE75E
:1054B000FEF7C2FD0746E07808B1002F57D0002064
:1054C0008046E770002F54D0FEF7BCFD05462079DA
:1054D000874202D1608985423FD04FF6FF7000902D
:1054E000E023DC222821142005F064FE1422BF49A9
:1054F00017A8FAF7F8FE17A8BDA150F827200BA8A7
:1055000001F052F94FF01F080BA9CDF80090CDE93A
:1055100001181823C8222821142006F0EBF9FEF701
:1055200091FD0246B4A10BA801F03EF90BAACDF8FB
:105530000090CDE901281823C8225021142006F03C
:10554000D9F91021AFA28DE806080B46C822FA212E
:10555000142006F0CFF92771658100224FF4807185
:10556000A148FCF720FEDAF80000466393E701202B
:10557000A6E7FBF737FE0B900020B8F1000F00D034
:10558000012095ED000AD4ED090AB4EE600AF1EEAF
:1055900010FA0ED1D5ED010A94ED0A0AF4EE400A94
:1055A000F1EE10FA05D161790B9A8A4201D10028F7
:1055B00079D04FF6FF7000904FF48573DC222821DC
:1055C000142005F0F7FD2868FBF71CF941EC100BDF
:1055D00090A153EC102B03A801F0E6F803A9CDE944
:1055E00000911823C822CDF808B02821142006F015
:1055F00081F96868FBF706F941EC100B88A153ECC0
:10560000102B03A801F0D0F803A9CDE900911823CD
:10561000C822CDF808B05021142006F06BF9E068DC
:10562000FBF7F0F8074688462069FBF7EBF841ECFA
:10563000100BCDE9007853EC102B7DA103A801F0ED
:10564000B3F803A9CDE900911823C822CDF808B01A
:105650007821142006F04EF96069FBF7D3F807466D
:105660008846A069FBF7CEF841EC100BCDE9007835
:1056700053EC102B72A103A801F096F803A9CDE911
:1056800000911823C822CDF808B0A021142006F0FC
:1056900031F995ED000A84ED090A95ED010A84EDD2
:1056A0000A0A0B98607104F10C0095EC020A90EC68
:1056B000041AFBF7DFFDFBF795FD002870D00122EF
:1056C00011024948FCF76FFDD5ED000A94ED030A7D
:1056D000B0EE498AF4EEC00AF1EE10FA02DD70EE87
:1056E000C00A08E094ED040AF4EEC00AF1EE10FAE4
:1056F0000BD270EE600A20EE280A80EE808AB5EEAA
:10570000C08AF1EE10FA05D307E0B5EEC08AF1EEDB
:1057100010FA09D2B0EE498A06E018EE100AB0F18C
:105720007E5F01DDB7EE008A9FED490AA17828EE81
:10573000000ABCEEC00A10EE100A0A3000292189C6
:1057400080B208D0084480B22081B0420CD32681B8
:1057500084F802B008E0814202D9081A208103E0EF
:10576000A4F808B00120A0702089C0F57A71DAF899
:10577000000041634FF6FF700090E023DC22C82157
:10578000142005F017FDFBF727FD184905461822E0
:10579000143117A8FAF7A7FD17A850F8252059E0EB
:1057A00065E000002C00002054070020454E5620E4
:1057B0004D4F4E49544F52005041303D53455420B7
:1057C0005045323D414444205045343D53554200FC
:1057D0009A99993E0000000053656E736F722045E0
:1057E00072726F72210000000014024088090108E3
:1057F0005345543A2025730056616C75653A20254F
:10580000640000004C6F6E67205041303D43616E74
:1058100063656C0054656D703A252E316620430037
:1058200048756D693A252E31662025250000000057
:10583000543A252E31667E252E3166204300000025
:10584000483A252E31667E252E316620252500001A
:105850000000B44228A10BA800F0A6FF4FF4784145
:105860000BAACDF80090CDE9012118231DE00022FC
:105870004FF480712348FCF796FCDAF80000466389
:105880004FF6FF700090E023F022C821142005F0AD
:1058900091FCFBF79BFC012809D003281BD01AA21E
:1058A000CDE900921823CDF808B0C8220EE0FBF72E
:1058B0005DFC024619A103A800F076FF1F2003A992
:1058C000CDF80090CDE901101823C822C82114207A
:1058D00006F010F8DFE5FBF74FFC024613A103A822
:1058E00000F062FF4FF4FC6203A8CDF80090CDE910
:1058F00001021823D9E70000414C41524D3A5B2583
:10590000735D00000014024054656D702048756D91
:1059100069204E6F726D616C000000005761726EFD
:10592000696E673A25642F3500000000436C65619D
:1059300072696E673A25642F33000000ADF5A26DE1
:105940004FF4E13006F01CFE64231422AEA1B448EB
:10595000FEF76EFA4FF4FA7006F0CCF84FF000083C
:10596000C14664231722AFA1AD48FEF761FAFBF7E9
:10597000EBFC04460246B1A10DF58F6000F014FF68
:105980000DF58F60FAF7D3FC82B264230DF58F61B9
:10599000A348FEF74DFA002C4FF064033DD01622C9
:1059A000ACA19F48FEF744FA0DF59C60FBF7BAFCEA
:1059B0000DF59F62ADA10CCA0DF58F6000F0F4FEED
:1059C0000DF58F60FAF7B3FC82B264230DF58F6199
:1059D0009348FEF72DFA64230C22AAA19048FEF703
:1059E00027FA0122ABA190A802F062F90446024610
:1059F000A9A10DF58F6000F0D7FE0DF58F60FAF7C5
:105A000096FC82B264230DF58F618548FEF710FA8B
:105A100034B164231622A5A137E01122A9A1C0E761
:105A20004FF0010864231222ABA17D48FEF700FA73
:105A30003A22AEA104A802F079F902000DD0B0A17B
:105A40000DF58F6000F0B0FE0DF58F60FAF76FFC7A
:105A500082B264230DF58F6117E0002104A802F0E3
:105A600011F8079848B90DF5A0631F22A9A104A851
:105A700002F0D7FA04A802F083FA4FF0010904A853
:105A800001F0E8FF64231022ABA16548FEF7D0F9CE
:105A9000FCF78EFBAD494FF47A7A8B46C8625246CA
:105AA0005D460DF59360DBF8301006F057F80DF504
:105AB0009360E96911C841F00401E9611028EED151
:105AC000207A0128EBD194EC020A06F0A9FD606867
:105AD000FAF798FE06460F462068FAF793FE41EC67
