:020000040800F2
:10000000B8440020610200087F1A0008E5180008C3
:100010007D1A00083F0800083F1F0008000000008C
:10002000000000000000000000000000A101000826
:10003000AD0A000800000000FD0100086D1B00086B
:100040007B0200087B0200087B0200087B0200089C
:100050007B0200087B0200087B0200087B0200088C
:100060007B0200087B0200087B0200087B0200087C
:100070007B0200087B0200087B0200087B0200086C
:100080007B0200087B0200087B0200087B0200085C
:100090007B0200087B0200087B0200087B0200084C
:1000A0007B0200087B0200087B0200087B0200083C
:1000B0002D1C00087B0200087B0200087B02000860
:1000C0007B0200087B0200087B0200087B0200081C
:1000D0007B0200087B0200087B0200087B0200080C
:1000E0007B0200087B0200087B0200087B020008FC
:1000F0007B0200087B0200087B0200087B020008EC
:100100007B0200087B0200087B0200087B020008DB
:100110007B0200087B0200087B0200087B020008CB
:100120007B0200087B0200087B0200087B020008BB
:100130007B0200087B0200087B0200087B020008AB
:100140007B0200087B0200087B0200087B0200089B
:100150007B0200087B0200087B0200087B0200088B
:100160007B0200087B0200087B0200087B0200087B
:100170007B0200087B0200087B02000800000000F0
:100180007B0200087B020008DFF810D000F0D6FAEE
:100190000048004775280008AFF30080B8440020ED
:1001A0002C4B19680868B0E8F04F80F30988BFF35A
:1001B0006F8F4FF0000080F311887047000000003F
:1001C00008480068006880F308884FF0000080F35A
:1001D000148862B661B6BFF34F8FBFF36F8F00DF35
:1001E00000BF00BF08ED00E0DFF80C00016841F43B
:1001F00070010160704700BF88ED00E0EFF30980F7
:10020000BFF36F8F134B1A681EF0100F08BF20ED5D
:10021000108A20E9F04F106009B44FF0500080F3CD
:100220001188BFF34F8FBFF36F8F02F0C7FE4FF0FF
:10023000000080F3118809BC19680868B0E8F04F25
:100240001EF0100F08BFB0EC108A80F30988BFF3CE
:100250006F8F70472C000020EFF30580704700007F
:100260000648804706480047FEE7FEE7FEE7FEE750
:10027000FEE7FEE7FEE7FEE7FEE7FEE71D1C0008DF
:10028000890100082DE9F05F0546002092469B4653
:1002900088460646814640241BE02846414647469C
:1002A000224600F083F853465A46C01A914110D3B3
:1002B00011461846224600F06AF82D1A67EB01082D
:1002C0004F4622460120002100F061F817EB00099B
:1002D0004E41201EA4F10104DFDC484631462A4687
:1002E0004346BDE8F09F40EA01039B0703D009E0C5
:1002F00008C9121F08C0042AFAD203E011F8013B12
:1003000000F8013B521EF9D27047D2B201E000F86A
:10031000012B491EFBD270470022F6E710B51346A9
:100320000A4604461946FFF7F0FF204610BD421C5E
:1003300010F8011B0029FBD1801A704700F0004221
:1003400030F000400AD0C10D01F56071C0F3160015
:1003500042EA0151C208400711437047002001469C
:10036000704730B50B46014600202022012409E0E9
:1003700021FA02F59D4205D303FA02F5491B04FA5E
:1003800002F52844151EA2F10102F1DC30BD202A3D
:1003900004DB203A00FA02F1002070479140C2F1DC
:1003A000200320FA03F3194390407047202A04DB0E
:1003B000203A21FA02F00021704721FA02F3D040DE
:1003C000C2F1200291400843194670472DE9FE4FC3
:1003D000804681EA0300C00F0C46009021F00041E6
:1003E00023F00045B8EB0200A94105D24046214662
:1003F00090461C460B46024623F00040104347D06F
:10040000270DC7F30A00C3F30A510290401A019066
:1004100040286BDAC3F3130040F4801B0098924627
:1004200020B10023D2EB030A63EB0B0B0198594672
:10043000C0F140025046FFF7AAFF06460D4650465F
:100440005946019A00F08CF910EB08006141002434
:1004500087EA115284EAE7731A4340D0009A62B3E4
:10046000019A012A4FEA075215DC001B61EB0201D9
:100470004FF0004202EA0752CDE90042001C41F56C
:10048000801132462B4600F08CF903B0BDE8F08FA6
:1004900040462146F9E7001B61EB0201001C41F5D3
:1004A000801300185B412018A2F5001747EB0301E9
:1004B00040EAD570B6196D4111E06D084FEA360675
:1004C00045EAC0754FEA0752001B61EB0201001CB0
:1004D00041F5801149084FEA300000195141324678
:1004E0002B4603B0BDE8F04F00F04CB90098012254
:1004F00040000023D0EB020263EBE073009821463A
:100500004FEAE074B8EB000061EB0401E9E783F027
:1005100000435BE781F0004158E72DE9FE4F81EA97
:10052000030404F0004421F0004100944FF0000B5C
:1005300023F0004350EA01045ED052EA03045BD08A
:10054000C3F30A54C1F30A552C44A4F2F3340194C2
:10055000A0FB0254C1F3130141F48011C3F3130350
:1005600043F4801301FB024400FB034E840A970A04
:1005700044EA815447EA8357A4FB076802958D0A31
:1005800005FB07854FEA932C04FB0C542705029DBD
:100590004FEA065847EA1637B5EB08056EEB070C2D
:1005A000870E920E47EA811742EA8312A7FB0201E7
:1005B000B6EB0B0164EB00042B0D43EA0C335E1821
:1005C00044EB1C50DA465146E7FB0201C5F3130425
:1005D0004FEA0B3343EA14534FEA0432019C43EAD7
:1005E0000603A4F10C040294009CCDE900B400F0D1
:1005F000D8F803B0BDE8F08F00200146F9E72DE9F7
:10060000F04D81EA030404F0004B21F0004514464C
:100610004FF0000A23F0004150EA050220D054EACE
:1006200001021DD0C5F30A570246C5F31303C1F3F7
:100630001300C1F30A5640F4801543F48013A7EB6E
:100640000608101BD64608F2FD3873EB050002D3EE
:1006500008F1010801E092185B41B8F1000F03DADC
:1006600000200146BDE8F08D00204FF480110646C1
:1006700084460EE0171B73EB050705D3121B63EBD3
:10068000050306434CEA010C49084FEA3000921872
:100690005B4150EA0107EDD152EA030012D082EA31
:1006A000040083EA0501084305D0101BAB4106D2C4
:1006B0000122002306E000224FF0004302E06FF029
:1006C000010253101AEB06004CEB085110EB0A0024
:1006D00041EB0B01BDE8F04D00F054B8C1F30A52F4
:1006E000C1F3130140F2FF3341F480119A4202DA60
:1006F00000200146704740F233439A42A2F233424F
:1007000002DC5242FFF752BEFFF741BE30B5041E75
:1007100071F1000404DB4FF00044404264EB01013E
:10072000141E73F1000405DB1C464FF000435242D7
:1007300063EB0403994208BF904230BD064C074D5D
:1007400006E0E06840F0010394E8070098471034A1
:10075000AC42F6D3FFF71CFD543400087434000893
:10076000202A06DBCB17203A41FA02F043EAE07375
:1007700006E041FA02F3D040C2F120029140084362
:100780001946704710B5141E73F1000408DA401CB6
:1007900041F1000192185B411A4301D120F00100A0
:1007A00010BD2DE9F04D92469B4611B1B1FA81F290
:1007B00002E0B0FA80F220329046FFF7E8FD0446EE
:1007C0000F4640EA0A0041EA0B0153465A460843E5
:1007D00013D0114653EA010019D0C8F14002504627
:1007E000FFF7E4FD05460E46504659464246FFF7E0
:1007F000CEFD084305D0012004E020463946BDE87F
:10080000F08D0020054346EAE0762C4337430A98F2
:100810006305E40AA0EB08000022FD0A44EA4754FD
:100820000A3002D500200146E9E7010510196941A7
:10083000DDE9084500196941BDE8F04DA2E7FEE792
:1008400030B587B014216846FFF766FD0E48016891
:1008500041F04001016000684FF4007400F0400076
:1008600005901120CDE90040012002900220074DA3
:1008700003906946284600F01DF9012221462846CA
:1008800000F015FA07B030BD3038024000180240C1
:1008900070B50D46064600242946304600F04CF857
:1008A000002807D0642001F0CFFF641CE4B20A2CBA
:1008B000F2D3012070BD00002DE9F84F83460020DF
:1008C000DFF870A08DF80000054680464FF496765C
:1008D0004FF4007900246F463146204600F0C8F8F6
:1008E00030BB3146012000F0C3F808BB05E0012011
:1008F000641C01F0A9FFB4421AD84946504600F0E2
:10090000D1F90128F3D01E2C01D9012000E00020EC
:1009100038709DF8000008F1010840EA4500C5B2B2
:10092000B8F1080FD6DB8BF800500020BDE8F88F37
:100930000120FBE7001802402DE9FC47814600201A
:10094000464D88460090064602464FF400740190DA
:100950002146284600F0ABF944F6206001F074FF10
:1009600001222146284600F0A2F91E2001F06CFF6A
:100970004FF4967705E00120761C01F065FFBE423A
:1009800063D82146284600F08DF90128F3D00026CF
:1009900005E00120761C01F057FFBE4255D82146E4
:1009A000284600F07FF90028F3D0002605E001205A
:1009B000761C01F049FFBE4247D82146284600F088
:1009C00071F90128F3D000246D462819FFF774FF50
:1009D000D8BB641C052CF8DB9DF800309DF8012085
:1009E0009DF802109DF803009C180D182C449DF8EA
:1009F0000450AC4229D100EE103A9FED191A01EED5
:100A0000900AF8EE400A00EE102AF8EE611AB8EEED
:100A1000400A40EE010A00EE101AB8EE400AF5EE68
:100A2000C00A01EE810AF1EE10FA0ED310EE900A20
:100A30000C49884209DC10EE100A0B49884204D8A0
:100A400010EE100A0949884202DD0120BDE8FC874A
:100A5000C8ED000A89ED000A0020F7E700180240FF
:100A6000CDCCCC3D0000C8420000A0C10000A04297
:100A70002DE9F0410E46054600244FF40077DFF8DB
:100A8000288008E0012001F0DFFE641CB44202D39C
:100A90000120BDE8F0813946404600F003F9A84244
:100AA000F0D10020F5E7000000180240704772B650
:100AB000FEE700002DE9F84FDFF8BCA10022012578
:100AC00003264FF00F090AF1040BAAF1040E00BF30
:100AD0000B6805FA02F42340A34270D10F7907F0A6
:100AE0000307012F01D0022F16D187684FEA420871
:100AF00006FA08FC27EA0C07D1F80CC00CFA08FC2F
:100B00004CEA070CC0F808C04768A7430C79C4F347
:100B1000001494403C4344600C79E443A4070AD099
:100B2000C4684FEA420C06FA0CF7BC438F6807FA18
:100B30000CF72743C7600C7904F00304022C12D190
:100B4000D40800EB840CDCF820405707FF0E09FAAC
:100B500007F824EA0804D1F8108008FA07F848EAF0
:100B60000408CCF8208004684FEA420C06FA0CF71F
:100B7000BC430F7907F0030707FA0CF72743076018
:100B80004C6814F4403F70D03C4C276847F48047D1
:100B90002760246822F0030704F480440094384C52
:100BA00007EB040CDCF8084897074FEA177809FAB6
:100BB00008F7BC43334FB84202D1002724E054E089
:100BC000314FB84201D101271EE0304FB84201D168
:100BD000022719E02E4FB84201D1032714E02D4F10
:100BE000B84201D104270FE02B4FB84201D10527AD
:100BF0000AE02A4FB84201D1062705E0284FB84243
:100C000001D1072700E0082707FA08F72743CCF8A7
:100C10000878DAF800405746D1F804C09C435FEAF0
:100C2000CC2C00D51C433C60DBF800405F46D1F87B
:100C300004C09C435FEA8C2C00D51C433C60DEF86A
:100C400000407746D1F804C09C435FEA8C3C00D555
:100C50001C433C60084F083F3C68D1F804C09C43EB
:100C60005FEACC3C00D51C433C60521C102AFFF4C8
:100C70002FAFBDE8F88F0000083C01404438024027
:100C80000030014000000240000402400008024021
:100C9000000C024000100240001402400018024004
:100CA000001C02400069084000D0012070470AB1D2
:100CB000816170470904FBE70148806870470000C4
:100CC0001C0000200248816802781144816070474E
:100CD0001C0000200B4810B5016841F40071016050
:100CE000016841F480610160016841F48071016034
:100CF000032000F073F80F2000F006F800F024F84D
:100D0000002010BD003C024070B50D4D04464FF46C
:100D10007A712878B1FBF0F00A490968B1FBF0F06C
:100D200000F00EFB48B9102C07D200222146501EBD
:100D300000F034F800206C6070BD012070BD000030
:100D40001C000020280000200C4882B0016841F4FB
:100D500080410160006800F4804000900748001F57
:100D6000016841F0805101600068002200F080506D
:100D700000900F21901E02B000F010B844380240DD
:100D8000002809DB00F01F0201219140400980008A
:100D900000F1E020C0F8001170470000F0B40E4BE5
:100DA0001B680C46C3F30223C3F10705042D00D9C9
:100DB0000425191D072901D2002300E0DB1E0126AE
:100DC00006FA05F1491E214099409E40761E1640C4
:100DD0003143F0BC01F0C8B80CED00E0064900F06A
:100DE000070208684FF6FF03184040EA0220034A52
:100DF00010430860704700000CED00E00000FA05A9
:100E00002DE9F0470E46050065D0DFF81481D8F8CB
:100E10000000F7B200F00700B04207D288F8007077
:100E2000D8F8000000F00700B04254D128683D4CCB
:100E3000810712D5400703D5206840F4E0502060B8
:100E40002878000703D5206840F4604020602068BF
:100E5000A96820F0F000084320602878C0072DD052
:100E6000304968680839012812D0022813D00328B5
:100E700011D00968890700292DDA216821F00301C2
:100E800001432160FFF718FF814641F2883A0EE0E6
:100E900009688903EFE709688901ECE7FFF70CFFB0
:100EA000A0EB0901514502D90320BDE8F087206875
:100EB000696800F00C00B0EB810FEFD1D8F800109A
:100EC000404601F00701B14207D90770006800F001
:100ED0000700B04201D00120E7E72878400705D598
:100EE0002068E96820F4E050084320602878000773
:100EF00006D52068296920F4604040EAC1002060DE
:100F000000F038F82168084AC1F30311515CC84069
:100F10000649086006480068FFF7F6FE0020C4E7AF
:100F2000003C024008380240043400082800002039
:100F3000200000200448054900680968044AC1F3FC
:100F40008221515CC84070472800002008380240C8
:100F5000143400080448054900680968044AC1F3CC
:100F60004231515CC84070472800002008380240D8
:100F700014340008154810B5006810F00C0214482D
:100F800013D04110042A0FD0082A0ED10F4C241F71
:100F90002268236802F03F025B0207D52068C0F395
:100FA0008810A0FB010106E0084610BD2168C1F3CE
:100FB0008811A1FB00010023FFF764F92168C1F348
:100FC0000141491C4900B0FBF1F010BD0838024056
:100FD0000024F4002DE9F84F04006ED02078DFF8EB
:100FE0004C93C007A9F104054AD009F10400016837
:100FF000C1F38101012908D00068C0F381000228F3
:101000000AD1D9F80000400206D52868800337D5F8
:1010100060680028E1D033E06068B0F5803F10D010
:10102000B0F5A02F286810D020F480302860286800
:1010300020F4802028606068A8B1FFF73DFE0646D6
:101040000DE0286840F48030F4E740F48020286008
:10105000F7E700BFFFF730FE801B642873D82868CD
:101060008003F7D50CE0FFF727FE064605E000BF3A
:10107000FFF722FE801B6428F0D828688003F7D48D
:101080002078DFF8AC8280074FF0000A3ED5A748F1
:10109000001D016811F00C0F08D00068C0F381003A
:1010A00002280BD1D9F80000400207D42868800735
:1010B00016D5E068012800D112E033E1E068B8B14C
:1010C0000120C8F80000FFF7F7FD064605E000BF65
:1010D000FFF7F2FD801B0228C0D828688007F7D5EB
:1010E0002868216920F0F80040EAC10028600DE07E
:1010F000C8F800A0FFF7E0FD064604E0FFF7DCFDBE
:10110000801B02281FD828688007F7D420780007A2
:1011100022D5864F87486169703771B1012101601E
:10112000FFF7CAFD064604E0FFF7C6FD801B022854
:1011300009D838688007F7D50EE0C0F800A0FFF79F
:10114000BBFD064605E082E0FFF7B6FD801B0228E6
:101150007DD838688007F7D42078400768D5DFF855
:10116000CCB100270BF13C0BDBF80000C0000BD426
:10117000DBF8001041F08051CBF80010DBF80000E4
:10118000012700F0805000906B4E3068C00510D4ED
:10119000306840F480703060FFF78EFD009005E00D
:1011A000FFF78AFD0099401A022850D83068C00520
:1011B000F6D55E4EA0686C3601280FD00528306841
:1011C00010D020F001003060306820F00400306062
:1011D000A068B8B1FFF770FD00900FE0306840F0F4
:1011E0000100F4E740F004003060F7E7FFF764FD2A
:1011F0000099411A41F28830814266D830688007F0
:10120000F4D50EE0FFF758FD009007E0FFF754FD1E
:101210000099411A41F28830814256D830688007DF
:10122000F4D42FB1DBF8001021F08051CBF800107E
:10123000A069C8B33D49091D0968C1F381010229AC
:101240004AD00228504607D0C8F8600000E03CE0D1
:10125000FFF732FD04463BE04746C8F86000FFF761
:101260002BFD064605E000BFFFF726FD801B022888
:101270002BD828688001F7D4D4E907010843A16A74
:101280002E4A490802EB0141626A41EA8211084391
:1012900094F82C1040EA0161C9F80010012038666A
:1012A000FFF70AFD044606E03EE000BFFFF704FD3D
:1012B000001B022809D828688001F7D534E000BF58
:1012C000FFF7FAFC001B022802D90320BDE8F88FC3
:1012D00028688001F4D427E00128F7D0D9F800006D
:1012E000E26900F4800191421CD1226A00F03F01C2
:1012F000914217D147F6C071626A0140B1EB821F7B
:1013000010D1A26A4FF0FF3300F4403103EB5202D8
:10131000B1EB024F06D194F82C1000F07060B0EBE6
:10132000016F01D00120D1E70020CFE7043802404F
:1013300000004742800E4742007000400000FFFF5F
:1013400010B5401EB0F1807F01D3012010BD4FF0D9
:10135000E02460610F21601700F006FE0020A0610C
:1013600007202061002010BD7047704770B590F8CD
:101370003C20012A32D0012480F83C40022280F82F
:101380003D2003685A689D6822F070060A6832435F
:101390005A60134B02689A4214D0B2F1804F11D0B8
:1013A000104B9A420ED0104B9A420BD00F4B9A42E0
:1013B00008D00F4B9A4205D00E4B9A4202D00E4BEA
:1013C0009A4204D1496825F080031943916080F85E
:1013D0003D40002180F83C10084670BD022070BDE1
:1013E000000001400004004000080040000C0040E4
:1013F00000040140004001400018004010B5040006
:1014000003D094F83D0010B107E0012010BD00208A
:1014100084F83C00204600F01FF8022084F83D00CC
:10142000211D206800F008FC012084F8460084F8A3
:101430003E0084F83F0084F8400084F8410084F8BE
:10144000420084F8430084F8440084F8450084F89E
:101450003D00002010BD000008B50068B0F1804FCD
:1014600012D10A48016841F00101016000680022C0
:1014700000F00100009005211C20FFF78FFCBDE863
:1014800008401C20FFF77CBC08BD0000403802402B
:1014900090F83D10012901D001207047022180F809
:1014A0003D1000681149884214D0B0F1804F11D02E
:1014B0000F4988420ED00F4988420BD00E4988420E
:1014C00008D00E49884205D00D49884202D00D4906
:1014D000884204D1816801F00701062903D0016820
:1014E00041F0010101600020704700000000014050
:1014F0000004004000080040000C004000040140CF
:10150000004001400018004001680A6A41F21113CE
:101510001A4207D10A6A9B101A4203D10A6822F0C4
:1015200001020A60012180F83D100020704770B56B
:10153000044690F83C000025012817D0012684F8C5
:101540003C60022084F83D002068826822F0770227
:1015500022F47F4282600868502838D00DDC2028B1
:101560004FD005DC90B3102811D14AE0022070BDA5
:10157000302846D040280AD13BE060282FD0702880
:101580000DD0B0F5805F03D0B0F5005F12D001251B
:1015900084F83D60002084F83C00284670BDCB688C
:1015A000D1E90121206800F0AFFB2068816841F09B
:1015B000770109E0CB68D1E90121206800F0A4FBA4
:1015C0002068816841F480418160E1E719E0CA68E0
:1015D0004968206800F0AAFB5021206806E0CA682C
:1015E0004968206800F0B3FB6021206800F096FB9A
:1015F000CEE7CA684968206800F098FB402120685F
:10160000F4E7226801461046F0E770472DE9F04103
:1016100004460068C66805694FF00007A90713D59E
:10162000B10711D5F91E016101202077206880697A
:101630008007204602D0FFF7E8FF04E000F07EF8C4
:10164000204600F07CF82777680716D5700714D578
:1016500021686FF00400086102202077206880690B
:1016600010F4407F204602D0FFF7CFFF04E000F0E7
:1016700065F8204600F063F82777280715D530076E
:1016800013D521686FF008000861042020772068D6
:10169000C0698007204602D0FFF7B7FF04E000F0E2
:1016A0004DF8204600F04BF82777E80616D5F006EF
:1016B00014D521686FF01000086108202077206899
:1016C000C06910F4407F204602D0FFF79EFF04E07F
:1016D00000F034F8204600F032F82777E80708D009
:1016E000F00706D021686FF001000861204600F085
:1016F00027F8280608D5300606D521686FF0800047
:1017000008612046FFF730FE680608D5700606D54A
:1017100021686FF040000861204600F012F8A8062A
:101720000AD5B00608D521686FF020000861204670
:10173000BDE8F041FFF719BEBDE8F0817047704782
:101740007047704770B5040004D094F8410000253C
:1017500010B106E0012070BD84F84050204600F032
:1017600023F8242084F841002068C16821F4005146
:10177000C160204600F024FB2068016921F49041FB
:1017800001612068416921F02A0141612068C16836
:1017900041F40051C1606564202084F8410084F860
:1017A00042006563002070BDF0B587B00446142187
:1017B0006846FEF7B1FD1F4F236800221E49022430
:1017C000032507261D48BB4213D11B4B14331F684A
:1017D00047F010071F601B6803F0100305930B68A8
:1017E00043F001030B60096801F0010105916902F2
:1017F00015E0134FBB421AD10F4B10331F6847F44B
:1018000000371F601B6803F4003305930B6843F037
:1018100001030B60096801F0010105910C21CDE97C
:10182000001402AB694683E86400FFF743F907B090
:10183000F0BD0000001001403038024000000240BE
:10184000004400402DE9F843044690F841009846D2
:1018500016460D46202802D00220BDE8F88385B147
:101860007EB100206064212084F84100FFF724FA53
:10187000A6848146E684A0682027B0F5805F02D068
:1018800003E00120E9E7206910B12E4600250EE0B3
:1018900000260CE08021204600F018FBA8B9C6B154
:1018A00016F8010B21684860E08C401EE084E08C53
:1018B0004B464FF00002CDF800800028EAD14FF0EF
:1018C0004001204600F002FB40B184F84170032043
:1018D000C3E735F8020BC0F30800E3E784F8417072
:1018E0000020BAE7FEE7000010B59CB01C221649A4
:1018F0006846FEF7F8FC0021684600F0DFFF134C55
:1019000011491C22E0601C3107A8FEF7ECFC002105
:1019100007A800F0D3FF0C4920611C2238310EA823
:10192000FEF7E1FC00210EA800F0C8FF0649606147
:101930001C22543115A8FEF7D6FC002115A800F092
:10194000BDFFA0611CB010BD943300080000002052
:1019500070B586B014216846FEF7DEFC1E480025EF
:10196000016841F020010160016801F0200105914A
:10197000016841F080010160016801F0800105917A
:10198000016841F001010160016801F00101059168
:10199000016841F004010160016801F00401059152
:1019A000016841F00801016000680C4E00F0080079
:1019B0004FF400740590002221463046FFF777F976
:1019C0000121CDE90041CDE9021569463046FFF716
:1019D00071F806B070BD00003038024000140240BB
:1019E00010B586B000241648009401940294039424
:1019F00004944FF08041059401605321C0E9011423
:101A0000611EC0E903148461FFF7F8FC08B1FFF719
:101A10004EF84FF48050009069460948FFF787FD63
:101A200008B1FFF744F8049404A905480594FFF7AA
:101A30009DFC002801D0FFF73AF806B010BD000069
:101A4000EC0200200C4810B50A4901604FF4E13166
:101A50004160002181600C22C160C0E904128161F3
:101A6000C161FFF76FFE002803D0BDE81040FFF70B
:101A70001EB810BD0010014034030020FEE7FEE751
:101A8000FEE7012000F00EFFFBE7012000F00AFF57
:101A9000FBE7000094B09FED260A8DED120A8DED54
:101AA000130AFEF7CDFE234C4FF40078DFF8889040
:101AB0004FF4FA6A01F0A6F913A912A8FEF7E8FE9E
:101AC000054601F0BFF985B10020207064230D2286
:101AD0001AA11E48FFF7B6FE002241464846FFF70E
:101AE000E6F8504600F0DEFEE4E7129F67601398C8
:101AF0000121A0602170FEF721FC05460E46384604
:101B0000FEF71CFC41EC100BCDE9005653EC102BFA
:101B10000FA102A800F014FA02A8FEF708FC82B296
:101B2000642302A90948FFF78DFE0122D5E70000D2
:101B300000000000000000200014024052656164B3
:101B4000204572726F720D0A0000000034030020FD
:101B500054656D703A20252E3166432C2048756DF2
:101B6000693A20252E316625250D0A0010B5FFF7AC
:101B7000A9F801F039FB012803D0BDE8104001F0BD
:101B8000C5BA10BD30B593B030216846FEF7C4FB2E
:101B900014210CA8FEF7C0FB1E480025016841F087
:101BA00080510160006800F0805011901A4801686F
:101BB00041F4804101600068022400F480401190EB
:101BC00001200090000401908001CDE9064008202A
:101BD00008904FF4A870CDE9090407200B906846DF
:101BE000FFF7F8F908B172B6FEE70CA90F2081E8FB
:101BF00031004FF4A0500F904FF480501090052109
:101C00000CA8FFF7FDF8002801D072B6FEE713B06C
:101C100030BD0000403802400070004002480168BA
:101C200041F470010160704788ED00E00148FFF762
:101C3000EDBC0000EC020020F0B50268274B284DF7
:101C4000284E294F294C4FF0804C984209D06045CE
:101C500007D0A84205D0B04203D0B84201D0A0427C
:101C600004D122F0700E4A6842EA0E0298421BD05C
:101C7000604519D0A84217D0B04215D0B84213D051
:101C8000A04211D01A4DA8420ED01A4DA8420BD036
:101C9000194DA84208D0194DA84205D0184DA842A8
:101CA00002D0184DA84203D122F44075CA682A43D5
:101CB0004D6922F080022A438D68C5620D688562F5
:101CC000984201D0A04201D109690163016841F045
:101CD00004010160012141610260F0BD000001408A
:101CE0000004004000080040000C004000040140D7
:101CF00000400140004401400048014000180040FD
:101D0000001C00400020004010B5846842EA032215
:101D100024F47F440A432243826010BD826822F08B
:101D200070020A4342F007018160704710B5036AF0
:101D3000046A24F001040462846924F0F00444EA93
:101D4000021423F00A020A438461026210BD10B536
:101D5000036A046A24F010040462846923F0A00377
:101D600024F4704444EA023243EA011182610162C0
:101D700010BD01680C3151E8002F22F4907241E847
:101D80000023002BF5D10168143151E8002F22F017
:101D9000010241E80023002BF5D1016B012909D193
:101DA00001680C3151E8002F22F0100241E80023B5
:101DB000002BF5D1202180F84210002101637047EB
:101DC00070B5044600680169E26821F4405111438E
:101DD00001612169A068E269084361691143084310
:101DE0002168CA6849F20C639A430243CA602068BA
:101DF0004169A26921F44071114341613149206870
:101E0000884202D03049884202D1FFF7A3F801E0AE
:101E1000FFF790F8E2690023192164253226B2F514
:101E2000004F626828D0A0FB0101930F9200FEF7DB
:101E300029FA0146B0FBF5F06FF01802504301EBB0
:101E4000800006EB0010B0FBF5F000F0F002B1FBF3
:101E5000F5F002EB0012B1FBF5F06FF018035843F8
:101E600001EB800006EB0010B0FBF5F000F00F0076
:101E700021681044886070BDA0FB010192185B418D
:101E8000FEF700FA0146B0FBF5F00201B1FBF5F0F8
:101E90006FF01803584301EB800006EBC000B0FB65
:101EA000F5F000F0F80002EB4002B1FBF5F058430A
:101EB00001EB800006EBC000B0FBF5F000F007007E
:101EC000D6E7000000100140001401402DE9F8435E
:101ED000984617460D460446089E24E0701C22D002
:101EE000FEF7EAFEA0EB0800B0421AD8CEB1206897
:101EF000C168490717D5802D15D0402D13D0016832
:101F0000C94309070FD401680025406800902046A6
:101F1000FFF72FFF0820606484F840500120BDE8DF
:101F2000F8830320FBE72068006835EA000004D04E
:101F30000020B842D2D00020F1E70120F9E7FEE707
:101F40000FB4084B10B504A902AA039800F0EEF8EC
:101F5000044602A9002000F06CFC204610BC5DF88D
:101F600014FB0000332800080907090E002804DBD1
:101F700000F1E02080F80014704700F00F0000F13D
:101F8000E02080F8141D704702E008C8121F08C145
:101F9000002AFAD170477047002001E001C1121FEA
:101FA000002AFBD1704700002DE9FF5F82B00021BD
:101FB000DDE90430020DDDF840B0034318D044F6EB
:101FC0001050A2F2FF3242431514119801281FD07D
:101FD000A5EB0B00401C5FEA000A4FF000064E4FD5
:101FE000DFF83891B046504615D5CAF1000413E029
:101FF000119801244AA3012801D16FEA0B0102982C
:10200000119AC0E90031C0E9024206B0BDE8F09F74
:10201000CBF10000DFE704460021404A491842EBBB
:102020000450CDE9001012E0E00707D032463B46ED
:1020300040464946FEF771FA8046894632463B469D
:1020400010461946FEF769FA06460F466410002C42
:10205000EAD1DDE90401DDE90023BAF1000F06DA77
:10206000FEF75BFA42464B46FEF757FA05E0FEF7ED
:10207000C6FA42464B46FEF7C2FA04460E46002216
:10208000284BFEF743FB03D84FF0FF30014607E033
:102090000022254B20463146FEF798F9FEF71EFB3D
:1020A000102409E0002C0ADB0A220023FEF7EAF8DC
:1020B000039B30321A55641E50EA0102F2D1641CAF
:1020C000039AC4F111031444119A012A03D0012286
:1020D00008430DD10AE0084304D000204FF0110B53
:1020E000119072E7A3EB0B056D1E0DE05B4504DD5F
:1020F0004FF0000205F1010504E003DA4FF00002A1
:10210000A5F10105002AECD002981199C0E902312D
:10211000C0E9004579E70000000014400000F03FEE
:10212000300000000000F0430000E03F2DE9FF4FC9
:1021300095B09A46884606460025EEE1252877D1D7
:1021400000242746F94A0121039400E0044316F8CD
:10215000013F203B01FA03F01042F7D130782A28E2
:1021600011D06FF02F033078A0F13002092A16D871
:10217000039A44F0020402EB820203EB4202104491
:10218000761C0390EFE758F8042B0392002A03DA39
:10219000504244F40054039044F00204761C30781A
:1021A0002E2816D116F8010F44F004042A280DD069
:1021B0006FF02F023078A0F13003092B09D807EB1C
:1021C000870302EB4303C718761CF3E758F8047B38
:1021D000761C30786C280FD006DC4C2817D0682885
:1021E0000DD06A2814D104E0742810D07A280FD1B9
:1021F0000DE044F400140AE044F4801401E044F4D7
:1022000040147278824202D104F58014761C761C48
:10221000307866280BD013DC582877D009DC0028EA
:1022200075D04528F6D04628F4D047281AD193E136
:1022300018E0632835D0642879D0652812D18BE165
:10224000702873D008DC6728F1D069286FD06E2819
:102250000DD06F2806D1ACE073282CD0752874D02F
:10226000782853D05246179990476D1C54E1C4F317
:102270000250022809D003280DD0D8F800100428F5
:102280000DD00D6008F1040846E1D8F80010EA17F7
:10229000C1E90052F6E7D8F800100D80F2E70D70A2
:1022A000F0E718F8041B8DF8001000208DF80100ED
:1022B000EB46012003E058F804BB4FF0FF30610704
:1022C0004FF0000102D40DE009F101018946B94245
:1022D0000FDA8145F8DB1BF809100029F4D108E07A
:1022E00009F1010189468142FADB1BF80910002936
:1022F000F6D103985346A0EB090721463846179AB2
:1023000000F080FA284400EB090507E044E008E10A
:102310000DE01BF8010B524617999047B9F10109DE
:10232000F7D2534621463846179AF2E039E00A219F
:10233000C4F302524FF0000B0091022A06D058F865
:10234000040BC117032A09D00AE023E008F10700B3
:1023500020F00702F2E80201904605E000B2C11742
:10236000042A01D140B2C117002906DA0A46002129
:10237000404261EB02012D2202E0220504D52B220E
:102380008DF80420012203E0E20701D02022F7E7C4
:10239000914657E00A2100E010214FF0000B009118
:1023A0000BE010214FF0000B44F0040408270091CB
:1023B00003E008204FF0000B0090C4F30252022A01
:1023C00005D058F8040B0021032A08D008E008F1D2
:1023D000070020F00702F2E80201904603E080B215
:1023E000042A00D1C0B24FF0000922072AD5327862
:1023F000702A07D0DDF800C08CF0100C5CEA0B0CE2
:1024000005D00EE040228DF80420012208E050EAB9
:10241000010306D030238DF804308DF80520022208
:102420009146009B83F0080353EA0B030AD150EA5C
:10243000010201D1620705D530228DF804204FF04A
:1024400001097F1E3278582A04D039A20C920CAAB6
:1024500002920BE03BA2F9E75B46009AFDF712FF00
:102460000C9B9B5C029A521E0292137050EA01026E
:10247000F2D1029804A9081A00F1200B600702D5D6
:1024800024F4803400E001275F4502DDA7EB0B0058
:1024900000E0002000EB0B01009003984944401A33
:1024A0000390E00306D453462146179A039800F0A0
:1024B000A9F90544002706E001A85246C05D179916
:1024C00090476D1C7F1C4F45F6DBE0030CD553464F
:1024D0002146179A039800F095F9054404E030204E
:1024E0005246179990476D1C0099481E009000298C
:1024F000F5DC08E00298029952460078491C0291E6
:10250000179990476D1CBBF10001ABF1010BF1DC99
:102510005BE100F065F90544761C307800287FF413
:102520000DAE19B02846BDE8F08F00000928010063
:102530003031323334353637383961626364656639
:1025400000000000303132333435363738394142FB
:102550004344454600000000600700D4062708F108
:10256000070020F00700F0E80223804603F0004C4B
:102570005FEA0C0001D097A009E0200501D596A0E4
:1025800005E0E00701D095A001E0AFF24C00139008
:10259000307823F0004365280CD006DC452809D0AC
:1025A00046281DD047287FD13BE0662818D06728F1
:1025B0007AD136E00021112F01DB112000E0781CD8
:1025C000CDE9000104A90CA8FFF7EEFCDDE90D013F
:1025D0000C9A4FF0000B07F10109109200914EE0A8
:1025E0004FF000400097CDE9011004A90CA8FFF7B7
:1025F000DBFCDDE90D020C9B0F994FF0000B9146BF
:102600001093009211B9791C00EB0109B7EB090096
:1026100003D4C0F1FF3B07F10109A9EB07000190CA
:1026200042E0012F00DA01270021112F01DD1120E6
:1026300000E03846CDE9000104A90CA8FFF7B4FC7E
:10264000DDE90D010C9A00914FF0000BB946109294
:1026500021070FD4009A4A4503DA914601E0A9F117
:102660000109B9F1010F05DD109AA9F10101515CD1
:102670003029F4D0B84202DA10F1040F03DA012154
:10268000CDE9011010E0002803DC8344A9EB000130
:1026900002E0411C494500DD8946A0EB0B00401CCF
:1026A00001904FF000400290200705D40198484562
:1026B00002DB4FF0FF30019000208DF84B000298B4
:1026C0000DF14B07B0F1004F25D002200C902B20CC
:1026D0000D90029800280CDA404202902D200D90B7
:1026E00007E00A210298FDF73CFE3031029007F81E
:1026F000011D0C99481E0C900029F2DC029800285C
:10270000EFD1791E0D980870307800F0200040F06D
:10271000450007F8020D11A8C01BC01D02901398B8
:10272000007800B1012000EB0901019801EBE07194
:10273000029801440398401A401E0390E00306D417
:1027400053462146179A039800F05CF80544139805
:10275000007818B15246179990476D1CE00323D5B5
:1027600053462146179A039800F04CF805441BE0A5
:10277000BBF1000F07DB0098584504DD109817994E
:1027800010F80B0001E0179930205246904701984D
:102790000BF1010B401E05F10105019004D12E2023
:1027A0005246179990476D1CB9F10001A9F1010932
:1027B000DEDC05E017F8010B5246179990476D1CB7
:1027C0000299481E02900029F4DC53462146179ACC
:1027D00003989EE62D0000002B0000002000000062
:1027E0002DE9F041044600251E461746880404D40E
:1027F00005E039462020B0476D1C641EF9D52846F7
:10280000BDE8F0812DE9F041044600251E469046C2
:10281000C80301D5302700E02027880404D505E04F
:1028200041463846B0476D1C641EF9D52846BDE8C0
:10283000F0810A68531C0B601070704701490860F2
:10284000704700009400002010B504000FD0084825
:10285000FEF71EFE06480021026851620068416AC8
:10286000A142FCD3BDE810400148FEF74DBE10BDAB
:10287000EC020020FEF72EFAFFF784F9FFF768F864
:10288000FFF7AEF8FFF7DEF8A820FFF7D7FFFFF756
:102890002BF800F00EF8FEE701460020842900D056
:1028A000C81C704710B500B9012000F023FB0020C0
:1028B00010BD10B500F044FB002010BD7FB50D46E3
:1028C00004464169B0F9080081B1A16971B1FFF70F
:1028D000E3FFD4E905128DE80700D4E900102B4688
:1028E000226900F056FC039004B070BDFFF7D4FFDE
:1028F00003A9CDE90001208A2B4682B2D4E9001059
:1029000000F01AFC012801D00020EDE70398EBE766
:102910002DE9F041184C0F460546E6682068001D79
:1029200000F020FA38B9206890F82C100120884077
:10293000216981432161681C07D137B12168BDE855
:10294000F0410E48091D00F051BA20683544B542E7
:102950004560216805D2A06BBDE8F041091D00F07B
:102960002DBA606B091D00F029FAA06A854200D2D9
:10297000A562BDE8F08100002C000020A00400202A
:102980002DE9F041054600F03DFA2E4CA068401CB0
:10299000A06020682C4F10B1606940B32DE0256025
:1029A000A068012829D1002606EB860007EB8000ED
:1029B00000F0F6F9761C072EF6D323488C3000F091
:1029C000EFF92148A03000F0EBF91F48B43000F0D7
:1029D000E7F91D48C83000F0E3F91B48DC3000F08F
:1029E000DFF919488C3060631430A06305E020687B
:1029F000E96AC06A884200D82560606A401C60624B
:102A0000E96A0120226988401043206101EB8100BE
:102A100007EB8000291D00F0E9F900F013FA606966
:102A200000280CD02068E96AC06A884207D20749AA
:102A30004FF080500860BFF34F8FBFF36F8FBDE83A
:102A4000F08100002C000020C403002004ED00E011
:102A500010B5044690F8510058B101280CD0022856
:102A60000FD0502080F31188BFF34F8FBFF36F8FCB
:102A7000FEE7206B00F0FAF92046BDE8104000F0B8
:102A8000F5B910BD10484FF47051420706D0C01D73
:102A90000D4920F00700411AC1F570510B4A00237F
:102AA0000144C2E900030839183A21F00701116016
:102AB0004B600B600B1AC0E9001393604FF00040AD
:102AC0005360506170470000B40400208000002073
:102AD000144E154CA6F1C8074FF08058DFF84C9003
:102AE00012E000BF00F08EF9F068C568281D00F004
:102AF00039F9A068401EA0606068401E606000F068
:102B0000A1F92846FFF7A4FF60680028EAD13868D9
:102B10000128F9D9C9F80080BFF34F8FBFF36F8F39
:102B2000F2E700008C0400202C00002004ED00E0FF
:102B30002DE9F0479A46DDE9098481466FF00303E9
:102B4000206B03EB82021044089E20F007077807F1
:102B500007D0502080F31188BFF34F8FBFF36F8FE2
:102B6000FEE7002561B1002023180A5C83F83420B9
:102B70000A5C12B1401C1028F6D384F8435001E0DF
:102B800084F83450072E00D30626E662C4E91165A6
:102B9000201D00F010F904F1180000F00CF9246178
:102BA000C6F107006462A061E56484F850505246A3
:102BB0004946384600F0C0F82060B8F1000F01D057
:102BC000C8F80040BDE8F08730B5114900E0114673
:102BD0000A688242FBD34B685C18844203D1406888
:102BE00018444860084643681C18944209D1084CB0
:102BF000183C2468A24209D052681A4442600A680C
:102C000012680260814200D0086030BD0460F9E7BC
:102C1000800000200648416B096829B1416BC968F2
:102C2000C9684968816270474FF0FF31FAE70000D8
:102C30002C00002008484068401C4FF0500080F3F2
:102C4000118804D0BFF34F8FBFF36F8FFEE7BFF340
:102C50004F8FBFF36F8FFEE7880000202DE9F04112
:102C60000546002700F0A2F9324E306808B9FFF798
:102C700009FF706905424ED1C5B3083568070ED00B
:102C800005F00700C0F108000544680707D0502090
:102C900080F31188BFF34F8FBFF36F8FFEE72DB323
:102CA0007068854237D82348183001460C6801E027
:102CB00020460C466168A94202D221680029F7D15A
:102CC00031688C4227D00768216801606068083746
:102CD000411B10290FD96019420708D0502080F3FA
:102CE0001188BFF34F8FBFF36F8FFEE713E0416092
:102CF0006560FFF769FF61687068401A7060B268CC
:102D0000904200D2B060706901430020C4E9000124
:102D1000F068401CF06000F0DBFA780707D0502024
:102D200080F31188BFF34F8FBFF36F8FFEE73846F4
:102D3000BDE8F0816800002010B5031F4FF08074DB
:102D40001C601B1F21F001011960191F044B0B604F
:102D500014390A60091F6FF0020244380A6010BD7E
:102D6000352C0008D0E9013201699A60D0E90123CD
:102D70005A604A68824201D182684A600022026138
:102D80000868401E0860086870470000034B036035
:102D900003F1540008608020106070479800002004
:102DA00000F108014FF0FF32C0E90112C16001617A
:102DB00000210160704700210161704730B50B6848
:102DC0005A1C02D000F1080202E0026904E0224627
:102DD000546825689D42FAD953684B6099608A60AF
:102DE000516008610168491C016030BD42684A6059
:102DF00093688B6093685960916008610168491C11
:102E000001607047502080F31188BFF34F8FBFF3EC
:102E10006F8F0A494868401C486001280CD1084857
:102E2000006810F0FF0F07D0502080F31188BFF327
:102E30004F8FBFF36F8FFEE77047000088000020C0
:102E400004ED00E00849486828B1401E486001D1FF
:102E500080F311887047502080F31188BFF34F8FA3
:102E6000BFF36F8FFEE700008800002070B50028D8
:102E70002AD0164DA0F1080460686969084207D19C
:102E8000502080F31188BFF34F8FBFF36F8FFEE7A1
:102E900022683AB1502080F31188BFF34F8FBFF3FF
:102EA0006F8FFEE78843606000F080F860686968B3
:102EB000084468602046FFF787FE2869401C2861A7
:102EC000BDE8704000F004BA70BD0000680000204A
:102ED0004FF0E02000210161816105494FF47A72D1
:102EE0000968B1FBF2F1491E416107210161704798
:102EF0002800002010B5020014D00F48006B38B134
:102F0000502080F31188BFF34F8FBFF36F8FFEE720
:102F100000F04CF800211046FFF7FAFC00F0D8F959
:102F2000002807D105494FF080500860BFF34F8F4C
:102F3000BFF36F8F10BD00002C00002004ED00E0F7
:102F400010B586B00024039405AA04A903A804942C
:102F5000FFF71CFFDDE903010094CDE90110002318
:102F60000EA11048059A00F014F90F490028C86214
:102F700011D0502080F31188BFF34F8FBFF36F8FB4
:102F80004FF0FF30886201204861CC6006B0BDE898
:102F9000104000F041B806B010BD000049444C4557
:102FA00000000000D12A00082C0000200248016B1C
:102FB000491C0163704700002C0000201448016B7D
:102FC00011B10121C16170470021C1610169B1FAEC
:102FD00081F1C1F11F0101EB81020E4951F822304C
:102FE0006BB101EB820101F108034A6852684A6043
:102FF0009A4201D152684A60D168016070475020FE
:1030000080F31188BFF34F8FBFF36F8FFEE700008F
:103010002C000020C40300201CB537480168374A43
:10302000914207D1502080F31188BFF34F8FBFF337
:103030006F8FFEE700683149491E884207D1502052
:1030400080F31188BFF34F8FBFF36F8FFEE72C49DA
:1030500008780190FF20087008788DF800009DF82E
:1030600000009DF8002000F0F000904207D05020B2
:1030700080F31188BFF34F8FBFF36F8FFEE79DF88A
:103080000000204C00F0500020700720A06005E0F8
:103090009DF8002052008DF80020401E9DF8002071
:1030A0001206F5D4A060032807D0502080F31188C1
:1030B000BFF34F8FBFF36F8FFEE74FF44070A060F8
:1030C000019808700C482030016841F470010160DB
:1030D000016841F070410160FFF7FAFE0020606076
:1030E000FDF782F80848016841F040410160FDF7B2
:1030F00067F800201CBD000000ED00E071C20F4128
:1031000000E400E08800002034EF00E010B550201B
:1031100080F31188BFF34F8FBFF36F8F00F072F809
:1031200018B104494FF080500860002080F31188E6
:1031300010BD000004ED00E02DE9FF5F8346DDE9EE
:103140000E87994616468A469000FFF787FD0500D0
:103150001CD05420FFF782FD040014D0002025630A
:1031600084F85100CDE90240CDE900874B46324654
:1031700051465846FFF7DCFC2046FFF701FC0120D2
:1031800004B0BDE8F09F2846FFF770FE4FF0FF3017
:10319000F6E7F0B585B0DDE90B640A9DA6B1DCB1B8
:1031A000542700972663022684F85160002604AF56
:1031B000CDE90246CDE90057FFF7BAFC2046FFF7FC
:1031C000DFFB049805B0F0BD502080F31188BFF3F9
:1031D0004F8FBFF36F8FFEE7502080F31188BFF34E
:1031E0004F8FBFF36F8FFEE70548416919B1006B40
:1031F00018B100207047012070470220704700007E
:103200002C0000202DE9F0412F4C0026206B28B126
:10321000A069401CA0613046BDE8F081E5686D1CE6
:10322000E56013D1606B006838B1502080F31188DD
:10323000BFF34F8FBFF36F8FFEE7606BA16B6163CE
:10324000A063206A401C2062FFF7E4FCA06ADFF85C
:103250007C80854209D3606B0068A0B1606BC06858
:10326000C7687868854211D2A0622068C06A00EB06
:10327000800158F82100012800D90126E0690028C2
:10328000C9D00126C7E74FF0FF30EDE7381DFFF743
:1032900069FDB86A18B107F11800FFF763FDF96A14
:1032A0000120226988401043206101EB810108EB75
:1032B0008100391DFFF79AFDF86A2168C96A8842C2
:1032C000C9D30126C7E700002C000020C40300205A
:1032D0002DE9F0472C4D00242746286B38B1FFF725
:1032E00091FD286B401E2863286B40B146E05020BA
:1032F00080F31188BFF34F8FBFF36F8FFEE7A9688C
:10330000224E0120D1B3A6F1B40980463068E8B15D
:10331000F068C46804F11800FFF724FD201DFFF7D2
:1033200021FDE06A2A6908FA00F11143296100EBE6
:10333000800109EB8100211DFFF758FDE06A296833
:10334000C96A8842E2D3C5F81C80DFE70CB1FFF7F9
:1033500061FCAC6944B14646FFF754FF00B1EE6131
:10336000641EF9D10020A861E86938B10849012735
:1033700038070860BFF34F8FBFF36F8FFFF762FD11
:103380003846BDE8F08700002C00002078040020BB
:1033900004ED00E028340008811A00080000000055
:1033A000000000008000000000000000000000009D
:1033B00044340008831A00080000000000000000E8
:1033C0000002000000000000000000001C340008A3
:1033D0008B1A00080000000000000000000200003E
:1033E000000000000000000034340008951A0008B6
:1033F00002000000000000000002000000000000C9
:1034000000000000000000000000000001020304B2
:103410000607080900000000010203045461736BF1
:103420005F5253343835000064656661756C7454BE
:1034300061736B005461736B5F5265616453656EB9
:10344000736F72005461736B5F446973706C617960
:103450000000000074340008000000209800000004
:10346000881F00080C350008980000202044000048
:10347000981F00080000000000000000000000008D
:10348000000000000000000000000000000000003C
:103490000100000010000000000000000024F40003
:1034A000000000000000000000000000000000001C
:1034B000000000000000000000000000000000000C
:1034C00000000000000000000000000000000000FC
:1034D00000000000000000000000000000000000EC
:1034E00000000000000000000000000000000000DC
:1034F00000000000000000000000000000000000CC
:0C350000AAAAAAAA000000000000000017
:040000050800018965
:00000001FF
